{
  "_format": "hh-sol-artifact-1",
  "contractName": "Horses",
  "sourceName": "contracts/Horses.sol",
  "abi": [
    {
      "inputs": [],
      "stateMutability": "nonpayable",
      "type": "constructor"
    },
    {
      "anonymous": false,
      "inputs": [
        {
          "indexed": true,
          "internalType": "address",
          "name": "account",
          "type": "address"
        },
        {
          "indexed": true,
          "internalType": "address",
          "name": "operator",
          "type": "address"
        },
        {
          "indexed": false,
          "internalType": "bool",
          "name": "approved",
          "type": "bool"
        }
      ],
      "name": "ApprovalForAll",
      "type": "event"
    },
    {
      "anonymous": false,
      "inputs": [
        {
          "indexed": true,
          "internalType": "address",
          "name": "previousOwner",
          "type": "address"
        },
        {
          "indexed": true,
          "internalType": "address",
          "name": "newOwner",
          "type": "address"
        }
      ],
      "name": "OwnershipTransferred",
      "type": "event"
    },
    {
      "anonymous": false,
      "inputs": [
        {
          "indexed": true,
          "internalType": "address",
          "name": "operator",
          "type": "address"
        },
        {
          "indexed": true,
          "internalType": "address",
          "name": "from",
          "type": "address"
        },
        {
          "indexed": true,
          "internalType": "address",
          "name": "to",
          "type": "address"
        },
        {
          "indexed": false,
          "internalType": "uint256[]",
          "name": "ids",
          "type": "uint256[]"
        },
        {
          "indexed": false,
          "internalType": "uint256[]",
          "name": "values",
          "type": "uint256[]"
        }
      ],
      "name": "TransferBatch",
      "type": "event"
    },
    {
      "anonymous": false,
      "inputs": [
        {
          "indexed": true,
          "internalType": "address",
          "name": "operator",
          "type": "address"
        },
        {
          "indexed": true,
          "internalType": "address",
          "name": "from",
          "type": "address"
        },
        {
          "indexed": true,
          "internalType": "address",
          "name": "to",
          "type": "address"
        },
        {
          "indexed": false,
          "internalType": "uint256",
          "name": "id",
          "type": "uint256"
        },
        {
          "indexed": false,
          "internalType": "uint256",
          "name": "value",
          "type": "uint256"
        }
      ],
      "name": "TransferSingle",
      "type": "event"
    },
    {
      "anonymous": false,
      "inputs": [
        {
          "indexed": false,
          "internalType": "string",
          "name": "value",
          "type": "string"
        },
        {
          "indexed": true,
          "internalType": "uint256",
          "name": "id",
          "type": "uint256"
        }
      ],
      "name": "URI",
      "type": "event"
    },
    {
      "inputs": [
        {
          "internalType": "address",
          "name": "account",
          "type": "address"
        },
        {
          "internalType": "uint256",
          "name": "id",
          "type": "uint256"
        }
      ],
      "name": "balanceOf",
      "outputs": [
        {
          "internalType": "uint256",
          "name": "",
          "type": "uint256"
        }
      ],
      "stateMutability": "view",
      "type": "function"
    },
    {
      "inputs": [
        {
          "internalType": "address[]",
          "name": "accounts",
          "type": "address[]"
        },
        {
          "internalType": "uint256[]",
          "name": "ids",
          "type": "uint256[]"
        }
      ],
      "name": "balanceOfBatch",
      "outputs": [
        {
          "internalType": "uint256[]",
          "name": "",
          "type": "uint256[]"
        }
      ],
      "stateMutability": "view",
      "type": "function"
    },
    {
      "inputs": [
        {
          "internalType": "uint256",
          "name": "tokenId",
          "type": "uint256"
        }
      ],
      "name": "getHorse",
      "outputs": [
        {
          "components": [
            {
              "internalType": "uint256",
              "name": "id",
              "type": "uint256"
            },
            {
              "internalType": "string",
              "name": "uri",
              "type": "string"
            }
          ],
          "internalType": "struct Horses.Horse",
          "name": "",
          "type": "tuple"
        }
      ],
      "stateMutability": "view",
      "type": "function"
    },
    {
      "inputs": [],
      "name": "getHorses",
      "outputs": [
        {
          "components": [
            {
              "internalType": "uint256",
              "name": "id",
              "type": "uint256"
            },
            {
              "internalType": "string",
              "name": "uri",
              "type": "string"
            }
          ],
          "internalType": "struct Horses.Horse[]",
          "name": "",
          "type": "tuple[]"
        }
      ],
      "stateMutability": "view",
      "type": "function"
    },
    {
      "inputs": [],
      "name": "init",
      "outputs": [],
      "stateMutability": "nonpayable",
      "type": "function"
    },
    {
      "inputs": [
        {
          "internalType": "address",
          "name": "account",
          "type": "address"
        },
        {
          "internalType": "address",
          "name": "operator",
          "type": "address"
        }
      ],
      "name": "isApprovedForAll",
      "outputs": [
        {
          "internalType": "bool",
          "name": "",
          "type": "bool"
        }
      ],
      "stateMutability": "view",
      "type": "function"
    },
    {
      "inputs": [
        {
          "internalType": "address",
          "name": "account",
          "type": "address"
        },
        {
          "internalType": "uint256",
          "name": "amount",
          "type": "uint256"
        },
        {
          "internalType": "string",
          "name": "_uri",
          "type": "string"
        }
      ],
      "name": "mintHorse",
      "outputs": [
        {
          "internalType": "uint256",
          "name": "",
          "type": "uint256"
        }
      ],
      "stateMutability": "nonpayable",
      "type": "function"
    },
    {
      "inputs": [],
      "name": "name",
      "outputs": [
        {
          "internalType": "string",
          "name": "",
          "type": "string"
        }
      ],
      "stateMutability": "view",
      "type": "function"
    },
    {
      "inputs": [],
      "name": "owner",
      "outputs": [
        {
          "internalType": "address",
          "name": "",
          "type": "address"
        }
      ],
      "stateMutability": "view",
      "type": "function"
    },
    {
      "inputs": [],
      "name": "renounceOwnership",
      "outputs": [],
      "stateMutability": "nonpayable",
      "type": "function"
    },
    {
      "inputs": [
        {
          "internalType": "uint256",
          "name": "tokenId",
          "type": "uint256"
        },
        {
          "internalType": "uint256",
          "name": "value",
          "type": "uint256"
        }
      ],
      "name": "royaltyInfo",
      "outputs": [
        {
          "internalType": "address",
          "name": "receiver",
          "type": "address"
        },
        {
          "internalType": "uint256",
          "name": "royaltyAmount",
          "type": "uint256"
        }
      ],
      "stateMutability": "view",
      "type": "function"
    },
    {
      "inputs": [
        {
          "internalType": "address",
          "name": "from",
          "type": "address"
        },
        {
          "internalType": "address",
          "name": "to",
          "type": "address"
        },
        {
          "internalType": "uint256[]",
          "name": "ids",
          "type": "uint256[]"
        },
        {
          "internalType": "uint256[]",
          "name": "amounts",
          "type": "uint256[]"
        },
        {
          "internalType": "bytes",
          "name": "data",
          "type": "bytes"
        }
      ],
      "name": "safeBatchTransferFrom",
      "outputs": [],
      "stateMutability": "nonpayable",
      "type": "function"
    },
    {
      "inputs": [
        {
          "internalType": "address",
          "name": "from",
          "type": "address"
        },
        {
          "internalType": "address",
          "name": "to",
          "type": "address"
        },
        {
          "internalType": "uint256",
          "name": "id",
          "type": "uint256"
        },
        {
          "internalType": "uint256",
          "name": "amount",
          "type": "uint256"
        },
        {
          "internalType": "bytes",
          "name": "data",
          "type": "bytes"
        }
      ],
      "name": "safeTransferFrom",
      "outputs": [],
      "stateMutability": "nonpayable",
      "type": "function"
    },
    {
      "inputs": [
        {
          "internalType": "address",
          "name": "operator",
          "type": "address"
        },
        {
          "internalType": "bool",
          "name": "approved",
          "type": "bool"
        }
      ],
      "name": "setApprovalForAll",
      "outputs": [],
      "stateMutability": "nonpayable",
      "type": "function"
    },
    {
      "inputs": [
        {
          "internalType": "string",
          "name": "newUri",
          "type": "string"
        },
        {
          "internalType": "uint256",
          "name": "tokenId",
          "type": "uint256"
        }
      ],
      "name": "setURI",
      "outputs": [],
      "stateMutability": "nonpayable",
      "type": "function"
    },
    {
      "inputs": [
        {
          "internalType": "bytes4",
          "name": "interfaceId",
          "type": "bytes4"
        }
      ],
      "name": "supportsInterface",
      "outputs": [
        {
          "internalType": "bool",
          "name": "",
          "type": "bool"
        }
      ],
      "stateMutability": "view",
      "type": "function"
    },
    {
      "inputs": [],
      "name": "symbol",
      "outputs": [
        {
          "internalType": "string",
          "name": "",
          "type": "string"
        }
      ],
      "stateMutability": "view",
      "type": "function"
    },
    {
      "inputs": [
        {
          "internalType": "address",
          "name": "newOwner",
          "type": "address"
        }
      ],
      "name": "transferOwnership",
      "outputs": [],
      "stateMutability": "nonpayable",
      "type": "function"
    },
    {
      "inputs": [
        {
          "internalType": "uint256",
          "name": "id",
          "type": "uint256"
        }
      ],
      "name": "uri",
      "outputs": [
        {
          "internalType": "string",
          "name": "",
          "type": "string"
        }
      ],
      "stateMutability": "view",
      "type": "function"
    }
  ],
  "bytecode": "0x60e0604052603260808181529062002e4760a03960089062000022908262000895565b5060405180606001604052806035815260200162002e79603591396009906200004c908262000895565b50604080518082019091526005815264173539b7b760d91b6020820152600a9062000078908262000895565b503480156200008657600080fd5b50604080516020810190915260008152620000a1816200011f565b50620000ad3362000131565b60408051808201909152600e81526d416d62617373616427486f72736560901b6020820152600690620000e1908262000895565b50604080518082019091526007808252665a45484f52534560c81b6020830152906200010e908262000895565b506200011962000183565b62000cf5565b60026200012d828262000895565b5050565b600480546001600160a01b038381166001600160a01b0319831681179093556040519116919082907f8be0079c531659141344cd1fd0a4f28419497f9722a3daafe3b4186f6b6457e090600090a35050565b620001ba3360c860086009600a604051602001620001a493929190620009dc565b60408051601f1981840301815291905262000289565b50620001dc33608c60086009600a604051602001620001a49392919062000a15565b50620001fe33609660086009600a604051602001620001a49392919062000a3d565b50620002203360b460086009600a604051602001620001a49392919062000a65565b50620002423360a060086009600a604051602001620001a49392919062000a8d565b50620002643360fa60086009600a604051602001620001a49392919062000ab5565b50620002863360dc60086009600a604051602001620001a49392919062000add565b50565b6000620002956200038b565b620002ac6005620003ed60201b62000b901760201c565b6000620002c56005620003f660201b62000b991760201c565b6040805180820190915281815260208101858152600b8054600181018255600091909152825160029091027f0175b7a638427703f0dbe7bb9bbf987a2551717b34e79f33b5b1008d1fa01db98101918255915193945091927f0175b7a638427703f0dbe7bb9bbf987a2551717b34e79f33b5b1008d1fa01dba909101906200034e908262000895565b5050506200037485828660405180602001604052806000815250620003fa60201b60201c565b6200038381336103e862000518565b949350505050565b6004546001600160a01b03163314620003eb5760405162461bcd60e51b815260206004820181905260248201527f4f776e61626c653a2063616c6c6572206973206e6f7420746865206f776e657260448201526064015b60405180910390fd5b565b80546001019055565b5490565b6001600160a01b0384166200045c5760405162461bcd60e51b815260206004820152602160248201527f455243313135353a206d696e7420746f20746865207a65726f206164647265736044820152607360f81b6064820152608401620003e2565b3360006200046a85620005c3565b905060006200047985620005c3565b90506000868152602081815260408083206001600160a01b038b16845290915281208054879290620004ad90849062000b05565b909155505060408051878152602081018790526001600160a01b03808a1692600092918716917fc3d58168c5ae7397731d063d5bbf3d657854427343f4c083240f7aacaa2d0f62910160405180910390a46200050f8360008989898962000619565b50505050505050565b6127108111156200056c5760405162461bcd60e51b815260206004820152601a60248201527f45524332393831526f79616c746965733a20546f6f20686967680000000000006044820152606401620003e2565b6040805180820182526001600160a01b03938416815262ffffff928316602080830191825260009687526003905291909420935184549151909216600160a01b026001600160b81b03199091169190921617179055565b6040805160018082528183019092526060916000919060208083019080368337019050509050828160008151811062000600576200060062000b2d565b602090810291909101015292915050565b505050505050565b62000638846001600160a01b0316620007e560201b62000b9d1760201c565b15620006115760405163f23a6e6160e01b81526001600160a01b0385169063f23a6e619062000674908990899088908890889060040162000b8b565b6020604051808303816000875af1925050508015620006b2575060408051601f3d908101601f19168201909252620006af9181019062000bd2565b60015b6200077257620006c162000c05565b806308c379a003620007015750620006d862000c51565b80620006e5575062000703565b8060405162461bcd60e51b8152600401620003e2919062000ce0565b505b60405162461bcd60e51b815260206004820152603460248201527f455243313135353a207472616e7366657220746f206e6f6e2d4552433131353560448201527f526563656976657220696d706c656d656e7465720000000000000000000000006064820152608401620003e2565b6001600160e01b0319811663f23a6e6160e01b146200050f5760405162461bcd60e51b815260206004820152602860248201527f455243313135353a204552433131353552656365697665722072656a656374656044820152676420746f6b656e7360c01b6064820152608401620003e2565b6001600160a01b03163b151590565b634e487b7160e01b600052604160045260246000fd5b600181811c908216806200081f57607f821691505b6020821081036200084057634e487b7160e01b600052602260045260246000fd5b50919050565b601f8211156200089057600081815260208120601f850160051c810160208610156200086f5750805b601f850160051c820191505b8181101562000611578281556001016200087b565b505050565b81516001600160401b03811115620008b157620008b1620007f4565b620008c981620008c284546200080a565b8462000846565b602080601f831160018114620009015760008415620008e85750858301515b600019600386901b1c1916600185901b17855562000611565b600085815260208120601f198616915b82811015620009325788860151825594840194600190910190840162000911565b5085821015620009515787850151600019600388901b60f8161c191681555b5050505050600190811b01905550565b6000815462000970816200080a565b600182811680156200098b5760018114620009a157620009d2565b60ff1984168752821515830287019450620009d2565b8560005260208060002060005b85811015620009c95781548a820152908401908201620009ae565b50505082870194505b5050505092915050565b6000620009f5620009ee838762000961565b8562000961565b603160f81b815262000a0b600182018562000961565b9695505050505050565b600062000a27620009ee838762000961565b601960f91b815262000a0b600182018562000961565b600062000a4f620009ee838762000961565b603360f81b815262000a0b600182018562000961565b600062000a77620009ee838762000961565b600d60fa1b815262000a0b600182018562000961565b600062000a9f620009ee838762000961565b603560f81b815262000a0b600182018562000961565b600062000ac7620009ee838762000961565b601b60f91b815262000a0b600182018562000961565b600062000aef620009ee838762000961565b603760f81b815262000a0b600182018562000961565b8082018082111562000b2757634e487b7160e01b600052601160045260246000fd5b92915050565b634e487b7160e01b600052603260045260246000fd5b6000815180845260005b8181101562000b6b5760208185018101518683018201520162000b4d565b506000602082860101526020601f19601f83011685010191505092915050565b6001600160a01b03868116825285166020820152604081018490526060810183905260a06080820181905260009062000bc79083018462000b43565b979650505050505050565b60006020828403121562000be557600080fd5b81516001600160e01b03198116811462000bfe57600080fd5b9392505050565b600060033d111562000c1f5760046000803e5060005160e01c5b90565b601f8201601f191681016001600160401b038111828210171562000c4a5762000c4a620007f4565b6040525050565b600060443d101562000c605790565b6040516003193d81016004833e81513d6001600160401b03808311602484018310171562000c9057505050505090565b828501915081518181111562000ca95750505050505090565b843d870101602082850101111562000cc45750505050505090565b62000cd56020828601018762000c22565b509095945050505050565b60208152600062000bfe602083018462000b43565b6121428062000d056000396000f3fe608060405234801561001057600080fd5b50600436106101205760003560e01c806367db3b8f116100ad578063a22cb46511610071578063a22cb46514610283578063e1c7392a14610296578063e985e9c51461029e578063f242432a146102da578063f2fde38b146102ed57600080fd5b806367db3b8f14610230578063715018a6146102435780638da5cb5b1461024b57806390adec6f1461026657806395d89b411461027b57600080fd5b80630e89341c116100f45780630e89341c146101965780632a55205a146101a95780632eb2c2d6146101db5780634e1273f4146101f05780634f57641c1461021057600080fd5b8062fdd58e1461012557806301ffc9a71461014b57806303d0f90a1461016e57806306fdde0314610181575b600080fd5b6101386101333660046114ee565b610300565b6040519081526020015b60405180910390f35b61015e61015936600461152e565b610399565b6040519015158152602001610142565b61013861017c366004611609565b6103a4565b610189610481565b60405161014291906116a6565b6101896101a43660046116b9565b61050f565b6101bc6101b73660046116d2565b6105c5565b604080516001600160a01b039093168352602083019190915201610142565b6101ee6101e9366004611789565b610623565b005b6102036101fe366004611833565b61066f565b604051610142919061192f565b61022361021e3660046116b9565b610799565b6040516101429190611961565b6101ee61023e366004611974565b61087d565b6101ee6108bb565b6004546040516001600160a01b039091168152602001610142565b61026e6108cf565b60405161014291906119b9565b6101896109ca565b6101ee610291366004611a1b565b6109d7565b6101ee6109e6565b61015e6102ac366004611a57565b6001600160a01b03918216600090815260016020908152604080832093909416825291909152205460ff1690565b6101ee6102e8366004611a8a565b610ad5565b6101ee6102fb366004611aef565b610b1a565b60006001600160a01b0383166103705760405162461bcd60e51b815260206004820152602a60248201527f455243313135353a2061646472657373207a65726f206973206e6f742061207660448201526930b634b21037bbb732b960b11b60648201526084015b60405180910390fd5b506000818152602081815260408083206001600160a01b03861684529091529020545b92915050565b600061039382610bac565b60006103ae610bd1565b6103bc600580546001019055565b60006103c760055490565b6040805180820190915281815260208101858152600b8054600181018255600091909152825160029091027f0175b7a638427703f0dbe7bb9bbf987a2551717b34e79f33b5b1008d1fa01db98101918255915193945091927f0175b7a638427703f0dbe7bb9bbf987a2551717b34e79f33b5b1008d1fa01dba9091019061044e9082611b8a565b50505061046c85828660405180602001604052806000815250610c2b565b61047981336103e8610d3f565b949350505050565b6006805461048e90611b0a565b80601f01602080910402602001604051908101604052809291908181526020018280546104ba90611b0a565b80156105075780601f106104dc57610100808354040283529160200191610507565b820191906000526020600020905b8154815290600101906020018083116104ea57829003601f168201915b505050505081565b6060600b828154811061052457610524611c4a565b9060005260206000209060020201600101805461054090611b0a565b80601f016020809104026020016040519081016040528092919081815260200182805461056c90611b0a565b80156105b95780601f1061058e576101008083540402835291602001916105b9565b820191906000526020600020905b81548152906001019060200180831161059c57829003601f168201915b50505050509050919050565b60008281526003602090815260408083208151808301909252546001600160a01b038116808352600160a01b90910462ffffff1692820183905292916127109061060f9086611c76565b6106199190611c8d565b9150509250929050565b6001600160a01b03851633148061063f575061063f85336102ac565b61065b5760405162461bcd60e51b815260040161036790611caf565b6106688585858585610de8565b5050505050565b606081518351146106d45760405162461bcd60e51b815260206004820152602960248201527f455243313135353a206163636f756e747320616e6420696473206c656e677468604482015268040dad2e6dac2e8c6d60bb1b6064820152608401610367565b6000835167ffffffffffffffff8111156106f0576106f0611552565b604051908082528060200260200182016040528015610719578160200160208202803683370190505b50905060005b84518110156107915761076485828151811061073d5761073d611c4a565b602002602001015185838151811061075757610757611c4a565b6020026020010151610300565b82828151811061077657610776611c4a565b602090810291909101015261078a81611cfd565b905061071f565b509392505050565b604080518082019091526000815260606020820152600b82815481106107c1576107c1611c4a565b9060005260206000209060020201604051806040016040529081600082015481526020016001820180546107f490611b0a565b80601f016020809104026020016040519081016040528092919081815260200182805461082090611b0a565b801561086d5780601f106108425761010080835404028352916020019161086d565b820191906000526020600020905b81548152906001019060200180831161085057829003601f168201915b5050505050815250509050919050565b610885610bd1565b81600b828154811061089957610899611c4a565b906000526020600020906002020160010190816108b69190611b8a565b505050565b6108c3610bd1565b6108cd6000610fc5565b565b6060600b805480602002602001604051908101604052809291908181526020016000905b828210156109c157838290600052602060002090600202016040518060400160405290816000820154815260200160018201805461093090611b0a565b80601f016020809104026020016040519081016040528092919081815260200182805461095c90611b0a565b80156109a95780601f1061097e576101008083540402835291602001916109a9565b820191906000526020600020905b81548152906001019060200180831161098c57829003601f168201915b505050505081525050815260200190600101906108f3565b50505050905090565b6007805461048e90611b0a565b6109e2338383611017565b5050565b610a183360c860086009600a604051602001610a0493929190611d89565b6040516020818303038152906040526103a4565b50610a3733608c60086009600a604051602001610a0493929190611dbc565b50610a5633609660086009600a604051602001610a0493929190611ddf565b50610a753360b460086009600a604051602001610a0493929190611e02565b50610a943360a060086009600a604051602001610a0493929190611e25565b50610ab33360fa60086009600a604051602001610a0493929190611e48565b50610ad23360dc60086009600a604051602001610a0493929190611e6b565b50565b6001600160a01b038516331480610af15750610af185336102ac565b610b0d5760405162461bcd60e51b815260040161036790611caf565b61066885858585856110f7565b610b22610bd1565b6001600160a01b038116610b875760405162461bcd60e51b815260206004820152602660248201527f4f776e61626c653a206e6577206f776e657220697320746865207a65726f206160448201526564647265737360d01b6064820152608401610367565b610ad281610fc5565b80546001019055565b5490565b6001600160a01b03163b151590565b60006001600160e01b0319821663152a902d60e11b1480610393575061039382611221565b6004546001600160a01b031633146108cd5760405162461bcd60e51b815260206004820181905260248201527f4f776e61626c653a2063616c6c6572206973206e6f7420746865206f776e65726044820152606401610367565b6001600160a01b038416610c8b5760405162461bcd60e51b815260206004820152602160248201527f455243313135353a206d696e7420746f20746865207a65726f206164647265736044820152607360f81b6064820152608401610367565b336000610c9785611271565b90506000610ca485611271565b90506000868152602081815260408083206001600160a01b038b16845290915281208054879290610cd6908490611e8e565b909155505060408051878152602081018790526001600160a01b03808a1692600092918716917fc3d58168c5ae7397731d063d5bbf3d657854427343f4c083240f7aacaa2d0f62910160405180910390a4610d36836000898989896112bc565b50505050505050565b612710811115610d915760405162461bcd60e51b815260206004820152601a60248201527f45524332393831526f79616c746965733a20546f6f20686967680000000000006044820152606401610367565b6040805180820182526001600160a01b03938416815262ffffff928316602080830191825260009687526003905291909420935184549151909216600160a01b026001600160b81b03199091169190921617179055565b8151835114610e4a5760405162461bcd60e51b815260206004820152602860248201527f455243313135353a2069647320616e6420616d6f756e7473206c656e677468206044820152670dad2e6dac2e8c6d60c31b6064820152608401610367565b6001600160a01b038416610e705760405162461bcd60e51b815260040161036790611ea1565b3360005b8451811015610f57576000858281518110610e9157610e91611c4a565b602002602001015190506000858381518110610eaf57610eaf611c4a565b602090810291909101810151600084815280835260408082206001600160a01b038e168352909352919091205490915081811015610eff5760405162461bcd60e51b815260040161036790611ee6565b6000838152602081815260408083206001600160a01b038e8116855292528083208585039055908b16825281208054849290610f3c908490611e8e565b9250508190555050505080610f5090611cfd565b9050610e74565b50846001600160a01b0316866001600160a01b0316826001600160a01b03167f4a39dc06d4c0dbc64b70af90fd698a233a518aa5d07e595d983b8c0526c8f7fb8787604051610fa7929190611f30565b60405180910390a4610fbd818787878787611417565b505050505050565b600480546001600160a01b038381166001600160a01b0319831681179093556040519116919082907f8be0079c531659141344cd1fd0a4f28419497f9722a3daafe3b4186f6b6457e090600090a35050565b816001600160a01b0316836001600160a01b03160361108a5760405162461bcd60e51b815260206004820152602960248201527f455243313135353a2073657474696e6720617070726f76616c20737461747573604482015268103337b91039b2b63360b91b6064820152608401610367565b6001600160a01b03838116600081815260016020908152604080832094871680845294825291829020805460ff191686151590811790915591519182527f17307eab39ab6107e8899845ad3d59bd9653f200f220920489ca2b5937696c31910160405180910390a3505050565b6001600160a01b03841661111d5760405162461bcd60e51b815260040161036790611ea1565b33600061112985611271565b9050600061113685611271565b90506000868152602081815260408083206001600160a01b038c168452909152902054858110156111795760405162461bcd60e51b815260040161036790611ee6565b6000878152602081815260408083206001600160a01b038d8116855292528083208985039055908a168252812080548892906111b6908490611e8e565b909155505060408051888152602081018890526001600160a01b03808b16928c821692918816917fc3d58168c5ae7397731d063d5bbf3d657854427343f4c083240f7aacaa2d0f62910160405180910390a4611216848a8a8a8a8a6112bc565b505050505050505050565b60006001600160e01b03198216636cdb3d1360e11b148061125257506001600160e01b031982166303a24d0760e21b145b8061039357506301ffc9a760e01b6001600160e01b0319831614610393565b604080516001808252818301909252606091600091906020808301908036833701905050905082816000815181106112ab576112ab611c4a565b602090810291909101015292915050565b6001600160a01b0384163b15610fbd5760405163f23a6e6160e01b81526001600160a01b0385169063f23a6e61906113009089908990889088908890600401611f5e565b6020604051808303816000875af192505050801561133b575060408051601f3d908101601f1916820190925261133891810190611fa3565b60015b6113e757611347611fc0565b806308c379a003611380575061135b611fdc565b806113665750611382565b8060405162461bcd60e51b815260040161036791906116a6565b505b60405162461bcd60e51b815260206004820152603460248201527f455243313135353a207472616e7366657220746f206e6f6e2d455243313135356044820152732932b1b2b4bb32b91034b6b83632b6b2b73a32b960611b6064820152608401610367565b6001600160e01b0319811663f23a6e6160e01b14610d365760405162461bcd60e51b815260040161036790612066565b6001600160a01b0384163b15610fbd5760405163bc197c8160e01b81526001600160a01b0385169063bc197c819061145b90899089908890889088906004016120ae565b6020604051808303816000875af1925050508015611496575060408051601f3d908101601f1916820190925261149391810190611fa3565b60015b6114a257611347611fc0565b6001600160e01b0319811663bc197c8160e01b14610d365760405162461bcd60e51b815260040161036790612066565b80356001600160a01b03811681146114e957600080fd5b919050565b6000806040838503121561150157600080fd5b61150a836114d2565b946020939093013593505050565b6001600160e01b031981168114610ad257600080fd5b60006020828403121561154057600080fd5b813561154b81611518565b9392505050565b634e487b7160e01b600052604160045260246000fd5b601f8201601f1916810167ffffffffffffffff8111828210171561158e5761158e611552565b6040525050565b600082601f8301126115a657600080fd5b813567ffffffffffffffff8111156115c0576115c0611552565b6040516115d7601f8301601f191660200182611568565b8181528460208386010111156115ec57600080fd5b816020850160208301376000918101602001919091529392505050565b60008060006060848603121561161e57600080fd5b611627846114d2565b925060208401359150604084013567ffffffffffffffff81111561164a57600080fd5b61165686828701611595565b9150509250925092565b6000815180845260005b818110156116865760208185018101518683018201520161166a565b506000602082860101526020601f19601f83011685010191505092915050565b60208152600061154b6020830184611660565b6000602082840312156116cb57600080fd5b5035919050565b600080604083850312156116e557600080fd5b50508035926020909101359150565b600067ffffffffffffffff82111561170e5761170e611552565b5060051b60200190565b600082601f83011261172957600080fd5b81356020611736826116f4565b6040516117438282611568565b83815260059390931b850182019282810191508684111561176357600080fd5b8286015b8481101561177e5780358352918301918301611767565b509695505050505050565b600080600080600060a086880312156117a157600080fd5b6117aa866114d2565b94506117b8602087016114d2565b9350604086013567ffffffffffffffff808211156117d557600080fd5b6117e189838a01611718565b945060608801359150808211156117f757600080fd5b61180389838a01611718565b9350608088013591508082111561181957600080fd5b5061182688828901611595565b9150509295509295909350565b6000806040838503121561184657600080fd5b823567ffffffffffffffff8082111561185e57600080fd5b818501915085601f83011261187257600080fd5b8135602061187f826116f4565b60405161188c8282611568565b83815260059390931b85018201928281019150898411156118ac57600080fd5b948201945b838610156118d1576118c2866114d2565b825294820194908201906118b1565b965050860135925050808211156118e757600080fd5b5061061985828601611718565b600081518084526020808501945080840160005b8381101561192457815187529582019590820190600101611908565b509495945050505050565b60208152600061154b60208301846118f4565b8051825260006020820151604060208501526104796040850182611660565b60208152600061154b6020830184611942565b6000806040838503121561198757600080fd5b823567ffffffffffffffff81111561199e57600080fd5b6119aa85828601611595565b95602094909401359450505050565b6000602080830181845280855180835260408601915060408160051b870101925083870160005b82811015611a0e57603f198886030184526119fc858351611942565b945092850192908501906001016119e0565b5092979650505050505050565b60008060408385031215611a2e57600080fd5b611a37836114d2565b915060208301358015158114611a4c57600080fd5b809150509250929050565b60008060408385031215611a6a57600080fd5b611a73836114d2565b9150611a81602084016114d2565b90509250929050565b600080600080600060a08688031215611aa257600080fd5b611aab866114d2565b9450611ab9602087016114d2565b93506040860135925060608601359150608086013567ffffffffffffffff811115611ae357600080fd5b61182688828901611595565b600060208284031215611b0157600080fd5b61154b826114d2565b600181811c90821680611b1e57607f821691505b602082108103611b3e57634e487b7160e01b600052602260045260246000fd5b50919050565b601f8211156108b657600081815260208120601f850160051c81016020861015611b6b5750805b601f850160051c820191505b81811015610fbd57828155600101611b77565b815167ffffffffffffffff811115611ba457611ba4611552565b611bb881611bb28454611b0a565b84611b44565b602080601f831160018114611bed5760008415611bd55750858301515b600019600386901b1c1916600185901b178555610fbd565b600085815260208120601f198616915b82811015611c1c57888601518255948401946001909101908401611bfd565b5085821015611c3a5787850151600019600388901b60f8161c191681555b5050505050600190811b01905550565b634e487b7160e01b600052603260045260246000fd5b634e487b7160e01b600052601160045260246000fd5b808202811582820484141761039357610393611c60565b600082611caa57634e487b7160e01b600052601260045260246000fd5b500490565b6020808252602e908201527f455243313135353a2063616c6c6572206973206e6f7420746f6b656e206f776e60408201526d195c881bdc88185c1c1c9bdd995960921b606082015260800190565b600060018201611d0f57611d0f611c60565b5060010190565b60008154611d2381611b0a565b60018281168015611d3b5760018114611d5057611d7f565b60ff1984168752821515830287019450611d7f565b8560005260208060002060005b85811015611d765781548a820152908401908201611d5d565b50505082870194505b5050505092915050565b6000611d9e611d988387611d16565b85611d16565b603160f81b8152611db26001820185611d16565b9695505050505050565b6000611dcb611d988387611d16565b601960f91b8152611db26001820185611d16565b6000611dee611d988387611d16565b603360f81b8152611db26001820185611d16565b6000611e11611d988387611d16565b600d60fa1b8152611db26001820185611d16565b6000611e34611d988387611d16565b603560f81b8152611db26001820185611d16565b6000611e57611d988387611d16565b601b60f91b8152611db26001820185611d16565b6000611e7a611d988387611d16565b603760f81b8152611db26001820185611d16565b8082018082111561039357610393611c60565b60208082526025908201527f455243313135353a207472616e7366657220746f20746865207a65726f206164604082015264647265737360d81b606082015260800190565b6020808252602a908201527f455243313135353a20696e73756666696369656e742062616c616e636520666f60408201526939103a3930b739b332b960b11b606082015260800190565b604081526000611f4360408301856118f4565b8281036020840152611f5581856118f4565b95945050505050565b6001600160a01b03868116825285166020820152604081018490526060810183905260a060808201819052600090611f9890830184611660565b979650505050505050565b600060208284031215611fb557600080fd5b815161154b81611518565b600060033d1115611fd95760046000803e5060005160e01c5b90565b600060443d1015611fea5790565b6040516003193d81016004833e81513d67ffffffffffffffff816024840111818411171561201a57505050505090565b82850191508151818111156120325750505050505090565b843d870101602082850101111561204c5750505050505090565b61205b60208286010187611568565b509095945050505050565b60208082526028908201527f455243313135353a204552433131353552656365697665722072656a656374656040820152676420746f6b656e7360c01b606082015260800190565b6001600160a01b0386811682528516602082015260a0604082018190526000906120da908301866118f4565b82810360608401526120ec81866118f4565b905082810360808401526121008185611660565b9897505050505050505056fea2646970667358221220b53e1fabfba131c328181c8fc2c261e443f944c52d1ea174feef1de4d878ea1964736f6c6343000811003368747470733a2f2f677261792d6f63636173696f6e616c2d66697265666c792d3639332e6d7970696e6174612e636c6f75642f697066732f516d504b4c72714c4851517a466e58546437474b35455773716b35614878646f4269396e364a6e647832537436742f",
  "linkReferences": {},
  "deployedLinkReferences": {}
}