{
  "_format": "hh-sol-artifact-1",
  "contractName": "Horses",
  "sourceName": "contracts/Horses.sol",
  "abi": [
    {
      "inputs": [],
      "stateMutability": "nonpayable",
      "type": "constructor"
    },
    {
      "anonymous": false,
      "inputs": [
        {
          "indexed": true,
          "internalType": "address",
          "name": "account",
          "type": "address"
        },
        {
          "indexed": true,
          "internalType": "address",
          "name": "operator",
          "type": "address"
        },
        {
          "indexed": false,
          "internalType": "bool",
          "name": "approved",
          "type": "bool"
        }
      ],
      "name": "ApprovalForAll",
      "type": "event"
    },
    {
      "anonymous": false,
      "inputs": [
        {
          "indexed": true,
          "internalType": "address",
          "name": "previousOwner",
          "type": "address"
        },
        {
          "indexed": true,
          "internalType": "address",
          "name": "newOwner",
          "type": "address"
        }
      ],
      "name": "OwnershipTransferred",
      "type": "event"
    },
    {
      "anonymous": false,
      "inputs": [
        {
          "indexed": true,
          "internalType": "address",
          "name": "operator",
          "type": "address"
        },
        {
          "indexed": true,
          "internalType": "address",
          "name": "from",
          "type": "address"
        },
        {
          "indexed": true,
          "internalType": "address",
          "name": "to",
          "type": "address"
        },
        {
          "indexed": false,
          "internalType": "uint256[]",
          "name": "ids",
          "type": "uint256[]"
        },
        {
          "indexed": false,
          "internalType": "uint256[]",
          "name": "values",
          "type": "uint256[]"
        }
      ],
      "name": "TransferBatch",
      "type": "event"
    },
    {
      "anonymous": false,
      "inputs": [
        {
          "indexed": true,
          "internalType": "address",
          "name": "operator",
          "type": "address"
        },
        {
          "indexed": true,
          "internalType": "address",
          "name": "from",
          "type": "address"
        },
        {
          "indexed": true,
          "internalType": "address",
          "name": "to",
          "type": "address"
        },
        {
          "indexed": false,
          "internalType": "uint256",
          "name": "id",
          "type": "uint256"
        },
        {
          "indexed": false,
          "internalType": "uint256",
          "name": "value",
          "type": "uint256"
        }
      ],
      "name": "TransferSingle",
      "type": "event"
    },
    {
      "anonymous": false,
      "inputs": [
        {
          "indexed": false,
          "internalType": "string",
          "name": "value",
          "type": "string"
        },
        {
          "indexed": true,
          "internalType": "uint256",
          "name": "id",
          "type": "uint256"
        }
      ],
      "name": "URI",
      "type": "event"
    },
    {
      "inputs": [
        {
          "internalType": "address",
          "name": "account",
          "type": "address"
        },
        {
          "internalType": "uint256",
          "name": "id",
          "type": "uint256"
        }
      ],
      "name": "balanceOf",
      "outputs": [
        {
          "internalType": "uint256",
          "name": "",
          "type": "uint256"
        }
      ],
      "stateMutability": "view",
      "type": "function"
    },
    {
      "inputs": [
        {
          "internalType": "address[]",
          "name": "accounts",
          "type": "address[]"
        },
        {
          "internalType": "uint256[]",
          "name": "ids",
          "type": "uint256[]"
        }
      ],
      "name": "balanceOfBatch",
      "outputs": [
        {
          "internalType": "uint256[]",
          "name": "",
          "type": "uint256[]"
        }
      ],
      "stateMutability": "view",
      "type": "function"
    },
    {
      "inputs": [
        {
          "internalType": "uint256",
          "name": "tokenId",
          "type": "uint256"
        }
      ],
      "name": "getHorse",
      "outputs": [
        {
          "components": [
            {
              "internalType": "uint256",
              "name": "id",
              "type": "uint256"
            },
            {
              "internalType": "string",
              "name": "name",
              "type": "string"
            },
            {
              "internalType": "string",
              "name": "uri",
              "type": "string"
            }
          ],
          "internalType": "struct Horses.Horse",
          "name": "",
          "type": "tuple"
        }
      ],
      "stateMutability": "view",
      "type": "function"
    },
    {
      "inputs": [],
      "name": "getHorses",
      "outputs": [
        {
          "components": [
            {
              "internalType": "uint256",
              "name": "id",
              "type": "uint256"
            },
            {
              "internalType": "string",
              "name": "name",
              "type": "string"
            },
            {
              "internalType": "string",
              "name": "uri",
              "type": "string"
            }
          ],
          "internalType": "struct Horses.Horse[]",
          "name": "",
          "type": "tuple[]"
        }
      ],
      "stateMutability": "view",
      "type": "function"
    },
    {
      "inputs": [],
      "name": "init",
      "outputs": [],
      "stateMutability": "nonpayable",
      "type": "function"
    },
    {
      "inputs": [
        {
          "internalType": "address",
          "name": "account",
          "type": "address"
        },
        {
          "internalType": "address",
          "name": "operator",
          "type": "address"
        }
      ],
      "name": "isApprovedForAll",
      "outputs": [
        {
          "internalType": "bool",
          "name": "",
          "type": "bool"
        }
      ],
      "stateMutability": "view",
      "type": "function"
    },
    {
      "inputs": [
        {
          "internalType": "address",
          "name": "account",
          "type": "address"
        },
        {
          "internalType": "uint256",
          "name": "amount",
          "type": "uint256"
        },
        {
          "internalType": "string",
          "name": "_name",
          "type": "string"
        },
        {
          "internalType": "string",
          "name": "_uri",
          "type": "string"
        }
      ],
      "name": "mintHorse",
      "outputs": [
        {
          "internalType": "uint256",
          "name": "",
          "type": "uint256"
        }
      ],
      "stateMutability": "nonpayable",
      "type": "function"
    },
    {
      "inputs": [],
      "name": "name",
      "outputs": [
        {
          "internalType": "string",
          "name": "",
          "type": "string"
        }
      ],
      "stateMutability": "view",
      "type": "function"
    },
    {
      "inputs": [],
      "name": "owner",
      "outputs": [
        {
          "internalType": "address",
          "name": "",
          "type": "address"
        }
      ],
      "stateMutability": "view",
      "type": "function"
    },
    {
      "inputs": [],
      "name": "renounceOwnership",
      "outputs": [],
      "stateMutability": "nonpayable",
      "type": "function"
    },
    {
      "inputs": [
        {
          "internalType": "uint256",
          "name": "tokenId",
          "type": "uint256"
        },
        {
          "internalType": "uint256",
          "name": "value",
          "type": "uint256"
        }
      ],
      "name": "royaltyInfo",
      "outputs": [
        {
          "internalType": "address",
          "name": "receiver",
          "type": "address"
        },
        {
          "internalType": "uint256",
          "name": "royaltyAmount",
          "type": "uint256"
        }
      ],
      "stateMutability": "view",
      "type": "function"
    },
    {
      "inputs": [
        {
          "internalType": "address",
          "name": "from",
          "type": "address"
        },
        {
          "internalType": "address",
          "name": "to",
          "type": "address"
        },
        {
          "internalType": "uint256[]",
          "name": "ids",
          "type": "uint256[]"
        },
        {
          "internalType": "uint256[]",
          "name": "amounts",
          "type": "uint256[]"
        },
        {
          "internalType": "bytes",
          "name": "data",
          "type": "bytes"
        }
      ],
      "name": "safeBatchTransferFrom",
      "outputs": [],
      "stateMutability": "nonpayable",
      "type": "function"
    },
    {
      "inputs": [
        {
          "internalType": "address",
          "name": "from",
          "type": "address"
        },
        {
          "internalType": "address",
          "name": "to",
          "type": "address"
        },
        {
          "internalType": "uint256",
          "name": "id",
          "type": "uint256"
        },
        {
          "internalType": "uint256",
          "name": "amount",
          "type": "uint256"
        },
        {
          "internalType": "bytes",
          "name": "data",
          "type": "bytes"
        }
      ],
      "name": "safeTransferFrom",
      "outputs": [],
      "stateMutability": "nonpayable",
      "type": "function"
    },
    {
      "inputs": [
        {
          "internalType": "address",
          "name": "operator",
          "type": "address"
        },
        {
          "internalType": "bool",
          "name": "approved",
          "type": "bool"
        }
      ],
      "name": "setApprovalForAll",
      "outputs": [],
      "stateMutability": "nonpayable",
      "type": "function"
    },
    {
      "inputs": [
        {
          "internalType": "string",
          "name": "newUri",
          "type": "string"
        },
        {
          "internalType": "uint256",
          "name": "tokenId",
          "type": "uint256"
        }
      ],
      "name": "setURI",
      "outputs": [],
      "stateMutability": "nonpayable",
      "type": "function"
    },
    {
      "inputs": [
        {
          "internalType": "bytes4",
          "name": "interfaceId",
          "type": "bytes4"
        }
      ],
      "name": "supportsInterface",
      "outputs": [
        {
          "internalType": "bool",
          "name": "",
          "type": "bool"
        }
      ],
      "stateMutability": "view",
      "type": "function"
    },
    {
      "inputs": [],
      "name": "symbol",
      "outputs": [
        {
          "internalType": "string",
          "name": "",
          "type": "string"
        }
      ],
      "stateMutability": "view",
      "type": "function"
    },
    {
      "inputs": [
        {
          "internalType": "address",
          "name": "newOwner",
          "type": "address"
        }
      ],
      "name": "transferOwnership",
      "outputs": [],
      "stateMutability": "nonpayable",
      "type": "function"
    },
    {
      "inputs": [
        {
          "internalType": "uint256",
          "name": "tokenId",
          "type": "uint256"
        }
      ],
      "name": "uri",
      "outputs": [
        {
          "internalType": "string",
          "name": "",
          "type": "string"
        }
      ],
      "stateMutability": "view",
      "type": "function"
    }
  ],
  "bytecode": "0x60806040523480156200001157600080fd5b506040805160208101909152600081526200002c81620000a0565b506200003833620000b2565b60408051808201909152600e81526d416d62617373616427486f72736560901b60208201526006906200006c9082620001a9565b50604080518082019091526007808252665a45484f52534560c81b602083015290620000999082620001a9565b5062000275565b6002620000ae8282620001a9565b5050565b600480546001600160a01b038381166001600160a01b0319831681179093556040519116919082907f8be0079c531659141344cd1fd0a4f28419497f9722a3daafe3b4186f6b6457e090600090a35050565b634e487b7160e01b600052604160045260246000fd5b600181811c908216806200012f57607f821691505b6020821081036200015057634e487b7160e01b600052602260045260246000fd5b50919050565b601f821115620001a457600081815260208120601f850160051c810160208610156200017f5750805b601f850160051c820191505b81811015620001a0578281556001016200018b565b5050505b505050565b81516001600160401b03811115620001c557620001c562000104565b620001dd81620001d684546200011a565b8462000156565b602080601f831160018114620002155760008415620001fc5750858301515b600019600386901b1c1916600185901b178555620001a0565b600085815260208120601f198616915b82811015620002465788860151825594840194600190910190840162000225565b5085821015620002655787850151600019600388901b60f8161c191681555b5050505050600190811b01905550565b6121a380620002856000396000f3fe608060405234801561001057600080fd5b50600436106101205760003560e01c8063715018a6116100ad578063a22cb46511610071578063a22cb46514610283578063e1c7392a14610296578063e985e9c51461029e578063f242432a146102da578063f2fde38b146102ed57600080fd5b8063715018a61461023057806386a62155146102385780638da5cb5b1461024b57806390adec6f1461026657806395d89b411461027b57600080fd5b80632a55205a116100f45780632a55205a146101965780632eb2c2d6146101c85780634e1273f4146101dd5780634f57641c146101fd57806367db3b8f1461021d57600080fd5b8062fdd58e1461012557806301ffc9a71461014b57806306fdde031461016e5780630e89341c14610183575b600080fd5b6101386101333660046115c4565b610300565b6040519081526020015b60405180910390f35b61015e610159366004611604565b610399565b6040519015158152602001610142565b6101766103a4565b604051610142919061166e565b610176610191366004611681565b610432565b6101a96101a436600461169a565b6104e8565b604080516001600160a01b039093168352602083019190915201610142565b6101db6101d6366004611808565b610546565b005b6101f06101eb3660046118b2565b610592565b60405161014291906119ae565b61021061020b366004611681565b6106bc565b60405161014291906119f9565b6101db61022b366004611a0c565b610841565b6101db61087f565b610138610246366004611a51565b610893565b6004546040516001600160a01b039091168152602001610142565b61026e61098c565b6040516101429190611acf565b610176610b19565b6101db610291366004611b31565b610b26565b6101db610b35565b61015e6102ac366004611b6d565b6001600160a01b03918216600090815260016020908152604080832093909416825291909152205460ff1690565b6101db6102e8366004611ba0565b610bc7565b6101db6102fb366004611c05565b610c0c565b60006001600160a01b0383166103705760405162461bcd60e51b815260206004820152602a60248201527f455243313135353a2061646472657373207a65726f206973206e6f742061207660448201526930b634b21037bbb732b960b11b60648201526084015b60405180910390fd5b506000818152602081815260408083206001600160a01b03861684529091529020545b92915050565b600061039382610c82565b600680546103b190611c20565b80601f01602080910402602001604051908101604052809291908181526020018280546103dd90611c20565b801561042a5780601f106103ff5761010080835404028352916020019161042a565b820191906000526020600020905b81548152906001019060200180831161040d57829003601f168201915b505050505081565b60606008828154811061044757610447611c5a565b9060005260206000209060030201600201805461046390611c20565b80601f016020809104026020016040519081016040528092919081815260200182805461048f90611c20565b80156104dc5780601f106104b1576101008083540402835291602001916104dc565b820191906000526020600020905b8154815290600101906020018083116104bf57829003601f168201915b50505050509050919050565b60008281526003602090815260408083208151808301909252546001600160a01b038116808352600160a01b90910462ffffff169282018390529291612710906105329086611c86565b61053c9190611c9d565b9150509250929050565b6001600160a01b038516331480610562575061056285336102ac565b61057e5760405162461bcd60e51b815260040161036790611cbf565b61058b8585858585610ca7565b5050505050565b606081518351146105f75760405162461bcd60e51b815260206004820152602960248201527f455243313135353a206163636f756e747320616e6420696473206c656e677468604482015268040dad2e6dac2e8c6d60bb1b6064820152608401610367565b6000835167ffffffffffffffff811115610613576106136116bc565b60405190808252806020026020018201604052801561063c578160200160208202803683370190505b50905060005b84518110156106b45761068785828151811061066057610660611c5a565b602002602001015185838151811061067a5761067a611c5a565b6020026020010151610300565b82828151811061069957610699611c5a565b60209081029190910101526106ad81611d0d565b9050610642565b509392505050565b6106e060405180606001604052806000815260200160608152602001606081525090565b600882815481106106f3576106f3611c5a565b90600052602060002090600302016040518060600160405290816000820154815260200160018201805461072690611c20565b80601f016020809104026020016040519081016040528092919081815260200182805461075290611c20565b801561079f5780601f106107745761010080835404028352916020019161079f565b820191906000526020600020905b81548152906001019060200180831161078257829003601f168201915b505050505081526020016002820180546107b890611c20565b80601f01602080910402602001604051908101604052809291908181526020018280546107e490611c20565b80156108315780601f1061080657610100808354040283529160200191610831565b820191906000526020600020905b81548152906001019060200180831161081457829003601f168201915b5050505050815250509050919050565b610849610e84565b816008828154811061085d5761085d611c5a565b9060005260206000209060030201600201908161087a9190611d6c565b505050565b610887610e84565b6108916000610ede565b565b600061089d610e84565b6108ab600580546001019055565b60006108b660055490565b604080516060810182528281526020810187815291810186905260088054600181018255600091909152815160039091027ff3f7a9fe364faab93b216da50a3214154f22a0a2b415b23a84c8169e8b636ee381019182559251939450909290917ff3f7a9fe364faab93b216da50a3214154f22a0a2b415b23a84c8169e8b636ee401906109439082611d6c565b50604082015160028201906109589082611d6c565b50505061097686828760405180602001604052806000815250610f30565b61098381336103e8611044565b95945050505050565b60606008805480602002602001604051908101604052809291908181526020016000905b82821015610b105783829060005260206000209060030201604051806060016040529081600082015481526020016001820180546109ed90611c20565b80601f0160208091040260200160405190810160405280929190818152602001828054610a1990611c20565b8015610a665780601f10610a3b57610100808354040283529160200191610a66565b820191906000526020600020905b815481529060010190602001808311610a4957829003601f168201915b50505050508152602001600282018054610a7f90611c20565b80601f0160208091040260200160405190810160405280929190818152602001828054610aab90611c20565b8015610af85780601f10610acd57610100808354040283529160200191610af8565b820191906000526020600020905b815481529060010190602001808311610adb57829003601f168201915b505050505081525050815260200190600101906109b0565b50505050905090565b600780546103b190611c20565b610b313383836110ed565b5050565b610b7d33621e848060405180604001604052806009815260200168506172697369656e7360b81b8152506040518060a001604052806066815260200161210860669139610893565b50610bc4336001604051806040016040528060098152602001682337b936b0ba32bab960b91b8152506040518060a00160405280606681526020016120a260669139610893565b50565b6001600160a01b038516331480610be35750610be385336102ac565b610bff5760405162461bcd60e51b815260040161036790611cbf565b61058b85858585856111cd565b610c14610e84565b6001600160a01b038116610c795760405162461bcd60e51b815260206004820152602660248201527f4f776e61626c653a206e6577206f776e657220697320746865207a65726f206160448201526564647265737360d01b6064820152608401610367565b610bc481610ede565b60006001600160e01b0319821663152a902d60e11b14806103935750610393826112f7565b8151835114610d095760405162461bcd60e51b815260206004820152602860248201527f455243313135353a2069647320616e6420616d6f756e7473206c656e677468206044820152670dad2e6dac2e8c6d60c31b6064820152608401610367565b6001600160a01b038416610d2f5760405162461bcd60e51b815260040161036790611e2c565b3360005b8451811015610e16576000858281518110610d5057610d50611c5a565b602002602001015190506000858381518110610d6e57610d6e611c5a565b602090810291909101810151600084815280835260408082206001600160a01b038e168352909352919091205490915081811015610dbe5760405162461bcd60e51b815260040161036790611e71565b6000838152602081815260408083206001600160a01b038e8116855292528083208585039055908b16825281208054849290610dfb908490611ebb565b9250508190555050505080610e0f90611d0d565b9050610d33565b50846001600160a01b0316866001600160a01b0316826001600160a01b03167f4a39dc06d4c0dbc64b70af90fd698a233a518aa5d07e595d983b8c0526c8f7fb8787604051610e66929190611ece565b60405180910390a4610e7c818787878787611347565b505050505050565b6004546001600160a01b031633146108915760405162461bcd60e51b815260206004820181905260248201527f4f776e61626c653a2063616c6c6572206973206e6f7420746865206f776e65726044820152606401610367565b600480546001600160a01b038381166001600160a01b0319831681179093556040519116919082907f8be0079c531659141344cd1fd0a4f28419497f9722a3daafe3b4186f6b6457e090600090a35050565b6001600160a01b038416610f905760405162461bcd60e51b815260206004820152602160248201527f455243313135353a206d696e7420746f20746865207a65726f206164647265736044820152607360f81b6064820152608401610367565b336000610f9c856114a2565b90506000610fa9856114a2565b90506000868152602081815260408083206001600160a01b038b16845290915281208054879290610fdb908490611ebb565b909155505060408051878152602081018790526001600160a01b03808a1692600092918716917fc3d58168c5ae7397731d063d5bbf3d657854427343f4c083240f7aacaa2d0f62910160405180910390a461103b836000898989896114ed565b50505050505050565b6127108111156110965760405162461bcd60e51b815260206004820152601a60248201527f45524332393831526f79616c746965733a20546f6f20686967680000000000006044820152606401610367565b6040805180820182526001600160a01b03938416815262ffffff928316602080830191825260009687526003905291909420935184549151909216600160a01b026001600160b81b03199091169190921617179055565b816001600160a01b0316836001600160a01b0316036111605760405162461bcd60e51b815260206004820152602960248201527f455243313135353a2073657474696e6720617070726f76616c20737461747573604482015268103337b91039b2b63360b91b6064820152608401610367565b6001600160a01b03838116600081815260016020908152604080832094871680845294825291829020805460ff191686151590811790915591519182527f17307eab39ab6107e8899845ad3d59bd9653f200f220920489ca2b5937696c31910160405180910390a3505050565b6001600160a01b0384166111f35760405162461bcd60e51b815260040161036790611e2c565b3360006111ff856114a2565b9050600061120c856114a2565b90506000868152602081815260408083206001600160a01b038c1684529091529020548581101561124f5760405162461bcd60e51b815260040161036790611e71565b6000878152602081815260408083206001600160a01b038d8116855292528083208985039055908a1682528120805488929061128c908490611ebb565b909155505060408051888152602081018890526001600160a01b03808b16928c821692918816917fc3d58168c5ae7397731d063d5bbf3d657854427343f4c083240f7aacaa2d0f62910160405180910390a46112ec848a8a8a8a8a6114ed565b505050505050505050565b60006001600160e01b03198216636cdb3d1360e11b148061132857506001600160e01b031982166303a24d0760e21b145b8061039357506301ffc9a760e01b6001600160e01b0319831614610393565b6001600160a01b0384163b15610e7c5760405163bc197c8160e01b81526001600160a01b0385169063bc197c819061138b9089908990889088908890600401611ef3565b6020604051808303816000875af19250505080156113c6575060408051601f3d908101601f191682019092526113c391810190611f51565b60015b611472576113d2611f6e565b806308c379a00361140b57506113e6611f8a565b806113f1575061140d565b8060405162461bcd60e51b8152600401610367919061166e565b505b60405162461bcd60e51b815260206004820152603460248201527f455243313135353a207472616e7366657220746f206e6f6e2d455243313135356044820152732932b1b2b4bb32b91034b6b83632b6b2b73a32b960611b6064820152608401610367565b6001600160e01b0319811663bc197c8160e01b1461103b5760405162461bcd60e51b815260040161036790612014565b604080516001808252818301909252606091600091906020808301908036833701905050905082816000815181106114dc576114dc611c5a565b602090810291909101015292915050565b6001600160a01b0384163b15610e7c5760405163f23a6e6160e01b81526001600160a01b0385169063f23a6e6190611531908990899088908890889060040161205c565b6020604051808303816000875af192505050801561156c575060408051601f3d908101601f1916820190925261156991810190611f51565b60015b611578576113d2611f6e565b6001600160e01b0319811663f23a6e6160e01b1461103b5760405162461bcd60e51b815260040161036790612014565b80356001600160a01b03811681146115bf57600080fd5b919050565b600080604083850312156115d757600080fd5b6115e0836115a8565b946020939093013593505050565b6001600160e01b031981168114610bc457600080fd5b60006020828403121561161657600080fd5b8135611621816115ee565b9392505050565b6000815180845260005b8181101561164e57602081850181015186830182015201611632565b506000602082860101526020601f19601f83011685010191505092915050565b6020815260006116216020830184611628565b60006020828403121561169357600080fd5b5035919050565b600080604083850312156116ad57600080fd5b50508035926020909101359150565b634e487b7160e01b600052604160045260246000fd5b601f8201601f1916810167ffffffffffffffff811182821017156116f8576116f86116bc565b6040525050565b600067ffffffffffffffff821115611719576117196116bc565b5060051b60200190565b600082601f83011261173457600080fd5b81356020611741826116ff565b60405161174e82826116d2565b83815260059390931b850182019282810191508684111561176e57600080fd5b8286015b848110156117895780358352918301918301611772565b509695505050505050565b600082601f8301126117a557600080fd5b813567ffffffffffffffff8111156117bf576117bf6116bc565b6040516117d6601f8301601f1916602001826116d2565b8181528460208386010111156117eb57600080fd5b816020850160208301376000918101602001919091529392505050565b600080600080600060a0868803121561182057600080fd5b611829866115a8565b9450611837602087016115a8565b9350604086013567ffffffffffffffff8082111561185457600080fd5b61186089838a01611723565b9450606088013591508082111561187657600080fd5b61188289838a01611723565b9350608088013591508082111561189857600080fd5b506118a588828901611794565b9150509295509295909350565b600080604083850312156118c557600080fd5b823567ffffffffffffffff808211156118dd57600080fd5b818501915085601f8301126118f157600080fd5b813560206118fe826116ff565b60405161190b82826116d2565b83815260059390931b850182019282810191508984111561192b57600080fd5b948201945b8386101561195057611941866115a8565b82529482019490820190611930565b9650508601359250508082111561196657600080fd5b5061053c85828601611723565b600081518084526020808501945080840160005b838110156119a357815187529582019590820190600101611987565b509495945050505050565b6020815260006116216020830184611973565b8051825260006020820151606060208501526119e06060850182611628565b9050604083015184820360408601526109838282611628565b60208152600061162160208301846119c1565b60008060408385031215611a1f57600080fd5b823567ffffffffffffffff811115611a3657600080fd5b611a4285828601611794565b95602094909401359450505050565b60008060008060808587031215611a6757600080fd5b611a70856115a8565b935060208501359250604085013567ffffffffffffffff80821115611a9457600080fd5b611aa088838901611794565b93506060870135915080821115611ab657600080fd5b50611ac387828801611794565b91505092959194509250565b6000602080830181845280855180835260408601915060408160051b870101925083870160005b82811015611b2457603f19888603018452611b128583516119c1565b94509285019290850190600101611af6565b5092979650505050505050565b60008060408385031215611b4457600080fd5b611b4d836115a8565b915060208301358015158114611b6257600080fd5b809150509250929050565b60008060408385031215611b8057600080fd5b611b89836115a8565b9150611b97602084016115a8565b90509250929050565b600080600080600060a08688031215611bb857600080fd5b611bc1866115a8565b9450611bcf602087016115a8565b93506040860135925060608601359150608086013567ffffffffffffffff811115611bf957600080fd5b6118a588828901611794565b600060208284031215611c1757600080fd5b611621826115a8565b600181811c90821680611c3457607f821691505b602082108103611c5457634e487b7160e01b600052602260045260246000fd5b50919050565b634e487b7160e01b600052603260045260246000fd5b634e487b7160e01b600052601160045260246000fd5b808202811582820484141761039357610393611c70565b600082611cba57634e487b7160e01b600052601260045260246000fd5b500490565b6020808252602e908201527f455243313135353a2063616c6c6572206973206e6f7420746f6b656e206f776e60408201526d195c881bdc88185c1c1c9bdd995960921b606082015260800190565b600060018201611d1f57611d1f611c70565b5060010190565b601f82111561087a57600081815260208120601f850160051c81016020861015611d4d5750805b601f850160051c820191505b81811015610e7c57828155600101611d59565b815167ffffffffffffffff811115611d8657611d866116bc565b611d9a81611d948454611c20565b84611d26565b602080601f831160018114611dcf5760008415611db75750858301515b600019600386901b1c1916600185901b178555610e7c565b600085815260208120601f198616915b82811015611dfe57888601518255948401946001909101908401611ddf565b5085821015611e1c5787850151600019600388901b60f8161c191681555b5050505050600190811b01905550565b60208082526025908201527f455243313135353a207472616e7366657220746f20746865207a65726f206164604082015264647265737360d81b606082015260800190565b6020808252602a908201527f455243313135353a20696e73756666696369656e742062616c616e636520666f60408201526939103a3930b739b332b960b11b606082015260800190565b8082018082111561039357610393611c70565b604081526000611ee16040830185611973565b82810360208401526109838185611973565b6001600160a01b0386811682528516602082015260a060408201819052600090611f1f90830186611973565b8281036060840152611f318186611973565b90508281036080840152611f458185611628565b98975050505050505050565b600060208284031215611f6357600080fd5b8151611621816115ee565b600060033d1115611f875760046000803e5060005160e01c5b90565b600060443d1015611f985790565b6040516003193d81016004833e81513d67ffffffffffffffff8160248401118184111715611fc857505050505090565b8285019150815181811115611fe05750505050505090565b843d8701016020828501011115611ffa5750505050505090565b612009602082860101876116d2565b509095945050505050565b60208082526028908201527f455243313135353a204552433131353552656365697665722072656a656374656040820152676420746f6b656e7360c01b606082015260800190565b6001600160a01b03868116825285166020820152604081018490526060810183905260a06080820181905260009061209690830184611628565b97965050505050505056fe68747470733a2f2f677261792d6f63636173696f6e616c2d66697265666c792d3639332e6d7970696e6174612e636c6f75642f697066732f516d506a4a796a4155756d52544679435a634a6342634e4c6a79655a7434517936396741386847544d346659764868747470733a2f2f677261792d6f63636173696f6e616c2d66697265666c792d3639332e6d7970696e6174612e636c6f75642f697066732f516d65784552384567716343324277697639576244576656344a5a626d53733139527159657236664b686f455177a26469706673582212201b77b028035d147fbd4c2f11f679eefed249c026bd69b67d06df11bbf1467a1564736f6c63430008110033",
  "linkReferences": {},
  "deployedLinkReferences": {}
}