{
  "_format": "hh-sol-artifact-1",
  "contractName": "Horses",
  "sourceName": "contracts/Horses.sol",
  "abi": [
    {
      "inputs": [],
      "stateMutability": "nonpayable",
      "type": "constructor"
    },
    {
      "anonymous": false,
      "inputs": [
        {
          "indexed": true,
          "internalType": "address",
          "name": "account",
          "type": "address"
        },
        {
          "indexed": true,
          "internalType": "address",
          "name": "operator",
          "type": "address"
        },
        {
          "indexed": false,
          "internalType": "bool",
          "name": "approved",
          "type": "bool"
        }
      ],
      "name": "ApprovalForAll",
      "type": "event"
    },
    {
      "anonymous": false,
      "inputs": [
        {
          "indexed": true,
          "internalType": "uint256",
          "name": "tokenId",
          "type": "uint256"
        },
        {
          "indexed": false,
          "internalType": "address",
          "name": "seller",
          "type": "address"
        },
        {
          "indexed": false,
          "internalType": "address",
          "name": "owner",
          "type": "address"
        },
        {
          "indexed": false,
          "internalType": "uint256",
          "name": "price",
          "type": "uint256"
        },
        {
          "indexed": false,
          "internalType": "bool",
          "name": "sold",
          "type": "bool"
        }
      ],
      "name": "MarketItemCreated",
      "type": "event"
    },
    {
      "anonymous": false,
      "inputs": [
        {
          "indexed": true,
          "internalType": "address",
          "name": "previousOwner",
          "type": "address"
        },
        {
          "indexed": true,
          "internalType": "address",
          "name": "newOwner",
          "type": "address"
        }
      ],
      "name": "OwnershipTransferred",
      "type": "event"
    },
    {
      "anonymous": false,
      "inputs": [
        {
          "indexed": false,
          "internalType": "address",
          "name": "account",
          "type": "address"
        }
      ],
      "name": "Paused",
      "type": "event"
    },
    {
      "anonymous": false,
      "inputs": [
        {
          "indexed": true,
          "internalType": "address",
          "name": "operator",
          "type": "address"
        },
        {
          "indexed": true,
          "internalType": "address",
          "name": "from",
          "type": "address"
        },
        {
          "indexed": true,
          "internalType": "address",
          "name": "to",
          "type": "address"
        },
        {
          "indexed": false,
          "internalType": "uint256[]",
          "name": "ids",
          "type": "uint256[]"
        },
        {
          "indexed": false,
          "internalType": "uint256[]",
          "name": "values",
          "type": "uint256[]"
        }
      ],
      "name": "TransferBatch",
      "type": "event"
    },
    {
      "anonymous": false,
      "inputs": [
        {
          "indexed": true,
          "internalType": "address",
          "name": "operator",
          "type": "address"
        },
        {
          "indexed": true,
          "internalType": "address",
          "name": "from",
          "type": "address"
        },
        {
          "indexed": true,
          "internalType": "address",
          "name": "to",
          "type": "address"
        },
        {
          "indexed": false,
          "internalType": "uint256",
          "name": "id",
          "type": "uint256"
        },
        {
          "indexed": false,
          "internalType": "uint256",
          "name": "value",
          "type": "uint256"
        }
      ],
      "name": "TransferSingle",
      "type": "event"
    },
    {
      "anonymous": false,
      "inputs": [
        {
          "indexed": false,
          "internalType": "string",
          "name": "value",
          "type": "string"
        },
        {
          "indexed": true,
          "internalType": "uint256",
          "name": "id",
          "type": "uint256"
        }
      ],
      "name": "URI",
      "type": "event"
    },
    {
      "anonymous": false,
      "inputs": [
        {
          "indexed": false,
          "internalType": "address",
          "name": "account",
          "type": "address"
        }
      ],
      "name": "Unpaused",
      "type": "event"
    },
    {
      "inputs": [
        {
          "internalType": "address",
          "name": "account",
          "type": "address"
        },
        {
          "internalType": "uint256",
          "name": "id",
          "type": "uint256"
        }
      ],
      "name": "balanceOf",
      "outputs": [
        {
          "internalType": "uint256",
          "name": "",
          "type": "uint256"
        }
      ],
      "stateMutability": "view",
      "type": "function"
    },
    {
      "inputs": [
        {
          "internalType": "address[]",
          "name": "accounts",
          "type": "address[]"
        },
        {
          "internalType": "uint256[]",
          "name": "ids",
          "type": "uint256[]"
        }
      ],
      "name": "balanceOfBatch",
      "outputs": [
        {
          "internalType": "uint256[]",
          "name": "",
          "type": "uint256[]"
        }
      ],
      "stateMutability": "view",
      "type": "function"
    },
    {
      "inputs": [
        {
          "internalType": "uint256",
          "name": "id",
          "type": "uint256"
        }
      ],
      "name": "exists",
      "outputs": [
        {
          "internalType": "bool",
          "name": "",
          "type": "bool"
        }
      ],
      "stateMutability": "view",
      "type": "function"
    },
    {
      "inputs": [
        {
          "internalType": "uint256",
          "name": "tokenId",
          "type": "uint256"
        }
      ],
      "name": "getHorse",
      "outputs": [
        {
          "components": [
            {
              "internalType": "uint256",
              "name": "id",
              "type": "uint256"
            },
            {
              "internalType": "string",
              "name": "uri",
              "type": "string"
            },
            {
              "internalType": "uint256",
              "name": "amount",
              "type": "uint256"
            }
          ],
          "internalType": "struct Horses.Horse",
          "name": "",
          "type": "tuple"
        }
      ],
      "stateMutability": "view",
      "type": "function"
    },
    {
      "inputs": [],
      "name": "getHorses",
      "outputs": [
        {
          "components": [
            {
              "internalType": "uint256",
              "name": "id",
              "type": "uint256"
            },
            {
              "internalType": "string",
              "name": "uri",
              "type": "string"
            },
            {
              "internalType": "uint256",
              "name": "amount",
              "type": "uint256"
            }
          ],
          "internalType": "struct Horses.Horse[]",
          "name": "",
          "type": "tuple[]"
        }
      ],
      "stateMutability": "view",
      "type": "function"
    },
    {
      "inputs": [],
      "name": "init",
      "outputs": [],
      "stateMutability": "nonpayable",
      "type": "function"
    },
    {
      "inputs": [
        {
          "internalType": "address",
          "name": "account",
          "type": "address"
        },
        {
          "internalType": "address",
          "name": "operator",
          "type": "address"
        }
      ],
      "name": "isApprovedForAll",
      "outputs": [
        {
          "internalType": "bool",
          "name": "",
          "type": "bool"
        }
      ],
      "stateMutability": "view",
      "type": "function"
    },
    {
      "inputs": [
        {
          "internalType": "address",
          "name": "account",
          "type": "address"
        },
        {
          "internalType": "uint256",
          "name": "amount",
          "type": "uint256"
        },
        {
          "internalType": "string",
          "name": "_uri",
          "type": "string"
        }
      ],
      "name": "mintHorse",
      "outputs": [
        {
          "internalType": "uint256",
          "name": "",
          "type": "uint256"
        }
      ],
      "stateMutability": "nonpayable",
      "type": "function"
    },
    {
      "inputs": [],
      "name": "name",
      "outputs": [
        {
          "internalType": "string",
          "name": "",
          "type": "string"
        }
      ],
      "stateMutability": "view",
      "type": "function"
    },
    {
      "inputs": [],
      "name": "owner",
      "outputs": [
        {
          "internalType": "address",
          "name": "",
          "type": "address"
        }
      ],
      "stateMutability": "view",
      "type": "function"
    },
    {
      "inputs": [],
      "name": "paused",
      "outputs": [
        {
          "internalType": "bool",
          "name": "",
          "type": "bool"
        }
      ],
      "stateMutability": "view",
      "type": "function"
    },
    {
      "inputs": [],
      "name": "renounceOwnership",
      "outputs": [],
      "stateMutability": "nonpayable",
      "type": "function"
    },
    {
      "inputs": [
        {
          "internalType": "address",
          "name": "from",
          "type": "address"
        },
        {
          "internalType": "address",
          "name": "to",
          "type": "address"
        },
        {
          "internalType": "uint256[]",
          "name": "ids",
          "type": "uint256[]"
        },
        {
          "internalType": "uint256[]",
          "name": "amounts",
          "type": "uint256[]"
        },
        {
          "internalType": "bytes",
          "name": "data",
          "type": "bytes"
        }
      ],
      "name": "safeBatchTransferFrom",
      "outputs": [],
      "stateMutability": "nonpayable",
      "type": "function"
    },
    {
      "inputs": [
        {
          "internalType": "address",
          "name": "from",
          "type": "address"
        },
        {
          "internalType": "address",
          "name": "to",
          "type": "address"
        },
        {
          "internalType": "uint256",
          "name": "id",
          "type": "uint256"
        },
        {
          "internalType": "uint256",
          "name": "amount",
          "type": "uint256"
        },
        {
          "internalType": "bytes",
          "name": "data",
          "type": "bytes"
        }
      ],
      "name": "safeTransferFrom",
      "outputs": [],
      "stateMutability": "nonpayable",
      "type": "function"
    },
    {
      "inputs": [
        {
          "internalType": "address",
          "name": "operator",
          "type": "address"
        },
        {
          "internalType": "bool",
          "name": "approved",
          "type": "bool"
        }
      ],
      "name": "setApprovalForAll",
      "outputs": [],
      "stateMutability": "nonpayable",
      "type": "function"
    },
    {
      "inputs": [
        {
          "internalType": "string",
          "name": "baseURI",
          "type": "string"
        }
      ],
      "name": "setBaseURI",
      "outputs": [],
      "stateMutability": "nonpayable",
      "type": "function"
    },
    {
      "inputs": [
        {
          "internalType": "uint256",
          "name": "_tokenId",
          "type": "uint256"
        },
        {
          "internalType": "string",
          "name": "_cid",
          "type": "string"
        }
      ],
      "name": "setTokenURI",
      "outputs": [],
      "stateMutability": "nonpayable",
      "type": "function"
    },
    {
      "inputs": [
        {
          "internalType": "uint256",
          "name": "tokenId",
          "type": "uint256"
        },
        {
          "internalType": "string",
          "name": "newUri",
          "type": "string"
        }
      ],
      "name": "setURI",
      "outputs": [],
      "stateMutability": "nonpayable",
      "type": "function"
    },
    {
      "inputs": [
        {
          "internalType": "bytes4",
          "name": "interfaceId",
          "type": "bytes4"
        }
      ],
      "name": "supportsInterface",
      "outputs": [
        {
          "internalType": "bool",
          "name": "",
          "type": "bool"
        }
      ],
      "stateMutability": "view",
      "type": "function"
    },
    {
      "inputs": [],
      "name": "symbol",
      "outputs": [
        {
          "internalType": "string",
          "name": "",
          "type": "string"
        }
      ],
      "stateMutability": "view",
      "type": "function"
    },
    {
      "inputs": [
        {
          "internalType": "uint256",
          "name": "id",
          "type": "uint256"
        }
      ],
      "name": "totalSupply",
      "outputs": [
        {
          "internalType": "uint256",
          "name": "",
          "type": "uint256"
        }
      ],
      "stateMutability": "view",
      "type": "function"
    },
    {
      "inputs": [
        {
          "internalType": "address",
          "name": "newOwner",
          "type": "address"
        }
      ],
      "name": "transferOwnership",
      "outputs": [],
      "stateMutability": "nonpayable",
      "type": "function"
    },
    {
      "inputs": [
        {
          "internalType": "uint256",
          "name": "tokenId",
          "type": "uint256"
        }
      ],
      "name": "uri",
      "outputs": [
        {
          "internalType": "string",
          "name": "",
          "type": "string"
        }
      ],
      "stateMutability": "view",
      "type": "function"
    }
  ],
  "bytecode": "0x60a0604052600060809081526003906200001a908262000d70565b50633b9aca00600a5560405180606001604052806032815260200162003683603291396010906200004c908262000d70565b50604051806060016040528060358152602001620036b56035913960119062000076908262000d70565b50604080518082019091526005815264173539b7b760d91b6020820152601290620000a2908262000d70565b50348015620000b057600080fd5b50604080516020810190915260008152620000cb81620001a1565b50620000d733620001b3565b6007805460ff1916905560408051808201909152600e8082526d416d62617373616427486f72736560901b60208301529062000114908262000d70565b506040805180820190915260078152665a45484f52534560c81b6020820152600f9062000142908262000d70565b50600b80546001600160a01b03199081163317909155600c80549091167370ae7f5a41517ad09b1df2e623a771e3718040431790556200018162000205565b6040805160208101909152600081526200019b906200030b565b6200121e565b6002620001af828262000d70565b5050565b600580546001600160a01b038381166001600160a01b0319831681179093556040519116919082907f8be0079c531659141344cd1fd0a4f28419497f9722a3daafe3b4186f6b6457e090600090a35050565b6200023c3360c8601060116012604051602001620002269392919062000eb7565b60408051601f1981840301815291905262000319565b506200025e33608c601060116012604051602001620002269392919062000ef0565b5062000280336096601060116012604051602001620002269392919062000f18565b50620002a23360b4601060116012604051602001620002269392919062000f40565b50620002c43360a0601060116012604051602001620002269392919062000f68565b50620002e63360fa601060116012604051602001620002269392919062000f90565b50620003083360dc601060116012604051602001620002269392919062000fb8565b50565b6003620001af828262000d70565b60006200032562000460565b60006200033e6008620004c260201b62000bce1760201c565b604080516060810182528281526020810186815291810187905260138054600181018255600091909152815160039091027f66de8ffda797e3de9c05e8fc57b3bf0ec28a930d40b0d285d93c06501cf6a09081019182559251939450909290917f66de8ffda797e3de9c05e8fc57b3bf0ec28a930d40b0d285d93c06501cf6a0910190620003cd908262000d70565b5060409190910151600290910155620003e78184620004c6565b8260138281548110620003fe57620003fe62000fe0565b906000526020600020906003020160010190816200041d919062000d70565b5062000441858286604051806020016040528060008152506200051f60201b60201c565b6200045860086200064e60201b62000bd21760201c565b949350505050565b6005546001600160a01b03163314620004c05760405162461bcd60e51b815260206004820181905260248201527f4f776e61626c653a2063616c6c6572206973206e6f7420746865206f776e657260448201526064015b60405180910390fd5b565b5490565b620004d062000460565b620004dc828262000657565b8060138381548110620004f357620004f362000fe0565b9060005260206000209060030201600101908162000512919062000d70565b50620001af8282620006ba565b6001600160a01b038416620005815760405162461bcd60e51b815260206004820152602160248201527f455243313135353a206d696e7420746f20746865207a65726f206164647265736044820152607360f81b6064820152608401620004b7565b3360006200058f85620006d0565b905060006200059e85620006d0565b9050620005b1836000898585896200071e565b6000868152602081815260408083206001600160a01b038b16845290915281208054879290620005e39084906200100c565b909155505060408051878152602081018790526001600160a01b03808a1692600092918716917fc3d58168c5ae7397731d063d5bbf3d657854427343f4c083240f7aacaa2d0f62910160405180910390a462000645836000898989896200074b565b50505050505050565b80546001019055565b600082815260046020526040902062000671828262000d70565b50817f6bb7ff708619ba0610cba295a58592e0451dee2622938c8755667688daf3529b6200069f8262000917565b604051620006ae919062001076565b60405180910390a25050565b620006c462000460565b620001af828262000657565b604080516001808252818301909252606091600091906020808301908036833701905050905082816000815181106200070d576200070d62000fe0565b602090810291909101015292915050565b6200072862000935565b620007438686868686866200097d60201b62000bdb1760201c565b505050505050565b6200076a846001600160a01b031662000b2b60201b62000d5e1760201c565b15620007435760405163f23a6e6160e01b81526001600160a01b0385169063f23a6e6190620007a690899089908890889088906004016200108b565b6020604051808303816000875af1925050508015620007e4575060408051601f3d908101601f19168201909252620007e191810190620010d2565b60015b620008a457620007f3620010fe565b806308c379a0036200083357506200080a6200114a565b8062000817575062000835565b8060405162461bcd60e51b8152600401620004b7919062001076565b505b60405162461bcd60e51b815260206004820152603460248201527f455243313135353a207472616e7366657220746f206e6f6e2d4552433131353560448201527f526563656976657220696d706c656d656e7465720000000000000000000000006064820152608401620004b7565b6001600160e01b0319811663f23a6e6160e01b14620006455760405162461bcd60e51b815260206004820152602860248201527f455243313135353a204552433131353552656365697665722072656a656374656044820152676420746f6b656e7360c01b6064820152608401620004b7565b60606200092f8262000b3a60201b62000d6d1760201c565b92915050565b60075460ff1615620004c05760405162461bcd60e51b815260206004820152601060248201526f14185d5cd8589b194e881c185d5cd95960821b6044820152606401620004b7565b620009988686868686866200074360201b62000d561760201c565b6001600160a01b03851662000a2c5760005b835181101562000a2a57828181518110620009c957620009c962000fe0565b602002602001015160066000868481518110620009ea57620009ea62000fe0565b60200260200101518152602001908152602001600020600082825462000a1191906200100c565b9091555062000a22905081620011d9565b9050620009aa565b505b6001600160a01b038416620007435760005b83518110156200064557600084828151811062000a5f5762000a5f62000fe0565b60200260200101519050600084838151811062000a805762000a8062000fe0565b602002602001015190506000600660008481526020019081526020016000205490508181101562000b055760405162461bcd60e51b815260206004820152602860248201527f455243313135353a206275726e20616d6f756e74206578636565647320746f74604482015267616c537570706c7960c01b6064820152608401620004b7565b6000928352600660205260409092209103905562000b2381620011d9565b905062000a3e565b6001600160a01b03163b151590565b60008181526004602052604081208054606092919062000b5a9062000ce5565b80601f016020809104026020016040519081016040528092919081815260200182805462000b889062000ce5565b801562000bd95780601f1062000bad5761010080835404028352916020019162000bd9565b820191906000526020600020905b81548152906001019060200180831162000bbb57829003601f168201915b50505050509050600081511162000c065762000c008362000c3360201b62000e4d1760201c565b62000c2c565b60038160405160200162000c1c929190620011f5565b6040516020818303038152906040525b9392505050565b60606002805462000c449062000ce5565b80601f016020809104026020016040519081016040528092919081815260200182805462000c729062000ce5565b801562000cc35780601f1062000c975761010080835404028352916020019162000cc3565b820191906000526020600020905b81548152906001019060200180831162000ca557829003601f168201915b50505050509050919050565b634e487b7160e01b600052604160045260246000fd5b600181811c9082168062000cfa57607f821691505b60208210810362000d1b57634e487b7160e01b600052602260045260246000fd5b50919050565b601f82111562000d6b57600081815260208120601f850160051c8101602086101562000d4a5750805b601f850160051c820191505b81811015620007435782815560010162000d56565b505050565b81516001600160401b0381111562000d8c5762000d8c62000ccf565b62000da48162000d9d845462000ce5565b8462000d21565b602080601f83116001811462000ddc576000841562000dc35750858301515b600019600386901b1c1916600185901b17855562000743565b600085815260208120601f198616915b8281101562000e0d5788860151825594840194600190910190840162000dec565b508582101562000e2c5787850151600019600388901b60f8161c191681555b5050505050600190811b01905550565b6000815462000e4b8162000ce5565b6001828116801562000e66576001811462000e7c5762000ead565b60ff198416875282151583028701945062000ead565b8560005260208060002060005b8581101562000ea45781548a82015290840190820162000e89565b50505082870194505b5050505092915050565b600062000ed062000ec9838762000e3c565b8562000e3c565b603160f81b815262000ee6600182018562000e3c565b9695505050505050565b600062000f0262000ec9838762000e3c565b601960f91b815262000ee6600182018562000e3c565b600062000f2a62000ec9838762000e3c565b603360f81b815262000ee6600182018562000e3c565b600062000f5262000ec9838762000e3c565b600d60fa1b815262000ee6600182018562000e3c565b600062000f7a62000ec9838762000e3c565b603560f81b815262000ee6600182018562000e3c565b600062000fa262000ec9838762000e3c565b601b60f91b815262000ee6600182018562000e3c565b600062000fca62000ec9838762000e3c565b603760f81b815262000ee6600182018562000e3c565b634e487b7160e01b600052603260045260246000fd5b634e487b7160e01b600052601160045260246000fd5b808201808211156200092f576200092f62000ff6565b60005b838110156200103f57818101518382015260200162001025565b50506000910152565b600081518084526200106281602086016020860162001022565b601f01601f19169290920160200192915050565b60208152600062000c2c602083018462001048565b6001600160a01b03868116825285166020820152604081018490526060810183905260a060808201819052600090620010c79083018462001048565b979650505050505050565b600060208284031215620010e557600080fd5b81516001600160e01b03198116811462000c2c57600080fd5b600060033d1115620011185760046000803e5060005160e01c5b90565b601f8201601f191681016001600160401b038111828210171562001143576200114362000ccf565b6040525050565b600060443d1015620011595790565b6040516003193d81016004833e81513d6001600160401b0380831160248401831017156200118957505050505090565b8285019150815181811115620011a25750505050505090565b843d8701016020828501011115620011bd5750505050505090565b620011ce602082860101876200111b565b509095945050505050565b600060018201620011ee57620011ee62000ff6565b5060010190565b600062001203828562000e3c565b83516200121581836020880162001022565b01949350505050565b612455806200122e6000396000f3fe608060405234801561001057600080fd5b506004361061014c5760003560e01c80635c975abb116100c3578063a22cb4651161007c578063a22cb465146102d0578063bd85b039146102e3578063e1c7392a14610303578063e985e9c51461030b578063f242432a14610347578063f2fde38b1461035a57600080fd5b80635c975abb14610272578063715018a61461027d578063862440e2146102855780638da5cb5b1461029857806390adec6f146102b357806395d89b41146102c857600080fd5b8063162094c411610115578063162094c4146101d55780632eb2c2d6146101ea5780634e1273f4146101fd5780634f558e791461021d5780634f57641c1461023f57806355f804b31461025f57600080fd5b8062fdd58e1461015157806301ffc9a71461017757806303d0f90a1461019a57806306fdde03146101ad5780630e89341c146101c2575b600080fd5b61016461015f3660046117e4565b61036d565b6040519081526020015b60405180910390f35b61018a610185366004611824565b610406565b604051901515815260200161016e565b6101646101a83660046118f8565b610456565b6101b5610572565b60405161016e919061199f565b6101b56101d03660046119b2565b610600565b6101e86101e33660046119cb565b61060b565b005b6101e86101f8366004611aa7565b610621565b61021061020b366004611b51565b61066d565b60405161016e9190611c4d565b61018a61022b3660046119b2565b600090815260066020526040902054151590565b61025261024d3660046119b2565b610797565b60405161016e9190611c93565b6101e861026d366004611ca6565b610894565b60075460ff1661018a565b6101e86108a8565b6101e86102933660046119cb565b6108bc565b6005546040516001600160a01b03909116815260200161016e565b6102bb61090a565b60405161016e9190611cdb565b6101b5610a0f565b6101e86102de366004611d3d565b610a1c565b6101646102f13660046119b2565b60009081526006602052604090205490565b6101e8610a27565b61018a610319366004611d79565b6001600160a01b03918216600090815260016020908152604080832093909416825291909152205460ff1690565b6101e8610355366004611dac565b610b13565b6101e8610368366004611e11565b610b58565b60006001600160a01b0383166103dd5760405162461bcd60e51b815260206004820152602a60248201527f455243313135353a2061646472657373207a65726f206973206e6f742061207660448201526930b634b21037bbb732b960b11b60648201526084015b60405180910390fd5b506000818152602081815260408083206001600160a01b03861684529091529020545b92915050565b60006001600160e01b03198216636cdb3d1360e11b148061043757506001600160e01b031982166303a24d0760e21b145b8061040057506301ffc9a760e01b6001600160e01b0319831614610400565b6000610460610ee1565b600061046b60085490565b604080516060810182528281526020810186815291810187905260138054600181018255600091909152815160039091027f66de8ffda797e3de9c05e8fc57b3bf0ec28a930d40b0d285d93c06501cf6a09081019182559251939450909290917f66de8ffda797e3de9c05e8fc57b3bf0ec28a930d40b0d285d93c06501cf6a09101906104f89082611eb1565b5060408201518160020155505061050f81846108bc565b826013828154811061052357610523611f71565b906000526020600020906003020160010190816105409190611eb1565b5061055c85828660405180602001604052806000815250610f3b565b61056a600880546001019055565b949350505050565b600e805461057f90611e2c565b80601f01602080910402602001604051908101604052809291908181526020018280546105ab90611e2c565b80156105f85780601f106105cd576101008083540402835291602001916105f8565b820191906000526020600020905b8154815290600101906020018083116105db57829003601f168201915b505050505081565b606061040082610d6d565b610613610ee1565b61061d8282611055565b5050565b6001600160a01b03851633148061063d575061063d8533610319565b6106595760405162461bcd60e51b81526004016103d490611f87565b61066685858585856110b2565b5050505050565b606081518351146106d25760405162461bcd60e51b815260206004820152602960248201527f455243313135353a206163636f756e747320616e6420696473206c656e677468604482015268040dad2e6dac2e8c6d60bb1b60648201526084016103d4565b6000835167ffffffffffffffff8111156106ee576106ee611841565b604051908082528060200260200182016040528015610717578160200160208202803683370190505b50905060005b845181101561078f5761076285828151811061073b5761073b611f71565b602002602001015185838151811061075557610755611f71565b602002602001015161036d565b82828151811061077457610774611f71565b602090810291909101015261078881611feb565b905061071d565b509392505050565b6107bb60405180606001604052806000815260200160608152602001600081525090565b601382815481106107ce576107ce611f71565b90600052602060002090600302016040518060600160405290816000820154815260200160018201805461080190611e2c565b80601f016020809104026020016040519081016040528092919081815260200182805461082d90611e2c565b801561087a5780601f1061084f5761010080835404028352916020019161087a565b820191906000526020600020905b81548152906001019060200180831161085d57829003601f168201915b505050505081526020016002820154815250509050919050565b61089c610ee1565b6108a581611295565b50565b6108b0610ee1565b6108ba60006112a1565b565b6108c4610ee1565b6108ce8282611055565b80601383815481106108e2576108e2611f71565b906000526020600020906003020160010190816108ff9190611eb1565b5061061d828261060b565b60606013805480602002602001604051908101604052809291908181526020016000905b82821015610a0657838290600052602060002090600302016040518060600160405290816000820154815260200160018201805461096b90611e2c565b80601f016020809104026020016040519081016040528092919081815260200182805461099790611e2c565b80156109e45780601f106109b9576101008083540402835291602001916109e4565b820191906000526020600020905b8154815290600101906020018083116109c757829003601f168201915b505050505081526020016002820154815250508152602001906001019061092e565b50505050905090565b600f805461057f90611e2c565b61061d3383836112f3565b610a593360c8601060116012604051602001610a4593929190612077565b604051602081830303815290604052610456565b50610a7833608c601060116012604051602001610a45939291906120aa565b50610a97336096601060116012604051602001610a45939291906120cd565b50610ab63360b4601060116012604051602001610a45939291906120f0565b50610ad53360a0601060116012604051602001610a4593929190612113565b50610af43360fa601060116012604051602001610a4593929190612136565b506108a53360dc601060116012604051602001610a4593929190612159565b6001600160a01b038516331480610b2f5750610b2f8533610319565b610b4b5760405162461bcd60e51b81526004016103d490611f87565b61066685858585856113d3565b610b60610ee1565b6001600160a01b038116610bc55760405162461bcd60e51b815260206004820152602660248201527f4f776e61626c653a206e6577206f776e657220697320746865207a65726f206160448201526564647265737360d01b60648201526084016103d4565b6108a5816112a1565b5490565b80546001019055565b6001600160a01b038516610c625760005b8351811015610c6057828181518110610c0757610c07611f71565b602002602001015160066000868481518110610c2557610c25611f71565b602002602001015181526020019081526020016000206000828254610c4a919061217c565b90915550610c59905081611feb565b9050610bec565b505b6001600160a01b038416610d565760005b8351811015610d54576000848281518110610c9057610c90611f71565b602002602001015190506000848381518110610cae57610cae611f71565b6020026020010151905060006006600084815260200190815260200160002054905081811015610d315760405162461bcd60e51b815260206004820152602860248201527f455243313135353a206275726e20616d6f756e74206578636565647320746f74604482015267616c537570706c7960c01b60648201526084016103d4565b60009283526006602052604090922091039055610d4d81611feb565b9050610c73565b505b505050505050565b6001600160a01b03163b151590565b600081815260046020526040812080546060929190610d8b90611e2c565b80601f0160208091040260200160405190810160405280929190818152602001828054610db790611e2c565b8015610e045780601f10610dd957610100808354040283529160200191610e04565b820191906000526020600020905b815481529060010190602001808311610de757829003601f168201915b505050505090506000815111610e2257610e1d83610e4d565b610e46565b600381604051602001610e3692919061218f565b6040516020818303038152906040525b9392505050565b606060028054610e5c90611e2c565b80601f0160208091040260200160405190810160405280929190818152602001828054610e8890611e2c565b8015610ed55780601f10610eaa57610100808354040283529160200191610ed5565b820191906000526020600020905b815481529060010190602001808311610eb857829003601f168201915b50505050509050919050565b6005546001600160a01b031633146108ba5760405162461bcd60e51b815260206004820181905260248201527f4f776e61626c653a2063616c6c6572206973206e6f7420746865206f776e657260448201526064016103d4565b6001600160a01b038416610f9b5760405162461bcd60e51b815260206004820152602160248201527f455243313135353a206d696e7420746f20746865207a65726f206164647265736044820152607360f81b60648201526084016103d4565b336000610fa78561150b565b90506000610fb48561150b565b9050610fc583600089858589611556565b6000868152602081815260408083206001600160a01b038b16845290915281208054879290610ff590849061217c565b909155505060408051878152602081018790526001600160a01b03808a1692600092918716917fc3d58168c5ae7397731d063d5bbf3d657854427343f4c083240f7aacaa2d0f62910160405180910390a4610d548360008989898961156c565b600082815260046020526040902061106d8282611eb1565b50817f6bb7ff708619ba0610cba295a58592e0451dee2622938c8755667688daf3529b61109984610600565b6040516110a6919061199f565b60405180910390a25050565b81518351146111145760405162461bcd60e51b815260206004820152602860248201527f455243313135353a2069647320616e6420616d6f756e7473206c656e677468206044820152670dad2e6dac2e8c6d60c31b60648201526084016103d4565b6001600160a01b03841661113a5760405162461bcd60e51b81526004016103d4906121b4565b33611149818787878787611556565b60005b845181101561122f57600085828151811061116957611169611f71565b60200260200101519050600085838151811061118757611187611f71565b602090810291909101810151600084815280835260408082206001600160a01b038e1683529093529190912054909150818110156111d75760405162461bcd60e51b81526004016103d4906121f9565b6000838152602081815260408083206001600160a01b038e8116855292528083208585039055908b1682528120805484929061121490849061217c565b925050819055505050508061122890611feb565b905061114c565b50846001600160a01b0316866001600160a01b0316826001600160a01b03167f4a39dc06d4c0dbc64b70af90fd698a233a518aa5d07e595d983b8c0526c8f7fb878760405161127f929190612243565b60405180910390a4610d568187878787876116c7565b600361061d8282611eb1565b600580546001600160a01b038381166001600160a01b0319831681179093556040519116919082907f8be0079c531659141344cd1fd0a4f28419497f9722a3daafe3b4186f6b6457e090600090a35050565b816001600160a01b0316836001600160a01b0316036113665760405162461bcd60e51b815260206004820152602960248201527f455243313135353a2073657474696e6720617070726f76616c20737461747573604482015268103337b91039b2b63360b91b60648201526084016103d4565b6001600160a01b03838116600081815260016020908152604080832094871680845294825291829020805460ff191686151590811790915591519182527f17307eab39ab6107e8899845ad3d59bd9653f200f220920489ca2b5937696c31910160405180910390a3505050565b6001600160a01b0384166113f95760405162461bcd60e51b81526004016103d4906121b4565b3360006114058561150b565b905060006114128561150b565b9050611422838989858589611556565b6000868152602081815260408083206001600160a01b038c168452909152902054858110156114635760405162461bcd60e51b81526004016103d4906121f9565b6000878152602081815260408083206001600160a01b038d8116855292528083208985039055908a168252812080548892906114a090849061217c565b909155505060408051888152602081018890526001600160a01b03808b16928c821692918816917fc3d58168c5ae7397731d063d5bbf3d657854427343f4c083240f7aacaa2d0f62910160405180910390a4611500848a8a8a8a8a61156c565b505050505050505050565b6040805160018082528183019092526060916000919060208083019080368337019050509050828160008151811061154557611545611f71565b602090810291909101015292915050565b61155e611782565b610d56868686868686610bdb565b6001600160a01b0384163b15610d565760405163f23a6e6160e01b81526001600160a01b0385169063f23a6e61906115b09089908990889088908890600401612271565b6020604051808303816000875af19250505080156115eb575060408051601f3d908101601f191682019092526115e8918101906122b6565b60015b611697576115f76122d3565b806308c379a003611630575061160b6122ef565b806116165750611632565b8060405162461bcd60e51b81526004016103d4919061199f565b505b60405162461bcd60e51b815260206004820152603460248201527f455243313135353a207472616e7366657220746f206e6f6e2d455243313135356044820152732932b1b2b4bb32b91034b6b83632b6b2b73a32b960611b60648201526084016103d4565b6001600160e01b0319811663f23a6e6160e01b14610d545760405162461bcd60e51b81526004016103d490612379565b6001600160a01b0384163b15610d565760405163bc197c8160e01b81526001600160a01b0385169063bc197c819061170b90899089908890889088906004016123c1565b6020604051808303816000875af1925050508015611746575060408051601f3d908101601f19168201909252611743918101906122b6565b60015b611752576115f76122d3565b6001600160e01b0319811663bc197c8160e01b14610d545760405162461bcd60e51b81526004016103d490612379565b60075460ff16156108ba5760405162461bcd60e51b815260206004820152601060248201526f14185d5cd8589b194e881c185d5cd95960821b60448201526064016103d4565b80356001600160a01b03811681146117df57600080fd5b919050565b600080604083850312156117f757600080fd5b611800836117c8565b946020939093013593505050565b6001600160e01b0319811681146108a557600080fd5b60006020828403121561183657600080fd5b8135610e468161180e565b634e487b7160e01b600052604160045260246000fd5b601f8201601f1916810167ffffffffffffffff8111828210171561187d5761187d611841565b6040525050565b600082601f83011261189557600080fd5b813567ffffffffffffffff8111156118af576118af611841565b6040516118c6601f8301601f191660200182611857565b8181528460208386010111156118db57600080fd5b816020850160208301376000918101602001919091529392505050565b60008060006060848603121561190d57600080fd5b611916846117c8565b925060208401359150604084013567ffffffffffffffff81111561193957600080fd5b61194586828701611884565b9150509250925092565b60005b8381101561196a578181015183820152602001611952565b50506000910152565b6000815180845261198b81602086016020860161194f565b601f01601f19169290920160200192915050565b602081526000610e466020830184611973565b6000602082840312156119c457600080fd5b5035919050565b600080604083850312156119de57600080fd5b82359150602083013567ffffffffffffffff8111156119fc57600080fd5b611a0885828601611884565b9150509250929050565b600067ffffffffffffffff821115611a2c57611a2c611841565b5060051b60200190565b600082601f830112611a4757600080fd5b81356020611a5482611a12565b604051611a618282611857565b83815260059390931b8501820192828101915086841115611a8157600080fd5b8286015b84811015611a9c5780358352918301918301611a85565b509695505050505050565b600080600080600060a08688031215611abf57600080fd5b611ac8866117c8565b9450611ad6602087016117c8565b9350604086013567ffffffffffffffff80821115611af357600080fd5b611aff89838a01611a36565b94506060880135915080821115611b1557600080fd5b611b2189838a01611a36565b93506080880135915080821115611b3757600080fd5b50611b4488828901611884565b9150509295509295909350565b60008060408385031215611b6457600080fd5b823567ffffffffffffffff80821115611b7c57600080fd5b818501915085601f830112611b9057600080fd5b81356020611b9d82611a12565b604051611baa8282611857565b83815260059390931b8501820192828101915089841115611bca57600080fd5b948201945b83861015611bef57611be0866117c8565b82529482019490820190611bcf565b96505086013592505080821115611c0557600080fd5b50611a0885828601611a36565b600081518084526020808501945080840160005b83811015611c4257815187529582019590820190600101611c26565b509495945050505050565b602081526000610e466020830184611c12565b805182526000602082015160606020850152611c7f6060850182611973565b604093840151949093019390935250919050565b602081526000610e466020830184611c60565b600060208284031215611cb857600080fd5b813567ffffffffffffffff811115611ccf57600080fd5b61056a84828501611884565b6000602080830181845280855180835260408601915060408160051b870101925083870160005b82811015611d3057603f19888603018452611d1e858351611c60565b94509285019290850190600101611d02565b5092979650505050505050565b60008060408385031215611d5057600080fd5b611d59836117c8565b915060208301358015158114611d6e57600080fd5b809150509250929050565b60008060408385031215611d8c57600080fd5b611d95836117c8565b9150611da3602084016117c8565b90509250929050565b600080600080600060a08688031215611dc457600080fd5b611dcd866117c8565b9450611ddb602087016117c8565b93506040860135925060608601359150608086013567ffffffffffffffff811115611e0557600080fd5b611b4488828901611884565b600060208284031215611e2357600080fd5b610e46826117c8565b600181811c90821680611e4057607f821691505b602082108103611e6057634e487b7160e01b600052602260045260246000fd5b50919050565b601f821115611eac57600081815260208120601f850160051c81016020861015611e8d5750805b601f850160051c820191505b81811015610d5657828155600101611e99565b505050565b815167ffffffffffffffff811115611ecb57611ecb611841565b611edf81611ed98454611e2c565b84611e66565b602080601f831160018114611f145760008415611efc5750858301515b600019600386901b1c1916600185901b178555610d56565b600085815260208120601f198616915b82811015611f4357888601518255948401946001909101908401611f24565b5085821015611f615787850151600019600388901b60f8161c191681555b5050505050600190811b01905550565b634e487b7160e01b600052603260045260246000fd5b6020808252602e908201527f455243313135353a2063616c6c6572206973206e6f7420746f6b656e206f776e60408201526d195c881bdc88185c1c1c9bdd995960921b606082015260800190565b634e487b7160e01b600052601160045260246000fd5b600060018201611ffd57611ffd611fd5565b5060010190565b6000815461201181611e2c565b60018281168015612029576001811461203e5761206d565b60ff198416875282151583028701945061206d565b8560005260208060002060005b858110156120645781548a82015290840190820161204b565b50505082870194505b5050505092915050565b600061208c6120868387612004565b85612004565b603160f81b81526120a06001820185612004565b9695505050505050565b60006120b96120868387612004565b601960f91b81526120a06001820185612004565b60006120dc6120868387612004565b603360f81b81526120a06001820185612004565b60006120ff6120868387612004565b600d60fa1b81526120a06001820185612004565b60006121226120868387612004565b603560f81b81526120a06001820185612004565b60006121456120868387612004565b601b60f91b81526120a06001820185612004565b60006121686120868387612004565b603760f81b81526120a06001820185612004565b8082018082111561040057610400611fd5565b600061219b8285612004565b83516121ab81836020880161194f565b01949350505050565b60208082526025908201527f455243313135353a207472616e7366657220746f20746865207a65726f206164604082015264647265737360d81b606082015260800190565b6020808252602a908201527f455243313135353a20696e73756666696369656e742062616c616e636520666f60408201526939103a3930b739b332b960b11b606082015260800190565b6040815260006122566040830185611c12565b82810360208401526122688185611c12565b95945050505050565b6001600160a01b03868116825285166020820152604081018490526060810183905260a0608082018190526000906122ab90830184611973565b979650505050505050565b6000602082840312156122c857600080fd5b8151610e468161180e565b600060033d11156122ec5760046000803e5060005160e01c5b90565b600060443d10156122fd5790565b6040516003193d81016004833e81513d67ffffffffffffffff816024840111818411171561232d57505050505090565b82850191508151818111156123455750505050505090565b843d870101602082850101111561235f5750505050505090565b61236e60208286010187611857565b509095945050505050565b60208082526028908201527f455243313135353a204552433131353552656365697665722072656a656374656040820152676420746f6b656e7360c01b606082015260800190565b6001600160a01b0386811682528516602082015260a0604082018190526000906123ed90830186611c12565b82810360608401526123ff8186611c12565b905082810360808401526124138185611973565b9897505050505050505056fea2646970667358221220c428717fcf142ec5b040e2a39becfcb5dd44d8951ef592a7e35512350baf189a64736f6c6343000811003368747470733a2f2f677261792d6f63636173696f6e616c2d66697265666c792d3639332e6d7970696e6174612e636c6f75642f697066732f516d504b4c72714c4851517a466e58546437474b35455773716b35614878646f4269396e364a6e647832537436742f",
  "linkReferences": {},
  "deployedLinkReferences": {}
}