{
  "_format": "hh-sol-artifact-1",
  "contractName": "Horses",
  "sourceName": "contracts/Horses.sol",
  "abi": [
    {
      "inputs": [],
      "stateMutability": "nonpayable",
      "type": "constructor"
    },
    {
      "anonymous": false,
      "inputs": [
        {
          "indexed": true,
          "internalType": "address",
          "name": "account",
          "type": "address"
        },
        {
          "indexed": true,
          "internalType": "address",
          "name": "operator",
          "type": "address"
        },
        {
          "indexed": false,
          "internalType": "bool",
          "name": "approved",
          "type": "bool"
        }
      ],
      "name": "ApprovalForAll",
      "type": "event"
    },
    {
      "anonymous": false,
      "inputs": [
        {
          "indexed": true,
          "internalType": "address",
          "name": "previousOwner",
          "type": "address"
        },
        {
          "indexed": true,
          "internalType": "address",
          "name": "newOwner",
          "type": "address"
        }
      ],
      "name": "OwnershipTransferred",
      "type": "event"
    },
    {
      "anonymous": false,
      "inputs": [
        {
          "indexed": true,
          "internalType": "address",
          "name": "operator",
          "type": "address"
        },
        {
          "indexed": true,
          "internalType": "address",
          "name": "from",
          "type": "address"
        },
        {
          "indexed": true,
          "internalType": "address",
          "name": "to",
          "type": "address"
        },
        {
          "indexed": false,
          "internalType": "uint256[]",
          "name": "ids",
          "type": "uint256[]"
        },
        {
          "indexed": false,
          "internalType": "uint256[]",
          "name": "values",
          "type": "uint256[]"
        }
      ],
      "name": "TransferBatch",
      "type": "event"
    },
    {
      "anonymous": false,
      "inputs": [
        {
          "indexed": true,
          "internalType": "address",
          "name": "operator",
          "type": "address"
        },
        {
          "indexed": true,
          "internalType": "address",
          "name": "from",
          "type": "address"
        },
        {
          "indexed": true,
          "internalType": "address",
          "name": "to",
          "type": "address"
        },
        {
          "indexed": false,
          "internalType": "uint256",
          "name": "id",
          "type": "uint256"
        },
        {
          "indexed": false,
          "internalType": "uint256",
          "name": "value",
          "type": "uint256"
        }
      ],
      "name": "TransferSingle",
      "type": "event"
    },
    {
      "anonymous": false,
      "inputs": [
        {
          "indexed": false,
          "internalType": "string",
          "name": "value",
          "type": "string"
        },
        {
          "indexed": true,
          "internalType": "uint256",
          "name": "id",
          "type": "uint256"
        }
      ],
      "name": "URI",
      "type": "event"
    },
    {
      "inputs": [
        {
          "internalType": "address",
          "name": "account",
          "type": "address"
        },
        {
          "internalType": "uint256",
          "name": "id",
          "type": "uint256"
        }
      ],
      "name": "balanceOf",
      "outputs": [
        {
          "internalType": "uint256",
          "name": "",
          "type": "uint256"
        }
      ],
      "stateMutability": "view",
      "type": "function"
    },
    {
      "inputs": [
        {
          "internalType": "address[]",
          "name": "accounts",
          "type": "address[]"
        },
        {
          "internalType": "uint256[]",
          "name": "ids",
          "type": "uint256[]"
        }
      ],
      "name": "balanceOfBatch",
      "outputs": [
        {
          "internalType": "uint256[]",
          "name": "",
          "type": "uint256[]"
        }
      ],
      "stateMutability": "view",
      "type": "function"
    },
    {
      "inputs": [
        {
          "internalType": "uint256",
          "name": "tokenId",
          "type": "uint256"
        }
      ],
      "name": "getHorse",
      "outputs": [
        {
          "components": [
            {
              "internalType": "uint256",
              "name": "id",
              "type": "uint256"
            },
            {
              "internalType": "uint256",
              "name": "amount",
              "type": "uint256"
            }
          ],
          "internalType": "struct Horses.Horse",
          "name": "",
          "type": "tuple"
        }
      ],
      "stateMutability": "view",
      "type": "function"
    },
    {
      "inputs": [],
      "name": "getHorses",
      "outputs": [
        {
          "components": [
            {
              "internalType": "uint256",
              "name": "id",
              "type": "uint256"
            },
            {
              "internalType": "uint256",
              "name": "amount",
              "type": "uint256"
            }
          ],
          "internalType": "struct Horses.Horse[]",
          "name": "",
          "type": "tuple[]"
        }
      ],
      "stateMutability": "view",
      "type": "function"
    },
    {
      "inputs": [],
      "name": "init",
      "outputs": [],
      "stateMutability": "nonpayable",
      "type": "function"
    },
    {
      "inputs": [
        {
          "internalType": "address",
          "name": "account",
          "type": "address"
        },
        {
          "internalType": "address",
          "name": "operator",
          "type": "address"
        }
      ],
      "name": "isApprovedForAll",
      "outputs": [
        {
          "internalType": "bool",
          "name": "",
          "type": "bool"
        }
      ],
      "stateMutability": "view",
      "type": "function"
    },
    {
      "inputs": [
        {
          "internalType": "address",
          "name": "account",
          "type": "address"
        },
        {
          "internalType": "uint256",
          "name": "amount",
          "type": "uint256"
        },
        {
          "internalType": "string",
          "name": "_uri",
          "type": "string"
        }
      ],
      "name": "mintHorse",
      "outputs": [
        {
          "internalType": "uint256",
          "name": "",
          "type": "uint256"
        }
      ],
      "stateMutability": "nonpayable",
      "type": "function"
    },
    {
      "inputs": [],
      "name": "name",
      "outputs": [
        {
          "internalType": "string",
          "name": "",
          "type": "string"
        }
      ],
      "stateMutability": "view",
      "type": "function"
    },
    {
      "inputs": [],
      "name": "owner",
      "outputs": [
        {
          "internalType": "address",
          "name": "",
          "type": "address"
        }
      ],
      "stateMutability": "view",
      "type": "function"
    },
    {
      "inputs": [],
      "name": "renounceOwnership",
      "outputs": [],
      "stateMutability": "nonpayable",
      "type": "function"
    },
    {
      "inputs": [
        {
          "internalType": "uint256",
          "name": "tokenId",
          "type": "uint256"
        },
        {
          "internalType": "uint256",
          "name": "value",
          "type": "uint256"
        }
      ],
      "name": "royaltyInfo",
      "outputs": [
        {
          "internalType": "address",
          "name": "receiver",
          "type": "address"
        },
        {
          "internalType": "uint256",
          "name": "royaltyAmount",
          "type": "uint256"
        }
      ],
      "stateMutability": "view",
      "type": "function"
    },
    {
      "inputs": [
        {
          "internalType": "address",
          "name": "from",
          "type": "address"
        },
        {
          "internalType": "address",
          "name": "to",
          "type": "address"
        },
        {
          "internalType": "uint256[]",
          "name": "ids",
          "type": "uint256[]"
        },
        {
          "internalType": "uint256[]",
          "name": "amounts",
          "type": "uint256[]"
        },
        {
          "internalType": "bytes",
          "name": "data",
          "type": "bytes"
        }
      ],
      "name": "safeBatchTransferFrom",
      "outputs": [],
      "stateMutability": "nonpayable",
      "type": "function"
    },
    {
      "inputs": [
        {
          "internalType": "address",
          "name": "from",
          "type": "address"
        },
        {
          "internalType": "address",
          "name": "to",
          "type": "address"
        },
        {
          "internalType": "uint256",
          "name": "id",
          "type": "uint256"
        },
        {
          "internalType": "uint256",
          "name": "amount",
          "type": "uint256"
        },
        {
          "internalType": "bytes",
          "name": "data",
          "type": "bytes"
        }
      ],
      "name": "safeTransferFrom",
      "outputs": [],
      "stateMutability": "nonpayable",
      "type": "function"
    },
    {
      "inputs": [
        {
          "internalType": "address",
          "name": "operator",
          "type": "address"
        },
        {
          "internalType": "bool",
          "name": "approved",
          "type": "bool"
        }
      ],
      "name": "setApprovalForAll",
      "outputs": [],
      "stateMutability": "nonpayable",
      "type": "function"
    },
    {
      "inputs": [
        {
          "internalType": "uint256",
          "name": "tokenId",
          "type": "uint256"
        },
        {
          "internalType": "string",
          "name": "newUri",
          "type": "string"
        }
      ],
      "name": "setURI",
      "outputs": [],
      "stateMutability": "nonpayable",
      "type": "function"
    },
    {
      "inputs": [
        {
          "internalType": "bytes4",
          "name": "interfaceId",
          "type": "bytes4"
        }
      ],
      "name": "supportsInterface",
      "outputs": [
        {
          "internalType": "bool",
          "name": "",
          "type": "bool"
        }
      ],
      "stateMutability": "view",
      "type": "function"
    },
    {
      "inputs": [],
      "name": "symbol",
      "outputs": [
        {
          "internalType": "string",
          "name": "",
          "type": "string"
        }
      ],
      "stateMutability": "view",
      "type": "function"
    },
    {
      "inputs": [
        {
          "internalType": "address",
          "name": "newOwner",
          "type": "address"
        }
      ],
      "name": "transferOwnership",
      "outputs": [],
      "stateMutability": "nonpayable",
      "type": "function"
    },
    {
      "inputs": [
        {
          "internalType": "uint256",
          "name": "tokenId",
          "type": "uint256"
        }
      ],
      "name": "uri",
      "outputs": [
        {
          "internalType": "string",
          "name": "",
          "type": "string"
        }
      ],
      "stateMutability": "view",
      "type": "function"
    }
  ],
  "bytecode": "0x60a0604052600060809081526003906200001a908262000abe565b506040518060600160405280603281526020016200307360329139600a9062000044908262000abe565b50604051806060016040528060358152602001620030a560359139600b906200006e908262000abe565b50604080518082019091526005815264173539b7b760d91b6020820152600c906200009a908262000abe565b50348015620000a857600080fd5b50604080516020810190915260008152620000c38162000142565b50620000cf3362000154565b60408051808201909152600e81526d416d62617373616427486f72736560901b602082015260089062000103908262000abe565b506040805180820190915260078152665a45484f52534560c81b602082015260099062000131908262000abe565b506200013c620001a6565b62000f4c565b600262000150828262000abe565b5050565b600680546001600160a01b038381166001600160a01b0319831681179093556040519116919082907f8be0079c531659141344cd1fd0a4f28419497f9722a3daafe3b4186f6b6457e090600090a35050565b620001dd3360c8600a600b600c604051602001620001c79392919062000c05565b60408051601f19818403018152919052620002ac565b50620001ff33608c600a600b600c604051602001620001c79392919062000c3e565b5062000221336096600a600b600c604051602001620001c79392919062000c66565b50620002433360b4600a600b600c604051602001620001c79392919062000c8e565b50620002653360a0600a600b600c604051602001620001c79392919062000cb6565b50620002873360fa600a600b600c604051602001620001c79392919062000cde565b50620002a93360dc600a600b600c604051602001620001c79392919062000d06565b50565b6000620002b8620003a6565b6000620002d160076200040860201b62000a751760201c565b6040805180820190915281815260208101868152600d805460018101825560009190915291517fd7b6990105719101dabeb77144f2a3385c8033acd3af97e9423a695e81ad1eb5600290930292830155517fd7b6990105719101dabeb77144f2a3385c8033acd3af97e9423a695e81ad1eb69091015590506200035581846200040c565b62000378858286604051806020016040528060008152506200042260201b60201c565b6200038781336103e862000540565b6200039e6007620005eb60201b62000a791760201c565b949350505050565b6006546001600160a01b03163314620004065760405162461bcd60e51b815260206004820181905260248201527f4f776e61626c653a2063616c6c6572206973206e6f7420746865206f776e657260448201526064015b60405180910390fd5b565b5490565b62000416620003a6565b620001508282620005f4565b6001600160a01b038416620004845760405162461bcd60e51b815260206004820152602160248201527f455243313135353a206d696e7420746f20746865207a65726f206164647265736044820152607360f81b6064820152608401620003fd565b336000620004928562000657565b90506000620004a18562000657565b90506000868152602081815260408083206001600160a01b038b16845290915281208054879290620004d590849062000d2e565b909155505060408051878152602081018790526001600160a01b03808a1692600092918716917fc3d58168c5ae7397731d063d5bbf3d657854427343f4c083240f7aacaa2d0f62910160405180910390a46200053783600089898989620006ad565b50505050505050565b612710811115620005945760405162461bcd60e51b815260206004820152601a60248201527f45524332393831526f79616c746965733a20546f6f20686967680000000000006044820152606401620003fd565b6040805180820182526001600160a01b03938416815262ffffff928316602080830191825260009687526005905291909420935184549151909216600160a01b026001600160b81b03199091169190921617179055565b80546001019055565b60008281526004602052604090206200060e828262000abe565b50817f6bb7ff708619ba0610cba295a58592e0451dee2622938c8755667688daf3529b6200063c8262000879565b6040516200064b919062000daa565b60405180910390a25050565b6040805160018082528183019092526060916000919060208083019080368337019050509050828160008151811062000694576200069462000dbf565b602090810291909101015292915050565b505050505050565b620006cc846001600160a01b03166200097260201b62000a821760201c565b15620006a55760405163f23a6e6160e01b81526001600160a01b0385169063f23a6e619062000708908990899088908890889060040162000dd5565b6020604051808303816000875af192505050801562000746575060408051601f3d908101601f19168201909252620007439181019062000e1c565b60015b62000806576200075562000e48565b806308c379a0036200079557506200076c62000e94565b8062000779575062000797565b8060405162461bcd60e51b8152600401620003fd919062000daa565b505b60405162461bcd60e51b815260206004820152603460248201527f455243313135353a207472616e7366657220746f206e6f6e2d4552433131353560448201527f526563656976657220696d706c656d656e7465720000000000000000000000006064820152608401620003fd565b6001600160e01b0319811663f23a6e6160e01b14620005375760405162461bcd60e51b815260206004820152602860248201527f455243313135353a204552433131353552656365697665722072656a656374656044820152676420746f6b656e7360c01b6064820152608401620003fd565b600081815260046020526040812080546060929190620008999062000a33565b80601f0160208091040260200160405190810160405280929190818152602001828054620008c79062000a33565b8015620009185780601f10620008ec5761010080835404028352916020019162000918565b820191906000526020600020905b815481529060010190602001808311620008fa57829003601f168201915b50505050509050600081511162000945576200093f836200098160201b62000a911760201c565b6200096b565b6003816040516020016200095b92919062000f23565b6040516020818303038152906040525b9392505050565b6001600160a01b03163b151590565b606060028054620009929062000a33565b80601f0160208091040260200160405190810160405280929190818152602001828054620009c09062000a33565b801562000a115780601f10620009e55761010080835404028352916020019162000a11565b820191906000526020600020905b815481529060010190602001808311620009f357829003601f168201915b50505050509050919050565b634e487b7160e01b600052604160045260246000fd5b600181811c9082168062000a4857607f821691505b60208210810362000a6957634e487b7160e01b600052602260045260246000fd5b50919050565b601f82111562000ab957600081815260208120601f850160051c8101602086101562000a985750805b601f850160051c820191505b81811015620006a55782815560010162000aa4565b505050565b81516001600160401b0381111562000ada5762000ada62000a1d565b62000af28162000aeb845462000a33565b8462000a6f565b602080601f83116001811462000b2a576000841562000b115750858301515b600019600386901b1c1916600185901b178555620006a5565b600085815260208120601f198616915b8281101562000b5b5788860151825594840194600190910190840162000b3a565b508582101562000b7a5787850151600019600388901b60f8161c191681555b5050505050600190811b01905550565b6000815462000b998162000a33565b6001828116801562000bb4576001811462000bca5762000bfb565b60ff198416875282151583028701945062000bfb565b8560005260208060002060005b8581101562000bf25781548a82015290840190820162000bd7565b50505082870194505b5050505092915050565b600062000c1e62000c17838762000b8a565b8562000b8a565b603160f81b815262000c34600182018562000b8a565b9695505050505050565b600062000c5062000c17838762000b8a565b601960f91b815262000c34600182018562000b8a565b600062000c7862000c17838762000b8a565b603360f81b815262000c34600182018562000b8a565b600062000ca062000c17838762000b8a565b600d60fa1b815262000c34600182018562000b8a565b600062000cc862000c17838762000b8a565b603560f81b815262000c34600182018562000b8a565b600062000cf062000c17838762000b8a565b601b60f91b815262000c34600182018562000b8a565b600062000d1862000c17838762000b8a565b603760f81b815262000c34600182018562000b8a565b8082018082111562000d5057634e487b7160e01b600052601160045260246000fd5b92915050565b60005b8381101562000d7357818101518382015260200162000d59565b50506000910152565b6000815180845262000d9681602086016020860162000d56565b601f01601f19169290920160200192915050565b6020815260006200096b602083018462000d7c565b634e487b7160e01b600052603260045260246000fd5b6001600160a01b03868116825285166020820152604081018490526060810183905260a06080820181905260009062000e119083018462000d7c565b979650505050505050565b60006020828403121562000e2f57600080fd5b81516001600160e01b0319811681146200096b57600080fd5b600060033d111562000e625760046000803e5060005160e01c5b90565b601f8201601f191681016001600160401b038111828210171562000e8d5762000e8d62000a1d565b6040525050565b600060443d101562000ea35790565b6040516003193d81016004833e81513d6001600160401b03808311602484018310171562000ed357505050505090565b828501915081518181111562000eec5750505050505090565b843d870101602082850101111562000f075750505050505090565b62000f186020828601018762000e65565b509095945050505050565b600062000f31828562000b8a565b835162000f4381836020880162000d56565b01949350505050565b6121178062000f5c6000396000f3fe608060405234801561001057600080fd5b50600436106101205760003560e01c8063715018a6116100ad578063a22cb46511610071578063a22cb46514610283578063e1c7392a14610296578063e985e9c51461029e578063f242432a146102da578063f2fde38b146102ed57600080fd5b8063715018a614610230578063862440e2146102385780638da5cb5b1461024b57806390adec6f1461026657806395d89b411461027b57600080fd5b80630e89341c116100f45780630e89341c146101965780632a55205a146101a95780632eb2c2d6146101db5780634e1273f4146101f05780634f57641c1461021057600080fd5b8062fdd58e1461012557806301ffc9a71461014b57806303d0f90a1461016e57806306fdde0314610181575b600080fd5b6101386101333660046114c4565b610300565b6040519081526020015b60405180910390f35b61015e610159366004611504565b610399565b6040519015158152602001610142565b61013861017c3660046115d8565b6103a4565b610189610479565b604051610142919061167f565b6101896101a4366004611692565b610507565b6101bc6101b73660046116ab565b6105e7565b604080516001600160a01b039093168352602083019190915201610142565b6101ee6101e9366004611762565b610645565b005b6102036101fe36600461180c565b610691565b6040516101429190611908565b61022361021e366004611692565b6107bb565b604051610142919061191b565b6101ee610816565b6101ee610246366004611932565b61082a565b6006546040516001600160a01b039091168152602001610142565b61026e610840565b604051610142919061196f565b6101896108b3565b6101ee6102913660046119c6565b6108c0565b6101ee6108cb565b61015e6102ac366004611a02565b6001600160a01b03918216600090815260016020908152604080832093909416825291909152205460ff1690565b6101ee6102e8366004611a35565b6109ba565b6101ee6102fb366004611a9a565b6109ff565b60006001600160a01b0383166103705760405162461bcd60e51b815260206004820152602a60248201527f455243313135353a2061646472657373207a65726f206973206e6f742061207660448201526930b634b21037bbb732b960b11b60648201526084015b60405180910390fd5b506000818152602081815260408083206001600160a01b03861684529091529020545b92915050565b600061039382610b25565b60006103ae610b4a565b60006103b960075490565b6040805180820190915281815260208101868152600d805460018101825560009190915291517fd7b6990105719101dabeb77144f2a3385c8033acd3af97e9423a695e81ad1eb5600290930292830155517fd7b6990105719101dabeb77144f2a3385c8033acd3af97e9423a695e81ad1eb690910155905061043b818461082a565b61045685828660405180602001604052806000815250610ba4565b61046381336103e8610cb8565b610471600780546001019055565b949350505050565b6008805461048690611ab5565b80601f01602080910402602001604051908101604052809291908181526020018280546104b290611ab5565b80156104ff5780601f106104d4576101008083540402835291602001916104ff565b820191906000526020600020905b8154815290600101906020018083116104e257829003601f168201915b505050505081565b60008181526004602052604081208054606092919061052590611ab5565b80601f016020809104026020016040519081016040528092919081815260200182805461055190611ab5565b801561059e5780601f106105735761010080835404028352916020019161059e565b820191906000526020600020905b81548152906001019060200180831161058157829003601f168201915b5050505050905060008151116105bc576105b783610a91565b6105e0565b6003816040516020016105d0929190611b62565b6040516020818303038152906040525b9392505050565b60008281526005602090815260408083208151808301909252546001600160a01b038116808352600160a01b90910462ffffff169282018390529291612710906106319086611b9d565b61063b9190611bb4565b9150509250929050565b6001600160a01b038516331480610661575061066185336102ac565b61067d5760405162461bcd60e51b815260040161036790611bd6565b61068a8585858585610d61565b5050505050565b606081518351146106f65760405162461bcd60e51b815260206004820152602960248201527f455243313135353a206163636f756e747320616e6420696473206c656e677468604482015268040dad2e6dac2e8c6d60bb1b6064820152608401610367565b6000835167ffffffffffffffff81111561071257610712611521565b60405190808252806020026020018201604052801561073b578160200160208202803683370190505b50905060005b84518110156107b35761078685828151811061075f5761075f611c24565b602002602001015185838151811061077957610779611c24565b6020026020010151610300565b82828151811061079857610798611c24565b60209081029190910101526107ac81611c3a565b9050610741565b509392505050565b6040805180820190915260008082526020820152600d82815481106107e2576107e2611c24565b9060005260206000209060020201604051806040016040529081600082015481526020016001820154815250509050919050565b61081e610b4a565b6108286000610f3e565b565b610832610b4a565b61083c8282610f90565b5050565b6060600d805480602002602001604051908101604052809291908181526020016000905b828210156108aa57838290600052602060002090600202016040518060400160405290816000820154815260200160018201548152505081526020019060010190610864565b50505050905090565b6009805461048690611ab5565b61083c338383610fed565b6108fd3360c8600a600b600c6040516020016108e993929190611c53565b6040516020818303038152906040526103a4565b5061091c33608c600a600b600c6040516020016108e993929190611c86565b5061093b336096600a600b600c6040516020016108e993929190611ca9565b5061095a3360b4600a600b600c6040516020016108e993929190611ccc565b506109793360a0600a600b600c6040516020016108e993929190611cef565b506109983360fa600a600b600c6040516020016108e993929190611d12565b506109b73360dc600a600b600c6040516020016108e993929190611d35565b50565b6001600160a01b0385163314806109d657506109d685336102ac565b6109f25760405162461bcd60e51b815260040161036790611bd6565b61068a85858585856110cd565b610a07610b4a565b6001600160a01b038116610a6c5760405162461bcd60e51b815260206004820152602660248201527f4f776e61626c653a206e6577206f776e657220697320746865207a65726f206160448201526564647265737360d01b6064820152608401610367565b6109b781610f3e565b5490565b80546001019055565b6001600160a01b03163b151590565b606060028054610aa090611ab5565b80601f0160208091040260200160405190810160405280929190818152602001828054610acc90611ab5565b8015610b195780601f10610aee57610100808354040283529160200191610b19565b820191906000526020600020905b815481529060010190602001808311610afc57829003601f168201915b50505050509050919050565b60006001600160e01b0319821663152a902d60e11b14806103935750610393826111f7565b6006546001600160a01b031633146108285760405162461bcd60e51b815260206004820181905260248201527f4f776e61626c653a2063616c6c6572206973206e6f7420746865206f776e65726044820152606401610367565b6001600160a01b038416610c045760405162461bcd60e51b815260206004820152602160248201527f455243313135353a206d696e7420746f20746865207a65726f206164647265736044820152607360f81b6064820152608401610367565b336000610c1085611247565b90506000610c1d85611247565b90506000868152602081815260408083206001600160a01b038b16845290915281208054879290610c4f908490611d58565b909155505060408051878152602081018790526001600160a01b03808a1692600092918716917fc3d58168c5ae7397731d063d5bbf3d657854427343f4c083240f7aacaa2d0f62910160405180910390a4610caf83600089898989611292565b50505050505050565b612710811115610d0a5760405162461bcd60e51b815260206004820152601a60248201527f45524332393831526f79616c746965733a20546f6f20686967680000000000006044820152606401610367565b6040805180820182526001600160a01b03938416815262ffffff928316602080830191825260009687526005905291909420935184549151909216600160a01b026001600160b81b03199091169190921617179055565b8151835114610dc35760405162461bcd60e51b815260206004820152602860248201527f455243313135353a2069647320616e6420616d6f756e7473206c656e677468206044820152670dad2e6dac2e8c6d60c31b6064820152608401610367565b6001600160a01b038416610de95760405162461bcd60e51b815260040161036790611d6b565b3360005b8451811015610ed0576000858281518110610e0a57610e0a611c24565b602002602001015190506000858381518110610e2857610e28611c24565b602090810291909101810151600084815280835260408082206001600160a01b038e168352909352919091205490915081811015610e785760405162461bcd60e51b815260040161036790611db0565b6000838152602081815260408083206001600160a01b038e8116855292528083208585039055908b16825281208054849290610eb5908490611d58565b9250508190555050505080610ec990611c3a565b9050610ded565b50846001600160a01b0316866001600160a01b0316826001600160a01b03167f4a39dc06d4c0dbc64b70af90fd698a233a518aa5d07e595d983b8c0526c8f7fb8787604051610f20929190611dfa565b60405180910390a4610f368187878787876113ed565b505050505050565b600680546001600160a01b038381166001600160a01b0319831681179093556040519116919082907f8be0079c531659141344cd1fd0a4f28419497f9722a3daafe3b4186f6b6457e090600090a35050565b6000828152600460205260409020610fa88282611e73565b50817f6bb7ff708619ba0610cba295a58592e0451dee2622938c8755667688daf3529b610fd484610507565b604051610fe1919061167f565b60405180910390a25050565b816001600160a01b0316836001600160a01b0316036110605760405162461bcd60e51b815260206004820152602960248201527f455243313135353a2073657474696e6720617070726f76616c20737461747573604482015268103337b91039b2b63360b91b6064820152608401610367565b6001600160a01b03838116600081815260016020908152604080832094871680845294825291829020805460ff191686151590811790915591519182527f17307eab39ab6107e8899845ad3d59bd9653f200f220920489ca2b5937696c31910160405180910390a3505050565b6001600160a01b0384166110f35760405162461bcd60e51b815260040161036790611d6b565b3360006110ff85611247565b9050600061110c85611247565b90506000868152602081815260408083206001600160a01b038c1684529091529020548581101561114f5760405162461bcd60e51b815260040161036790611db0565b6000878152602081815260408083206001600160a01b038d8116855292528083208985039055908a1682528120805488929061118c908490611d58565b909155505060408051888152602081018890526001600160a01b03808b16928c821692918816917fc3d58168c5ae7397731d063d5bbf3d657854427343f4c083240f7aacaa2d0f62910160405180910390a46111ec848a8a8a8a8a611292565b505050505050505050565b60006001600160e01b03198216636cdb3d1360e11b148061122857506001600160e01b031982166303a24d0760e21b145b8061039357506301ffc9a760e01b6001600160e01b0319831614610393565b6040805160018082528183019092526060916000919060208083019080368337019050509050828160008151811061128157611281611c24565b602090810291909101015292915050565b6001600160a01b0384163b15610f365760405163f23a6e6160e01b81526001600160a01b0385169063f23a6e61906112d69089908990889088908890600401611f33565b6020604051808303816000875af1925050508015611311575060408051601f3d908101601f1916820190925261130e91810190611f78565b60015b6113bd5761131d611f95565b806308c379a0036113565750611331611fb1565b8061133c5750611358565b8060405162461bcd60e51b8152600401610367919061167f565b505b60405162461bcd60e51b815260206004820152603460248201527f455243313135353a207472616e7366657220746f206e6f6e2d455243313135356044820152732932b1b2b4bb32b91034b6b83632b6b2b73a32b960611b6064820152608401610367565b6001600160e01b0319811663f23a6e6160e01b14610caf5760405162461bcd60e51b81526004016103679061203b565b6001600160a01b0384163b15610f365760405163bc197c8160e01b81526001600160a01b0385169063bc197c81906114319089908990889088908890600401612083565b6020604051808303816000875af192505050801561146c575060408051601f3d908101601f1916820190925261146991810190611f78565b60015b6114785761131d611f95565b6001600160e01b0319811663bc197c8160e01b14610caf5760405162461bcd60e51b81526004016103679061203b565b80356001600160a01b03811681146114bf57600080fd5b919050565b600080604083850312156114d757600080fd5b6114e0836114a8565b946020939093013593505050565b6001600160e01b0319811681146109b757600080fd5b60006020828403121561151657600080fd5b81356105e0816114ee565b634e487b7160e01b600052604160045260246000fd5b601f8201601f1916810167ffffffffffffffff8111828210171561155d5761155d611521565b6040525050565b600082601f83011261157557600080fd5b813567ffffffffffffffff81111561158f5761158f611521565b6040516115a6601f8301601f191660200182611537565b8181528460208386010111156115bb57600080fd5b816020850160208301376000918101602001919091529392505050565b6000806000606084860312156115ed57600080fd5b6115f6846114a8565b925060208401359150604084013567ffffffffffffffff81111561161957600080fd5b61162586828701611564565b9150509250925092565b60005b8381101561164a578181015183820152602001611632565b50506000910152565b6000815180845261166b81602086016020860161162f565b601f01601f19169290920160200192915050565b6020815260006105e06020830184611653565b6000602082840312156116a457600080fd5b5035919050565b600080604083850312156116be57600080fd5b50508035926020909101359150565b600067ffffffffffffffff8211156116e7576116e7611521565b5060051b60200190565b600082601f83011261170257600080fd5b8135602061170f826116cd565b60405161171c8282611537565b83815260059390931b850182019282810191508684111561173c57600080fd5b8286015b848110156117575780358352918301918301611740565b509695505050505050565b600080600080600060a0868803121561177a57600080fd5b611783866114a8565b9450611791602087016114a8565b9350604086013567ffffffffffffffff808211156117ae57600080fd5b6117ba89838a016116f1565b945060608801359150808211156117d057600080fd5b6117dc89838a016116f1565b935060808801359150808211156117f257600080fd5b506117ff88828901611564565b9150509295509295909350565b6000806040838503121561181f57600080fd5b823567ffffffffffffffff8082111561183757600080fd5b818501915085601f83011261184b57600080fd5b81356020611858826116cd565b6040516118658282611537565b83815260059390931b850182019282810191508984111561188557600080fd5b948201945b838610156118aa5761189b866114a8565b8252948201949082019061188a565b965050860135925050808211156118c057600080fd5b5061063b858286016116f1565b600081518084526020808501945080840160005b838110156118fd578151875295820195908201906001016118e1565b509495945050505050565b6020815260006105e060208301846118cd565b815181526020808301519082015260408101610393565b6000806040838503121561194557600080fd5b82359150602083013567ffffffffffffffff81111561196357600080fd5b61063b85828601611564565b602080825282518282018190526000919060409081850190868401855b828110156119b9576119a984835180518252602090810151910152565b928401929085019060010161198c565b5091979650505050505050565b600080604083850312156119d957600080fd5b6119e2836114a8565b9150602083013580151581146119f757600080fd5b809150509250929050565b60008060408385031215611a1557600080fd5b611a1e836114a8565b9150611a2c602084016114a8565b90509250929050565b600080600080600060a08688031215611a4d57600080fd5b611a56866114a8565b9450611a64602087016114a8565b93506040860135925060608601359150608086013567ffffffffffffffff811115611a8e57600080fd5b6117ff88828901611564565b600060208284031215611aac57600080fd5b6105e0826114a8565b600181811c90821680611ac957607f821691505b602082108103611ae957634e487b7160e01b600052602260045260246000fd5b50919050565b60008154611afc81611ab5565b60018281168015611b145760018114611b2957611b58565b60ff1984168752821515830287019450611b58565b8560005260208060002060005b85811015611b4f5781548a820152908401908201611b36565b50505082870194505b5050505092915050565b6000611b6e8285611aef565b8351611b7e81836020880161162f565b01949350505050565b634e487b7160e01b600052601160045260246000fd5b808202811582820484141761039357610393611b87565b600082611bd157634e487b7160e01b600052601260045260246000fd5b500490565b6020808252602e908201527f455243313135353a2063616c6c6572206973206e6f7420746f6b656e206f776e60408201526d195c881bdc88185c1c1c9bdd995960921b606082015260800190565b634e487b7160e01b600052603260045260246000fd5b600060018201611c4c57611c4c611b87565b5060010190565b6000611c68611c628387611aef565b85611aef565b603160f81b8152611c7c6001820185611aef565b9695505050505050565b6000611c95611c628387611aef565b601960f91b8152611c7c6001820185611aef565b6000611cb8611c628387611aef565b603360f81b8152611c7c6001820185611aef565b6000611cdb611c628387611aef565b600d60fa1b8152611c7c6001820185611aef565b6000611cfe611c628387611aef565b603560f81b8152611c7c6001820185611aef565b6000611d21611c628387611aef565b601b60f91b8152611c7c6001820185611aef565b6000611d44611c628387611aef565b603760f81b8152611c7c6001820185611aef565b8082018082111561039357610393611b87565b60208082526025908201527f455243313135353a207472616e7366657220746f20746865207a65726f206164604082015264647265737360d81b606082015260800190565b6020808252602a908201527f455243313135353a20696e73756666696369656e742062616c616e636520666f60408201526939103a3930b739b332b960b11b606082015260800190565b604081526000611e0d60408301856118cd565b8281036020840152611e1f81856118cd565b95945050505050565b601f821115611e6e57600081815260208120601f850160051c81016020861015611e4f5750805b601f850160051c820191505b81811015610f3657828155600101611e5b565b505050565b815167ffffffffffffffff811115611e8d57611e8d611521565b611ea181611e9b8454611ab5565b84611e28565b602080601f831160018114611ed65760008415611ebe5750858301515b600019600386901b1c1916600185901b178555610f36565b600085815260208120601f198616915b82811015611f0557888601518255948401946001909101908401611ee6565b5085821015611f235787850151600019600388901b60f8161c191681555b5050505050600190811b01905550565b6001600160a01b03868116825285166020820152604081018490526060810183905260a060808201819052600090611f6d90830184611653565b979650505050505050565b600060208284031215611f8a57600080fd5b81516105e0816114ee565b600060033d1115611fae5760046000803e5060005160e01c5b90565b600060443d1015611fbf5790565b6040516003193d81016004833e81513d67ffffffffffffffff8160248401118184111715611fef57505050505090565b82850191508151818111156120075750505050505090565b843d87010160208285010111156120215750505050505090565b61203060208286010187611537565b509095945050505050565b60208082526028908201527f455243313135353a204552433131353552656365697665722072656a656374656040820152676420746f6b656e7360c01b606082015260800190565b6001600160a01b0386811682528516602082015260a0604082018190526000906120af908301866118cd565b82810360608401526120c181866118cd565b905082810360808401526120d58185611653565b9897505050505050505056fea264697066735822122030044d853cffd0864253c2c1dbf2e5ea99cb0ad85b456d0ec34563a03460167064736f6c6343000811003368747470733a2f2f677261792d6f63636173696f6e616c2d66697265666c792d3639332e6d7970696e6174612e636c6f75642f697066732f516d504b4c72714c4851517a466e58546437474b35455773716b35614878646f4269396e364a6e647832537436742f",
  "linkReferences": {},
  "deployedLinkReferences": {}
}