{
  "_format": "hh-sol-artifact-1",
  "contractName": "Horses",
  "sourceName": "contracts/Horses.sol",
  "abi": [
    {
      "inputs": [],
      "stateMutability": "nonpayable",
      "type": "constructor"
    },
    {
      "anonymous": false,
      "inputs": [
        {
          "indexed": true,
          "internalType": "address",
          "name": "account",
          "type": "address"
        },
        {
          "indexed": true,
          "internalType": "address",
          "name": "operator",
          "type": "address"
        },
        {
          "indexed": false,
          "internalType": "bool",
          "name": "approved",
          "type": "bool"
        }
      ],
      "name": "ApprovalForAll",
      "type": "event"
    },
    {
      "anonymous": false,
      "inputs": [
        {
          "indexed": true,
          "internalType": "address",
          "name": "previousOwner",
          "type": "address"
        },
        {
          "indexed": true,
          "internalType": "address",
          "name": "newOwner",
          "type": "address"
        }
      ],
      "name": "OwnershipTransferred",
      "type": "event"
    },
    {
      "anonymous": false,
      "inputs": [
        {
          "indexed": true,
          "internalType": "address",
          "name": "operator",
          "type": "address"
        },
        {
          "indexed": true,
          "internalType": "address",
          "name": "from",
          "type": "address"
        },
        {
          "indexed": true,
          "internalType": "address",
          "name": "to",
          "type": "address"
        },
        {
          "indexed": false,
          "internalType": "uint256[]",
          "name": "ids",
          "type": "uint256[]"
        },
        {
          "indexed": false,
          "internalType": "uint256[]",
          "name": "values",
          "type": "uint256[]"
        }
      ],
      "name": "TransferBatch",
      "type": "event"
    },
    {
      "anonymous": false,
      "inputs": [
        {
          "indexed": true,
          "internalType": "address",
          "name": "operator",
          "type": "address"
        },
        {
          "indexed": true,
          "internalType": "address",
          "name": "from",
          "type": "address"
        },
        {
          "indexed": true,
          "internalType": "address",
          "name": "to",
          "type": "address"
        },
        {
          "indexed": false,
          "internalType": "uint256",
          "name": "id",
          "type": "uint256"
        },
        {
          "indexed": false,
          "internalType": "uint256",
          "name": "value",
          "type": "uint256"
        }
      ],
      "name": "TransferSingle",
      "type": "event"
    },
    {
      "anonymous": false,
      "inputs": [
        {
          "indexed": false,
          "internalType": "string",
          "name": "value",
          "type": "string"
        },
        {
          "indexed": true,
          "internalType": "uint256",
          "name": "id",
          "type": "uint256"
        }
      ],
      "name": "URI",
      "type": "event"
    },
    {
      "inputs": [
        {
          "internalType": "address",
          "name": "account",
          "type": "address"
        },
        {
          "internalType": "uint256",
          "name": "id",
          "type": "uint256"
        }
      ],
      "name": "balanceOf",
      "outputs": [
        {
          "internalType": "uint256",
          "name": "",
          "type": "uint256"
        }
      ],
      "stateMutability": "view",
      "type": "function"
    },
    {
      "inputs": [
        {
          "internalType": "address[]",
          "name": "accounts",
          "type": "address[]"
        },
        {
          "internalType": "uint256[]",
          "name": "ids",
          "type": "uint256[]"
        }
      ],
      "name": "balanceOfBatch",
      "outputs": [
        {
          "internalType": "uint256[]",
          "name": "",
          "type": "uint256[]"
        }
      ],
      "stateMutability": "view",
      "type": "function"
    },
    {
      "inputs": [
        {
          "internalType": "uint256",
          "name": "tokenId",
          "type": "uint256"
        }
      ],
      "name": "getHorse",
      "outputs": [
        {
          "components": [
            {
              "internalType": "uint256",
              "name": "id",
              "type": "uint256"
            },
            {
              "internalType": "string",
              "name": "uri",
              "type": "string"
            },
            {
              "internalType": "uint256",
              "name": "amount",
              "type": "uint256"
            }
          ],
          "internalType": "struct Horses.Horse",
          "name": "",
          "type": "tuple"
        }
      ],
      "stateMutability": "view",
      "type": "function"
    },
    {
      "inputs": [],
      "name": "getHorses",
      "outputs": [
        {
          "components": [
            {
              "internalType": "uint256",
              "name": "id",
              "type": "uint256"
            },
            {
              "internalType": "string",
              "name": "uri",
              "type": "string"
            },
            {
              "internalType": "uint256",
              "name": "amount",
              "type": "uint256"
            }
          ],
          "internalType": "struct Horses.Horse[]",
          "name": "",
          "type": "tuple[]"
        }
      ],
      "stateMutability": "view",
      "type": "function"
    },
    {
      "inputs": [],
      "name": "init",
      "outputs": [],
      "stateMutability": "nonpayable",
      "type": "function"
    },
    {
      "inputs": [
        {
          "internalType": "address",
          "name": "account",
          "type": "address"
        },
        {
          "internalType": "address",
          "name": "operator",
          "type": "address"
        }
      ],
      "name": "isApprovedForAll",
      "outputs": [
        {
          "internalType": "bool",
          "name": "",
          "type": "bool"
        }
      ],
      "stateMutability": "view",
      "type": "function"
    },
    {
      "inputs": [
        {
          "internalType": "address",
          "name": "account",
          "type": "address"
        },
        {
          "internalType": "uint256",
          "name": "amount",
          "type": "uint256"
        },
        {
          "internalType": "string",
          "name": "_uri",
          "type": "string"
        }
      ],
      "name": "mintHorse",
      "outputs": [
        {
          "internalType": "uint256",
          "name": "",
          "type": "uint256"
        }
      ],
      "stateMutability": "nonpayable",
      "type": "function"
    },
    {
      "inputs": [],
      "name": "name",
      "outputs": [
        {
          "internalType": "string",
          "name": "",
          "type": "string"
        }
      ],
      "stateMutability": "view",
      "type": "function"
    },
    {
      "inputs": [],
      "name": "owner",
      "outputs": [
        {
          "internalType": "address",
          "name": "",
          "type": "address"
        }
      ],
      "stateMutability": "view",
      "type": "function"
    },
    {
      "inputs": [],
      "name": "renounceOwnership",
      "outputs": [],
      "stateMutability": "nonpayable",
      "type": "function"
    },
    {
      "inputs": [
        {
          "internalType": "uint256",
          "name": "tokenId",
          "type": "uint256"
        },
        {
          "internalType": "uint256",
          "name": "value",
          "type": "uint256"
        }
      ],
      "name": "royaltyInfo",
      "outputs": [
        {
          "internalType": "address",
          "name": "receiver",
          "type": "address"
        },
        {
          "internalType": "uint256",
          "name": "royaltyAmount",
          "type": "uint256"
        }
      ],
      "stateMutability": "view",
      "type": "function"
    },
    {
      "inputs": [
        {
          "internalType": "address",
          "name": "from",
          "type": "address"
        },
        {
          "internalType": "address",
          "name": "to",
          "type": "address"
        },
        {
          "internalType": "uint256[]",
          "name": "ids",
          "type": "uint256[]"
        },
        {
          "internalType": "uint256[]",
          "name": "amounts",
          "type": "uint256[]"
        },
        {
          "internalType": "bytes",
          "name": "data",
          "type": "bytes"
        }
      ],
      "name": "safeBatchTransferFrom",
      "outputs": [],
      "stateMutability": "nonpayable",
      "type": "function"
    },
    {
      "inputs": [
        {
          "internalType": "address",
          "name": "from",
          "type": "address"
        },
        {
          "internalType": "address",
          "name": "to",
          "type": "address"
        },
        {
          "internalType": "uint256",
          "name": "id",
          "type": "uint256"
        },
        {
          "internalType": "uint256",
          "name": "amount",
          "type": "uint256"
        },
        {
          "internalType": "bytes",
          "name": "data",
          "type": "bytes"
        }
      ],
      "name": "safeTransferFrom",
      "outputs": [],
      "stateMutability": "nonpayable",
      "type": "function"
    },
    {
      "inputs": [
        {
          "internalType": "address",
          "name": "operator",
          "type": "address"
        },
        {
          "internalType": "bool",
          "name": "approved",
          "type": "bool"
        }
      ],
      "name": "setApprovalForAll",
      "outputs": [],
      "stateMutability": "nonpayable",
      "type": "function"
    },
    {
      "inputs": [
        {
          "internalType": "uint256",
          "name": "tokenId",
          "type": "uint256"
        },
        {
          "internalType": "string",
          "name": "newUri",
          "type": "string"
        }
      ],
      "name": "setURI",
      "outputs": [],
      "stateMutability": "nonpayable",
      "type": "function"
    },
    {
      "inputs": [
        {
          "internalType": "bytes4",
          "name": "interfaceId",
          "type": "bytes4"
        }
      ],
      "name": "supportsInterface",
      "outputs": [
        {
          "internalType": "bool",
          "name": "",
          "type": "bool"
        }
      ],
      "stateMutability": "view",
      "type": "function"
    },
    {
      "inputs": [],
      "name": "symbol",
      "outputs": [
        {
          "internalType": "string",
          "name": "",
          "type": "string"
        }
      ],
      "stateMutability": "view",
      "type": "function"
    },
    {
      "inputs": [
        {
          "internalType": "address",
          "name": "newOwner",
          "type": "address"
        }
      ],
      "name": "transferOwnership",
      "outputs": [],
      "stateMutability": "nonpayable",
      "type": "function"
    },
    {
      "inputs": [
        {
          "internalType": "uint256",
          "name": "tokenId",
          "type": "uint256"
        }
      ],
      "name": "uri",
      "outputs": [
        {
          "internalType": "string",
          "name": "",
          "type": "string"
        }
      ],
      "stateMutability": "view",
      "type": "function"
    }
  ],
  "bytecode": "0x60a0604052600060809081526003906200001a908262000b50565b50604051806060016040528060328152602001620032f860329139600a9062000044908262000b50565b506040518060600160405280603581526020016200332a60359139600b906200006e908262000b50565b50604080518082019091526005815264173539b7b760d91b6020820152600c906200009a908262000b50565b50348015620000a857600080fd5b50604080516020810190915260008152620000c38162000142565b50620000cf3362000154565b60408051808201909152600e81526d416d62617373616427486f72736560901b602082015260089062000103908262000b50565b506040805180820190915260078152665a45484f52534560c81b602082015260099062000131908262000b50565b506200013c620001a6565b62000fde565b600262000150828262000b50565b5050565b600680546001600160a01b038381166001600160a01b0319831681179093556040519116919082907f8be0079c531659141344cd1fd0a4f28419497f9722a3daafe3b4186f6b6457e090600090a35050565b620001dd3360c8600a600b600c604051602001620001c79392919062000c97565b60408051601f19818403018152919052620002ac565b50620001ff33608c600a600b600c604051602001620001c79392919062000cd0565b5062000221336096600a600b600c604051602001620001c79392919062000cf8565b50620002433360b4600a600b600c604051602001620001c79392919062000d20565b50620002653360a0600a600b600c604051602001620001c79392919062000d48565b50620002873360fa600a600b600c604051602001620001c79392919062000d70565b50620002a93360dc600a600b600c604051602001620001c79392919062000d98565b50565b6000620002b862000402565b6000620002d160076200046460201b62000c331760201c565b6040805160608101825282815260208101868152918101879052600d8054600181018255600091909152815160039091027fd7b6990105719101dabeb77144f2a3385c8033acd3af97e9423a695e81ad1eb581019182559251939450909290917fd7b6990105719101dabeb77144f2a3385c8033acd3af97e9423a695e81ad1eb6019062000360908262000b50565b50604091909101516002909101556200037a818462000468565b82600d828154811062000391576200039162000dc0565b90600052602060002090600302016001019081620003b0919062000b50565b50620003d485828660405180602001604052806000815250620004b960201b60201c565b620003e381336103e8620005d7565b620003fa60076200068260201b62000c371760201c565b949350505050565b6006546001600160a01b03163314620004625760405162461bcd60e51b815260206004820181905260248201527f4f776e61626c653a2063616c6c6572206973206e6f7420746865206f776e657260448201526064015b60405180910390fd5b565b5490565b6200047262000402565b6200047e82826200068b565b80600d838154811062000495576200049562000dc0565b90600052602060002090600302016001019081620004b4919062000b50565b505050565b6001600160a01b0384166200051b5760405162461bcd60e51b815260206004820152602160248201527f455243313135353a206d696e7420746f20746865207a65726f206164647265736044820152607360f81b606482015260840162000459565b3360006200052985620006ee565b905060006200053885620006ee565b90506000868152602081815260408083206001600160a01b038b168452909152812080548792906200056c90849062000dd6565b909155505060408051878152602081018790526001600160a01b03808a1692600092918716917fc3d58168c5ae7397731d063d5bbf3d657854427343f4c083240f7aacaa2d0f62910160405180910390a4620005ce8360008989898962000744565b50505050505050565b6127108111156200062b5760405162461bcd60e51b815260206004820152601a60248201527f45524332393831526f79616c746965733a20546f6f2068696768000000000000604482015260640162000459565b6040805180820182526001600160a01b03938416815262ffffff928316602080830191825260009687526005905291909420935184549151909216600160a01b026001600160b81b03199091169190921617179055565b80546001019055565b6000828152600460205260409020620006a5828262000b50565b50817f6bb7ff708619ba0610cba295a58592e0451dee2622938c8755667688daf3529b620006d38262000910565b604051620006e2919062000e52565b60405180910390a25050565b604080516001808252818301909252606091600091906020808301908036833701905050905082816000815181106200072b576200072b62000dc0565b602090810291909101015292915050565b505050505050565b62000763846001600160a01b031662000a0960201b62000c401760201c565b156200073c5760405163f23a6e6160e01b81526001600160a01b0385169063f23a6e61906200079f908990899088908890889060040162000e67565b6020604051808303816000875af1925050508015620007dd575060408051601f3d908101601f19168201909252620007da9181019062000eae565b60015b6200089d57620007ec62000eda565b806308c379a0036200082c57506200080362000f26565b806200081057506200082e565b8060405162461bcd60e51b815260040162000459919062000e52565b505b60405162461bcd60e51b815260206004820152603460248201527f455243313135353a207472616e7366657220746f206e6f6e2d4552433131353560448201527f526563656976657220696d706c656d656e746572000000000000000000000000606482015260840162000459565b6001600160e01b0319811663f23a6e6160e01b14620005ce5760405162461bcd60e51b815260206004820152602860248201527f455243313135353a204552433131353552656365697665722072656a656374656044820152676420746f6b656e7360c01b606482015260840162000459565b600081815260046020526040812080546060929190620009309062000aca565b80601f01602080910402602001604051908101604052809291908181526020018280546200095e9062000aca565b8015620009af5780601f106200098357610100808354040283529160200191620009af565b820191906000526020600020905b8154815290600101906020018083116200099157829003601f168201915b505050505090506000815111620009dc57620009d68362000a1860201b62000c4f1760201c565b62000a02565b600381604051602001620009f292919062000fb5565b6040516020818303038152906040525b9392505050565b6001600160a01b03163b151590565b60606002805462000a299062000aca565b80601f016020809104026020016040519081016040528092919081815260200182805462000a579062000aca565b801562000aa85780601f1062000a7c5761010080835404028352916020019162000aa8565b820191906000526020600020905b81548152906001019060200180831162000a8a57829003601f168201915b50505050509050919050565b634e487b7160e01b600052604160045260246000fd5b600181811c9082168062000adf57607f821691505b60208210810362000b0057634e487b7160e01b600052602260045260246000fd5b50919050565b601f821115620004b457600081815260208120601f850160051c8101602086101562000b2f5750805b601f850160051c820191505b818110156200073c5782815560010162000b3b565b81516001600160401b0381111562000b6c5762000b6c62000ab4565b62000b848162000b7d845462000aca565b8462000b06565b602080601f83116001811462000bbc576000841562000ba35750858301515b600019600386901b1c1916600185901b1785556200073c565b600085815260208120601f198616915b8281101562000bed5788860151825594840194600190910190840162000bcc565b508582101562000c0c5787850151600019600388901b60f8161c191681555b5050505050600190811b01905550565b6000815462000c2b8162000aca565b6001828116801562000c46576001811462000c5c5762000c8d565b60ff198416875282151583028701945062000c8d565b8560005260208060002060005b8581101562000c845781548a82015290840190820162000c69565b50505082870194505b5050505092915050565b600062000cb062000ca9838762000c1c565b8562000c1c565b603160f81b815262000cc6600182018562000c1c565b9695505050505050565b600062000ce262000ca9838762000c1c565b601960f91b815262000cc6600182018562000c1c565b600062000d0a62000ca9838762000c1c565b603360f81b815262000cc6600182018562000c1c565b600062000d3262000ca9838762000c1c565b600d60fa1b815262000cc6600182018562000c1c565b600062000d5a62000ca9838762000c1c565b603560f81b815262000cc6600182018562000c1c565b600062000d8262000ca9838762000c1c565b601b60f91b815262000cc6600182018562000c1c565b600062000daa62000ca9838762000c1c565b603760f81b815262000cc6600182018562000c1c565b634e487b7160e01b600052603260045260246000fd5b8082018082111562000df857634e487b7160e01b600052601160045260246000fd5b92915050565b60005b8381101562000e1b57818101518382015260200162000e01565b50506000910152565b6000815180845262000e3e81602086016020860162000dfe565b601f01601f19169290920160200192915050565b60208152600062000a02602083018462000e24565b6001600160a01b03868116825285166020820152604081018490526060810183905260a06080820181905260009062000ea39083018462000e24565b979650505050505050565b60006020828403121562000ec157600080fd5b81516001600160e01b03198116811462000a0257600080fd5b600060033d111562000ef45760046000803e5060005160e01c5b90565b601f8201601f191681016001600160401b038111828210171562000f1f5762000f1f62000ab4565b6040525050565b600060443d101562000f355790565b6040516003193d81016004833e81513d6001600160401b03808311602484018310171562000f6557505050505090565b828501915081518181111562000f7e5750505050505090565b843d870101602082850101111562000f995750505050505090565b62000faa6020828601018762000ef7565b509095945050505050565b600062000fc3828562000c1c565b835162000fd581836020880162000dfe565b01949350505050565b61230a8062000fee6000396000f3fe608060405234801561001057600080fd5b50600436106101205760003560e01c8063715018a6116100ad578063a22cb46511610071578063a22cb46514610283578063e1c7392a14610296578063e985e9c51461029e578063f242432a146102da578063f2fde38b146102ed57600080fd5b8063715018a614610230578063862440e2146102385780638da5cb5b1461024b57806390adec6f1461026657806395d89b411461027b57600080fd5b80630e89341c116100f45780630e89341c146101965780632a55205a146101a95780632eb2c2d6146101db5780634e1273f4146101f05780634f57641c1461021057600080fd5b8062fdd58e1461012557806301ffc9a71461014b57806303d0f90a1461016e57806306fdde0314610181575b600080fd5b610138610133366004611682565b610300565b6040519081526020015b60405180910390f35b61015e6101593660046116c2565b610399565b6040519015158152602001610142565b61013861017c366004611796565b6103a4565b6101896104cd565b604051610142919061183d565b6101896101a4366004611850565b61055b565b6101bc6101b7366004611869565b61063b565b604080516001600160a01b039093168352602083019190915201610142565b6101ee6101e9366004611920565b610699565b005b6102036101fe3660046119ca565b6106e5565b6040516101429190611ac6565b61022361021e366004611850565b61080f565b6040516101429190611b0c565b6101ee61090c565b6101ee610246366004611b1f565b610920565b6006546040516001600160a01b039091168152602001610142565b61026e610968565b6040516101429190611b5c565b610189610a6d565b6101ee610291366004611bbe565b610a7a565b6101ee610a89565b61015e6102ac366004611bfa565b6001600160a01b03918216600090815260016020908152604080832093909416825291909152205460ff1690565b6101ee6102e8366004611c2d565b610b78565b6101ee6102fb366004611c92565b610bbd565b60006001600160a01b0383166103705760405162461bcd60e51b815260206004820152602a60248201527f455243313135353a2061646472657373207a65726f206973206e6f742061207660448201526930b634b21037bbb732b960b11b60648201526084015b60405180910390fd5b506000818152602081815260408083206001600160a01b03861684529091529020545b92915050565b600061039382610ce3565b60006103ae610d08565b60006103b960075490565b6040805160608101825282815260208101868152918101879052600d8054600181018255600091909152815160039091027fd7b6990105719101dabeb77144f2a3385c8033acd3af97e9423a695e81ad1eb581019182559251939450909290917fd7b6990105719101dabeb77144f2a3385c8033acd3af97e9423a695e81ad1eb601906104469082611d2d565b5060408201518160020155505061045d8184610920565b82600d828154811061047157610471611ded565b9060005260206000209060030201600101908161048e9190611d2d565b506104aa85828660405180602001604052806000815250610d62565b6104b781336103e8610e76565b6104c5600780546001019055565b949350505050565b600880546104da90611cad565b80601f016020809104026020016040519081016040528092919081815260200182805461050690611cad565b80156105535780601f1061052857610100808354040283529160200191610553565b820191906000526020600020905b81548152906001019060200180831161053657829003601f168201915b505050505081565b60008181526004602052604081208054606092919061057990611cad565b80601f01602080910402602001604051908101604052809291908181526020018280546105a590611cad565b80156105f25780601f106105c7576101008083540402835291602001916105f2565b820191906000526020600020905b8154815290600101906020018083116105d557829003601f168201915b5050505050905060008151116106105761060b83610c4f565b610634565b600381604051602001610624929190611e76565b6040516020818303038152906040525b9392505050565b60008281526005602090815260408083208151808301909252546001600160a01b038116808352600160a01b90910462ffffff169282018390529291612710906106859086611eb1565b61068f9190611ec8565b9150509250929050565b6001600160a01b0385163314806106b557506106b585336102ac565b6106d15760405162461bcd60e51b815260040161036790611eea565b6106de8585858585610f1f565b5050505050565b6060815183511461074a5760405162461bcd60e51b815260206004820152602960248201527f455243313135353a206163636f756e747320616e6420696473206c656e677468604482015268040dad2e6dac2e8c6d60bb1b6064820152608401610367565b6000835167ffffffffffffffff811115610766576107666116df565b60405190808252806020026020018201604052801561078f578160200160208202803683370190505b50905060005b8451811015610807576107da8582815181106107b3576107b3611ded565b60200260200101518583815181106107cd576107cd611ded565b6020026020010151610300565b8282815181106107ec576107ec611ded565b602090810291909101015261080081611f38565b9050610795565b509392505050565b61083360405180606001604052806000815260200160608152602001600081525090565b600d828154811061084657610846611ded565b90600052602060002090600302016040518060600160405290816000820154815260200160018201805461087990611cad565b80601f01602080910402602001604051908101604052809291908181526020018280546108a590611cad565b80156108f25780601f106108c7576101008083540402835291602001916108f2565b820191906000526020600020905b8154815290600101906020018083116108d557829003601f168201915b505050505081526020016002820154815250509050919050565b610914610d08565b61091e60006110fc565b565b610928610d08565b610932828261114e565b80600d838154811061094657610946611ded565b906000526020600020906003020160010190816109639190611d2d565b505050565b6060600d805480602002602001604051908101604052809291908181526020016000905b82821015610a645783829060005260206000209060030201604051806060016040529081600082015481526020016001820180546109c990611cad565b80601f01602080910402602001604051908101604052809291908181526020018280546109f590611cad565b8015610a425780601f10610a1757610100808354040283529160200191610a42565b820191906000526020600020905b815481529060010190602001808311610a2557829003601f168201915b505050505081526020016002820154815250508152602001906001019061098c565b50505050905090565b600980546104da90611cad565b610a853383836111ab565b5050565b610abb3360c8600a600b600c604051602001610aa793929190611f51565b6040516020818303038152906040526103a4565b50610ada33608c600a600b600c604051602001610aa793929190611f84565b50610af9336096600a600b600c604051602001610aa793929190611fa7565b50610b183360b4600a600b600c604051602001610aa793929190611fca565b50610b373360a0600a600b600c604051602001610aa793929190611fed565b50610b563360fa600a600b600c604051602001610aa793929190612010565b50610b753360dc600a600b600c604051602001610aa793929190612033565b50565b6001600160a01b038516331480610b945750610b9485336102ac565b610bb05760405162461bcd60e51b815260040161036790611eea565b6106de858585858561128b565b610bc5610d08565b6001600160a01b038116610c2a5760405162461bcd60e51b815260206004820152602660248201527f4f776e61626c653a206e6577206f776e657220697320746865207a65726f206160448201526564647265737360d01b6064820152608401610367565b610b75816110fc565b5490565b80546001019055565b6001600160a01b03163b151590565b606060028054610c5e90611cad565b80601f0160208091040260200160405190810160405280929190818152602001828054610c8a90611cad565b8015610cd75780601f10610cac57610100808354040283529160200191610cd7565b820191906000526020600020905b815481529060010190602001808311610cba57829003601f168201915b50505050509050919050565b60006001600160e01b0319821663152a902d60e11b14806103935750610393826113b5565b6006546001600160a01b0316331461091e5760405162461bcd60e51b815260206004820181905260248201527f4f776e61626c653a2063616c6c6572206973206e6f7420746865206f776e65726044820152606401610367565b6001600160a01b038416610dc25760405162461bcd60e51b815260206004820152602160248201527f455243313135353a206d696e7420746f20746865207a65726f206164647265736044820152607360f81b6064820152608401610367565b336000610dce85611405565b90506000610ddb85611405565b90506000868152602081815260408083206001600160a01b038b16845290915281208054879290610e0d908490612056565b909155505060408051878152602081018790526001600160a01b03808a1692600092918716917fc3d58168c5ae7397731d063d5bbf3d657854427343f4c083240f7aacaa2d0f62910160405180910390a4610e6d83600089898989611450565b50505050505050565b612710811115610ec85760405162461bcd60e51b815260206004820152601a60248201527f45524332393831526f79616c746965733a20546f6f20686967680000000000006044820152606401610367565b6040805180820182526001600160a01b03938416815262ffffff928316602080830191825260009687526005905291909420935184549151909216600160a01b026001600160b81b03199091169190921617179055565b8151835114610f815760405162461bcd60e51b815260206004820152602860248201527f455243313135353a2069647320616e6420616d6f756e7473206c656e677468206044820152670dad2e6dac2e8c6d60c31b6064820152608401610367565b6001600160a01b038416610fa75760405162461bcd60e51b815260040161036790612069565b3360005b845181101561108e576000858281518110610fc857610fc8611ded565b602002602001015190506000858381518110610fe657610fe6611ded565b602090810291909101810151600084815280835260408082206001600160a01b038e1683529093529190912054909150818110156110365760405162461bcd60e51b8152600401610367906120ae565b6000838152602081815260408083206001600160a01b038e8116855292528083208585039055908b16825281208054849290611073908490612056565b925050819055505050508061108790611f38565b9050610fab565b50846001600160a01b0316866001600160a01b0316826001600160a01b03167f4a39dc06d4c0dbc64b70af90fd698a233a518aa5d07e595d983b8c0526c8f7fb87876040516110de9291906120f8565b60405180910390a46110f48187878787876115ab565b505050505050565b600680546001600160a01b038381166001600160a01b0319831681179093556040519116919082907f8be0079c531659141344cd1fd0a4f28419497f9722a3daafe3b4186f6b6457e090600090a35050565b60008281526004602052604090206111668282611d2d565b50817f6bb7ff708619ba0610cba295a58592e0451dee2622938c8755667688daf3529b6111928461055b565b60405161119f919061183d565b60405180910390a25050565b816001600160a01b0316836001600160a01b03160361121e5760405162461bcd60e51b815260206004820152602960248201527f455243313135353a2073657474696e6720617070726f76616c20737461747573604482015268103337b91039b2b63360b91b6064820152608401610367565b6001600160a01b03838116600081815260016020908152604080832094871680845294825291829020805460ff191686151590811790915591519182527f17307eab39ab6107e8899845ad3d59bd9653f200f220920489ca2b5937696c31910160405180910390a3505050565b6001600160a01b0384166112b15760405162461bcd60e51b815260040161036790612069565b3360006112bd85611405565b905060006112ca85611405565b90506000868152602081815260408083206001600160a01b038c1684529091529020548581101561130d5760405162461bcd60e51b8152600401610367906120ae565b6000878152602081815260408083206001600160a01b038d8116855292528083208985039055908a1682528120805488929061134a908490612056565b909155505060408051888152602081018890526001600160a01b03808b16928c821692918816917fc3d58168c5ae7397731d063d5bbf3d657854427343f4c083240f7aacaa2d0f62910160405180910390a46113aa848a8a8a8a8a611450565b505050505050505050565b60006001600160e01b03198216636cdb3d1360e11b14806113e657506001600160e01b031982166303a24d0760e21b145b8061039357506301ffc9a760e01b6001600160e01b0319831614610393565b6040805160018082528183019092526060916000919060208083019080368337019050509050828160008151811061143f5761143f611ded565b602090810291909101015292915050565b6001600160a01b0384163b156110f45760405163f23a6e6160e01b81526001600160a01b0385169063f23a6e61906114949089908990889088908890600401612126565b6020604051808303816000875af19250505080156114cf575060408051601f3d908101601f191682019092526114cc9181019061216b565b60015b61157b576114db612188565b806308c379a00361151457506114ef6121a4565b806114fa5750611516565b8060405162461bcd60e51b8152600401610367919061183d565b505b60405162461bcd60e51b815260206004820152603460248201527f455243313135353a207472616e7366657220746f206e6f6e2d455243313135356044820152732932b1b2b4bb32b91034b6b83632b6b2b73a32b960611b6064820152608401610367565b6001600160e01b0319811663f23a6e6160e01b14610e6d5760405162461bcd60e51b81526004016103679061222e565b6001600160a01b0384163b156110f45760405163bc197c8160e01b81526001600160a01b0385169063bc197c81906115ef9089908990889088908890600401612276565b6020604051808303816000875af192505050801561162a575060408051601f3d908101601f191682019092526116279181019061216b565b60015b611636576114db612188565b6001600160e01b0319811663bc197c8160e01b14610e6d5760405162461bcd60e51b81526004016103679061222e565b80356001600160a01b038116811461167d57600080fd5b919050565b6000806040838503121561169557600080fd5b61169e83611666565b946020939093013593505050565b6001600160e01b031981168114610b7557600080fd5b6000602082840312156116d457600080fd5b8135610634816116ac565b634e487b7160e01b600052604160045260246000fd5b601f8201601f1916810167ffffffffffffffff8111828210171561171b5761171b6116df565b6040525050565b600082601f83011261173357600080fd5b813567ffffffffffffffff81111561174d5761174d6116df565b604051611764601f8301601f1916602001826116f5565b81815284602083860101111561177957600080fd5b816020850160208301376000918101602001919091529392505050565b6000806000606084860312156117ab57600080fd5b6117b484611666565b925060208401359150604084013567ffffffffffffffff8111156117d757600080fd5b6117e386828701611722565b9150509250925092565b60005b838110156118085781810151838201526020016117f0565b50506000910152565b600081518084526118298160208601602086016117ed565b601f01601f19169290920160200192915050565b6020815260006106346020830184611811565b60006020828403121561186257600080fd5b5035919050565b6000806040838503121561187c57600080fd5b50508035926020909101359150565b600067ffffffffffffffff8211156118a5576118a56116df565b5060051b60200190565b600082601f8301126118c057600080fd5b813560206118cd8261188b565b6040516118da82826116f5565b83815260059390931b85018201928281019150868411156118fa57600080fd5b8286015b8481101561191557803583529183019183016118fe565b509695505050505050565b600080600080600060a0868803121561193857600080fd5b61194186611666565b945061194f60208701611666565b9350604086013567ffffffffffffffff8082111561196c57600080fd5b61197889838a016118af565b9450606088013591508082111561198e57600080fd5b61199a89838a016118af565b935060808801359150808211156119b057600080fd5b506119bd88828901611722565b9150509295509295909350565b600080604083850312156119dd57600080fd5b823567ffffffffffffffff808211156119f557600080fd5b818501915085601f830112611a0957600080fd5b81356020611a168261188b565b604051611a2382826116f5565b83815260059390931b8501820192828101915089841115611a4357600080fd5b948201945b83861015611a6857611a5986611666565b82529482019490820190611a48565b96505086013592505080821115611a7e57600080fd5b5061068f858286016118af565b600081518084526020808501945080840160005b83811015611abb57815187529582019590820190600101611a9f565b509495945050505050565b6020815260006106346020830184611a8b565b805182526000602082015160606020850152611af86060850182611811565b604093840151949093019390935250919050565b6020815260006106346020830184611ad9565b60008060408385031215611b3257600080fd5b82359150602083013567ffffffffffffffff811115611b5057600080fd5b61068f85828601611722565b6000602080830181845280855180835260408601915060408160051b870101925083870160005b82811015611bb157603f19888603018452611b9f858351611ad9565b94509285019290850190600101611b83565b5092979650505050505050565b60008060408385031215611bd157600080fd5b611bda83611666565b915060208301358015158114611bef57600080fd5b809150509250929050565b60008060408385031215611c0d57600080fd5b611c1683611666565b9150611c2460208401611666565b90509250929050565b600080600080600060a08688031215611c4557600080fd5b611c4e86611666565b9450611c5c60208701611666565b93506040860135925060608601359150608086013567ffffffffffffffff811115611c8657600080fd5b6119bd88828901611722565b600060208284031215611ca457600080fd5b61063482611666565b600181811c90821680611cc157607f821691505b602082108103611ce157634e487b7160e01b600052602260045260246000fd5b50919050565b601f82111561096357600081815260208120601f850160051c81016020861015611d0e5750805b601f850160051c820191505b818110156110f457828155600101611d1a565b815167ffffffffffffffff811115611d4757611d476116df565b611d5b81611d558454611cad565b84611ce7565b602080601f831160018114611d905760008415611d785750858301515b600019600386901b1c1916600185901b1785556110f4565b600085815260208120601f198616915b82811015611dbf57888601518255948401946001909101908401611da0565b5085821015611ddd5787850151600019600388901b60f8161c191681555b5050505050600190811b01905550565b634e487b7160e01b600052603260045260246000fd5b60008154611e1081611cad565b60018281168015611e285760018114611e3d57611e6c565b60ff1984168752821515830287019450611e6c565b8560005260208060002060005b85811015611e635781548a820152908401908201611e4a565b50505082870194505b5050505092915050565b6000611e828285611e03565b8351611e928183602088016117ed565b01949350505050565b634e487b7160e01b600052601160045260246000fd5b808202811582820484141761039357610393611e9b565b600082611ee557634e487b7160e01b600052601260045260246000fd5b500490565b6020808252602e908201527f455243313135353a2063616c6c6572206973206e6f7420746f6b656e206f776e60408201526d195c881bdc88185c1c1c9bdd995960921b606082015260800190565b600060018201611f4a57611f4a611e9b565b5060010190565b6000611f66611f608387611e03565b85611e03565b603160f81b8152611f7a6001820185611e03565b9695505050505050565b6000611f93611f608387611e03565b601960f91b8152611f7a6001820185611e03565b6000611fb6611f608387611e03565b603360f81b8152611f7a6001820185611e03565b6000611fd9611f608387611e03565b600d60fa1b8152611f7a6001820185611e03565b6000611ffc611f608387611e03565b603560f81b8152611f7a6001820185611e03565b600061201f611f608387611e03565b601b60f91b8152611f7a6001820185611e03565b6000612042611f608387611e03565b603760f81b8152611f7a6001820185611e03565b8082018082111561039357610393611e9b565b60208082526025908201527f455243313135353a207472616e7366657220746f20746865207a65726f206164604082015264647265737360d81b606082015260800190565b6020808252602a908201527f455243313135353a20696e73756666696369656e742062616c616e636520666f60408201526939103a3930b739b332b960b11b606082015260800190565b60408152600061210b6040830185611a8b565b828103602084015261211d8185611a8b565b95945050505050565b6001600160a01b03868116825285166020820152604081018490526060810183905260a06080820181905260009061216090830184611811565b979650505050505050565b60006020828403121561217d57600080fd5b8151610634816116ac565b600060033d11156121a15760046000803e5060005160e01c5b90565b600060443d10156121b25790565b6040516003193d81016004833e81513d67ffffffffffffffff81602484011181841117156121e257505050505090565b82850191508151818111156121fa5750505050505090565b843d87010160208285010111156122145750505050505090565b612223602082860101876116f5565b509095945050505050565b60208082526028908201527f455243313135353a204552433131353552656365697665722072656a656374656040820152676420746f6b656e7360c01b606082015260800190565b6001600160a01b0386811682528516602082015260a0604082018190526000906122a290830186611a8b565b82810360608401526122b48186611a8b565b905082810360808401526122c88185611811565b9897505050505050505056fea2646970667358221220d1ded9a492520099b1dbd3b0f7dae62532aae642a708e7030a1ff57d430f107664736f6c6343000811003368747470733a2f2f677261792d6f63636173696f6e616c2d66697265666c792d3639332e6d7970696e6174612e636c6f75642f697066732f516d504b4c72714c4851517a466e58546437474b35455773716b35614878646f4269396e364a6e647832537436742f",
  "linkReferences": {},
  "deployedLinkReferences": {}
}