{"contracts/Horses.sol":{"Horses":{"abi":[{"inputs":[],"stateMutability":"nonpayable","type":"constructor"},{"anonymous":false,"inputs":[{"indexed":true,"internalType":"address","name":"account","type":"address"},{"indexed":true,"internalType":"address","name":"operator","type":"address"},{"indexed":false,"internalType":"bool","name":"approved","type":"bool"}],"name":"ApprovalForAll","type":"event"},{"anonymous":false,"inputs":[{"indexed":true,"internalType":"uint256","name":"tokenId","type":"uint256"},{"indexed":false,"internalType":"address","name":"seller","type":"address"},{"indexed":false,"internalType":"address","name":"owner","type":"address"},{"indexed":false,"internalType":"uint256","name":"price","type":"uint256"},{"indexed":false,"internalType":"bool","name":"sold","type":"bool"}],"name":"MarketItemCreated","type":"event"},{"anonymous":false,"inputs":[{"indexed":true,"internalType":"address","name":"previousOwner","type":"address"},{"indexed":true,"internalType":"address","name":"newOwner","type":"address"}],"name":"OwnershipTransferred","type":"event"},{"anonymous":false,"inputs":[{"indexed":true,"internalType":"address","name":"operator","type":"address"},{"indexed":true,"internalType":"address","name":"from","type":"address"},{"indexed":true,"internalType":"address","name":"to","type":"address"},{"indexed":false,"internalType":"uint256[]","name":"ids","type":"uint256[]"},{"indexed":false,"internalType":"uint256[]","name":"values","type":"uint256[]"}],"name":"TransferBatch","type":"event"},{"anonymous":false,"inputs":[{"indexed":true,"internalType":"address","name":"operator","type":"address"},{"indexed":true,"internalType":"address","name":"from","type":"address"},{"indexed":true,"internalType":"address","name":"to","type":"address"},{"indexed":false,"internalType":"uint256","name":"id","type":"uint256"},{"indexed":false,"internalType":"uint256","name":"value","type":"uint256"}],"name":"TransferSingle","type":"event"},{"anonymous":false,"inputs":[{"indexed":false,"internalType":"string","name":"value","type":"string"},{"indexed":true,"internalType":"uint256","name":"id","type":"uint256"}],"name":"URI","type":"event"},{"inputs":[{"internalType":"address","name":"account","type":"address"},{"internalType":"uint256","name":"id","type":"uint256"}],"name":"balanceOf","outputs":[{"internalType":"uint256","name":"","type":"uint256"}],"stateMutability":"view","type":"function"},{"inputs":[{"internalType":"address[]","name":"accounts","type":"address[]"},{"internalType":"uint256[]","name":"ids","type":"uint256[]"}],"name":"balanceOfBatch","outputs":[{"internalType":"uint256[]","name":"","type":"uint256[]"}],"stateMutability":"view","type":"function"},{"inputs":[{"internalType":"uint256","name":"tokenId","type":"uint256"},{"internalType":"uint256","name":"amount","type":"uint256"}],"name":"createMarketSale","outputs":[],"stateMutability":"payable","type":"function"},{"inputs":[{"internalType":"uint256","name":"tokenId","type":"uint256"}],"name":"createMarketSale","outputs":[],"stateMutability":"payable","type":"function"},{"inputs":[],"name":"fetchItemsListed","outputs":[{"components":[{"internalType":"uint256","name":"tokenId","type":"uint256"},{"internalType":"address payable","name":"seller","type":"address"},{"internalType":"address payable","name":"owner","type":"address"},{"internalType":"uint256","name":"price","type":"uint256"},{"internalType":"bool","name":"sold","type":"bool"}],"internalType":"struct Horses.MarketItem[]","name":"","type":"tuple[]"}],"stateMutability":"view","type":"function"},{"inputs":[],"name":"fetchMarketItems","outputs":[{"components":[{"internalType":"uint256","name":"tokenId","type":"uint256"},{"internalType":"address payable","name":"seller","type":"address"},{"internalType":"address payable","name":"owner","type":"address"},{"internalType":"uint256","name":"price","type":"uint256"},{"internalType":"bool","name":"sold","type":"bool"}],"internalType":"struct Horses.MarketItem[]","name":"","type":"tuple[]"}],"stateMutability":"view","type":"function"},{"inputs":[],"name":"fetchMyNFTs","outputs":[{"components":[{"internalType":"uint256","name":"tokenId","type":"uint256"},{"internalType":"address payable","name":"seller","type":"address"},{"internalType":"address payable","name":"owner","type":"address"},{"internalType":"uint256","name":"price","type":"uint256"},{"internalType":"bool","name":"sold","type":"bool"}],"internalType":"struct Horses.MarketItem[]","name":"","type":"tuple[]"}],"stateMutability":"view","type":"function"},{"inputs":[{"internalType":"uint256","name":"tokenId","type":"uint256"}],"name":"getHorse","outputs":[{"components":[{"internalType":"uint256","name":"id","type":"uint256"},{"internalType":"string","name":"uri","type":"string"},{"internalType":"uint256","name":"amount","type":"uint256"}],"internalType":"struct Horses.Horse","name":"","type":"tuple"}],"stateMutability":"view","type":"function"},{"inputs":[],"name":"getHorses","outputs":[{"components":[{"internalType":"uint256","name":"id","type":"uint256"},{"internalType":"string","name":"uri","type":"string"},{"internalType":"uint256","name":"amount","type":"uint256"}],"internalType":"struct Horses.Horse[]","name":"","type":"tuple[]"}],"stateMutability":"view","type":"function"},{"inputs":[],"name":"getListingPrice","outputs":[{"internalType":"uint256","name":"","type":"uint256"}],"stateMutability":"view","type":"function"},{"inputs":[],"name":"init","outputs":[],"stateMutability":"nonpayable","type":"function"},{"inputs":[{"internalType":"address","name":"account","type":"address"},{"internalType":"address","name":"operator","type":"address"}],"name":"isApprovedForAll","outputs":[{"internalType":"bool","name":"","type":"bool"}],"stateMutability":"view","type":"function"},{"inputs":[{"internalType":"address","name":"account","type":"address"},{"internalType":"uint256","name":"amount","type":"uint256"},{"internalType":"string","name":"_uri","type":"string"}],"name":"mintHorse","outputs":[{"internalType":"uint256","name":"","type":"uint256"}],"stateMutability":"nonpayable","type":"function"},{"inputs":[],"name":"name","outputs":[{"internalType":"string","name":"","type":"string"}],"stateMutability":"view","type":"function"},{"inputs":[],"name":"owner","outputs":[{"internalType":"address","name":"","type":"address"}],"stateMutability":"view","type":"function"},{"inputs":[],"name":"renounceOwnership","outputs":[],"stateMutability":"nonpayable","type":"function"},{"inputs":[{"internalType":"uint256","name":"tokenId","type":"uint256"},{"internalType":"uint256","name":"price","type":"uint256"},{"internalType":"uint256","name":"amount","type":"uint256"}],"name":"resellToken","outputs":[],"stateMutability":"payable","type":"function"},{"inputs":[{"internalType":"uint256","name":"tokenId","type":"uint256"},{"internalType":"uint256","name":"value","type":"uint256"}],"name":"royaltyInfo","outputs":[{"internalType":"address","name":"receiver","type":"address"},{"internalType":"uint256","name":"royaltyAmount","type":"uint256"}],"stateMutability":"view","type":"function"},{"inputs":[{"internalType":"address","name":"from","type":"address"},{"internalType":"address","name":"to","type":"address"},{"internalType":"uint256[]","name":"ids","type":"uint256[]"},{"internalType":"uint256[]","name":"amounts","type":"uint256[]"},{"internalType":"bytes","name":"data","type":"bytes"}],"name":"safeBatchTransferFrom","outputs":[],"stateMutability":"nonpayable","type":"function"},{"inputs":[{"internalType":"address","name":"from","type":"address"},{"internalType":"address","name":"to","type":"address"},{"internalType":"uint256","name":"id","type":"uint256"},{"internalType":"uint256","name":"amount","type":"uint256"},{"internalType":"bytes","name":"data","type":"bytes"}],"name":"safeTransferFrom","outputs":[],"stateMutability":"nonpayable","type":"function"},{"inputs":[{"internalType":"address","name":"operator","type":"address"},{"internalType":"bool","name":"approved","type":"bool"}],"name":"setApprovalForAll","outputs":[],"stateMutability":"nonpayable","type":"function"},{"inputs":[{"internalType":"uint256","name":"tokenId","type":"uint256"},{"internalType":"string","name":"newUri","type":"string"}],"name":"setURI","outputs":[],"stateMutability":"nonpayable","type":"function"},{"inputs":[{"internalType":"bytes4","name":"interfaceId","type":"bytes4"}],"name":"supportsInterface","outputs":[{"internalType":"bool","name":"","type":"bool"}],"stateMutability":"view","type":"function"},{"inputs":[],"name":"symbol","outputs":[{"internalType":"string","name":"","type":"string"}],"stateMutability":"view","type":"function"},{"inputs":[{"internalType":"address","name":"newOwner","type":"address"}],"name":"transferOwnership","outputs":[],"stateMutability":"nonpayable","type":"function"},{"inputs":[{"internalType":"uint256","name":"_listingPrice","type":"uint256"}],"name":"updateListingPrice","outputs":[],"stateMutability":"payable","type":"function"},{"inputs":[{"internalType":"uint256","name":"tokenId","type":"uint256"}],"name":"uri","outputs":[{"internalType":"string","name":"","type":"string"}],"stateMutability":"view","type":"function"}],"evm":{"bytecode":{"linkReferences":{},"object":"60a0604052600060809081526003906200001a908262000b8c565b50633b9aca0060095560405180606001604052806032815260200162003f8260329139600f906200004c908262000b8c565b5060405180606001604052806035815260200162003fb46035913960109062000076908262000b8c565b50604080518082019091526005815264173539b7b760d91b6020820152601190620000a2908262000b8c565b50348015620000b057600080fd5b50604080516020810190915260008152620000cb816200017e565b50620000d73362000190565b60408051808201909152600e81526d416d62617373616427486f72736560901b6020820152600d906200010b908262000b8c565b506040805180820190915260078152665a45484f52534560c81b6020820152600e9062000139908262000b8c565b50600a80546001600160a01b03199081163317909155600b80549091167370ae7f5a41517ad09b1df2e623a771e37180404317905562000178620001e2565b6200101a565b60026200018c828262000b8c565b5050565b600680546001600160a01b038381166001600160a01b0319831681179093556040519116919082907f8be0079c531659141344cd1fd0a4f28419497f9722a3daafe3b4186f6b6457e090600090a35050565b620002193360c8600f60106011604051602001620002039392919062000cd3565b60408051601f19818403018152919052620002e8565b506200023b33608c600f60106011604051602001620002039392919062000d0c565b506200025d336096600f60106011604051602001620002039392919062000d34565b506200027f3360b4600f60106011604051602001620002039392919062000d5c565b50620002a13360a0600f60106011604051602001620002039392919062000d84565b50620002c33360fa600f60106011604051602001620002039392919062000dac565b50620002e53360dc600f60106011604051602001620002039392919062000dd4565b50565b6000620002f46200043e565b60006200030d6007620004a060201b6200171b1760201c565b604080516060810182528281526020810186815291810187905260128054600181018255600091909152815160039091027fbb8a6a4669ba250d26cd7a459eca9d215f8307e33aebe50379bc5a3617ec344481019182559251939450909290917fbb8a6a4669ba250d26cd7a459eca9d215f8307e33aebe50379bc5a3617ec344501906200039c908262000b8c565b5060409190910151600290910155620003b68184620004a4565b8260128281548110620003cd57620003cd62000dfc565b90600052602060002090600302016001019081620003ec919062000b8c565b506200041085828660405180602001604052806000815250620004f560201b60201c565b6200041f81336103e862000613565b620004366007620006be60201b6200171f1760201c565b949350505050565b6006546001600160a01b031633146200049e5760405162461bcd60e51b815260206004820181905260248201527f4f776e61626c653a2063616c6c6572206973206e6f7420746865206f776e657260448201526064015b60405180910390fd5b565b5490565b620004ae6200043e565b620004ba8282620006c7565b8060128381548110620004d157620004d162000dfc565b90600052602060002090600302016001019081620004f0919062000b8c565b505050565b6001600160a01b038416620005575760405162461bcd60e51b815260206004820152602160248201527f455243313135353a206d696e7420746f20746865207a65726f206164647265736044820152607360f81b606482015260840162000495565b33600062000565856200072a565b9050600062000574856200072a565b90506000868152602081815260408083206001600160a01b038b16845290915281208054879290620005a890849062000e12565b909155505060408051878152602081018790526001600160a01b03808a1692600092918716917fc3d58168c5ae7397731d063d5bbf3d657854427343f4c083240f7aacaa2d0f62910160405180910390a46200060a8360008989898962000780565b50505050505050565b612710811115620006675760405162461bcd60e51b815260206004820152601a60248201527f45524332393831526f79616c746965733a20546f6f2068696768000000000000604482015260640162000495565b6040805180820182526001600160a01b03938416815262ffffff928316602080830191825260009687526005905291909420935184549151909216600160a01b026001600160b81b03199091169190921617179055565b80546001019055565b6000828152600460205260409020620006e1828262000b8c565b50817f6bb7ff708619ba0610cba295a58592e0451dee2622938c8755667688daf3529b6200070f826200094c565b6040516200071e919062000e8e565b60405180910390a25050565b6040805160018082528183019092526060916000919060208083019080368337019050509050828160008151811062000767576200076762000dfc565b602090810291909101015292915050565b505050505050565b6200079f846001600160a01b031662000a4560201b620017281760201c565b15620007785760405163f23a6e6160e01b81526001600160a01b0385169063f23a6e6190620007db908990899088908890889060040162000ea3565b6020604051808303816000875af192505050801562000819575060408051601f3d908101601f19168201909252620008169181019062000eea565b60015b620008d9576200082862000f16565b806308c379a0036200086857506200083f62000f62565b806200084c57506200086a565b8060405162461bcd60e51b815260040162000495919062000e8e565b505b60405162461bcd60e51b815260206004820152603460248201527f455243313135353a207472616e7366657220746f206e6f6e2d4552433131353560448201527f526563656976657220696d706c656d656e746572000000000000000000000000606482015260840162000495565b6001600160e01b0319811663f23a6e6160e01b146200060a5760405162461bcd60e51b815260206004820152602860248201527f455243313135353a204552433131353552656365697665722072656a656374656044820152676420746f6b656e7360c01b606482015260840162000495565b6000818152600460205260408120805460609291906200096c9062000b06565b80601f01602080910402602001604051908101604052809291908181526020018280546200099a9062000b06565b8015620009eb5780601f10620009bf57610100808354040283529160200191620009eb565b820191906000526020600020905b815481529060010190602001808311620009cd57829003601f168201915b50505050509050600081511162000a185762000a128362000a5460201b620017371760201c565b62000a3e565b60038160405160200162000a2e92919062000ff1565b6040516020818303038152906040525b9392505050565b6001600160a01b03163b151590565b60606002805462000a659062000b06565b80601f016020809104026020016040519081016040528092919081815260200182805462000a939062000b06565b801562000ae45780601f1062000ab85761010080835404028352916020019162000ae4565b820191906000526020600020905b81548152906001019060200180831162000ac657829003601f168201915b50505050509050919050565b634e487b7160e01b600052604160045260246000fd5b600181811c9082168062000b1b57607f821691505b60208210810362000b3c57634e487b7160e01b600052602260045260246000fd5b50919050565b601f821115620004f057600081815260208120601f850160051c8101602086101562000b6b5750805b601f850160051c820191505b81811015620007785782815560010162000b77565b81516001600160401b0381111562000ba85762000ba862000af0565b62000bc08162000bb9845462000b06565b8462000b42565b602080601f83116001811462000bf8576000841562000bdf5750858301515b600019600386901b1c1916600185901b17855562000778565b600085815260208120601f198616915b8281101562000c295788860151825594840194600190910190840162000c08565b508582101562000c485787850151600019600388901b60f8161c191681555b5050505050600190811b01905550565b6000815462000c678162000b06565b6001828116801562000c82576001811462000c985762000cc9565b60ff198416875282151583028701945062000cc9565b8560005260208060002060005b8581101562000cc05781548a82015290840190820162000ca5565b50505082870194505b5050505092915050565b600062000cec62000ce5838762000c58565b8562000c58565b603160f81b815262000d02600182018562000c58565b9695505050505050565b600062000d1e62000ce5838762000c58565b601960f91b815262000d02600182018562000c58565b600062000d4662000ce5838762000c58565b603360f81b815262000d02600182018562000c58565b600062000d6e62000ce5838762000c58565b600d60fa1b815262000d02600182018562000c58565b600062000d9662000ce5838762000c58565b603560f81b815262000d02600182018562000c58565b600062000dbe62000ce5838762000c58565b601b60f91b815262000d02600182018562000c58565b600062000de662000ce5838762000c58565b603760f81b815262000d02600182018562000c58565b634e487b7160e01b600052603260045260246000fd5b8082018082111562000e3457634e487b7160e01b600052601160045260246000fd5b92915050565b60005b8381101562000e5757818101518382015260200162000e3d565b50506000910152565b6000815180845262000e7a81602086016020860162000e3a565b601f01601f19169290920160200192915050565b60208152600062000a3e602083018462000e60565b6001600160a01b03868116825285166020820152604081018490526060810183905260a06080820181905260009062000edf9083018462000e60565b979650505050505050565b60006020828403121562000efd57600080fd5b81516001600160e01b03198116811462000a3e57600080fd5b600060033d111562000f305760046000803e5060005160e01c5b90565b601f8201601f191681016001600160401b038111828210171562000f5b5762000f5b62000af0565b6040525050565b600060443d101562000f715790565b6040516003193d81016004833e81513d6001600160401b03808311602484018310171562000fa157505050505090565b828501915081518181111562000fba5750505050505090565b843d870101602082850101111562000fd55750505050505090565b62000fe66020828601018762000f33565b509095945050505050565b600062000fff828562000c58565b83516200101181836020880162000e3a565b01949350505050565b612f58806200102a6000396000f3fe60806040526004361061019b5760003560e01c8063715018a6116100ec578063ae677aa31161008a578063e985e9c511610064578063e985e9c514610483578063ea31247a146104cc578063f242432a146104df578063f2fde38b146104ff57600080fd5b8063ae677aa314610448578063be9af5361461045b578063e1c7392a1461046e57600080fd5b806390adec6f116100c657806390adec6f146103de57806395d89b4114610400578063a1c11ca814610415578063a22cb4651461042857600080fd5b8063715018a614610381578063862440e2146103965780638da5cb5b146103b657600080fd5b806312e85585116101595780632eb2c2d6116101335780632eb2c2d6146102f057806345f8fa80146103125780634e1273f4146103275780634f57641c1461035457600080fd5b806312e8558514610287578063202e37401461029c5780632a55205a146102b157600080fd5b8062fdd58e146101a057806301ffc9a7146101d357806303d0f90a1461020357806306fdde03146102235780630e89341c146102455780630f08efe014610265575b600080fd5b3480156101ac57600080fd5b506101c06101bb3660046121c1565b61051f565b6040519081526020015b60405180910390f35b3480156101df57600080fd5b506101f36101ee366004612201565b6105b8565b60405190151581526020016101ca565b34801561020f57600080fd5b506101c061021e3660046122d3565b6105c3565b34801561022f57600080fd5b506102386106ec565b6040516101ca9190612379565b34801561025157600080fd5b5061023861026036600461238c565b61077a565b34801561027157600080fd5b5061027a61085a565b6040516101ca91906123a5565b34801561029357600080fd5b506009546101c0565b3480156102a857600080fd5b5061027a6109f0565b3480156102bd57600080fd5b506102d16102cc366004612421565b610bc3565b604080516001600160a01b0390931683526020830191909152016101ca565b3480156102fc57600080fd5b5061031061030b3660046124d7565b610c21565b005b34801561031e57600080fd5b5061027a610c6d565b34801561033357600080fd5b50610347610342366004612580565b610e40565b6040516101ca919061267b565b34801561036057600080fd5b5061037461036f36600461238c565b610f69565b6040516101ca91906126c1565b34801561038d57600080fd5b50610310611066565b3480156103a257600080fd5b506103106103b13660046126d4565b61107a565b3480156103c257600080fd5b506006546040516001600160a01b0390911681526020016101ca565b3480156103ea57600080fd5b506103f36110c2565b6040516101ca9190612710565b34801561040c57600080fd5b506102386111c7565b610310610423366004612421565b6111d4565b34801561043457600080fd5b50610310610443366004612772565b6112f2565b61031061045636600461238c565b611301565b61031061046936600461238c565b611379565b34801561047a57600080fd5b50610310611430565b34801561048f57600080fd5b506101f361049e3660046127ae565b6001600160a01b03918216600090815260016020908152604080832093909416825291909152205460ff1690565b6103106104da3660046127e1565b61151f565b3480156104eb57600080fd5b506103106104fa36600461280d565b611660565b34801561050b57600080fd5b5061031061051a366004612871565b6116a5565b60006001600160a01b03831661058f5760405162461bcd60e51b815260206004820152602a60248201527f455243313135353a2061646472657373207a65726f206973206e6f742061207660448201526930b634b21037bbb732b960b11b60648201526084015b60405180910390fd5b506000818152602081815260408083206001600160a01b03861684529091529020545b92915050565b60006105b2826117cb565b60006105cd6117f0565b60006105d860075490565b604080516060810182528281526020810186815291810187905260128054600181018255600091909152815160039091027fbb8a6a4669ba250d26cd7a459eca9d215f8307e33aebe50379bc5a3617ec344481019182559251939450909290917fbb8a6a4669ba250d26cd7a459eca9d215f8307e33aebe50379bc5a3617ec34450190610665908261290c565b5060408201518160020155505061067c818461107a565b8260128281548110610690576106906129cb565b906000526020600020906003020160010190816106ad919061290c565b506106c98582866040518060200160405280600081525061184a565b6106d681336103e861195e565b6106e4600780546001019055565b949350505050565b600d80546106f99061288c565b80601f01602080910402602001604051908101604052809291908181526020018280546107259061288c565b80156107725780601f1061074757610100808354040283529160200191610772565b820191906000526020600020905b81548152906001019060200180831161075557829003601f168201915b505050505081565b6000818152600460205260408120805460609291906107989061288c565b80601f01602080910402602001604051908101604052809291908181526020018280546107c49061288c565b80156108115780601f106107e657610100808354040283529160200191610811565b820191906000526020600020905b8154815290600101906020018083116107f457829003601f168201915b50505050509050600081511161082f5761082a83611737565b610853565b600381604051602001610843929190612a54565b6040516020818303038152906040525b9392505050565b6060600061086760075490565b9050600061087460085490565b6007546108819190612a8f565b9050600080826001600160401b0381111561089e5761089e61221e565b6040519080825280602002602001820160405280156108f757816020015b6040805160a0810182526000808252602080830182905292820181905260608201819052608082015282526000199092019101816108bc5790505b50905060005b848110156109e75730600c6000610915846001612aa2565b81526020810191909152604001600020600201546001600160a01b0316036109d5576000610944826001612aa2565b6000818152600c6020908152604091829020825160a0810184528154815260018201546001600160a01b039081169382019390935260028201549092169282019290925260038201546060820152600482015460ff1615156080820152855192935090918590879081106109ba576109ba6129cb565b60209081029190910101526109d0600186612aa2565b945050505b806109df81612ab5565b9150506108fd565b50949350505050565b606060006109fd60075490565b905060008060005b83811015610a5f5733600c6000610a1d846001612aa2565b81526020810191909152604001600020600201546001600160a01b031603610a4d57610a4a600184612aa2565b92505b80610a5781612ab5565b915050610a05565b506000826001600160401b03811115610a7a57610a7a61221e565b604051908082528060200260200182016040528015610ad357816020015b6040805160a081018252600080825260208083018290529282018190526060820181905260808201528252600019909201910181610a985790505b50905060005b848110156109e75733600c6000610af1846001612aa2565b81526020810191909152604001600020600201546001600160a01b031603610bb1576000610b20826001612aa2565b6000818152600c6020908152604091829020825160a0810184528154815260018201546001600160a01b039081169382019390935260028201549092169282019290925260038201546060820152600482015460ff161515608082015285519293509091859087908110610b9657610b966129cb565b6020908102919091010152610bac600186612aa2565b945050505b80610bbb81612ab5565b915050610ad9565b60008281526005602090815260408083208151808301909252546001600160a01b038116808352600160a01b90910462ffffff16928201839052929161271090610c0d9086612ace565b610c179190612ae5565b9150509250929050565b6001600160a01b038516331480610c3d5750610c3d853361049e565b610c595760405162461bcd60e51b815260040161058690612b07565b610c668585858585611a07565b5050505050565b60606000610c7a60075490565b905060008060005b83811015610cdc5733600c6000610c9a846001612aa2565b81526020810191909152604001600020600101546001600160a01b031603610cca57610cc7600184612aa2565b92505b80610cd481612ab5565b915050610c82565b506000826001600160401b03811115610cf757610cf761221e565b604051908082528060200260200182016040528015610d5057816020015b6040805160a081018252600080825260208083018290529282018190526060820181905260808201528252600019909201910181610d155790505b50905060005b848110156109e75733600c6000610d6e846001612aa2565b81526020810191909152604001600020600101546001600160a01b031603610e2e576000610d9d826001612aa2565b6000818152600c6020908152604091829020825160a0810184528154815260018201546001600160a01b039081169382019390935260028201549092169282019290925260038201546060820152600482015460ff161515608082015285519293509091859087908110610e1357610e136129cb565b6020908102919091010152610e29600186612aa2565b945050505b80610e3881612ab5565b915050610d56565b60608151835114610ea55760405162461bcd60e51b815260206004820152602960248201527f455243313135353a206163636f756e747320616e6420696473206c656e677468604482015268040dad2e6dac2e8c6d60bb1b6064820152608401610586565b600083516001600160401b03811115610ec057610ec061221e565b604051908082528060200260200182016040528015610ee9578160200160208202803683370190505b50905060005b8451811015610f6157610f34858281518110610f0d57610f0d6129cb565b6020026020010151858381518110610f2757610f276129cb565b602002602001015161051f565b828281518110610f4657610f466129cb565b6020908102919091010152610f5a81612ab5565b9050610eef565b509392505050565b610f8d60405180606001604052806000815260200160608152602001600081525090565b60128281548110610fa057610fa06129cb565b906000526020600020906003020160405180606001604052908160008201548152602001600182018054610fd39061288c565b80601f0160208091040260200160405190810160405280929190818152602001828054610fff9061288c565b801561104c5780601f106110215761010080835404028352916020019161104c565b820191906000526020600020905b81548152906001019060200180831161102f57829003601f168201915b505050505081526020016002820154815250509050919050565b61106e6117f0565b6110786000611be4565b565b6110826117f0565b61108c8282611c36565b80601283815481106110a0576110a06129cb565b906000526020600020906003020160010190816110bd919061290c565b505050565b60606012805480602002602001604051908101604052809291908181526020016000905b828210156111be5783829060005260206000209060030201604051806060016040529081600082015481526020016001820180546111239061288c565b80601f016020809104026020016040519081016040528092919081815260200182805461114f9061288c565b801561119c5780601f106111715761010080835404028352916020019161119c565b820191906000526020600020905b81548152906001019060200180831161117f57829003601f168201915b50505050508152602001600282015481525050815260200190600101906110e6565b50505050905090565b600e80546106f99061288c565b6000828152600c6020526040902060038101546001909101546001600160a01b03163482146112155760405162461bcd60e51b815260040161058690612b55565b6000848152600c602052604090206002810180546001600160a01b0319908116331790915560048201805460ff1916600190811790915590910180549091169055611264600880546001019055565b6112803033868660405180602001604052806000815250611660565b600a546009546040516001600160a01b039092169181156108fc0291906000818181858888f193505050501580156112bc573d6000803e3d6000fd5b506040516001600160a01b038216903480156108fc02916000818181858888f19350505050158015610c66573d6000803e3d6000fd5b6112fd338383611c93565b5050565b600a546001600160a01b031633146113745760405162461bcd60e51b815260206004820152603060248201527f4f6e6c79206d61726b6574706c616365206f776e65722063616e20757064617460448201526f32903634b9ba34b73390383934b1b29760811b6064820152608401610586565b600955565b60013334821461139b5760405162461bcd60e51b815260040161058690612b55565b6113b8303385600160405180602001604052806000815250611660565b600a546009546040516001600160a01b039092169181156108fc0291906000818181858888f193505050501580156113f4573d6000803e3d6000fd5b506040516001600160a01b038216903480156108fc02916000818181858888f1935050505015801561142a573d6000803e3d6000fd5b50505050565b6114623360c8600f6010601160405160200161144e93929190612bb3565b6040516020818303038152906040526105c3565b5061148133608c600f6010601160405160200161144e93929190612be6565b506114a0336096600f6010601160405160200161144e93929190612c09565b506114bf3360b4600f6010601160405160200161144e93929190612c2c565b506114de3360a0600f6010601160405160200161144e93929190612c4f565b506114fd3360fa600f6010601160405160200161144e93929190612c72565b5061151c3360dc600f6010601160405160200161144e93929190612c95565b50565b6000838152600c60205260409020600201546001600160a01b0316331461159b5760405162461bcd60e51b815260206004820152602a60248201527f4f6e6c79206974656d206f776e65722063616e20706572666f726d20746869736044820152691037b832b930ba34b7b760b11b6064820152608401610586565b60095434146115f85760405162461bcd60e51b8152602060048201526024808201527f5072696365206d75737420626520657175616c20746f206c697374696e6720706044820152637269636560e01b6064820152608401610586565b6000838152600c6020526040902060048101805460ff19169055600381018390556001810180546001600160a01b0319908116331790915560029091018054909116301790556116486008611d73565b6110bd33308584604051806020016040528060008152505b6001600160a01b03851633148061167c575061167c853361049e565b6116985760405162461bcd60e51b815260040161058690612b07565b610c668585858585611dca565b6116ad6117f0565b6001600160a01b0381166117125760405162461bcd60e51b815260206004820152602660248201527f4f776e61626c653a206e6577206f776e657220697320746865207a65726f206160448201526564647265737360d01b6064820152608401610586565b61151c81611be4565b5490565b80546001019055565b6001600160a01b03163b151590565b6060600280546117469061288c565b80601f01602080910402602001604051908101604052809291908181526020018280546117729061288c565b80156117bf5780601f10611794576101008083540402835291602001916117bf565b820191906000526020600020905b8154815290600101906020018083116117a257829003601f168201915b50505050509050919050565b60006001600160e01b0319821663152a902d60e11b14806105b257506105b282611ef4565b6006546001600160a01b031633146110785760405162461bcd60e51b815260206004820181905260248201527f4f776e61626c653a2063616c6c6572206973206e6f7420746865206f776e65726044820152606401610586565b6001600160a01b0384166118aa5760405162461bcd60e51b815260206004820152602160248201527f455243313135353a206d696e7420746f20746865207a65726f206164647265736044820152607360f81b6064820152608401610586565b3360006118b685611f44565b905060006118c385611f44565b90506000868152602081815260408083206001600160a01b038b168452909152812080548792906118f5908490612aa2565b909155505060408051878152602081018790526001600160a01b03808a1692600092918716917fc3d58168c5ae7397731d063d5bbf3d657854427343f4c083240f7aacaa2d0f62910160405180910390a461195583600089898989611f8f565b50505050505050565b6127108111156119b05760405162461bcd60e51b815260206004820152601a60248201527f45524332393831526f79616c746965733a20546f6f20686967680000000000006044820152606401610586565b6040805180820182526001600160a01b03938416815262ffffff928316602080830191825260009687526005905291909420935184549151909216600160a01b026001600160b81b03199091169190921617179055565b8151835114611a695760405162461bcd60e51b815260206004820152602860248201527f455243313135353a2069647320616e6420616d6f756e7473206c656e677468206044820152670dad2e6dac2e8c6d60c31b6064820152608401610586565b6001600160a01b038416611a8f5760405162461bcd60e51b815260040161058690612cb8565b3360005b8451811015611b76576000858281518110611ab057611ab06129cb565b602002602001015190506000858381518110611ace57611ace6129cb565b602090810291909101810151600084815280835260408082206001600160a01b038e168352909352919091205490915081811015611b1e5760405162461bcd60e51b815260040161058690612cfd565b6000838152602081815260408083206001600160a01b038e8116855292528083208585039055908b16825281208054849290611b5b908490612aa2565b9250508190555050505080611b6f90612ab5565b9050611a93565b50846001600160a01b0316866001600160a01b0316826001600160a01b03167f4a39dc06d4c0dbc64b70af90fd698a233a518aa5d07e595d983b8c0526c8f7fb8787604051611bc6929190612d47565b60405180910390a4611bdc8187878787876120ea565b505050505050565b600680546001600160a01b038381166001600160a01b0319831681179093556040519116919082907f8be0079c531659141344cd1fd0a4f28419497f9722a3daafe3b4186f6b6457e090600090a35050565b6000828152600460205260409020611c4e828261290c565b50817f6bb7ff708619ba0610cba295a58592e0451dee2622938c8755667688daf3529b611c7a8461077a565b604051611c879190612379565b60405180910390a25050565b816001600160a01b0316836001600160a01b031603611d065760405162461bcd60e51b815260206004820152602960248201527f455243313135353a2073657474696e6720617070726f76616c20737461747573604482015268103337b91039b2b63360b91b6064820152608401610586565b6001600160a01b03838116600081815260016020908152604080832094871680845294825291829020805460ff191686151590811790915591519182527f17307eab39ab6107e8899845ad3d59bd9653f200f220920489ca2b5937696c31910160405180910390a3505050565b805480611dc25760405162461bcd60e51b815260206004820152601b60248201527f436f756e7465723a2064656372656d656e74206f766572666c6f7700000000006044820152606401610586565b600019019055565b6001600160a01b038416611df05760405162461bcd60e51b815260040161058690612cb8565b336000611dfc85611f44565b90506000611e0985611f44565b90506000868152602081815260408083206001600160a01b038c16845290915290205485811015611e4c5760405162461bcd60e51b815260040161058690612cfd565b6000878152602081815260408083206001600160a01b038d8116855292528083208985039055908a16825281208054889290611e89908490612aa2565b909155505060408051888152602081018890526001600160a01b03808b16928c821692918816917fc3d58168c5ae7397731d063d5bbf3d657854427343f4c083240f7aacaa2d0f62910160405180910390a4611ee9848a8a8a8a8a611f8f565b505050505050505050565b60006001600160e01b03198216636cdb3d1360e11b1480611f2557506001600160e01b031982166303a24d0760e21b145b806105b257506301ffc9a760e01b6001600160e01b03198316146105b2565b60408051600180825281830190925260609160009190602080830190803683370190505090508281600081518110611f7e57611f7e6129cb565b602090810291909101015292915050565b6001600160a01b0384163b15611bdc5760405163f23a6e6160e01b81526001600160a01b0385169063f23a6e6190611fd39089908990889088908890600401612d75565b6020604051808303816000875af192505050801561200e575060408051601f3d908101601f1916820190925261200b91810190612dba565b60015b6120ba5761201a612dd7565b806308c379a003612053575061202e612df3565b806120395750612055565b8060405162461bcd60e51b81526004016105869190612379565b505b60405162461bcd60e51b815260206004820152603460248201527f455243313135353a207472616e7366657220746f206e6f6e2d455243313135356044820152732932b1b2b4bb32b91034b6b83632b6b2b73a32b960611b6064820152608401610586565b6001600160e01b0319811663f23a6e6160e01b146119555760405162461bcd60e51b815260040161058690612e7c565b6001600160a01b0384163b15611bdc5760405163bc197c8160e01b81526001600160a01b0385169063bc197c819061212e9089908990889088908890600401612ec4565b6020604051808303816000875af1925050508015612169575060408051601f3d908101601f1916820190925261216691810190612dba565b60015b6121755761201a612dd7565b6001600160e01b0319811663bc197c8160e01b146119555760405162461bcd60e51b815260040161058690612e7c565b80356001600160a01b03811681146121bc57600080fd5b919050565b600080604083850312156121d457600080fd5b6121dd836121a5565b946020939093013593505050565b6001600160e01b03198116811461151c57600080fd5b60006020828403121561221357600080fd5b8135610853816121eb565b634e487b7160e01b600052604160045260246000fd5b601f8201601f191681016001600160401b03811182821017156122595761225961221e565b6040525050565b600082601f83011261227157600080fd5b81356001600160401b0381111561228a5761228a61221e565b6040516122a1601f8301601f191660200182612234565b8181528460208386010111156122b657600080fd5b816020850160208301376000918101602001919091529392505050565b6000806000606084860312156122e857600080fd5b6122f1846121a5565b92506020840135915060408401356001600160401b0381111561231357600080fd5b61231f86828701612260565b9150509250925092565b60005b8381101561234457818101518382015260200161232c565b50506000910152565b60008151808452612365816020860160208601612329565b601f01601f19169290920160200192915050565b602081526000610853602083018461234d565b60006020828403121561239e57600080fd5b5035919050565b602080825282518282018190526000919060409081850190868401855b8281101561241457815180518552868101516001600160a01b03908116888701528682015116868601526060808201519086015260809081015115159085015260a090930192908501906001016123c2565b5091979650505050505050565b6000806040838503121561243457600080fd5b50508035926020909101359150565b60006001600160401b0382111561245c5761245c61221e565b5060051b60200190565b600082601f83011261247757600080fd5b8135602061248482612443565b6040516124918282612234565b83815260059390931b85018201928281019150868411156124b157600080fd5b8286015b848110156124cc57803583529183019183016124b5565b509695505050505050565b600080600080600060a086880312156124ef57600080fd5b6124f8866121a5565b9450612506602087016121a5565b935060408601356001600160401b038082111561252257600080fd5b61252e89838a01612466565b9450606088013591508082111561254457600080fd5b61255089838a01612466565b9350608088013591508082111561256657600080fd5b5061257388828901612260565b9150509295509295909350565b6000806040838503121561259357600080fd5b82356001600160401b03808211156125aa57600080fd5b818501915085601f8301126125be57600080fd5b813560206125cb82612443565b6040516125d88282612234565b83815260059390931b85018201928281019150898411156125f857600080fd5b948201945b8386101561261d5761260e866121a5565b825294820194908201906125fd565b9650508601359250508082111561263357600080fd5b50610c1785828601612466565b600081518084526020808501945080840160005b8381101561267057815187529582019590820190600101612654565b509495945050505050565b6020815260006108536020830184612640565b8051825260006020820151606060208501526126ad606085018261234d565b604093840151949093019390935250919050565b602081526000610853602083018461268e565b600080604083850312156126e757600080fd5b8235915060208301356001600160401b0381111561270457600080fd5b610c1785828601612260565b6000602080830181845280855180835260408601915060408160051b870101925083870160005b8281101561276557603f1988860301845261275385835161268e565b94509285019290850190600101612737565b5092979650505050505050565b6000806040838503121561278557600080fd5b61278e836121a5565b9150602083013580151581146127a357600080fd5b809150509250929050565b600080604083850312156127c157600080fd5b6127ca836121a5565b91506127d8602084016121a5565b90509250929050565b6000806000606084860312156127f657600080fd5b505081359360208301359350604090920135919050565b600080600080600060a0868803121561282557600080fd5b61282e866121a5565b945061283c602087016121a5565b9350604086013592506060860135915060808601356001600160401b0381111561286557600080fd5b61257388828901612260565b60006020828403121561288357600080fd5b610853826121a5565b600181811c908216806128a057607f821691505b6020821081036128c057634e487b7160e01b600052602260045260246000fd5b50919050565b601f8211156110bd57600081815260208120601f850160051c810160208610156128ed5750805b601f850160051c820191505b81811015611bdc578281556001016128f9565b81516001600160401b038111156129255761292561221e565b61293981612933845461288c565b846128c6565b602080601f83116001811461296e57600084156129565750858301515b600019600386901b1c1916600185901b178555611bdc565b600085815260208120601f198616915b8281101561299d5788860151825594840194600190910190840161297e565b50858210156129bb5787850151600019600388901b60f8161c191681555b5050505050600190811b01905550565b634e487b7160e01b600052603260045260246000fd5b600081546129ee8161288c565b60018281168015612a065760018114612a1b57612a4a565b60ff1984168752821515830287019450612a4a565b8560005260208060002060005b85811015612a415781548a820152908401908201612a28565b50505082870194505b5050505092915050565b6000612a6082856129e1565b8351612a70818360208801612329565b01949350505050565b634e487b7160e01b600052601160045260246000fd5b818103818111156105b2576105b2612a79565b808201808211156105b2576105b2612a79565b600060018201612ac757612ac7612a79565b5060010190565b80820281158282048414176105b2576105b2612a79565b600082612b0257634e487b7160e01b600052601260045260246000fd5b500490565b6020808252602e908201527f455243313135353a2063616c6c6572206973206e6f7420746f6b656e206f776e60408201526d195c881bdc88185c1c1c9bdd995960921b606082015260800190565b602080825260409082018190527f506c65617365207375626d6974207468652061736b696e672070726963652069908201527f6e206f7264657220746f20636f6d706c65746520746865207075726368617365606082015260800190565b6000612bc8612bc283876129e1565b856129e1565b603160f81b8152612bdc60018201856129e1565b9695505050505050565b6000612bf5612bc283876129e1565b601960f91b8152612bdc60018201856129e1565b6000612c18612bc283876129e1565b603360f81b8152612bdc60018201856129e1565b6000612c3b612bc283876129e1565b600d60fa1b8152612bdc60018201856129e1565b6000612c5e612bc283876129e1565b603560f81b8152612bdc60018201856129e1565b6000612c81612bc283876129e1565b601b60f91b8152612bdc60018201856129e1565b6000612ca4612bc283876129e1565b603760f81b8152612bdc60018201856129e1565b60208082526025908201527f455243313135353a207472616e7366657220746f20746865207a65726f206164604082015264647265737360d81b606082015260800190565b6020808252602a908201527f455243313135353a20696e73756666696369656e742062616c616e636520666f60408201526939103a3930b739b332b960b11b606082015260800190565b604081526000612d5a6040830185612640565b8281036020840152612d6c8185612640565b95945050505050565b6001600160a01b03868116825285166020820152604081018490526060810183905260a060808201819052600090612daf9083018461234d565b979650505050505050565b600060208284031215612dcc57600080fd5b8151610853816121eb565b600060033d1115612df05760046000803e5060005160e01c5b90565b600060443d1015612e015790565b6040516003193d81016004833e81513d6001600160401b038160248401118184111715612e3057505050505090565b8285019150815181811115612e485750505050505090565b843d8701016020828501011115612e625750505050505090565b612e7160208286010187612234565b509095945050505050565b60208082526028908201527f455243313135353a204552433131353552656365697665722072656a656374656040820152676420746f6b656e7360c01b606082015260800190565b6001600160a01b0386811682528516602082015260a060408201819052600090612ef090830186612640565b8281036060840152612f028186612640565b90508281036080840152612f16818561234d565b9897505050505050505056fea2646970667358221220acb442475d5d032e21907bff70936704ff0eed765f3f7b1683150049516d895064736f6c6343000811003368747470733a2f2f677261792d6f63636173696f6e616c2d66697265666c792d3639332e6d7970696e6174612e636c6f75642f697066732f516d504b4c72714c4851517a466e58546437474b35455773716b35614878646f4269396e364a6e647832537436742f","opcodes":"PUSH1 0xA0 PUSH1 0x40 MSTORE PUSH1 0x0 PUSH1 0x80 SWAP1 DUP2 MSTORE PUSH1 0x3 SWAP1 PUSH3 0x1A SWAP1 DUP3 PUSH3 0xB8C JUMP JUMPDEST POP PUSH4 0x3B9ACA00 PUSH1 0x9 SSTORE PUSH1 0x40 MLOAD DUP1 PUSH1 0x60 ADD PUSH1 0x40 MSTORE DUP1 PUSH1 0x32 DUP2 MSTORE PUSH1 0x20 ADD PUSH3 0x3F82 PUSH1 0x32 SWAP2 CODECOPY PUSH1 0xF SWAP1 PUSH3 0x4C SWAP1 DUP3 PUSH3 0xB8C JUMP JUMPDEST POP PUSH1 0x40 MLOAD DUP1 PUSH1 0x60 ADD PUSH1 0x40 MSTORE DUP1 PUSH1 0x35 DUP2 MSTORE PUSH1 0x20 ADD PUSH3 0x3FB4 PUSH1 0x35 SWAP2 CODECOPY PUSH1 0x10 SWAP1 PUSH3 0x76 SWAP1 DUP3 PUSH3 0xB8C JUMP JUMPDEST POP PUSH1 0x40 DUP1 MLOAD DUP1 DUP3 ADD SWAP1 SWAP2 MSTORE PUSH1 0x5 DUP2 MSTORE PUSH5 0x173539B7B7 PUSH1 0xD9 SHL PUSH1 0x20 DUP3 ADD MSTORE PUSH1 0x11 SWAP1 PUSH3 0xA2 SWAP1 DUP3 PUSH3 0xB8C JUMP JUMPDEST POP CALLVALUE DUP1 ISZERO PUSH3 0xB0 JUMPI PUSH1 0x0 DUP1 REVERT JUMPDEST POP PUSH1 0x40 DUP1 MLOAD PUSH1 0x20 DUP2 ADD SWAP1 SWAP2 MSTORE PUSH1 0x0 DUP2 MSTORE PUSH3 0xCB DUP2 PUSH3 0x17E JUMP JUMPDEST POP PUSH3 0xD7 CALLER PUSH3 0x190 JUMP JUMPDEST PUSH1 0x40 DUP1 MLOAD DUP1 DUP3 ADD SWAP1 SWAP2 MSTORE PUSH1 0xE DUP2 MSTORE PUSH14 0x416D62617373616427486F727365 PUSH1 0x90 SHL PUSH1 0x20 DUP3 ADD MSTORE PUSH1 0xD SWAP1 PUSH3 0x10B SWAP1 DUP3 PUSH3 0xB8C JUMP JUMPDEST POP PUSH1 0x40 DUP1 MLOAD DUP1 DUP3 ADD SWAP1 SWAP2 MSTORE PUSH1 0x7 DUP2 MSTORE PUSH7 0x5A45484F525345 PUSH1 0xC8 SHL PUSH1 0x20 DUP3 ADD MSTORE PUSH1 0xE SWAP1 PUSH3 0x139 SWAP1 DUP3 PUSH3 0xB8C JUMP JUMPDEST POP PUSH1 0xA DUP1 SLOAD PUSH1 0x1 PUSH1 0x1 PUSH1 0xA0 SHL SUB NOT SWAP1 DUP2 AND CALLER OR SWAP1 SWAP2 SSTORE PUSH1 0xB DUP1 SLOAD SWAP1 SWAP2 AND PUSH20 0x70AE7F5A41517AD09B1DF2E623A771E371804043 OR SWAP1 SSTORE PUSH3 0x178 PUSH3 0x1E2 JUMP JUMPDEST PUSH3 0x101A JUMP JUMPDEST PUSH1 0x2 PUSH3 0x18C DUP3 DUP3 PUSH3 0xB8C JUMP JUMPDEST POP POP JUMP JUMPDEST PUSH1 0x6 DUP1 SLOAD PUSH1 0x1 PUSH1 0x1 PUSH1 0xA0 SHL SUB DUP4 DUP2 AND PUSH1 0x1 PUSH1 0x1 PUSH1 0xA0 SHL SUB NOT DUP4 AND DUP2 OR SWAP1 SWAP4 SSTORE PUSH1 0x40 MLOAD SWAP2 AND SWAP2 SWAP1 DUP3 SWAP1 PUSH32 0x8BE0079C531659141344CD1FD0A4F28419497F9722A3DAAFE3B4186F6B6457E0 SWAP1 PUSH1 0x0 SWAP1 LOG3 POP POP JUMP JUMPDEST PUSH3 0x219 CALLER PUSH1 0xC8 PUSH1 0xF PUSH1 0x10 PUSH1 0x11 PUSH1 0x40 MLOAD PUSH1 0x20 ADD PUSH3 0x203 SWAP4 SWAP3 SWAP2 SWAP1 PUSH3 0xCD3 JUMP JUMPDEST PUSH1 0x40 DUP1 MLOAD PUSH1 0x1F NOT DUP2 DUP5 SUB ADD DUP2 MSTORE SWAP2 SWAP1 MSTORE PUSH3 0x2E8 JUMP JUMPDEST POP PUSH3 0x23B CALLER PUSH1 0x8C PUSH1 0xF PUSH1 0x10 PUSH1 0x11 PUSH1 0x40 MLOAD PUSH1 0x20 ADD PUSH3 0x203 SWAP4 SWAP3 SWAP2 SWAP1 PUSH3 0xD0C JUMP JUMPDEST POP PUSH3 0x25D CALLER PUSH1 0x96 PUSH1 0xF PUSH1 0x10 PUSH1 0x11 PUSH1 0x40 MLOAD PUSH1 0x20 ADD PUSH3 0x203 SWAP4 SWAP3 SWAP2 SWAP1 PUSH3 0xD34 JUMP JUMPDEST POP PUSH3 0x27F CALLER PUSH1 0xB4 PUSH1 0xF PUSH1 0x10 PUSH1 0x11 PUSH1 0x40 MLOAD PUSH1 0x20 ADD PUSH3 0x203 SWAP4 SWAP3 SWAP2 SWAP1 PUSH3 0xD5C JUMP JUMPDEST POP PUSH3 0x2A1 CALLER PUSH1 0xA0 PUSH1 0xF PUSH1 0x10 PUSH1 0x11 PUSH1 0x40 MLOAD PUSH1 0x20 ADD PUSH3 0x203 SWAP4 SWAP3 SWAP2 SWAP1 PUSH3 0xD84 JUMP JUMPDEST POP PUSH3 0x2C3 CALLER PUSH1 0xFA PUSH1 0xF PUSH1 0x10 PUSH1 0x11 PUSH1 0x40 MLOAD PUSH1 0x20 ADD PUSH3 0x203 SWAP4 SWAP3 SWAP2 SWAP1 PUSH3 0xDAC JUMP JUMPDEST POP PUSH3 0x2E5 CALLER PUSH1 0xDC PUSH1 0xF PUSH1 0x10 PUSH1 0x11 PUSH1 0x40 MLOAD PUSH1 0x20 ADD PUSH3 0x203 SWAP4 SWAP3 SWAP2 SWAP1 PUSH3 0xDD4 JUMP JUMPDEST POP JUMP JUMPDEST PUSH1 0x0 PUSH3 0x2F4 PUSH3 0x43E JUMP JUMPDEST PUSH1 0x0 PUSH3 0x30D PUSH1 0x7 PUSH3 0x4A0 PUSH1 0x20 SHL PUSH3 0x171B OR PUSH1 0x20 SHR JUMP JUMPDEST PUSH1 0x40 DUP1 MLOAD PUSH1 0x60 DUP2 ADD DUP3 MSTORE DUP3 DUP2 MSTORE PUSH1 0x20 DUP2 ADD DUP7 DUP2 MSTORE SWAP2 DUP2 ADD DUP8 SWAP1 MSTORE PUSH1 0x12 DUP1 SLOAD PUSH1 0x1 DUP2 ADD DUP3 SSTORE PUSH1 0x0 SWAP2 SWAP1 SWAP2 MSTORE DUP2 MLOAD PUSH1 0x3 SWAP1 SWAP2 MUL PUSH32 0xBB8A6A4669BA250D26CD7A459ECA9D215F8307E33AEBE50379BC5A3617EC3444 DUP2 ADD SWAP2 DUP3 SSTORE SWAP3 MLOAD SWAP4 SWAP5 POP SWAP1 SWAP3 SWAP1 SWAP2 PUSH32 0xBB8A6A4669BA250D26CD7A459ECA9D215F8307E33AEBE50379BC5A3617EC3445 ADD SWAP1 PUSH3 0x39C SWAP1 DUP3 PUSH3 0xB8C JUMP JUMPDEST POP PUSH1 0x40 SWAP2 SWAP1 SWAP2 ADD MLOAD PUSH1 0x2 SWAP1 SWAP2 ADD SSTORE PUSH3 0x3B6 DUP2 DUP5 PUSH3 0x4A4 JUMP JUMPDEST DUP3 PUSH1 0x12 DUP3 DUP2 SLOAD DUP2 LT PUSH3 0x3CD JUMPI PUSH3 0x3CD PUSH3 0xDFC JUMP JUMPDEST SWAP1 PUSH1 0x0 MSTORE PUSH1 0x20 PUSH1 0x0 KECCAK256 SWAP1 PUSH1 0x3 MUL ADD PUSH1 0x1 ADD SWAP1 DUP2 PUSH3 0x3EC SWAP2 SWAP1 PUSH3 0xB8C JUMP JUMPDEST POP PUSH3 0x410 DUP6 DUP3 DUP7 PUSH1 0x40 MLOAD DUP1 PUSH1 0x20 ADD PUSH1 0x40 MSTORE DUP1 PUSH1 0x0 DUP2 MSTORE POP PUSH3 0x4F5 PUSH1 0x20 SHL PUSH1 0x20 SHR JUMP JUMPDEST PUSH3 0x41F DUP2 CALLER PUSH2 0x3E8 PUSH3 0x613 JUMP JUMPDEST PUSH3 0x436 PUSH1 0x7 PUSH3 0x6BE PUSH1 0x20 SHL PUSH3 0x171F OR PUSH1 0x20 SHR JUMP JUMPDEST SWAP5 SWAP4 POP POP POP POP JUMP JUMPDEST PUSH1 0x6 SLOAD PUSH1 0x1 PUSH1 0x1 PUSH1 0xA0 SHL SUB AND CALLER EQ PUSH3 0x49E JUMPI PUSH1 0x40 MLOAD PUSH3 0x461BCD PUSH1 0xE5 SHL DUP2 MSTORE PUSH1 0x20 PUSH1 0x4 DUP3 ADD DUP2 SWAP1 MSTORE PUSH1 0x24 DUP3 ADD MSTORE PUSH32 0x4F776E61626C653A2063616C6C6572206973206E6F7420746865206F776E6572 PUSH1 0x44 DUP3 ADD MSTORE PUSH1 0x64 ADD JUMPDEST PUSH1 0x40 MLOAD DUP1 SWAP2 SUB SWAP1 REVERT JUMPDEST JUMP JUMPDEST SLOAD SWAP1 JUMP JUMPDEST PUSH3 0x4AE PUSH3 0x43E JUMP JUMPDEST PUSH3 0x4BA DUP3 DUP3 PUSH3 0x6C7 JUMP JUMPDEST DUP1 PUSH1 0x12 DUP4 DUP2 SLOAD DUP2 LT PUSH3 0x4D1 JUMPI PUSH3 0x4D1 PUSH3 0xDFC JUMP JUMPDEST SWAP1 PUSH1 0x0 MSTORE PUSH1 0x20 PUSH1 0x0 KECCAK256 SWAP1 PUSH1 0x3 MUL ADD PUSH1 0x1 ADD SWAP1 DUP2 PUSH3 0x4F0 SWAP2 SWAP1 PUSH3 0xB8C JUMP JUMPDEST POP POP POP JUMP JUMPDEST PUSH1 0x1 PUSH1 0x1 PUSH1 0xA0 SHL SUB DUP5 AND PUSH3 0x557 JUMPI PUSH1 0x40 MLOAD PUSH3 0x461BCD PUSH1 0xE5 SHL DUP2 MSTORE PUSH1 0x20 PUSH1 0x4 DUP3 ADD MSTORE PUSH1 0x21 PUSH1 0x24 DUP3 ADD MSTORE PUSH32 0x455243313135353A206D696E7420746F20746865207A65726F20616464726573 PUSH1 0x44 DUP3 ADD MSTORE PUSH1 0x73 PUSH1 0xF8 SHL PUSH1 0x64 DUP3 ADD MSTORE PUSH1 0x84 ADD PUSH3 0x495 JUMP JUMPDEST CALLER PUSH1 0x0 PUSH3 0x565 DUP6 PUSH3 0x72A JUMP JUMPDEST SWAP1 POP PUSH1 0x0 PUSH3 0x574 DUP6 PUSH3 0x72A JUMP JUMPDEST SWAP1 POP PUSH1 0x0 DUP7 DUP2 MSTORE PUSH1 0x20 DUP2 DUP2 MSTORE PUSH1 0x40 DUP1 DUP4 KECCAK256 PUSH1 0x1 PUSH1 0x1 PUSH1 0xA0 SHL SUB DUP12 AND DUP5 MSTORE SWAP1 SWAP2 MSTORE DUP2 KECCAK256 DUP1 SLOAD DUP8 SWAP3 SWAP1 PUSH3 0x5A8 SWAP1 DUP5 SWAP1 PUSH3 0xE12 JUMP JUMPDEST SWAP1 SWAP2 SSTORE POP POP PUSH1 0x40 DUP1 MLOAD DUP8 DUP2 MSTORE PUSH1 0x20 DUP2 ADD DUP8 SWAP1 MSTORE PUSH1 0x1 PUSH1 0x1 PUSH1 0xA0 SHL SUB DUP1 DUP11 AND SWAP3 PUSH1 0x0 SWAP3 SWAP2 DUP8 AND SWAP2 PUSH32 0xC3D58168C5AE7397731D063D5BBF3D657854427343F4C083240F7AACAA2D0F62 SWAP2 ADD PUSH1 0x40 MLOAD DUP1 SWAP2 SUB SWAP1 LOG4 PUSH3 0x60A DUP4 PUSH1 0x0 DUP10 DUP10 DUP10 DUP10 PUSH3 0x780 JUMP JUMPDEST POP POP POP POP POP POP POP JUMP JUMPDEST PUSH2 0x2710 DUP2 GT ISZERO PUSH3 0x667 JUMPI PUSH1 0x40 MLOAD PUSH3 0x461BCD PUSH1 0xE5 SHL DUP2 MSTORE PUSH1 0x20 PUSH1 0x4 DUP3 ADD MSTORE PUSH1 0x1A PUSH1 0x24 DUP3 ADD MSTORE PUSH32 0x45524332393831526F79616C746965733A20546F6F2068696768000000000000 PUSH1 0x44 DUP3 ADD MSTORE PUSH1 0x64 ADD PUSH3 0x495 JUMP JUMPDEST PUSH1 0x40 DUP1 MLOAD DUP1 DUP3 ADD DUP3 MSTORE PUSH1 0x1 PUSH1 0x1 PUSH1 0xA0 SHL SUB SWAP4 DUP5 AND DUP2 MSTORE PUSH3 0xFFFFFF SWAP3 DUP4 AND PUSH1 0x20 DUP1 DUP4 ADD SWAP2 DUP3 MSTORE PUSH1 0x0 SWAP7 DUP8 MSTORE PUSH1 0x5 SWAP1 MSTORE SWAP2 SWAP1 SWAP5 KECCAK256 SWAP4 MLOAD DUP5 SLOAD SWAP2 MLOAD SWAP1 SWAP3 AND PUSH1 0x1 PUSH1 0xA0 SHL MUL PUSH1 0x1 PUSH1 0x1 PUSH1 0xB8 SHL SUB NOT SWAP1 SWAP2 AND SWAP2 SWAP1 SWAP3 AND OR OR SWAP1 SSTORE JUMP JUMPDEST DUP1 SLOAD PUSH1 0x1 ADD SWAP1 SSTORE JUMP JUMPDEST PUSH1 0x0 DUP3 DUP2 MSTORE PUSH1 0x4 PUSH1 0x20 MSTORE PUSH1 0x40 SWAP1 KECCAK256 PUSH3 0x6E1 DUP3 DUP3 PUSH3 0xB8C JUMP JUMPDEST POP DUP2 PUSH32 0x6BB7FF708619BA0610CBA295A58592E0451DEE2622938C8755667688DAF3529B PUSH3 0x70F DUP3 PUSH3 0x94C JUMP JUMPDEST PUSH1 0x40 MLOAD PUSH3 0x71E SWAP2 SWAP1 PUSH3 0xE8E JUMP JUMPDEST PUSH1 0x40 MLOAD DUP1 SWAP2 SUB SWAP1 LOG2 POP POP JUMP JUMPDEST PUSH1 0x40 DUP1 MLOAD PUSH1 0x1 DUP1 DUP3 MSTORE DUP2 DUP4 ADD SWAP1 SWAP3 MSTORE PUSH1 0x60 SWAP2 PUSH1 0x0 SWAP2 SWAP1 PUSH1 0x20 DUP1 DUP4 ADD SWAP1 DUP1 CALLDATASIZE DUP4 CALLDATACOPY ADD SWAP1 POP POP SWAP1 POP DUP3 DUP2 PUSH1 0x0 DUP2 MLOAD DUP2 LT PUSH3 0x767 JUMPI PUSH3 0x767 PUSH3 0xDFC JUMP JUMPDEST PUSH1 0x20 SWAP1 DUP2 MUL SWAP2 SWAP1 SWAP2 ADD ADD MSTORE SWAP3 SWAP2 POP POP JUMP JUMPDEST POP POP POP POP POP POP JUMP JUMPDEST PUSH3 0x79F DUP5 PUSH1 0x1 PUSH1 0x1 PUSH1 0xA0 SHL SUB AND PUSH3 0xA45 PUSH1 0x20 SHL PUSH3 0x1728 OR PUSH1 0x20 SHR JUMP JUMPDEST ISZERO PUSH3 0x778 JUMPI PUSH1 0x40 MLOAD PUSH4 0xF23A6E61 PUSH1 0xE0 SHL DUP2 MSTORE PUSH1 0x1 PUSH1 0x1 PUSH1 0xA0 SHL SUB DUP6 AND SWAP1 PUSH4 0xF23A6E61 SWAP1 PUSH3 0x7DB SWAP1 DUP10 SWAP1 DUP10 SWAP1 DUP9 SWAP1 DUP9 SWAP1 DUP9 SWAP1 PUSH1 0x4 ADD PUSH3 0xEA3 JUMP JUMPDEST PUSH1 0x20 PUSH1 0x40 MLOAD DUP1 DUP4 SUB DUP2 PUSH1 0x0 DUP8 GAS CALL SWAP3 POP POP POP DUP1 ISZERO PUSH3 0x819 JUMPI POP PUSH1 0x40 DUP1 MLOAD PUSH1 0x1F RETURNDATASIZE SWAP1 DUP2 ADD PUSH1 0x1F NOT AND DUP3 ADD SWAP1 SWAP3 MSTORE PUSH3 0x816 SWAP2 DUP2 ADD SWAP1 PUSH3 0xEEA JUMP JUMPDEST PUSH1 0x1 JUMPDEST PUSH3 0x8D9 JUMPI PUSH3 0x828 PUSH3 0xF16 JUMP JUMPDEST DUP1 PUSH4 0x8C379A0 SUB PUSH3 0x868 JUMPI POP PUSH3 0x83F PUSH3 0xF62 JUMP JUMPDEST DUP1 PUSH3 0x84C JUMPI POP PUSH3 0x86A JUMP JUMPDEST DUP1 PUSH1 0x40 MLOAD PUSH3 0x461BCD PUSH1 0xE5 SHL DUP2 MSTORE PUSH1 0x4 ADD PUSH3 0x495 SWAP2 SWAP1 PUSH3 0xE8E JUMP JUMPDEST POP JUMPDEST PUSH1 0x40 MLOAD PUSH3 0x461BCD PUSH1 0xE5 SHL DUP2 MSTORE PUSH1 0x20 PUSH1 0x4 DUP3 ADD MSTORE PUSH1 0x34 PUSH1 0x24 DUP3 ADD MSTORE PUSH32 0x455243313135353A207472616E7366657220746F206E6F6E2D45524331313535 PUSH1 0x44 DUP3 ADD MSTORE PUSH32 0x526563656976657220696D706C656D656E746572000000000000000000000000 PUSH1 0x64 DUP3 ADD MSTORE PUSH1 0x84 ADD PUSH3 0x495 JUMP JUMPDEST PUSH1 0x1 PUSH1 0x1 PUSH1 0xE0 SHL SUB NOT DUP2 AND PUSH4 0xF23A6E61 PUSH1 0xE0 SHL EQ PUSH3 0x60A JUMPI PUSH1 0x40 MLOAD PUSH3 0x461BCD PUSH1 0xE5 SHL DUP2 MSTORE PUSH1 0x20 PUSH1 0x4 DUP3 ADD MSTORE PUSH1 0x28 PUSH1 0x24 DUP3 ADD MSTORE PUSH32 0x455243313135353A204552433131353552656365697665722072656A65637465 PUSH1 0x44 DUP3 ADD MSTORE PUSH8 0x6420746F6B656E73 PUSH1 0xC0 SHL PUSH1 0x64 DUP3 ADD MSTORE PUSH1 0x84 ADD PUSH3 0x495 JUMP JUMPDEST PUSH1 0x0 DUP2 DUP2 MSTORE PUSH1 0x4 PUSH1 0x20 MSTORE PUSH1 0x40 DUP2 KECCAK256 DUP1 SLOAD PUSH1 0x60 SWAP3 SWAP2 SWAP1 PUSH3 0x96C SWAP1 PUSH3 0xB06 JUMP JUMPDEST DUP1 PUSH1 0x1F ADD PUSH1 0x20 DUP1 SWAP2 DIV MUL PUSH1 0x20 ADD PUSH1 0x40 MLOAD SWAP1 DUP2 ADD PUSH1 0x40 MSTORE DUP1 SWAP3 SWAP2 SWAP1 DUP2 DUP2 MSTORE PUSH1 0x20 ADD DUP3 DUP1 SLOAD PUSH3 0x99A SWAP1 PUSH3 0xB06 JUMP JUMPDEST DUP1 ISZERO PUSH3 0x9EB JUMPI DUP1 PUSH1 0x1F LT PUSH3 0x9BF JUMPI PUSH2 0x100 DUP1 DUP4 SLOAD DIV MUL DUP4 MSTORE SWAP2 PUSH1 0x20 ADD SWAP2 PUSH3 0x9EB JUMP JUMPDEST DUP3 ADD SWAP2 SWAP1 PUSH1 0x0 MSTORE PUSH1 0x20 PUSH1 0x0 KECCAK256 SWAP1 JUMPDEST DUP2 SLOAD DUP2 MSTORE SWAP1 PUSH1 0x1 ADD SWAP1 PUSH1 0x20 ADD DUP1 DUP4 GT PUSH3 0x9CD JUMPI DUP3 SWAP1 SUB PUSH1 0x1F AND DUP3 ADD SWAP2 JUMPDEST POP POP POP POP POP SWAP1 POP PUSH1 0x0 DUP2 MLOAD GT PUSH3 0xA18 JUMPI PUSH3 0xA12 DUP4 PUSH3 0xA54 PUSH1 0x20 SHL PUSH3 0x1737 OR PUSH1 0x20 SHR JUMP JUMPDEST PUSH3 0xA3E JUMP JUMPDEST PUSH1 0x3 DUP2 PUSH1 0x40 MLOAD PUSH1 0x20 ADD PUSH3 0xA2E SWAP3 SWAP2 SWAP1 PUSH3 0xFF1 JUMP JUMPDEST PUSH1 0x40 MLOAD PUSH1 0x20 DUP2 DUP4 SUB SUB DUP2 MSTORE SWAP1 PUSH1 0x40 MSTORE JUMPDEST SWAP4 SWAP3 POP POP POP JUMP JUMPDEST PUSH1 0x1 PUSH1 0x1 PUSH1 0xA0 SHL SUB AND EXTCODESIZE ISZERO ISZERO SWAP1 JUMP JUMPDEST PUSH1 0x60 PUSH1 0x2 DUP1 SLOAD PUSH3 0xA65 SWAP1 PUSH3 0xB06 JUMP JUMPDEST DUP1 PUSH1 0x1F ADD PUSH1 0x20 DUP1 SWAP2 DIV MUL PUSH1 0x20 ADD PUSH1 0x40 MLOAD SWAP1 DUP2 ADD PUSH1 0x40 MSTORE DUP1 SWAP3 SWAP2 SWAP1 DUP2 DUP2 MSTORE PUSH1 0x20 ADD DUP3 DUP1 SLOAD PUSH3 0xA93 SWAP1 PUSH3 0xB06 JUMP JUMPDEST DUP1 ISZERO PUSH3 0xAE4 JUMPI DUP1 PUSH1 0x1F LT PUSH3 0xAB8 JUMPI PUSH2 0x100 DUP1 DUP4 SLOAD DIV MUL DUP4 MSTORE SWAP2 PUSH1 0x20 ADD SWAP2 PUSH3 0xAE4 JUMP JUMPDEST DUP3 ADD SWAP2 SWAP1 PUSH1 0x0 MSTORE PUSH1 0x20 PUSH1 0x0 KECCAK256 SWAP1 JUMPDEST DUP2 SLOAD DUP2 MSTORE SWAP1 PUSH1 0x1 ADD SWAP1 PUSH1 0x20 ADD DUP1 DUP4 GT PUSH3 0xAC6 JUMPI DUP3 SWAP1 SUB PUSH1 0x1F AND DUP3 ADD SWAP2 JUMPDEST POP POP POP POP POP SWAP1 POP SWAP2 SWAP1 POP JUMP JUMPDEST PUSH4 0x4E487B71 PUSH1 0xE0 SHL PUSH1 0x0 MSTORE PUSH1 0x41 PUSH1 0x4 MSTORE PUSH1 0x24 PUSH1 0x0 REVERT JUMPDEST PUSH1 0x1 DUP2 DUP2 SHR SWAP1 DUP3 AND DUP1 PUSH3 0xB1B JUMPI PUSH1 0x7F DUP3 AND SWAP2 POP JUMPDEST PUSH1 0x20 DUP3 LT DUP2 SUB PUSH3 0xB3C JUMPI PUSH4 0x4E487B71 PUSH1 0xE0 SHL PUSH1 0x0 MSTORE PUSH1 0x22 PUSH1 0x4 MSTORE PUSH1 0x24 PUSH1 0x0 REVERT JUMPDEST POP SWAP2 SWAP1 POP JUMP JUMPDEST PUSH1 0x1F DUP3 GT ISZERO PUSH3 0x4F0 JUMPI PUSH1 0x0 DUP2 DUP2 MSTORE PUSH1 0x20 DUP2 KECCAK256 PUSH1 0x1F DUP6 ADD PUSH1 0x5 SHR DUP2 ADD PUSH1 0x20 DUP7 LT ISZERO PUSH3 0xB6B JUMPI POP DUP1 JUMPDEST PUSH1 0x1F DUP6 ADD PUSH1 0x5 SHR DUP3 ADD SWAP2 POP JUMPDEST DUP2 DUP2 LT ISZERO PUSH3 0x778 JUMPI DUP3 DUP2 SSTORE PUSH1 0x1 ADD PUSH3 0xB77 JUMP JUMPDEST DUP2 MLOAD PUSH1 0x1 PUSH1 0x1 PUSH1 0x40 SHL SUB DUP2 GT ISZERO PUSH3 0xBA8 JUMPI PUSH3 0xBA8 PUSH3 0xAF0 JUMP JUMPDEST PUSH3 0xBC0 DUP2 PUSH3 0xBB9 DUP5 SLOAD PUSH3 0xB06 JUMP JUMPDEST DUP5 PUSH3 0xB42 JUMP JUMPDEST PUSH1 0x20 DUP1 PUSH1 0x1F DUP4 GT PUSH1 0x1 DUP2 EQ PUSH3 0xBF8 JUMPI PUSH1 0x0 DUP5 ISZERO PUSH3 0xBDF JUMPI POP DUP6 DUP4 ADD MLOAD JUMPDEST PUSH1 0x0 NOT PUSH1 0x3 DUP7 SWAP1 SHL SHR NOT AND PUSH1 0x1 DUP6 SWAP1 SHL OR DUP6 SSTORE PUSH3 0x778 JUMP JUMPDEST PUSH1 0x0 DUP6 DUP2 MSTORE PUSH1 0x20 DUP2 KECCAK256 PUSH1 0x1F NOT DUP7 AND SWAP2 JUMPDEST DUP3 DUP2 LT ISZERO PUSH3 0xC29 JUMPI DUP9 DUP7 ADD MLOAD DUP3 SSTORE SWAP5 DUP5 ADD SWAP5 PUSH1 0x1 SWAP1 SWAP2 ADD SWAP1 DUP5 ADD PUSH3 0xC08 JUMP JUMPDEST POP DUP6 DUP3 LT ISZERO PUSH3 0xC48 JUMPI DUP8 DUP6 ADD MLOAD PUSH1 0x0 NOT PUSH1 0x3 DUP9 SWAP1 SHL PUSH1 0xF8 AND SHR NOT AND DUP2 SSTORE JUMPDEST POP POP POP POP POP PUSH1 0x1 SWAP1 DUP2 SHL ADD SWAP1 SSTORE POP JUMP JUMPDEST PUSH1 0x0 DUP2 SLOAD PUSH3 0xC67 DUP2 PUSH3 0xB06 JUMP JUMPDEST PUSH1 0x1 DUP3 DUP2 AND DUP1 ISZERO PUSH3 0xC82 JUMPI PUSH1 0x1 DUP2 EQ PUSH3 0xC98 JUMPI PUSH3 0xCC9 JUMP JUMPDEST PUSH1 0xFF NOT DUP5 AND DUP8 MSTORE DUP3 ISZERO ISZERO DUP4 MUL DUP8 ADD SWAP5 POP PUSH3 0xCC9 JUMP JUMPDEST DUP6 PUSH1 0x0 MSTORE PUSH1 0x20 DUP1 PUSH1 0x0 KECCAK256 PUSH1 0x0 JUMPDEST DUP6 DUP2 LT ISZERO PUSH3 0xCC0 JUMPI DUP2 SLOAD DUP11 DUP3 ADD MSTORE SWAP1 DUP5 ADD SWAP1 DUP3 ADD PUSH3 0xCA5 JUMP JUMPDEST POP POP POP DUP3 DUP8 ADD SWAP5 POP JUMPDEST POP POP POP POP SWAP3 SWAP2 POP POP JUMP JUMPDEST PUSH1 0x0 PUSH3 0xCEC PUSH3 0xCE5 DUP4 DUP8 PUSH3 0xC58 JUMP JUMPDEST DUP6 PUSH3 0xC58 JUMP JUMPDEST PUSH1 0x31 PUSH1 0xF8 SHL DUP2 MSTORE PUSH3 0xD02 PUSH1 0x1 DUP3 ADD DUP6 PUSH3 0xC58 JUMP JUMPDEST SWAP7 SWAP6 POP POP POP POP POP POP JUMP JUMPDEST PUSH1 0x0 PUSH3 0xD1E PUSH3 0xCE5 DUP4 DUP8 PUSH3 0xC58 JUMP JUMPDEST PUSH1 0x19 PUSH1 0xF9 SHL DUP2 MSTORE PUSH3 0xD02 PUSH1 0x1 DUP3 ADD DUP6 PUSH3 0xC58 JUMP JUMPDEST PUSH1 0x0 PUSH3 0xD46 PUSH3 0xCE5 DUP4 DUP8 PUSH3 0xC58 JUMP JUMPDEST PUSH1 0x33 PUSH1 0xF8 SHL DUP2 MSTORE PUSH3 0xD02 PUSH1 0x1 DUP3 ADD DUP6 PUSH3 0xC58 JUMP JUMPDEST PUSH1 0x0 PUSH3 0xD6E PUSH3 0xCE5 DUP4 DUP8 PUSH3 0xC58 JUMP JUMPDEST PUSH1 0xD PUSH1 0xFA SHL DUP2 MSTORE PUSH3 0xD02 PUSH1 0x1 DUP3 ADD DUP6 PUSH3 0xC58 JUMP JUMPDEST PUSH1 0x0 PUSH3 0xD96 PUSH3 0xCE5 DUP4 DUP8 PUSH3 0xC58 JUMP JUMPDEST PUSH1 0x35 PUSH1 0xF8 SHL DUP2 MSTORE PUSH3 0xD02 PUSH1 0x1 DUP3 ADD DUP6 PUSH3 0xC58 JUMP JUMPDEST PUSH1 0x0 PUSH3 0xDBE PUSH3 0xCE5 DUP4 DUP8 PUSH3 0xC58 JUMP JUMPDEST PUSH1 0x1B PUSH1 0xF9 SHL DUP2 MSTORE PUSH3 0xD02 PUSH1 0x1 DUP3 ADD DUP6 PUSH3 0xC58 JUMP JUMPDEST PUSH1 0x0 PUSH3 0xDE6 PUSH3 0xCE5 DUP4 DUP8 PUSH3 0xC58 JUMP JUMPDEST PUSH1 0x37 PUSH1 0xF8 SHL DUP2 MSTORE PUSH3 0xD02 PUSH1 0x1 DUP3 ADD DUP6 PUSH3 0xC58 JUMP JUMPDEST PUSH4 0x4E487B71 PUSH1 0xE0 SHL PUSH1 0x0 MSTORE PUSH1 0x32 PUSH1 0x4 MSTORE PUSH1 0x24 PUSH1 0x0 REVERT JUMPDEST DUP1 DUP3 ADD DUP1 DUP3 GT ISZERO PUSH3 0xE34 JUMPI PUSH4 0x4E487B71 PUSH1 0xE0 SHL PUSH1 0x0 MSTORE PUSH1 0x11 PUSH1 0x4 MSTORE PUSH1 0x24 PUSH1 0x0 REVERT JUMPDEST SWAP3 SWAP2 POP POP JUMP JUMPDEST PUSH1 0x0 JUMPDEST DUP4 DUP2 LT ISZERO PUSH3 0xE57 JUMPI DUP2 DUP2 ADD MLOAD DUP4 DUP3 ADD MSTORE PUSH1 0x20 ADD PUSH3 0xE3D JUMP JUMPDEST POP POP PUSH1 0x0 SWAP2 ADD MSTORE JUMP JUMPDEST PUSH1 0x0 DUP2 MLOAD DUP1 DUP5 MSTORE PUSH3 0xE7A DUP2 PUSH1 0x20 DUP7 ADD PUSH1 0x20 DUP7 ADD PUSH3 0xE3A JUMP JUMPDEST PUSH1 0x1F ADD PUSH1 0x1F NOT AND SWAP3 SWAP1 SWAP3 ADD PUSH1 0x20 ADD SWAP3 SWAP2 POP POP JUMP JUMPDEST PUSH1 0x20 DUP2 MSTORE PUSH1 0x0 PUSH3 0xA3E PUSH1 0x20 DUP4 ADD DUP5 PUSH3 0xE60 JUMP JUMPDEST PUSH1 0x1 PUSH1 0x1 PUSH1 0xA0 SHL SUB DUP7 DUP2 AND DUP3 MSTORE DUP6 AND PUSH1 0x20 DUP3 ADD MSTORE PUSH1 0x40 DUP2 ADD DUP5 SWAP1 MSTORE PUSH1 0x60 DUP2 ADD DUP4 SWAP1 MSTORE PUSH1 0xA0 PUSH1 0x80 DUP3 ADD DUP2 SWAP1 MSTORE PUSH1 0x0 SWAP1 PUSH3 0xEDF SWAP1 DUP4 ADD DUP5 PUSH3 0xE60 JUMP JUMPDEST SWAP8 SWAP7 POP POP POP POP POP POP POP JUMP JUMPDEST PUSH1 0x0 PUSH1 0x20 DUP3 DUP5 SUB SLT ISZERO PUSH3 0xEFD JUMPI PUSH1 0x0 DUP1 REVERT JUMPDEST DUP2 MLOAD PUSH1 0x1 PUSH1 0x1 PUSH1 0xE0 SHL SUB NOT DUP2 AND DUP2 EQ PUSH3 0xA3E JUMPI PUSH1 0x0 DUP1 REVERT JUMPDEST PUSH1 0x0 PUSH1 0x3 RETURNDATASIZE GT ISZERO PUSH3 0xF30 JUMPI PUSH1 0x4 PUSH1 0x0 DUP1 RETURNDATACOPY POP PUSH1 0x0 MLOAD PUSH1 0xE0 SHR JUMPDEST SWAP1 JUMP JUMPDEST PUSH1 0x1F DUP3 ADD PUSH1 0x1F NOT AND DUP2 ADD PUSH1 0x1 PUSH1 0x1 PUSH1 0x40 SHL SUB DUP2 GT DUP3 DUP3 LT OR ISZERO PUSH3 0xF5B JUMPI PUSH3 0xF5B PUSH3 0xAF0 JUMP JUMPDEST PUSH1 0x40 MSTORE POP POP JUMP JUMPDEST PUSH1 0x0 PUSH1 0x44 RETURNDATASIZE LT ISZERO PUSH3 0xF71 JUMPI SWAP1 JUMP JUMPDEST PUSH1 0x40 MLOAD PUSH1 0x3 NOT RETURNDATASIZE DUP2 ADD PUSH1 0x4 DUP4 RETURNDATACOPY DUP2 MLOAD RETURNDATASIZE PUSH1 0x1 PUSH1 0x1 PUSH1 0x40 SHL SUB DUP1 DUP4 GT PUSH1 0x24 DUP5 ADD DUP4 LT OR ISZERO PUSH3 0xFA1 JUMPI POP POP POP POP POP SWAP1 JUMP JUMPDEST DUP3 DUP6 ADD SWAP2 POP DUP2 MLOAD DUP2 DUP2 GT ISZERO PUSH3 0xFBA JUMPI POP POP POP POP POP POP SWAP1 JUMP JUMPDEST DUP5 RETURNDATASIZE DUP8 ADD ADD PUSH1 0x20 DUP3 DUP6 ADD ADD GT ISZERO PUSH3 0xFD5 JUMPI POP POP POP POP POP POP SWAP1 JUMP JUMPDEST PUSH3 0xFE6 PUSH1 0x20 DUP3 DUP7 ADD ADD DUP8 PUSH3 0xF33 JUMP JUMPDEST POP SWAP1 SWAP6 SWAP5 POP POP POP POP POP JUMP JUMPDEST PUSH1 0x0 PUSH3 0xFFF DUP3 DUP6 PUSH3 0xC58 JUMP JUMPDEST DUP4 MLOAD PUSH3 0x1011 DUP2 DUP4 PUSH1 0x20 DUP9 ADD PUSH3 0xE3A JUMP JUMPDEST ADD SWAP5 SWAP4 POP POP POP POP JUMP JUMPDEST PUSH2 0x2F58 DUP1 PUSH3 0x102A PUSH1 0x0 CODECOPY PUSH1 0x0 RETURN INVALID PUSH1 0x80 PUSH1 0x40 MSTORE PUSH1 0x4 CALLDATASIZE LT PUSH2 0x19B JUMPI PUSH1 0x0 CALLDATALOAD PUSH1 0xE0 SHR DUP1 PUSH4 0x715018A6 GT PUSH2 0xEC JUMPI DUP1 PUSH4 0xAE677AA3 GT PUSH2 0x8A JUMPI DUP1 PUSH4 0xE985E9C5 GT PUSH2 0x64 JUMPI DUP1 PUSH4 0xE985E9C5 EQ PUSH2 0x483 JUMPI DUP1 PUSH4 0xEA31247A EQ PUSH2 0x4CC JUMPI DUP1 PUSH4 0xF242432A EQ PUSH2 0x4DF JUMPI DUP1 PUSH4 0xF2FDE38B EQ PUSH2 0x4FF JUMPI PUSH1 0x0 DUP1 REVERT JUMPDEST DUP1 PUSH4 0xAE677AA3 EQ PUSH2 0x448 JUMPI DUP1 PUSH4 0xBE9AF536 EQ PUSH2 0x45B JUMPI DUP1 PUSH4 0xE1C7392A EQ PUSH2 0x46E JUMPI PUSH1 0x0 DUP1 REVERT JUMPDEST DUP1 PUSH4 0x90ADEC6F GT PUSH2 0xC6 JUMPI DUP1 PUSH4 0x90ADEC6F EQ PUSH2 0x3DE JUMPI DUP1 PUSH4 0x95D89B41 EQ PUSH2 0x400 JUMPI DUP1 PUSH4 0xA1C11CA8 EQ PUSH2 0x415 JUMPI DUP1 PUSH4 0xA22CB465 EQ PUSH2 0x428 JUMPI PUSH1 0x0 DUP1 REVERT JUMPDEST DUP1 PUSH4 0x715018A6 EQ PUSH2 0x381 JUMPI DUP1 PUSH4 0x862440E2 EQ PUSH2 0x396 JUMPI DUP1 PUSH4 0x8DA5CB5B EQ PUSH2 0x3B6 JUMPI PUSH1 0x0 DUP1 REVERT JUMPDEST DUP1 PUSH4 0x12E85585 GT PUSH2 0x159 JUMPI DUP1 PUSH4 0x2EB2C2D6 GT PUSH2 0x133 JUMPI DUP1 PUSH4 0x2EB2C2D6 EQ PUSH2 0x2F0 JUMPI DUP1 PUSH4 0x45F8FA80 EQ PUSH2 0x312 JUMPI DUP1 PUSH4 0x4E1273F4 EQ PUSH2 0x327 JUMPI DUP1 PUSH4 0x4F57641C EQ PUSH2 0x354 JUMPI PUSH1 0x0 DUP1 REVERT JUMPDEST DUP1 PUSH4 0x12E85585 EQ PUSH2 0x287 JUMPI DUP1 PUSH4 0x202E3740 EQ PUSH2 0x29C JUMPI DUP1 PUSH4 0x2A55205A EQ PUSH2 0x2B1 JUMPI PUSH1 0x0 DUP1 REVERT JUMPDEST DUP1 PUSH3 0xFDD58E EQ PUSH2 0x1A0 JUMPI DUP1 PUSH4 0x1FFC9A7 EQ PUSH2 0x1D3 JUMPI DUP1 PUSH4 0x3D0F90A EQ PUSH2 0x203 JUMPI DUP1 PUSH4 0x6FDDE03 EQ PUSH2 0x223 JUMPI DUP1 PUSH4 0xE89341C EQ PUSH2 0x245 JUMPI DUP1 PUSH4 0xF08EFE0 EQ PUSH2 0x265 JUMPI JUMPDEST PUSH1 0x0 DUP1 REVERT JUMPDEST CALLVALUE DUP1 ISZERO PUSH2 0x1AC JUMPI PUSH1 0x0 DUP1 REVERT JUMPDEST POP PUSH2 0x1C0 PUSH2 0x1BB CALLDATASIZE PUSH1 0x4 PUSH2 0x21C1 JUMP JUMPDEST PUSH2 0x51F JUMP JUMPDEST PUSH1 0x40 MLOAD SWAP1 DUP2 MSTORE PUSH1 0x20 ADD JUMPDEST PUSH1 0x40 MLOAD DUP1 SWAP2 SUB SWAP1 RETURN JUMPDEST CALLVALUE DUP1 ISZERO PUSH2 0x1DF JUMPI PUSH1 0x0 DUP1 REVERT JUMPDEST POP PUSH2 0x1F3 PUSH2 0x1EE CALLDATASIZE PUSH1 0x4 PUSH2 0x2201 JUMP JUMPDEST PUSH2 0x5B8 JUMP JUMPDEST PUSH1 0x40 MLOAD SWAP1 ISZERO ISZERO DUP2 MSTORE PUSH1 0x20 ADD PUSH2 0x1CA JUMP JUMPDEST CALLVALUE DUP1 ISZERO PUSH2 0x20F JUMPI PUSH1 0x0 DUP1 REVERT JUMPDEST POP PUSH2 0x1C0 PUSH2 0x21E CALLDATASIZE PUSH1 0x4 PUSH2 0x22D3 JUMP JUMPDEST PUSH2 0x5C3 JUMP JUMPDEST CALLVALUE DUP1 ISZERO PUSH2 0x22F JUMPI PUSH1 0x0 DUP1 REVERT JUMPDEST POP PUSH2 0x238 PUSH2 0x6EC JUMP JUMPDEST PUSH1 0x40 MLOAD PUSH2 0x1CA SWAP2 SWAP1 PUSH2 0x2379 JUMP JUMPDEST CALLVALUE DUP1 ISZERO PUSH2 0x251 JUMPI PUSH1 0x0 DUP1 REVERT JUMPDEST POP PUSH2 0x238 PUSH2 0x260 CALLDATASIZE PUSH1 0x4 PUSH2 0x238C JUMP JUMPDEST PUSH2 0x77A JUMP JUMPDEST CALLVALUE DUP1 ISZERO PUSH2 0x271 JUMPI PUSH1 0x0 DUP1 REVERT JUMPDEST POP PUSH2 0x27A PUSH2 0x85A JUMP JUMPDEST PUSH1 0x40 MLOAD PUSH2 0x1CA SWAP2 SWAP1 PUSH2 0x23A5 JUMP JUMPDEST CALLVALUE DUP1 ISZERO PUSH2 0x293 JUMPI PUSH1 0x0 DUP1 REVERT JUMPDEST POP PUSH1 0x9 SLOAD PUSH2 0x1C0 JUMP JUMPDEST CALLVALUE DUP1 ISZERO PUSH2 0x2A8 JUMPI PUSH1 0x0 DUP1 REVERT JUMPDEST POP PUSH2 0x27A PUSH2 0x9F0 JUMP JUMPDEST CALLVALUE DUP1 ISZERO PUSH2 0x2BD JUMPI PUSH1 0x0 DUP1 REVERT JUMPDEST POP PUSH2 0x2D1 PUSH2 0x2CC CALLDATASIZE PUSH1 0x4 PUSH2 0x2421 JUMP JUMPDEST PUSH2 0xBC3 JUMP JUMPDEST PUSH1 0x40 DUP1 MLOAD PUSH1 0x1 PUSH1 0x1 PUSH1 0xA0 SHL SUB SWAP1 SWAP4 AND DUP4 MSTORE PUSH1 0x20 DUP4 ADD SWAP2 SWAP1 SWAP2 MSTORE ADD PUSH2 0x1CA JUMP JUMPDEST CALLVALUE DUP1 ISZERO PUSH2 0x2FC JUMPI PUSH1 0x0 DUP1 REVERT JUMPDEST POP PUSH2 0x310 PUSH2 0x30B CALLDATASIZE PUSH1 0x4 PUSH2 0x24D7 JUMP JUMPDEST PUSH2 0xC21 JUMP JUMPDEST STOP JUMPDEST CALLVALUE DUP1 ISZERO PUSH2 0x31E JUMPI PUSH1 0x0 DUP1 REVERT JUMPDEST POP PUSH2 0x27A PUSH2 0xC6D JUMP JUMPDEST CALLVALUE DUP1 ISZERO PUSH2 0x333 JUMPI PUSH1 0x0 DUP1 REVERT JUMPDEST POP PUSH2 0x347 PUSH2 0x342 CALLDATASIZE PUSH1 0x4 PUSH2 0x2580 JUMP JUMPDEST PUSH2 0xE40 JUMP JUMPDEST PUSH1 0x40 MLOAD PUSH2 0x1CA SWAP2 SWAP1 PUSH2 0x267B JUMP JUMPDEST CALLVALUE DUP1 ISZERO PUSH2 0x360 JUMPI PUSH1 0x0 DUP1 REVERT JUMPDEST POP PUSH2 0x374 PUSH2 0x36F CALLDATASIZE PUSH1 0x4 PUSH2 0x238C JUMP JUMPDEST PUSH2 0xF69 JUMP JUMPDEST PUSH1 0x40 MLOAD PUSH2 0x1CA SWAP2 SWAP1 PUSH2 0x26C1 JUMP JUMPDEST CALLVALUE DUP1 ISZERO PUSH2 0x38D JUMPI PUSH1 0x0 DUP1 REVERT JUMPDEST POP PUSH2 0x310 PUSH2 0x1066 JUMP JUMPDEST CALLVALUE DUP1 ISZERO PUSH2 0x3A2 JUMPI PUSH1 0x0 DUP1 REVERT JUMPDEST POP PUSH2 0x310 PUSH2 0x3B1 CALLDATASIZE PUSH1 0x4 PUSH2 0x26D4 JUMP JUMPDEST PUSH2 0x107A JUMP JUMPDEST CALLVALUE DUP1 ISZERO PUSH2 0x3C2 JUMPI PUSH1 0x0 DUP1 REVERT JUMPDEST POP PUSH1 0x6 SLOAD PUSH1 0x40 MLOAD PUSH1 0x1 PUSH1 0x1 PUSH1 0xA0 SHL SUB SWAP1 SWAP2 AND DUP2 MSTORE PUSH1 0x20 ADD PUSH2 0x1CA JUMP JUMPDEST CALLVALUE DUP1 ISZERO PUSH2 0x3EA JUMPI PUSH1 0x0 DUP1 REVERT JUMPDEST POP PUSH2 0x3F3 PUSH2 0x10C2 JUMP JUMPDEST PUSH1 0x40 MLOAD PUSH2 0x1CA SWAP2 SWAP1 PUSH2 0x2710 JUMP JUMPDEST CALLVALUE DUP1 ISZERO PUSH2 0x40C JUMPI PUSH1 0x0 DUP1 REVERT JUMPDEST POP PUSH2 0x238 PUSH2 0x11C7 JUMP JUMPDEST PUSH2 0x310 PUSH2 0x423 CALLDATASIZE PUSH1 0x4 PUSH2 0x2421 JUMP JUMPDEST PUSH2 0x11D4 JUMP JUMPDEST CALLVALUE DUP1 ISZERO PUSH2 0x434 JUMPI PUSH1 0x0 DUP1 REVERT JUMPDEST POP PUSH2 0x310 PUSH2 0x443 CALLDATASIZE PUSH1 0x4 PUSH2 0x2772 JUMP JUMPDEST PUSH2 0x12F2 JUMP JUMPDEST PUSH2 0x310 PUSH2 0x456 CALLDATASIZE PUSH1 0x4 PUSH2 0x238C JUMP JUMPDEST PUSH2 0x1301 JUMP JUMPDEST PUSH2 0x310 PUSH2 0x469 CALLDATASIZE PUSH1 0x4 PUSH2 0x238C JUMP JUMPDEST PUSH2 0x1379 JUMP JUMPDEST CALLVALUE DUP1 ISZERO PUSH2 0x47A JUMPI PUSH1 0x0 DUP1 REVERT JUMPDEST POP PUSH2 0x310 PUSH2 0x1430 JUMP JUMPDEST CALLVALUE DUP1 ISZERO PUSH2 0x48F JUMPI PUSH1 0x0 DUP1 REVERT JUMPDEST POP PUSH2 0x1F3 PUSH2 0x49E CALLDATASIZE PUSH1 0x4 PUSH2 0x27AE JUMP JUMPDEST PUSH1 0x1 PUSH1 0x1 PUSH1 0xA0 SHL SUB SWAP2 DUP3 AND PUSH1 0x0 SWAP1 DUP2 MSTORE PUSH1 0x1 PUSH1 0x20 SWAP1 DUP2 MSTORE PUSH1 0x40 DUP1 DUP4 KECCAK256 SWAP4 SWAP1 SWAP5 AND DUP3 MSTORE SWAP2 SWAP1 SWAP2 MSTORE KECCAK256 SLOAD PUSH1 0xFF AND SWAP1 JUMP JUMPDEST PUSH2 0x310 PUSH2 0x4DA CALLDATASIZE PUSH1 0x4 PUSH2 0x27E1 JUMP JUMPDEST PUSH2 0x151F JUMP JUMPDEST CALLVALUE DUP1 ISZERO PUSH2 0x4EB JUMPI PUSH1 0x0 DUP1 REVERT JUMPDEST POP PUSH2 0x310 PUSH2 0x4FA CALLDATASIZE PUSH1 0x4 PUSH2 0x280D JUMP JUMPDEST PUSH2 0x1660 JUMP JUMPDEST CALLVALUE DUP1 ISZERO PUSH2 0x50B JUMPI PUSH1 0x0 DUP1 REVERT JUMPDEST POP PUSH2 0x310 PUSH2 0x51A CALLDATASIZE PUSH1 0x4 PUSH2 0x2871 JUMP JUMPDEST PUSH2 0x16A5 JUMP JUMPDEST PUSH1 0x0 PUSH1 0x1 PUSH1 0x1 PUSH1 0xA0 SHL SUB DUP4 AND PUSH2 0x58F JUMPI PUSH1 0x40 MLOAD PUSH3 0x461BCD PUSH1 0xE5 SHL DUP2 MSTORE PUSH1 0x20 PUSH1 0x4 DUP3 ADD MSTORE PUSH1 0x2A PUSH1 0x24 DUP3 ADD MSTORE PUSH32 0x455243313135353A2061646472657373207A65726F206973206E6F7420612076 PUSH1 0x44 DUP3 ADD MSTORE PUSH10 0x30B634B21037BBB732B9 PUSH1 0xB1 SHL PUSH1 0x64 DUP3 ADD MSTORE PUSH1 0x84 ADD JUMPDEST PUSH1 0x40 MLOAD DUP1 SWAP2 SUB SWAP1 REVERT JUMPDEST POP PUSH1 0x0 DUP2 DUP2 MSTORE PUSH1 0x20 DUP2 DUP2 MSTORE PUSH1 0x40 DUP1 DUP4 KECCAK256 PUSH1 0x1 PUSH1 0x1 PUSH1 0xA0 SHL SUB DUP7 AND DUP5 MSTORE SWAP1 SWAP2 MSTORE SWAP1 KECCAK256 SLOAD JUMPDEST SWAP3 SWAP2 POP POP JUMP JUMPDEST PUSH1 0x0 PUSH2 0x5B2 DUP3 PUSH2 0x17CB JUMP JUMPDEST PUSH1 0x0 PUSH2 0x5CD PUSH2 0x17F0 JUMP JUMPDEST PUSH1 0x0 PUSH2 0x5D8 PUSH1 0x7 SLOAD SWAP1 JUMP JUMPDEST PUSH1 0x40 DUP1 MLOAD PUSH1 0x60 DUP2 ADD DUP3 MSTORE DUP3 DUP2 MSTORE PUSH1 0x20 DUP2 ADD DUP7 DUP2 MSTORE SWAP2 DUP2 ADD DUP8 SWAP1 MSTORE PUSH1 0x12 DUP1 SLOAD PUSH1 0x1 DUP2 ADD DUP3 SSTORE PUSH1 0x0 SWAP2 SWAP1 SWAP2 MSTORE DUP2 MLOAD PUSH1 0x3 SWAP1 SWAP2 MUL PUSH32 0xBB8A6A4669BA250D26CD7A459ECA9D215F8307E33AEBE50379BC5A3617EC3444 DUP2 ADD SWAP2 DUP3 SSTORE SWAP3 MLOAD SWAP4 SWAP5 POP SWAP1 SWAP3 SWAP1 SWAP2 PUSH32 0xBB8A6A4669BA250D26CD7A459ECA9D215F8307E33AEBE50379BC5A3617EC3445 ADD SWAP1 PUSH2 0x665 SWAP1 DUP3 PUSH2 0x290C JUMP JUMPDEST POP PUSH1 0x40 DUP3 ADD MLOAD DUP2 PUSH1 0x2 ADD SSTORE POP POP PUSH2 0x67C DUP2 DUP5 PUSH2 0x107A JUMP JUMPDEST DUP3 PUSH1 0x12 DUP3 DUP2 SLOAD DUP2 LT PUSH2 0x690 JUMPI PUSH2 0x690 PUSH2 0x29CB JUMP JUMPDEST SWAP1 PUSH1 0x0 MSTORE PUSH1 0x20 PUSH1 0x0 KECCAK256 SWAP1 PUSH1 0x3 MUL ADD PUSH1 0x1 ADD SWAP1 DUP2 PUSH2 0x6AD SWAP2 SWAP1 PUSH2 0x290C JUMP JUMPDEST POP PUSH2 0x6C9 DUP6 DUP3 DUP7 PUSH1 0x40 MLOAD DUP1 PUSH1 0x20 ADD PUSH1 0x40 MSTORE DUP1 PUSH1 0x0 DUP2 MSTORE POP PUSH2 0x184A JUMP JUMPDEST PUSH2 0x6D6 DUP2 CALLER PUSH2 0x3E8 PUSH2 0x195E JUMP JUMPDEST PUSH2 0x6E4 PUSH1 0x7 DUP1 SLOAD PUSH1 0x1 ADD SWAP1 SSTORE JUMP JUMPDEST SWAP5 SWAP4 POP POP POP POP JUMP JUMPDEST PUSH1 0xD DUP1 SLOAD PUSH2 0x6F9 SWAP1 PUSH2 0x288C JUMP JUMPDEST DUP1 PUSH1 0x1F ADD PUSH1 0x20 DUP1 SWAP2 DIV MUL PUSH1 0x20 ADD PUSH1 0x40 MLOAD SWAP1 DUP2 ADD PUSH1 0x40 MSTORE DUP1 SWAP3 SWAP2 SWAP1 DUP2 DUP2 MSTORE PUSH1 0x20 ADD DUP3 DUP1 SLOAD PUSH2 0x725 SWAP1 PUSH2 0x288C JUMP JUMPDEST DUP1 ISZERO PUSH2 0x772 JUMPI DUP1 PUSH1 0x1F LT PUSH2 0x747 JUMPI PUSH2 0x100 DUP1 DUP4 SLOAD DIV MUL DUP4 MSTORE SWAP2 PUSH1 0x20 ADD SWAP2 PUSH2 0x772 JUMP JUMPDEST DUP3 ADD SWAP2 SWAP1 PUSH1 0x0 MSTORE PUSH1 0x20 PUSH1 0x0 KECCAK256 SWAP1 JUMPDEST DUP2 SLOAD DUP2 MSTORE SWAP1 PUSH1 0x1 ADD SWAP1 PUSH1 0x20 ADD DUP1 DUP4 GT PUSH2 0x755 JUMPI DUP3 SWAP1 SUB PUSH1 0x1F AND DUP3 ADD SWAP2 JUMPDEST POP POP POP POP POP DUP2 JUMP JUMPDEST PUSH1 0x0 DUP2 DUP2 MSTORE PUSH1 0x4 PUSH1 0x20 MSTORE PUSH1 0x40 DUP2 KECCAK256 DUP1 SLOAD PUSH1 0x60 SWAP3 SWAP2 SWAP1 PUSH2 0x798 SWAP1 PUSH2 0x288C JUMP JUMPDEST DUP1 PUSH1 0x1F ADD PUSH1 0x20 DUP1 SWAP2 DIV MUL PUSH1 0x20 ADD PUSH1 0x40 MLOAD SWAP1 DUP2 ADD PUSH1 0x40 MSTORE DUP1 SWAP3 SWAP2 SWAP1 DUP2 DUP2 MSTORE PUSH1 0x20 ADD DUP3 DUP1 SLOAD PUSH2 0x7C4 SWAP1 PUSH2 0x288C JUMP JUMPDEST DUP1 ISZERO PUSH2 0x811 JUMPI DUP1 PUSH1 0x1F LT PUSH2 0x7E6 JUMPI PUSH2 0x100 DUP1 DUP4 SLOAD DIV MUL DUP4 MSTORE SWAP2 PUSH1 0x20 ADD SWAP2 PUSH2 0x811 JUMP JUMPDEST DUP3 ADD SWAP2 SWAP1 PUSH1 0x0 MSTORE PUSH1 0x20 PUSH1 0x0 KECCAK256 SWAP1 JUMPDEST DUP2 SLOAD DUP2 MSTORE SWAP1 PUSH1 0x1 ADD SWAP1 PUSH1 0x20 ADD DUP1 DUP4 GT PUSH2 0x7F4 JUMPI DUP3 SWAP1 SUB PUSH1 0x1F AND DUP3 ADD SWAP2 JUMPDEST POP POP POP POP POP SWAP1 POP PUSH1 0x0 DUP2 MLOAD GT PUSH2 0x82F JUMPI PUSH2 0x82A DUP4 PUSH2 0x1737 JUMP JUMPDEST PUSH2 0x853 JUMP JUMPDEST PUSH1 0x3 DUP2 PUSH1 0x40 MLOAD PUSH1 0x20 ADD PUSH2 0x843 SWAP3 SWAP2 SWAP1 PUSH2 0x2A54 JUMP JUMPDEST PUSH1 0x40 MLOAD PUSH1 0x20 DUP2 DUP4 SUB SUB DUP2 MSTORE SWAP1 PUSH1 0x40 MSTORE JUMPDEST SWAP4 SWAP3 POP POP POP JUMP JUMPDEST PUSH1 0x60 PUSH1 0x0 PUSH2 0x867 PUSH1 0x7 SLOAD SWAP1 JUMP JUMPDEST SWAP1 POP PUSH1 0x0 PUSH2 0x874 PUSH1 0x8 SLOAD SWAP1 JUMP JUMPDEST PUSH1 0x7 SLOAD PUSH2 0x881 SWAP2 SWAP1 PUSH2 0x2A8F JUMP JUMPDEST SWAP1 POP PUSH1 0x0 DUP1 DUP3 PUSH1 0x1 PUSH1 0x1 PUSH1 0x40 SHL SUB DUP2 GT ISZERO PUSH2 0x89E JUMPI PUSH2 0x89E PUSH2 0x221E JUMP JUMPDEST PUSH1 0x40 MLOAD SWAP1 DUP1 DUP3 MSTORE DUP1 PUSH1 0x20 MUL PUSH1 0x20 ADD DUP3 ADD PUSH1 0x40 MSTORE DUP1 ISZERO PUSH2 0x8F7 JUMPI DUP2 PUSH1 0x20 ADD JUMPDEST PUSH1 0x40 DUP1 MLOAD PUSH1 0xA0 DUP2 ADD DUP3 MSTORE PUSH1 0x0 DUP1 DUP3 MSTORE PUSH1 0x20 DUP1 DUP4 ADD DUP3 SWAP1 MSTORE SWAP3 DUP3 ADD DUP2 SWAP1 MSTORE PUSH1 0x60 DUP3 ADD DUP2 SWAP1 MSTORE PUSH1 0x80 DUP3 ADD MSTORE DUP3 MSTORE PUSH1 0x0 NOT SWAP1 SWAP3 ADD SWAP2 ADD DUP2 PUSH2 0x8BC JUMPI SWAP1 POP JUMPDEST POP SWAP1 POP PUSH1 0x0 JUMPDEST DUP5 DUP2 LT ISZERO PUSH2 0x9E7 JUMPI ADDRESS PUSH1 0xC PUSH1 0x0 PUSH2 0x915 DUP5 PUSH1 0x1 PUSH2 0x2AA2 JUMP JUMPDEST DUP2 MSTORE PUSH1 0x20 DUP2 ADD SWAP2 SWAP1 SWAP2 MSTORE PUSH1 0x40 ADD PUSH1 0x0 KECCAK256 PUSH1 0x2 ADD SLOAD PUSH1 0x1 PUSH1 0x1 PUSH1 0xA0 SHL SUB AND SUB PUSH2 0x9D5 JUMPI PUSH1 0x0 PUSH2 0x944 DUP3 PUSH1 0x1 PUSH2 0x2AA2 JUMP JUMPDEST PUSH1 0x0 DUP2 DUP2 MSTORE PUSH1 0xC PUSH1 0x20 SWAP1 DUP2 MSTORE PUSH1 0x40 SWAP2 DUP3 SWAP1 KECCAK256 DUP3 MLOAD PUSH1 0xA0 DUP2 ADD DUP5 MSTORE DUP2 SLOAD DUP2 MSTORE PUSH1 0x1 DUP3 ADD SLOAD PUSH1 0x1 PUSH1 0x1 PUSH1 0xA0 SHL SUB SWAP1 DUP2 AND SWAP4 DUP3 ADD SWAP4 SWAP1 SWAP4 MSTORE PUSH1 0x2 DUP3 ADD SLOAD SWAP1 SWAP3 AND SWAP3 DUP3 ADD SWAP3 SWAP1 SWAP3 MSTORE PUSH1 0x3 DUP3 ADD SLOAD PUSH1 0x60 DUP3 ADD MSTORE PUSH1 0x4 DUP3 ADD SLOAD PUSH1 0xFF AND ISZERO ISZERO PUSH1 0x80 DUP3 ADD MSTORE DUP6 MLOAD SWAP3 SWAP4 POP SWAP1 SWAP2 DUP6 SWAP1 DUP8 SWAP1 DUP2 LT PUSH2 0x9BA JUMPI PUSH2 0x9BA PUSH2 0x29CB JUMP JUMPDEST PUSH1 0x20 SWAP1 DUP2 MUL SWAP2 SWAP1 SWAP2 ADD ADD MSTORE PUSH2 0x9D0 PUSH1 0x1 DUP7 PUSH2 0x2AA2 JUMP JUMPDEST SWAP5 POP POP POP JUMPDEST DUP1 PUSH2 0x9DF DUP2 PUSH2 0x2AB5 JUMP JUMPDEST SWAP2 POP POP PUSH2 0x8FD JUMP JUMPDEST POP SWAP5 SWAP4 POP POP POP POP JUMP JUMPDEST PUSH1 0x60 PUSH1 0x0 PUSH2 0x9FD PUSH1 0x7 SLOAD SWAP1 JUMP JUMPDEST SWAP1 POP PUSH1 0x0 DUP1 PUSH1 0x0 JUMPDEST DUP4 DUP2 LT ISZERO PUSH2 0xA5F JUMPI CALLER PUSH1 0xC PUSH1 0x0 PUSH2 0xA1D DUP5 PUSH1 0x1 PUSH2 0x2AA2 JUMP JUMPDEST DUP2 MSTORE PUSH1 0x20 DUP2 ADD SWAP2 SWAP1 SWAP2 MSTORE PUSH1 0x40 ADD PUSH1 0x0 KECCAK256 PUSH1 0x2 ADD SLOAD PUSH1 0x1 PUSH1 0x1 PUSH1 0xA0 SHL SUB AND SUB PUSH2 0xA4D JUMPI PUSH2 0xA4A PUSH1 0x1 DUP5 PUSH2 0x2AA2 JUMP JUMPDEST SWAP3 POP JUMPDEST DUP1 PUSH2 0xA57 DUP2 PUSH2 0x2AB5 JUMP JUMPDEST SWAP2 POP POP PUSH2 0xA05 JUMP JUMPDEST POP PUSH1 0x0 DUP3 PUSH1 0x1 PUSH1 0x1 PUSH1 0x40 SHL SUB DUP2 GT ISZERO PUSH2 0xA7A JUMPI PUSH2 0xA7A PUSH2 0x221E JUMP JUMPDEST PUSH1 0x40 MLOAD SWAP1 DUP1 DUP3 MSTORE DUP1 PUSH1 0x20 MUL PUSH1 0x20 ADD DUP3 ADD PUSH1 0x40 MSTORE DUP1 ISZERO PUSH2 0xAD3 JUMPI DUP2 PUSH1 0x20 ADD JUMPDEST PUSH1 0x40 DUP1 MLOAD PUSH1 0xA0 DUP2 ADD DUP3 MSTORE PUSH1 0x0 DUP1 DUP3 MSTORE PUSH1 0x20 DUP1 DUP4 ADD DUP3 SWAP1 MSTORE SWAP3 DUP3 ADD DUP2 SWAP1 MSTORE PUSH1 0x60 DUP3 ADD DUP2 SWAP1 MSTORE PUSH1 0x80 DUP3 ADD MSTORE DUP3 MSTORE PUSH1 0x0 NOT SWAP1 SWAP3 ADD SWAP2 ADD DUP2 PUSH2 0xA98 JUMPI SWAP1 POP JUMPDEST POP SWAP1 POP PUSH1 0x0 JUMPDEST DUP5 DUP2 LT ISZERO PUSH2 0x9E7 JUMPI CALLER PUSH1 0xC PUSH1 0x0 PUSH2 0xAF1 DUP5 PUSH1 0x1 PUSH2 0x2AA2 JUMP JUMPDEST DUP2 MSTORE PUSH1 0x20 DUP2 ADD SWAP2 SWAP1 SWAP2 MSTORE PUSH1 0x40 ADD PUSH1 0x0 KECCAK256 PUSH1 0x2 ADD SLOAD PUSH1 0x1 PUSH1 0x1 PUSH1 0xA0 SHL SUB AND SUB PUSH2 0xBB1 JUMPI PUSH1 0x0 PUSH2 0xB20 DUP3 PUSH1 0x1 PUSH2 0x2AA2 JUMP JUMPDEST PUSH1 0x0 DUP2 DUP2 MSTORE PUSH1 0xC PUSH1 0x20 SWAP1 DUP2 MSTORE PUSH1 0x40 SWAP2 DUP3 SWAP1 KECCAK256 DUP3 MLOAD PUSH1 0xA0 DUP2 ADD DUP5 MSTORE DUP2 SLOAD DUP2 MSTORE PUSH1 0x1 DUP3 ADD SLOAD PUSH1 0x1 PUSH1 0x1 PUSH1 0xA0 SHL SUB SWAP1 DUP2 AND SWAP4 DUP3 ADD SWAP4 SWAP1 SWAP4 MSTORE PUSH1 0x2 DUP3 ADD SLOAD SWAP1 SWAP3 AND SWAP3 DUP3 ADD SWAP3 SWAP1 SWAP3 MSTORE PUSH1 0x3 DUP3 ADD SLOAD PUSH1 0x60 DUP3 ADD MSTORE PUSH1 0x4 DUP3 ADD SLOAD PUSH1 0xFF AND ISZERO ISZERO PUSH1 0x80 DUP3 ADD MSTORE DUP6 MLOAD SWAP3 SWAP4 POP SWAP1 SWAP2 DUP6 SWAP1 DUP8 SWAP1 DUP2 LT PUSH2 0xB96 JUMPI PUSH2 0xB96 PUSH2 0x29CB JUMP JUMPDEST PUSH1 0x20 SWAP1 DUP2 MUL SWAP2 SWAP1 SWAP2 ADD ADD MSTORE PUSH2 0xBAC PUSH1 0x1 DUP7 PUSH2 0x2AA2 JUMP JUMPDEST SWAP5 POP POP POP JUMPDEST DUP1 PUSH2 0xBBB DUP2 PUSH2 0x2AB5 JUMP JUMPDEST SWAP2 POP POP PUSH2 0xAD9 JUMP JUMPDEST PUSH1 0x0 DUP3 DUP2 MSTORE PUSH1 0x5 PUSH1 0x20 SWAP1 DUP2 MSTORE PUSH1 0x40 DUP1 DUP4 KECCAK256 DUP2 MLOAD DUP1 DUP4 ADD SWAP1 SWAP3 MSTORE SLOAD PUSH1 0x1 PUSH1 0x1 PUSH1 0xA0 SHL SUB DUP2 AND DUP1 DUP4 MSTORE PUSH1 0x1 PUSH1 0xA0 SHL SWAP1 SWAP2 DIV PUSH3 0xFFFFFF AND SWAP3 DUP3 ADD DUP4 SWAP1 MSTORE SWAP3 SWAP2 PUSH2 0x2710 SWAP1 PUSH2 0xC0D SWAP1 DUP7 PUSH2 0x2ACE JUMP JUMPDEST PUSH2 0xC17 SWAP2 SWAP1 PUSH2 0x2AE5 JUMP JUMPDEST SWAP2 POP POP SWAP3 POP SWAP3 SWAP1 POP JUMP JUMPDEST PUSH1 0x1 PUSH1 0x1 PUSH1 0xA0 SHL SUB DUP6 AND CALLER EQ DUP1 PUSH2 0xC3D JUMPI POP PUSH2 0xC3D DUP6 CALLER PUSH2 0x49E JUMP JUMPDEST PUSH2 0xC59 JUMPI PUSH1 0x40 MLOAD PUSH3 0x461BCD PUSH1 0xE5 SHL DUP2 MSTORE PUSH1 0x4 ADD PUSH2 0x586 SWAP1 PUSH2 0x2B07 JUMP JUMPDEST PUSH2 0xC66 DUP6 DUP6 DUP6 DUP6 DUP6 PUSH2 0x1A07 JUMP JUMPDEST POP POP POP POP POP JUMP JUMPDEST PUSH1 0x60 PUSH1 0x0 PUSH2 0xC7A PUSH1 0x7 SLOAD SWAP1 JUMP JUMPDEST SWAP1 POP PUSH1 0x0 DUP1 PUSH1 0x0 JUMPDEST DUP4 DUP2 LT ISZERO PUSH2 0xCDC JUMPI CALLER PUSH1 0xC PUSH1 0x0 PUSH2 0xC9A DUP5 PUSH1 0x1 PUSH2 0x2AA2 JUMP JUMPDEST DUP2 MSTORE PUSH1 0x20 DUP2 ADD SWAP2 SWAP1 SWAP2 MSTORE PUSH1 0x40 ADD PUSH1 0x0 KECCAK256 PUSH1 0x1 ADD SLOAD PUSH1 0x1 PUSH1 0x1 PUSH1 0xA0 SHL SUB AND SUB PUSH2 0xCCA JUMPI PUSH2 0xCC7 PUSH1 0x1 DUP5 PUSH2 0x2AA2 JUMP JUMPDEST SWAP3 POP JUMPDEST DUP1 PUSH2 0xCD4 DUP2 PUSH2 0x2AB5 JUMP JUMPDEST SWAP2 POP POP PUSH2 0xC82 JUMP JUMPDEST POP PUSH1 0x0 DUP3 PUSH1 0x1 PUSH1 0x1 PUSH1 0x40 SHL SUB DUP2 GT ISZERO PUSH2 0xCF7 JUMPI PUSH2 0xCF7 PUSH2 0x221E JUMP JUMPDEST PUSH1 0x40 MLOAD SWAP1 DUP1 DUP3 MSTORE DUP1 PUSH1 0x20 MUL PUSH1 0x20 ADD DUP3 ADD PUSH1 0x40 MSTORE DUP1 ISZERO PUSH2 0xD50 JUMPI DUP2 PUSH1 0x20 ADD JUMPDEST PUSH1 0x40 DUP1 MLOAD PUSH1 0xA0 DUP2 ADD DUP3 MSTORE PUSH1 0x0 DUP1 DUP3 MSTORE PUSH1 0x20 DUP1 DUP4 ADD DUP3 SWAP1 MSTORE SWAP3 DUP3 ADD DUP2 SWAP1 MSTORE PUSH1 0x60 DUP3 ADD DUP2 SWAP1 MSTORE PUSH1 0x80 DUP3 ADD MSTORE DUP3 MSTORE PUSH1 0x0 NOT SWAP1 SWAP3 ADD SWAP2 ADD DUP2 PUSH2 0xD15 JUMPI SWAP1 POP JUMPDEST POP SWAP1 POP PUSH1 0x0 JUMPDEST DUP5 DUP2 LT ISZERO PUSH2 0x9E7 JUMPI CALLER PUSH1 0xC PUSH1 0x0 PUSH2 0xD6E DUP5 PUSH1 0x1 PUSH2 0x2AA2 JUMP JUMPDEST DUP2 MSTORE PUSH1 0x20 DUP2 ADD SWAP2 SWAP1 SWAP2 MSTORE PUSH1 0x40 ADD PUSH1 0x0 KECCAK256 PUSH1 0x1 ADD SLOAD PUSH1 0x1 PUSH1 0x1 PUSH1 0xA0 SHL SUB AND SUB PUSH2 0xE2E JUMPI PUSH1 0x0 PUSH2 0xD9D DUP3 PUSH1 0x1 PUSH2 0x2AA2 JUMP JUMPDEST PUSH1 0x0 DUP2 DUP2 MSTORE PUSH1 0xC PUSH1 0x20 SWAP1 DUP2 MSTORE PUSH1 0x40 SWAP2 DUP3 SWAP1 KECCAK256 DUP3 MLOAD PUSH1 0xA0 DUP2 ADD DUP5 MSTORE DUP2 SLOAD DUP2 MSTORE PUSH1 0x1 DUP3 ADD SLOAD PUSH1 0x1 PUSH1 0x1 PUSH1 0xA0 SHL SUB SWAP1 DUP2 AND SWAP4 DUP3 ADD SWAP4 SWAP1 SWAP4 MSTORE PUSH1 0x2 DUP3 ADD SLOAD SWAP1 SWAP3 AND SWAP3 DUP3 ADD SWAP3 SWAP1 SWAP3 MSTORE PUSH1 0x3 DUP3 ADD SLOAD PUSH1 0x60 DUP3 ADD MSTORE PUSH1 0x4 DUP3 ADD SLOAD PUSH1 0xFF AND ISZERO ISZERO PUSH1 0x80 DUP3 ADD MSTORE DUP6 MLOAD SWAP3 SWAP4 POP SWAP1 SWAP2 DUP6 SWAP1 DUP8 SWAP1 DUP2 LT PUSH2 0xE13 JUMPI PUSH2 0xE13 PUSH2 0x29CB JUMP JUMPDEST PUSH1 0x20 SWAP1 DUP2 MUL SWAP2 SWAP1 SWAP2 ADD ADD MSTORE PUSH2 0xE29 PUSH1 0x1 DUP7 PUSH2 0x2AA2 JUMP JUMPDEST SWAP5 POP POP POP JUMPDEST DUP1 PUSH2 0xE38 DUP2 PUSH2 0x2AB5 JUMP JUMPDEST SWAP2 POP POP PUSH2 0xD56 JUMP JUMPDEST PUSH1 0x60 DUP2 MLOAD DUP4 MLOAD EQ PUSH2 0xEA5 JUMPI PUSH1 0x40 MLOAD PUSH3 0x461BCD PUSH1 0xE5 SHL DUP2 MSTORE PUSH1 0x20 PUSH1 0x4 DUP3 ADD MSTORE PUSH1 0x29 PUSH1 0x24 DUP3 ADD MSTORE PUSH32 0x455243313135353A206163636F756E747320616E6420696473206C656E677468 PUSH1 0x44 DUP3 ADD MSTORE PUSH9 0x40DAD2E6DAC2E8C6D PUSH1 0xBB SHL PUSH1 0x64 DUP3 ADD MSTORE PUSH1 0x84 ADD PUSH2 0x586 JUMP JUMPDEST PUSH1 0x0 DUP4 MLOAD PUSH1 0x1 PUSH1 0x1 PUSH1 0x40 SHL SUB DUP2 GT ISZERO PUSH2 0xEC0 JUMPI PUSH2 0xEC0 PUSH2 0x221E JUMP JUMPDEST PUSH1 0x40 MLOAD SWAP1 DUP1 DUP3 MSTORE DUP1 PUSH1 0x20 MUL PUSH1 0x20 ADD DUP3 ADD PUSH1 0x40 MSTORE DUP1 ISZERO PUSH2 0xEE9 JUMPI DUP2 PUSH1 0x20 ADD PUSH1 0x20 DUP3 MUL DUP1 CALLDATASIZE DUP4 CALLDATACOPY ADD SWAP1 POP JUMPDEST POP SWAP1 POP PUSH1 0x0 JUMPDEST DUP5 MLOAD DUP2 LT ISZERO PUSH2 0xF61 JUMPI PUSH2 0xF34 DUP6 DUP3 DUP2 MLOAD DUP2 LT PUSH2 0xF0D JUMPI PUSH2 0xF0D PUSH2 0x29CB JUMP JUMPDEST PUSH1 0x20 MUL PUSH1 0x20 ADD ADD MLOAD DUP6 DUP4 DUP2 MLOAD DUP2 LT PUSH2 0xF27 JUMPI PUSH2 0xF27 PUSH2 0x29CB JUMP JUMPDEST PUSH1 0x20 MUL PUSH1 0x20 ADD ADD MLOAD PUSH2 0x51F JUMP JUMPDEST DUP3 DUP3 DUP2 MLOAD DUP2 LT PUSH2 0xF46 JUMPI PUSH2 0xF46 PUSH2 0x29CB JUMP JUMPDEST PUSH1 0x20 SWAP1 DUP2 MUL SWAP2 SWAP1 SWAP2 ADD ADD MSTORE PUSH2 0xF5A DUP2 PUSH2 0x2AB5 JUMP JUMPDEST SWAP1 POP PUSH2 0xEEF JUMP JUMPDEST POP SWAP4 SWAP3 POP POP POP JUMP JUMPDEST PUSH2 0xF8D PUSH1 0x40 MLOAD DUP1 PUSH1 0x60 ADD PUSH1 0x40 MSTORE DUP1 PUSH1 0x0 DUP2 MSTORE PUSH1 0x20 ADD PUSH1 0x60 DUP2 MSTORE PUSH1 0x20 ADD PUSH1 0x0 DUP2 MSTORE POP SWAP1 JUMP JUMPDEST PUSH1 0x12 DUP3 DUP2 SLOAD DUP2 LT PUSH2 0xFA0 JUMPI PUSH2 0xFA0 PUSH2 0x29CB JUMP JUMPDEST SWAP1 PUSH1 0x0 MSTORE PUSH1 0x20 PUSH1 0x0 KECCAK256 SWAP1 PUSH1 0x3 MUL ADD PUSH1 0x40 MLOAD DUP1 PUSH1 0x60 ADD PUSH1 0x40 MSTORE SWAP1 DUP2 PUSH1 0x0 DUP3 ADD SLOAD DUP2 MSTORE PUSH1 0x20 ADD PUSH1 0x1 DUP3 ADD DUP1 SLOAD PUSH2 0xFD3 SWAP1 PUSH2 0x288C JUMP JUMPDEST DUP1 PUSH1 0x1F ADD PUSH1 0x20 DUP1 SWAP2 DIV MUL PUSH1 0x20 ADD PUSH1 0x40 MLOAD SWAP1 DUP2 ADD PUSH1 0x40 MSTORE DUP1 SWAP3 SWAP2 SWAP1 DUP2 DUP2 MSTORE PUSH1 0x20 ADD DUP3 DUP1 SLOAD PUSH2 0xFFF SWAP1 PUSH2 0x288C JUMP JUMPDEST DUP1 ISZERO PUSH2 0x104C JUMPI DUP1 PUSH1 0x1F LT PUSH2 0x1021 JUMPI PUSH2 0x100 DUP1 DUP4 SLOAD DIV MUL DUP4 MSTORE SWAP2 PUSH1 0x20 ADD SWAP2 PUSH2 0x104C JUMP JUMPDEST DUP3 ADD SWAP2 SWAP1 PUSH1 0x0 MSTORE PUSH1 0x20 PUSH1 0x0 KECCAK256 SWAP1 JUMPDEST DUP2 SLOAD DUP2 MSTORE SWAP1 PUSH1 0x1 ADD SWAP1 PUSH1 0x20 ADD DUP1 DUP4 GT PUSH2 0x102F JUMPI DUP3 SWAP1 SUB PUSH1 0x1F AND DUP3 ADD SWAP2 JUMPDEST POP POP POP POP POP DUP2 MSTORE PUSH1 0x20 ADD PUSH1 0x2 DUP3 ADD SLOAD DUP2 MSTORE POP POP SWAP1 POP SWAP2 SWAP1 POP JUMP JUMPDEST PUSH2 0x106E PUSH2 0x17F0 JUMP JUMPDEST PUSH2 0x1078 PUSH1 0x0 PUSH2 0x1BE4 JUMP JUMPDEST JUMP JUMPDEST PUSH2 0x1082 PUSH2 0x17F0 JUMP JUMPDEST PUSH2 0x108C DUP3 DUP3 PUSH2 0x1C36 JUMP JUMPDEST DUP1 PUSH1 0x12 DUP4 DUP2 SLOAD DUP2 LT PUSH2 0x10A0 JUMPI PUSH2 0x10A0 PUSH2 0x29CB JUMP JUMPDEST SWAP1 PUSH1 0x0 MSTORE PUSH1 0x20 PUSH1 0x0 KECCAK256 SWAP1 PUSH1 0x3 MUL ADD PUSH1 0x1 ADD SWAP1 DUP2 PUSH2 0x10BD SWAP2 SWAP1 PUSH2 0x290C JUMP JUMPDEST POP POP POP JUMP JUMPDEST PUSH1 0x60 PUSH1 0x12 DUP1 SLOAD DUP1 PUSH1 0x20 MUL PUSH1 0x20 ADD PUSH1 0x40 MLOAD SWAP1 DUP2 ADD PUSH1 0x40 MSTORE DUP1 SWAP3 SWAP2 SWAP1 DUP2 DUP2 MSTORE PUSH1 0x20 ADD PUSH1 0x0 SWAP1 JUMPDEST DUP3 DUP3 LT ISZERO PUSH2 0x11BE JUMPI DUP4 DUP3 SWAP1 PUSH1 0x0 MSTORE PUSH1 0x20 PUSH1 0x0 KECCAK256 SWAP1 PUSH1 0x3 MUL ADD PUSH1 0x40 MLOAD DUP1 PUSH1 0x60 ADD PUSH1 0x40 MSTORE SWAP1 DUP2 PUSH1 0x0 DUP3 ADD SLOAD DUP2 MSTORE PUSH1 0x20 ADD PUSH1 0x1 DUP3 ADD DUP1 SLOAD PUSH2 0x1123 SWAP1 PUSH2 0x288C JUMP JUMPDEST DUP1 PUSH1 0x1F ADD PUSH1 0x20 DUP1 SWAP2 DIV MUL PUSH1 0x20 ADD PUSH1 0x40 MLOAD SWAP1 DUP2 ADD PUSH1 0x40 MSTORE DUP1 SWAP3 SWAP2 SWAP1 DUP2 DUP2 MSTORE PUSH1 0x20 ADD DUP3 DUP1 SLOAD PUSH2 0x114F SWAP1 PUSH2 0x288C JUMP JUMPDEST DUP1 ISZERO PUSH2 0x119C JUMPI DUP1 PUSH1 0x1F LT PUSH2 0x1171 JUMPI PUSH2 0x100 DUP1 DUP4 SLOAD DIV MUL DUP4 MSTORE SWAP2 PUSH1 0x20 ADD SWAP2 PUSH2 0x119C JUMP JUMPDEST DUP3 ADD SWAP2 SWAP1 PUSH1 0x0 MSTORE PUSH1 0x20 PUSH1 0x0 KECCAK256 SWAP1 JUMPDEST DUP2 SLOAD DUP2 MSTORE SWAP1 PUSH1 0x1 ADD SWAP1 PUSH1 0x20 ADD DUP1 DUP4 GT PUSH2 0x117F JUMPI DUP3 SWAP1 SUB PUSH1 0x1F AND DUP3 ADD SWAP2 JUMPDEST POP POP POP POP POP DUP2 MSTORE PUSH1 0x20 ADD PUSH1 0x2 DUP3 ADD SLOAD DUP2 MSTORE POP POP DUP2 MSTORE PUSH1 0x20 ADD SWAP1 PUSH1 0x1 ADD SWAP1 PUSH2 0x10E6 JUMP JUMPDEST POP POP POP POP SWAP1 POP SWAP1 JUMP JUMPDEST PUSH1 0xE DUP1 SLOAD PUSH2 0x6F9 SWAP1 PUSH2 0x288C JUMP JUMPDEST PUSH1 0x0 DUP3 DUP2 MSTORE PUSH1 0xC PUSH1 0x20 MSTORE PUSH1 0x40 SWAP1 KECCAK256 PUSH1 0x3 DUP2 ADD SLOAD PUSH1 0x1 SWAP1 SWAP2 ADD SLOAD PUSH1 0x1 PUSH1 0x1 PUSH1 0xA0 SHL SUB AND CALLVALUE DUP3 EQ PUSH2 0x1215 JUMPI PUSH1 0x40 MLOAD PUSH3 0x461BCD PUSH1 0xE5 SHL DUP2 MSTORE PUSH1 0x4 ADD PUSH2 0x586 SWAP1 PUSH2 0x2B55 JUMP JUMPDEST PUSH1 0x0 DUP5 DUP2 MSTORE PUSH1 0xC PUSH1 0x20 MSTORE PUSH1 0x40 SWAP1 KECCAK256 PUSH1 0x2 DUP2 ADD DUP1 SLOAD PUSH1 0x1 PUSH1 0x1 PUSH1 0xA0 SHL SUB NOT SWAP1 DUP2 AND CALLER OR SWAP1 SWAP2 SSTORE PUSH1 0x4 DUP3 ADD DUP1 SLOAD PUSH1 0xFF NOT AND PUSH1 0x1 SWAP1 DUP2 OR SWAP1 SWAP2 SSTORE SWAP1 SWAP2 ADD DUP1 SLOAD SWAP1 SWAP2 AND SWAP1 SSTORE PUSH2 0x1264 PUSH1 0x8 DUP1 SLOAD PUSH1 0x1 ADD SWAP1 SSTORE JUMP JUMPDEST PUSH2 0x1280 ADDRESS CALLER DUP7 DUP7 PUSH1 0x40 MLOAD DUP1 PUSH1 0x20 ADD PUSH1 0x40 MSTORE DUP1 PUSH1 0x0 DUP2 MSTORE POP PUSH2 0x1660 JUMP JUMPDEST PUSH1 0xA SLOAD PUSH1 0x9 SLOAD PUSH1 0x40 MLOAD PUSH1 0x1 PUSH1 0x1 PUSH1 0xA0 SHL SUB SWAP1 SWAP3 AND SWAP2 DUP2 ISZERO PUSH2 0x8FC MUL SWAP2 SWAP1 PUSH1 0x0 DUP2 DUP2 DUP2 DUP6 DUP9 DUP9 CALL SWAP4 POP POP POP POP ISZERO DUP1 ISZERO PUSH2 0x12BC JUMPI RETURNDATASIZE PUSH1 0x0 DUP1 RETURNDATACOPY RETURNDATASIZE PUSH1 0x0 REVERT JUMPDEST POP PUSH1 0x40 MLOAD PUSH1 0x1 PUSH1 0x1 PUSH1 0xA0 SHL SUB DUP3 AND SWAP1 CALLVALUE DUP1 ISZERO PUSH2 0x8FC MUL SWAP2 PUSH1 0x0 DUP2 DUP2 DUP2 DUP6 DUP9 DUP9 CALL SWAP4 POP POP POP POP ISZERO DUP1 ISZERO PUSH2 0xC66 JUMPI RETURNDATASIZE PUSH1 0x0 DUP1 RETURNDATACOPY RETURNDATASIZE PUSH1 0x0 REVERT JUMPDEST PUSH2 0x12FD CALLER DUP4 DUP4 PUSH2 0x1C93 JUMP JUMPDEST POP POP JUMP JUMPDEST PUSH1 0xA SLOAD PUSH1 0x1 PUSH1 0x1 PUSH1 0xA0 SHL SUB AND CALLER EQ PUSH2 0x1374 JUMPI PUSH1 0x40 MLOAD PUSH3 0x461BCD PUSH1 0xE5 SHL DUP2 MSTORE PUSH1 0x20 PUSH1 0x4 DUP3 ADD MSTORE PUSH1 0x30 PUSH1 0x24 DUP3 ADD MSTORE PUSH32 0x4F6E6C79206D61726B6574706C616365206F776E65722063616E207570646174 PUSH1 0x44 DUP3 ADD MSTORE PUSH16 0x32903634B9BA34B73390383934B1B297 PUSH1 0x81 SHL PUSH1 0x64 DUP3 ADD MSTORE PUSH1 0x84 ADD PUSH2 0x586 JUMP JUMPDEST PUSH1 0x9 SSTORE JUMP JUMPDEST PUSH1 0x1 CALLER CALLVALUE DUP3 EQ PUSH2 0x139B JUMPI PUSH1 0x40 MLOAD PUSH3 0x461BCD PUSH1 0xE5 SHL DUP2 MSTORE PUSH1 0x4 ADD PUSH2 0x586 SWAP1 PUSH2 0x2B55 JUMP JUMPDEST PUSH2 0x13B8 ADDRESS CALLER DUP6 PUSH1 0x1 PUSH1 0x40 MLOAD DUP1 PUSH1 0x20 ADD PUSH1 0x40 MSTORE DUP1 PUSH1 0x0 DUP2 MSTORE POP PUSH2 0x1660 JUMP JUMPDEST PUSH1 0xA SLOAD PUSH1 0x9 SLOAD PUSH1 0x40 MLOAD PUSH1 0x1 PUSH1 0x1 PUSH1 0xA0 SHL SUB SWAP1 SWAP3 AND SWAP2 DUP2 ISZERO PUSH2 0x8FC MUL SWAP2 SWAP1 PUSH1 0x0 DUP2 DUP2 DUP2 DUP6 DUP9 DUP9 CALL SWAP4 POP POP POP POP ISZERO DUP1 ISZERO PUSH2 0x13F4 JUMPI RETURNDATASIZE PUSH1 0x0 DUP1 RETURNDATACOPY RETURNDATASIZE PUSH1 0x0 REVERT JUMPDEST POP PUSH1 0x40 MLOAD PUSH1 0x1 PUSH1 0x1 PUSH1 0xA0 SHL SUB DUP3 AND SWAP1 CALLVALUE DUP1 ISZERO PUSH2 0x8FC MUL SWAP2 PUSH1 0x0 DUP2 DUP2 DUP2 DUP6 DUP9 DUP9 CALL SWAP4 POP POP POP POP ISZERO DUP1 ISZERO PUSH2 0x142A JUMPI RETURNDATASIZE PUSH1 0x0 DUP1 RETURNDATACOPY RETURNDATASIZE PUSH1 0x0 REVERT JUMPDEST POP POP POP POP JUMP JUMPDEST PUSH2 0x1462 CALLER PUSH1 0xC8 PUSH1 0xF PUSH1 0x10 PUSH1 0x11 PUSH1 0x40 MLOAD PUSH1 0x20 ADD PUSH2 0x144E SWAP4 SWAP3 SWAP2 SWAP1 PUSH2 0x2BB3 JUMP JUMPDEST PUSH1 0x40 MLOAD PUSH1 0x20 DUP2 DUP4 SUB SUB DUP2 MSTORE SWAP1 PUSH1 0x40 MSTORE PUSH2 0x5C3 JUMP JUMPDEST POP PUSH2 0x1481 CALLER PUSH1 0x8C PUSH1 0xF PUSH1 0x10 PUSH1 0x11 PUSH1 0x40 MLOAD PUSH1 0x20 ADD PUSH2 0x144E SWAP4 SWAP3 SWAP2 SWAP1 PUSH2 0x2BE6 JUMP JUMPDEST POP PUSH2 0x14A0 CALLER PUSH1 0x96 PUSH1 0xF PUSH1 0x10 PUSH1 0x11 PUSH1 0x40 MLOAD PUSH1 0x20 ADD PUSH2 0x144E SWAP4 SWAP3 SWAP2 SWAP1 PUSH2 0x2C09 JUMP JUMPDEST POP PUSH2 0x14BF CALLER PUSH1 0xB4 PUSH1 0xF PUSH1 0x10 PUSH1 0x11 PUSH1 0x40 MLOAD PUSH1 0x20 ADD PUSH2 0x144E SWAP4 SWAP3 SWAP2 SWAP1 PUSH2 0x2C2C JUMP JUMPDEST POP PUSH2 0x14DE CALLER PUSH1 0xA0 PUSH1 0xF PUSH1 0x10 PUSH1 0x11 PUSH1 0x40 MLOAD PUSH1 0x20 ADD PUSH2 0x144E SWAP4 SWAP3 SWAP2 SWAP1 PUSH2 0x2C4F JUMP JUMPDEST POP PUSH2 0x14FD CALLER PUSH1 0xFA PUSH1 0xF PUSH1 0x10 PUSH1 0x11 PUSH1 0x40 MLOAD PUSH1 0x20 ADD PUSH2 0x144E SWAP4 SWAP3 SWAP2 SWAP1 PUSH2 0x2C72 JUMP JUMPDEST POP PUSH2 0x151C CALLER PUSH1 0xDC PUSH1 0xF PUSH1 0x10 PUSH1 0x11 PUSH1 0x40 MLOAD PUSH1 0x20 ADD PUSH2 0x144E SWAP4 SWAP3 SWAP2 SWAP1 PUSH2 0x2C95 JUMP JUMPDEST POP JUMP JUMPDEST PUSH1 0x0 DUP4 DUP2 MSTORE PUSH1 0xC PUSH1 0x20 MSTORE PUSH1 0x40 SWAP1 KECCAK256 PUSH1 0x2 ADD SLOAD PUSH1 0x1 PUSH1 0x1 PUSH1 0xA0 SHL SUB AND CALLER EQ PUSH2 0x159B JUMPI PUSH1 0x40 MLOAD PUSH3 0x461BCD PUSH1 0xE5 SHL DUP2 MSTORE PUSH1 0x20 PUSH1 0x4 DUP3 ADD MSTORE PUSH1 0x2A PUSH1 0x24 DUP3 ADD MSTORE PUSH32 0x4F6E6C79206974656D206F776E65722063616E20706572666F726D2074686973 PUSH1 0x44 DUP3 ADD MSTORE PUSH10 0x1037B832B930BA34B7B7 PUSH1 0xB1 SHL PUSH1 0x64 DUP3 ADD MSTORE PUSH1 0x84 ADD PUSH2 0x586 JUMP JUMPDEST PUSH1 0x9 SLOAD CALLVALUE EQ PUSH2 0x15F8 JUMPI PUSH1 0x40 MLOAD PUSH3 0x461BCD PUSH1 0xE5 SHL DUP2 MSTORE PUSH1 0x20 PUSH1 0x4 DUP3 ADD MSTORE PUSH1 0x24 DUP1 DUP3 ADD MSTORE PUSH32 0x5072696365206D75737420626520657175616C20746F206C697374696E672070 PUSH1 0x44 DUP3 ADD MSTORE PUSH4 0x72696365 PUSH1 0xE0 SHL PUSH1 0x64 DUP3 ADD MSTORE PUSH1 0x84 ADD PUSH2 0x586 JUMP JUMPDEST PUSH1 0x0 DUP4 DUP2 MSTORE PUSH1 0xC PUSH1 0x20 MSTORE PUSH1 0x40 SWAP1 KECCAK256 PUSH1 0x4 DUP2 ADD DUP1 SLOAD PUSH1 0xFF NOT AND SWAP1 SSTORE PUSH1 0x3 DUP2 ADD DUP4 SWAP1 SSTORE PUSH1 0x1 DUP2 ADD DUP1 SLOAD PUSH1 0x1 PUSH1 0x1 PUSH1 0xA0 SHL SUB NOT SWAP1 DUP2 AND CALLER OR SWAP1 SWAP2 SSTORE PUSH1 0x2 SWAP1 SWAP2 ADD DUP1 SLOAD SWAP1 SWAP2 AND ADDRESS OR SWAP1 SSTORE PUSH2 0x1648 PUSH1 0x8 PUSH2 0x1D73 JUMP JUMPDEST PUSH2 0x10BD CALLER ADDRESS DUP6 DUP5 PUSH1 0x40 MLOAD DUP1 PUSH1 0x20 ADD PUSH1 0x40 MSTORE DUP1 PUSH1 0x0 DUP2 MSTORE POP JUMPDEST PUSH1 0x1 PUSH1 0x1 PUSH1 0xA0 SHL SUB DUP6 AND CALLER EQ DUP1 PUSH2 0x167C JUMPI POP PUSH2 0x167C DUP6 CALLER PUSH2 0x49E JUMP JUMPDEST PUSH2 0x1698 JUMPI PUSH1 0x40 MLOAD PUSH3 0x461BCD PUSH1 0xE5 SHL DUP2 MSTORE PUSH1 0x4 ADD PUSH2 0x586 SWAP1 PUSH2 0x2B07 JUMP JUMPDEST PUSH2 0xC66 DUP6 DUP6 DUP6 DUP6 DUP6 PUSH2 0x1DCA JUMP JUMPDEST PUSH2 0x16AD PUSH2 0x17F0 JUMP JUMPDEST PUSH1 0x1 PUSH1 0x1 PUSH1 0xA0 SHL SUB DUP2 AND PUSH2 0x1712 JUMPI PUSH1 0x40 MLOAD PUSH3 0x461BCD PUSH1 0xE5 SHL DUP2 MSTORE PUSH1 0x20 PUSH1 0x4 DUP3 ADD MSTORE PUSH1 0x26 PUSH1 0x24 DUP3 ADD MSTORE PUSH32 0x4F776E61626C653A206E6577206F776E657220697320746865207A65726F2061 PUSH1 0x44 DUP3 ADD MSTORE PUSH6 0x646472657373 PUSH1 0xD0 SHL PUSH1 0x64 DUP3 ADD MSTORE PUSH1 0x84 ADD PUSH2 0x586 JUMP JUMPDEST PUSH2 0x151C DUP2 PUSH2 0x1BE4 JUMP JUMPDEST SLOAD SWAP1 JUMP JUMPDEST DUP1 SLOAD PUSH1 0x1 ADD SWAP1 SSTORE JUMP JUMPDEST PUSH1 0x1 PUSH1 0x1 PUSH1 0xA0 SHL SUB AND EXTCODESIZE ISZERO ISZERO SWAP1 JUMP JUMPDEST PUSH1 0x60 PUSH1 0x2 DUP1 SLOAD PUSH2 0x1746 SWAP1 PUSH2 0x288C JUMP JUMPDEST DUP1 PUSH1 0x1F ADD PUSH1 0x20 DUP1 SWAP2 DIV MUL PUSH1 0x20 ADD PUSH1 0x40 MLOAD SWAP1 DUP2 ADD PUSH1 0x40 MSTORE DUP1 SWAP3 SWAP2 SWAP1 DUP2 DUP2 MSTORE PUSH1 0x20 ADD DUP3 DUP1 SLOAD PUSH2 0x1772 SWAP1 PUSH2 0x288C JUMP JUMPDEST DUP1 ISZERO PUSH2 0x17BF JUMPI DUP1 PUSH1 0x1F LT PUSH2 0x1794 JUMPI PUSH2 0x100 DUP1 DUP4 SLOAD DIV MUL DUP4 MSTORE SWAP2 PUSH1 0x20 ADD SWAP2 PUSH2 0x17BF JUMP JUMPDEST DUP3 ADD SWAP2 SWAP1 PUSH1 0x0 MSTORE PUSH1 0x20 PUSH1 0x0 KECCAK256 SWAP1 JUMPDEST DUP2 SLOAD DUP2 MSTORE SWAP1 PUSH1 0x1 ADD SWAP1 PUSH1 0x20 ADD DUP1 DUP4 GT PUSH2 0x17A2 JUMPI DUP3 SWAP1 SUB PUSH1 0x1F AND DUP3 ADD SWAP2 JUMPDEST POP POP POP POP POP SWAP1 POP SWAP2 SWAP1 POP JUMP JUMPDEST PUSH1 0x0 PUSH1 0x1 PUSH1 0x1 PUSH1 0xE0 SHL SUB NOT DUP3 AND PUSH4 0x152A902D PUSH1 0xE1 SHL EQ DUP1 PUSH2 0x5B2 JUMPI POP PUSH2 0x5B2 DUP3 PUSH2 0x1EF4 JUMP JUMPDEST PUSH1 0x6 SLOAD PUSH1 0x1 PUSH1 0x1 PUSH1 0xA0 SHL SUB AND CALLER EQ PUSH2 0x1078 JUMPI PUSH1 0x40 MLOAD PUSH3 0x461BCD PUSH1 0xE5 SHL DUP2 MSTORE PUSH1 0x20 PUSH1 0x4 DUP3 ADD DUP2 SWAP1 MSTORE PUSH1 0x24 DUP3 ADD MSTORE PUSH32 0x4F776E61626C653A2063616C6C6572206973206E6F7420746865206F776E6572 PUSH1 0x44 DUP3 ADD MSTORE PUSH1 0x64 ADD PUSH2 0x586 JUMP JUMPDEST PUSH1 0x1 PUSH1 0x1 PUSH1 0xA0 SHL SUB DUP5 AND PUSH2 0x18AA JUMPI PUSH1 0x40 MLOAD PUSH3 0x461BCD PUSH1 0xE5 SHL DUP2 MSTORE PUSH1 0x20 PUSH1 0x4 DUP3 ADD MSTORE PUSH1 0x21 PUSH1 0x24 DUP3 ADD MSTORE PUSH32 0x455243313135353A206D696E7420746F20746865207A65726F20616464726573 PUSH1 0x44 DUP3 ADD MSTORE PUSH1 0x73 PUSH1 0xF8 SHL PUSH1 0x64 DUP3 ADD MSTORE PUSH1 0x84 ADD PUSH2 0x586 JUMP JUMPDEST CALLER PUSH1 0x0 PUSH2 0x18B6 DUP6 PUSH2 0x1F44 JUMP JUMPDEST SWAP1 POP PUSH1 0x0 PUSH2 0x18C3 DUP6 PUSH2 0x1F44 JUMP JUMPDEST SWAP1 POP PUSH1 0x0 DUP7 DUP2 MSTORE PUSH1 0x20 DUP2 DUP2 MSTORE PUSH1 0x40 DUP1 DUP4 KECCAK256 PUSH1 0x1 PUSH1 0x1 PUSH1 0xA0 SHL SUB DUP12 AND DUP5 MSTORE SWAP1 SWAP2 MSTORE DUP2 KECCAK256 DUP1 SLOAD DUP8 SWAP3 SWAP1 PUSH2 0x18F5 SWAP1 DUP5 SWAP1 PUSH2 0x2AA2 JUMP JUMPDEST SWAP1 SWAP2 SSTORE POP POP PUSH1 0x40 DUP1 MLOAD DUP8 DUP2 MSTORE PUSH1 0x20 DUP2 ADD DUP8 SWAP1 MSTORE PUSH1 0x1 PUSH1 0x1 PUSH1 0xA0 SHL SUB DUP1 DUP11 AND SWAP3 PUSH1 0x0 SWAP3 SWAP2 DUP8 AND SWAP2 PUSH32 0xC3D58168C5AE7397731D063D5BBF3D657854427343F4C083240F7AACAA2D0F62 SWAP2 ADD PUSH1 0x40 MLOAD DUP1 SWAP2 SUB SWAP1 LOG4 PUSH2 0x1955 DUP4 PUSH1 0x0 DUP10 DUP10 DUP10 DUP10 PUSH2 0x1F8F JUMP JUMPDEST POP POP POP POP POP POP POP JUMP JUMPDEST PUSH2 0x2710 DUP2 GT ISZERO PUSH2 0x19B0 JUMPI PUSH1 0x40 MLOAD PUSH3 0x461BCD PUSH1 0xE5 SHL DUP2 MSTORE PUSH1 0x20 PUSH1 0x4 DUP3 ADD MSTORE PUSH1 0x1A PUSH1 0x24 DUP3 ADD MSTORE PUSH32 0x45524332393831526F79616C746965733A20546F6F2068696768000000000000 PUSH1 0x44 DUP3 ADD MSTORE PUSH1 0x64 ADD PUSH2 0x586 JUMP JUMPDEST PUSH1 0x40 DUP1 MLOAD DUP1 DUP3 ADD DUP3 MSTORE PUSH1 0x1 PUSH1 0x1 PUSH1 0xA0 SHL SUB SWAP4 DUP5 AND DUP2 MSTORE PUSH3 0xFFFFFF SWAP3 DUP4 AND PUSH1 0x20 DUP1 DUP4 ADD SWAP2 DUP3 MSTORE PUSH1 0x0 SWAP7 DUP8 MSTORE PUSH1 0x5 SWAP1 MSTORE SWAP2 SWAP1 SWAP5 KECCAK256 SWAP4 MLOAD DUP5 SLOAD SWAP2 MLOAD SWAP1 SWAP3 AND PUSH1 0x1 PUSH1 0xA0 SHL MUL PUSH1 0x1 PUSH1 0x1 PUSH1 0xB8 SHL SUB NOT SWAP1 SWAP2 AND SWAP2 SWAP1 SWAP3 AND OR OR SWAP1 SSTORE JUMP JUMPDEST DUP2 MLOAD DUP4 MLOAD EQ PUSH2 0x1A69 JUMPI PUSH1 0x40 MLOAD PUSH3 0x461BCD PUSH1 0xE5 SHL DUP2 MSTORE PUSH1 0x20 PUSH1 0x4 DUP3 ADD MSTORE PUSH1 0x28 PUSH1 0x24 DUP3 ADD MSTORE PUSH32 0x455243313135353A2069647320616E6420616D6F756E7473206C656E67746820 PUSH1 0x44 DUP3 ADD MSTORE PUSH8 0xDAD2E6DAC2E8C6D PUSH1 0xC3 SHL PUSH1 0x64 DUP3 ADD MSTORE PUSH1 0x84 ADD PUSH2 0x586 JUMP JUMPDEST PUSH1 0x1 PUSH1 0x1 PUSH1 0xA0 SHL SUB DUP5 AND PUSH2 0x1A8F JUMPI PUSH1 0x40 MLOAD PUSH3 0x461BCD PUSH1 0xE5 SHL DUP2 MSTORE PUSH1 0x4 ADD PUSH2 0x586 SWAP1 PUSH2 0x2CB8 JUMP JUMPDEST CALLER PUSH1 0x0 JUMPDEST DUP5 MLOAD DUP2 LT ISZERO PUSH2 0x1B76 JUMPI PUSH1 0x0 DUP6 DUP3 DUP2 MLOAD DUP2 LT PUSH2 0x1AB0 JUMPI PUSH2 0x1AB0 PUSH2 0x29CB JUMP JUMPDEST PUSH1 0x20 MUL PUSH1 0x20 ADD ADD MLOAD SWAP1 POP PUSH1 0x0 DUP6 DUP4 DUP2 MLOAD DUP2 LT PUSH2 0x1ACE JUMPI PUSH2 0x1ACE PUSH2 0x29CB JUMP JUMPDEST PUSH1 0x20 SWAP1 DUP2 MUL SWAP2 SWAP1 SWAP2 ADD DUP2 ADD MLOAD PUSH1 0x0 DUP5 DUP2 MSTORE DUP1 DUP4 MSTORE PUSH1 0x40 DUP1 DUP3 KECCAK256 PUSH1 0x1 PUSH1 0x1 PUSH1 0xA0 SHL SUB DUP15 AND DUP4 MSTORE SWAP1 SWAP4 MSTORE SWAP2 SWAP1 SWAP2 KECCAK256 SLOAD SWAP1 SWAP2 POP DUP2 DUP2 LT ISZERO PUSH2 0x1B1E JUMPI PUSH1 0x40 MLOAD PUSH3 0x461BCD PUSH1 0xE5 SHL DUP2 MSTORE PUSH1 0x4 ADD PUSH2 0x586 SWAP1 PUSH2 0x2CFD JUMP JUMPDEST PUSH1 0x0 DUP4 DUP2 MSTORE PUSH1 0x20 DUP2 DUP2 MSTORE PUSH1 0x40 DUP1 DUP4 KECCAK256 PUSH1 0x1 PUSH1 0x1 PUSH1 0xA0 SHL SUB DUP15 DUP2 AND DUP6 MSTORE SWAP3 MSTORE DUP1 DUP4 KECCAK256 DUP6 DUP6 SUB SWAP1 SSTORE SWAP1 DUP12 AND DUP3 MSTORE DUP2 KECCAK256 DUP1 SLOAD DUP5 SWAP3 SWAP1 PUSH2 0x1B5B SWAP1 DUP5 SWAP1 PUSH2 0x2AA2 JUMP JUMPDEST SWAP3 POP POP DUP2 SWAP1 SSTORE POP POP POP POP DUP1 PUSH2 0x1B6F SWAP1 PUSH2 0x2AB5 JUMP JUMPDEST SWAP1 POP PUSH2 0x1A93 JUMP JUMPDEST POP DUP5 PUSH1 0x1 PUSH1 0x1 PUSH1 0xA0 SHL SUB AND DUP7 PUSH1 0x1 PUSH1 0x1 PUSH1 0xA0 SHL SUB AND DUP3 PUSH1 0x1 PUSH1 0x1 PUSH1 0xA0 SHL SUB AND PUSH32 0x4A39DC06D4C0DBC64B70AF90FD698A233A518AA5D07E595D983B8C0526C8F7FB DUP8 DUP8 PUSH1 0x40 MLOAD PUSH2 0x1BC6 SWAP3 SWAP2 SWAP1 PUSH2 0x2D47 JUMP JUMPDEST PUSH1 0x40 MLOAD DUP1 SWAP2 SUB SWAP1 LOG4 PUSH2 0x1BDC DUP2 DUP8 DUP8 DUP8 DUP8 DUP8 PUSH2 0x20EA JUMP JUMPDEST POP POP POP POP POP POP JUMP JUMPDEST PUSH1 0x6 DUP1 SLOAD PUSH1 0x1 PUSH1 0x1 PUSH1 0xA0 SHL SUB DUP4 DUP2 AND PUSH1 0x1 PUSH1 0x1 PUSH1 0xA0 SHL SUB NOT DUP4 AND DUP2 OR SWAP1 SWAP4 SSTORE PUSH1 0x40 MLOAD SWAP2 AND SWAP2 SWAP1 DUP3 SWAP1 PUSH32 0x8BE0079C531659141344CD1FD0A4F28419497F9722A3DAAFE3B4186F6B6457E0 SWAP1 PUSH1 0x0 SWAP1 LOG3 POP POP JUMP JUMPDEST PUSH1 0x0 DUP3 DUP2 MSTORE PUSH1 0x4 PUSH1 0x20 MSTORE PUSH1 0x40 SWAP1 KECCAK256 PUSH2 0x1C4E DUP3 DUP3 PUSH2 0x290C JUMP JUMPDEST POP DUP2 PUSH32 0x6BB7FF708619BA0610CBA295A58592E0451DEE2622938C8755667688DAF3529B PUSH2 0x1C7A DUP5 PUSH2 0x77A JUMP JUMPDEST PUSH1 0x40 MLOAD PUSH2 0x1C87 SWAP2 SWAP1 PUSH2 0x2379 JUMP JUMPDEST PUSH1 0x40 MLOAD DUP1 SWAP2 SUB SWAP1 LOG2 POP POP JUMP JUMPDEST DUP2 PUSH1 0x1 PUSH1 0x1 PUSH1 0xA0 SHL SUB AND DUP4 PUSH1 0x1 PUSH1 0x1 PUSH1 0xA0 SHL SUB AND SUB PUSH2 0x1D06 JUMPI PUSH1 0x40 MLOAD PUSH3 0x461BCD PUSH1 0xE5 SHL DUP2 MSTORE PUSH1 0x20 PUSH1 0x4 DUP3 ADD MSTORE PUSH1 0x29 PUSH1 0x24 DUP3 ADD MSTORE PUSH32 0x455243313135353A2073657474696E6720617070726F76616C20737461747573 PUSH1 0x44 DUP3 ADD MSTORE PUSH9 0x103337B91039B2B633 PUSH1 0xB9 SHL PUSH1 0x64 DUP3 ADD MSTORE PUSH1 0x84 ADD PUSH2 0x586 JUMP JUMPDEST PUSH1 0x1 PUSH1 0x1 PUSH1 0xA0 SHL SUB DUP4 DUP2 AND PUSH1 0x0 DUP2 DUP2 MSTORE PUSH1 0x1 PUSH1 0x20 SWAP1 DUP2 MSTORE PUSH1 0x40 DUP1 DUP4 KECCAK256 SWAP5 DUP8 AND DUP1 DUP5 MSTORE SWAP5 DUP3 MSTORE SWAP2 DUP3 SWAP1 KECCAK256 DUP1 SLOAD PUSH1 0xFF NOT AND DUP7 ISZERO ISZERO SWAP1 DUP2 OR SWAP1 SWAP2 SSTORE SWAP2 MLOAD SWAP2 DUP3 MSTORE PUSH32 0x17307EAB39AB6107E8899845AD3D59BD9653F200F220920489CA2B5937696C31 SWAP2 ADD PUSH1 0x40 MLOAD DUP1 SWAP2 SUB SWAP1 LOG3 POP POP POP JUMP JUMPDEST DUP1 SLOAD DUP1 PUSH2 0x1DC2 JUMPI PUSH1 0x40 MLOAD PUSH3 0x461BCD PUSH1 0xE5 SHL DUP2 MSTORE PUSH1 0x20 PUSH1 0x4 DUP3 ADD MSTORE PUSH1 0x1B PUSH1 0x24 DUP3 ADD MSTORE PUSH32 0x436F756E7465723A2064656372656D656E74206F766572666C6F770000000000 PUSH1 0x44 DUP3 ADD MSTORE PUSH1 0x64 ADD PUSH2 0x586 JUMP JUMPDEST PUSH1 0x0 NOT ADD SWAP1 SSTORE JUMP JUMPDEST PUSH1 0x1 PUSH1 0x1 PUSH1 0xA0 SHL SUB DUP5 AND PUSH2 0x1DF0 JUMPI PUSH1 0x40 MLOAD PUSH3 0x461BCD PUSH1 0xE5 SHL DUP2 MSTORE PUSH1 0x4 ADD PUSH2 0x586 SWAP1 PUSH2 0x2CB8 JUMP JUMPDEST CALLER PUSH1 0x0 PUSH2 0x1DFC DUP6 PUSH2 0x1F44 JUMP JUMPDEST SWAP1 POP PUSH1 0x0 PUSH2 0x1E09 DUP6 PUSH2 0x1F44 JUMP JUMPDEST SWAP1 POP PUSH1 0x0 DUP7 DUP2 MSTORE PUSH1 0x20 DUP2 DUP2 MSTORE PUSH1 0x40 DUP1 DUP4 KECCAK256 PUSH1 0x1 PUSH1 0x1 PUSH1 0xA0 SHL SUB DUP13 AND DUP5 MSTORE SWAP1 SWAP2 MSTORE SWAP1 KECCAK256 SLOAD DUP6 DUP2 LT ISZERO PUSH2 0x1E4C JUMPI PUSH1 0x40 MLOAD PUSH3 0x461BCD PUSH1 0xE5 SHL DUP2 MSTORE PUSH1 0x4 ADD PUSH2 0x586 SWAP1 PUSH2 0x2CFD JUMP JUMPDEST PUSH1 0x0 DUP8 DUP2 MSTORE PUSH1 0x20 DUP2 DUP2 MSTORE PUSH1 0x40 DUP1 DUP4 KECCAK256 PUSH1 0x1 PUSH1 0x1 PUSH1 0xA0 SHL SUB DUP14 DUP2 AND DUP6 MSTORE SWAP3 MSTORE DUP1 DUP4 KECCAK256 DUP10 DUP6 SUB SWAP1 SSTORE SWAP1 DUP11 AND DUP3 MSTORE DUP2 KECCAK256 DUP1 SLOAD DUP9 SWAP3 SWAP1 PUSH2 0x1E89 SWAP1 DUP5 SWAP1 PUSH2 0x2AA2 JUMP JUMPDEST SWAP1 SWAP2 SSTORE POP POP PUSH1 0x40 DUP1 MLOAD DUP9 DUP2 MSTORE PUSH1 0x20 DUP2 ADD DUP9 SWAP1 MSTORE PUSH1 0x1 PUSH1 0x1 PUSH1 0xA0 SHL SUB DUP1 DUP12 AND SWAP3 DUP13 DUP3 AND SWAP3 SWAP2 DUP9 AND SWAP2 PUSH32 0xC3D58168C5AE7397731D063D5BBF3D657854427343F4C083240F7AACAA2D0F62 SWAP2 ADD PUSH1 0x40 MLOAD DUP1 SWAP2 SUB SWAP1 LOG4 PUSH2 0x1EE9 DUP5 DUP11 DUP11 DUP11 DUP11 DUP11 PUSH2 0x1F8F JUMP JUMPDEST POP POP POP POP POP POP POP POP POP JUMP JUMPDEST PUSH1 0x0 PUSH1 0x1 PUSH1 0x1 PUSH1 0xE0 SHL SUB NOT DUP3 AND PUSH4 0x6CDB3D13 PUSH1 0xE1 SHL EQ DUP1 PUSH2 0x1F25 JUMPI POP PUSH1 0x1 PUSH1 0x1 PUSH1 0xE0 SHL SUB NOT DUP3 AND PUSH4 0x3A24D07 PUSH1 0xE2 SHL EQ JUMPDEST DUP1 PUSH2 0x5B2 JUMPI POP PUSH4 0x1FFC9A7 PUSH1 0xE0 SHL PUSH1 0x1 PUSH1 0x1 PUSH1 0xE0 SHL SUB NOT DUP4 AND EQ PUSH2 0x5B2 JUMP JUMPDEST PUSH1 0x40 DUP1 MLOAD PUSH1 0x1 DUP1 DUP3 MSTORE DUP2 DUP4 ADD SWAP1 SWAP3 MSTORE PUSH1 0x60 SWAP2 PUSH1 0x0 SWAP2 SWAP1 PUSH1 0x20 DUP1 DUP4 ADD SWAP1 DUP1 CALLDATASIZE DUP4 CALLDATACOPY ADD SWAP1 POP POP SWAP1 POP DUP3 DUP2 PUSH1 0x0 DUP2 MLOAD DUP2 LT PUSH2 0x1F7E JUMPI PUSH2 0x1F7E PUSH2 0x29CB JUMP JUMPDEST PUSH1 0x20 SWAP1 DUP2 MUL SWAP2 SWAP1 SWAP2 ADD ADD MSTORE SWAP3 SWAP2 POP POP JUMP JUMPDEST PUSH1 0x1 PUSH1 0x1 PUSH1 0xA0 SHL SUB DUP5 AND EXTCODESIZE ISZERO PUSH2 0x1BDC JUMPI PUSH1 0x40 MLOAD PUSH4 0xF23A6E61 PUSH1 0xE0 SHL DUP2 MSTORE PUSH1 0x1 PUSH1 0x1 PUSH1 0xA0 SHL SUB DUP6 AND SWAP1 PUSH4 0xF23A6E61 SWAP1 PUSH2 0x1FD3 SWAP1 DUP10 SWAP1 DUP10 SWAP1 DUP9 SWAP1 DUP9 SWAP1 DUP9 SWAP1 PUSH1 0x4 ADD PUSH2 0x2D75 JUMP JUMPDEST PUSH1 0x20 PUSH1 0x40 MLOAD DUP1 DUP4 SUB DUP2 PUSH1 0x0 DUP8 GAS CALL SWAP3 POP POP POP DUP1 ISZERO PUSH2 0x200E JUMPI POP PUSH1 0x40 DUP1 MLOAD PUSH1 0x1F RETURNDATASIZE SWAP1 DUP2 ADD PUSH1 0x1F NOT AND DUP3 ADD SWAP1 SWAP3 MSTORE PUSH2 0x200B SWAP2 DUP2 ADD SWAP1 PUSH2 0x2DBA JUMP JUMPDEST PUSH1 0x1 JUMPDEST PUSH2 0x20BA JUMPI PUSH2 0x201A PUSH2 0x2DD7 JUMP JUMPDEST DUP1 PUSH4 0x8C379A0 SUB PUSH2 0x2053 JUMPI POP PUSH2 0x202E PUSH2 0x2DF3 JUMP JUMPDEST DUP1 PUSH2 0x2039 JUMPI POP PUSH2 0x2055 JUMP JUMPDEST DUP1 PUSH1 0x40 MLOAD PUSH3 0x461BCD PUSH1 0xE5 SHL DUP2 MSTORE PUSH1 0x4 ADD PUSH2 0x586 SWAP2 SWAP1 PUSH2 0x2379 JUMP JUMPDEST POP JUMPDEST PUSH1 0x40 MLOAD PUSH3 0x461BCD PUSH1 0xE5 SHL DUP2 MSTORE PUSH1 0x20 PUSH1 0x4 DUP3 ADD MSTORE PUSH1 0x34 PUSH1 0x24 DUP3 ADD MSTORE PUSH32 0x455243313135353A207472616E7366657220746F206E6F6E2D45524331313535 PUSH1 0x44 DUP3 ADD MSTORE PUSH20 0x2932B1B2B4BB32B91034B6B83632B6B2B73A32B9 PUSH1 0x61 SHL PUSH1 0x64 DUP3 ADD MSTORE PUSH1 0x84 ADD PUSH2 0x586 JUMP JUMPDEST PUSH1 0x1 PUSH1 0x1 PUSH1 0xE0 SHL SUB NOT DUP2 AND PUSH4 0xF23A6E61 PUSH1 0xE0 SHL EQ PUSH2 0x1955 JUMPI PUSH1 0x40 MLOAD PUSH3 0x461BCD PUSH1 0xE5 SHL DUP2 MSTORE PUSH1 0x4 ADD PUSH2 0x586 SWAP1 PUSH2 0x2E7C JUMP JUMPDEST PUSH1 0x1 PUSH1 0x1 PUSH1 0xA0 SHL SUB DUP5 AND EXTCODESIZE ISZERO PUSH2 0x1BDC JUMPI PUSH1 0x40 MLOAD PUSH4 0xBC197C81 PUSH1 0xE0 SHL DUP2 MSTORE PUSH1 0x1 PUSH1 0x1 PUSH1 0xA0 SHL SUB DUP6 AND SWAP1 PUSH4 0xBC197C81 SWAP1 PUSH2 0x212E SWAP1 DUP10 SWAP1 DUP10 SWAP1 DUP9 SWAP1 DUP9 SWAP1 DUP9 SWAP1 PUSH1 0x4 ADD PUSH2 0x2EC4 JUMP JUMPDEST PUSH1 0x20 PUSH1 0x40 MLOAD DUP1 DUP4 SUB DUP2 PUSH1 0x0 DUP8 GAS CALL SWAP3 POP POP POP DUP1 ISZERO PUSH2 0x2169 JUMPI POP PUSH1 0x40 DUP1 MLOAD PUSH1 0x1F RETURNDATASIZE SWAP1 DUP2 ADD PUSH1 0x1F NOT AND DUP3 ADD SWAP1 SWAP3 MSTORE PUSH2 0x2166 SWAP2 DUP2 ADD SWAP1 PUSH2 0x2DBA JUMP JUMPDEST PUSH1 0x1 JUMPDEST PUSH2 0x2175 JUMPI PUSH2 0x201A PUSH2 0x2DD7 JUMP JUMPDEST PUSH1 0x1 PUSH1 0x1 PUSH1 0xE0 SHL SUB NOT DUP2 AND PUSH4 0xBC197C81 PUSH1 0xE0 SHL EQ PUSH2 0x1955 JUMPI PUSH1 0x40 MLOAD PUSH3 0x461BCD PUSH1 0xE5 SHL DUP2 MSTORE PUSH1 0x4 ADD PUSH2 0x586 SWAP1 PUSH2 0x2E7C JUMP JUMPDEST DUP1 CALLDATALOAD PUSH1 0x1 PUSH1 0x1 PUSH1 0xA0 SHL SUB DUP2 AND DUP2 EQ PUSH2 0x21BC JUMPI PUSH1 0x0 DUP1 REVERT JUMPDEST SWAP2 SWAP1 POP JUMP JUMPDEST PUSH1 0x0 DUP1 PUSH1 0x40 DUP4 DUP6 SUB SLT ISZERO PUSH2 0x21D4 JUMPI PUSH1 0x0 DUP1 REVERT JUMPDEST PUSH2 0x21DD DUP4 PUSH2 0x21A5 JUMP JUMPDEST SWAP5 PUSH1 0x20 SWAP4 SWAP1 SWAP4 ADD CALLDATALOAD SWAP4 POP POP POP JUMP JUMPDEST PUSH1 0x1 PUSH1 0x1 PUSH1 0xE0 SHL SUB NOT DUP2 AND DUP2 EQ PUSH2 0x151C JUMPI PUSH1 0x0 DUP1 REVERT JUMPDEST PUSH1 0x0 PUSH1 0x20 DUP3 DUP5 SUB SLT ISZERO PUSH2 0x2213 JUMPI PUSH1 0x0 DUP1 REVERT JUMPDEST DUP2 CALLDATALOAD PUSH2 0x853 DUP2 PUSH2 0x21EB JUMP JUMPDEST PUSH4 0x4E487B71 PUSH1 0xE0 SHL PUSH1 0x0 MSTORE PUSH1 0x41 PUSH1 0x4 MSTORE PUSH1 0x24 PUSH1 0x0 REVERT JUMPDEST PUSH1 0x1F DUP3 ADD PUSH1 0x1F NOT AND DUP2 ADD PUSH1 0x1 PUSH1 0x1 PUSH1 0x40 SHL SUB DUP2 GT DUP3 DUP3 LT OR ISZERO PUSH2 0x2259 JUMPI PUSH2 0x2259 PUSH2 0x221E JUMP JUMPDEST PUSH1 0x40 MSTORE POP POP JUMP JUMPDEST PUSH1 0x0 DUP3 PUSH1 0x1F DUP4 ADD SLT PUSH2 0x2271 JUMPI PUSH1 0x0 DUP1 REVERT JUMPDEST DUP2 CALLDATALOAD PUSH1 0x1 PUSH1 0x1 PUSH1 0x40 SHL SUB DUP2 GT ISZERO PUSH2 0x228A JUMPI PUSH2 0x228A PUSH2 0x221E JUMP JUMPDEST PUSH1 0x40 MLOAD PUSH2 0x22A1 PUSH1 0x1F DUP4 ADD PUSH1 0x1F NOT AND PUSH1 0x20 ADD DUP3 PUSH2 0x2234 JUMP JUMPDEST DUP2 DUP2 MSTORE DUP5 PUSH1 0x20 DUP4 DUP7 ADD ADD GT ISZERO PUSH2 0x22B6 JUMPI PUSH1 0x0 DUP1 REVERT JUMPDEST DUP2 PUSH1 0x20 DUP6 ADD PUSH1 0x20 DUP4 ADD CALLDATACOPY PUSH1 0x0 SWAP2 DUP2 ADD PUSH1 0x20 ADD SWAP2 SWAP1 SWAP2 MSTORE SWAP4 SWAP3 POP POP POP JUMP JUMPDEST PUSH1 0x0 DUP1 PUSH1 0x0 PUSH1 0x60 DUP5 DUP7 SUB SLT ISZERO PUSH2 0x22E8 JUMPI PUSH1 0x0 DUP1 REVERT JUMPDEST PUSH2 0x22F1 DUP5 PUSH2 0x21A5 JUMP JUMPDEST SWAP3 POP PUSH1 0x20 DUP5 ADD CALLDATALOAD SWAP2 POP PUSH1 0x40 DUP5 ADD CALLDATALOAD PUSH1 0x1 PUSH1 0x1 PUSH1 0x40 SHL SUB DUP2 GT ISZERO PUSH2 0x2313 JUMPI PUSH1 0x0 DUP1 REVERT JUMPDEST PUSH2 0x231F DUP7 DUP3 DUP8 ADD PUSH2 0x2260 JUMP JUMPDEST SWAP2 POP POP SWAP3 POP SWAP3 POP SWAP3 JUMP JUMPDEST PUSH1 0x0 JUMPDEST DUP4 DUP2 LT ISZERO PUSH2 0x2344 JUMPI DUP2 DUP2 ADD MLOAD DUP4 DUP3 ADD MSTORE PUSH1 0x20 ADD PUSH2 0x232C JUMP JUMPDEST POP POP PUSH1 0x0 SWAP2 ADD MSTORE JUMP JUMPDEST PUSH1 0x0 DUP2 MLOAD DUP1 DUP5 MSTORE PUSH2 0x2365 DUP2 PUSH1 0x20 DUP7 ADD PUSH1 0x20 DUP7 ADD PUSH2 0x2329 JUMP JUMPDEST PUSH1 0x1F ADD PUSH1 0x1F NOT AND SWAP3 SWAP1 SWAP3 ADD PUSH1 0x20 ADD SWAP3 SWAP2 POP POP JUMP JUMPDEST PUSH1 0x20 DUP2 MSTORE PUSH1 0x0 PUSH2 0x853 PUSH1 0x20 DUP4 ADD DUP5 PUSH2 0x234D JUMP JUMPDEST PUSH1 0x0 PUSH1 0x20 DUP3 DUP5 SUB SLT ISZERO PUSH2 0x239E JUMPI PUSH1 0x0 DUP1 REVERT JUMPDEST POP CALLDATALOAD SWAP2 SWAP1 POP JUMP JUMPDEST PUSH1 0x20 DUP1 DUP3 MSTORE DUP3 MLOAD DUP3 DUP3 ADD DUP2 SWAP1 MSTORE PUSH1 0x0 SWAP2 SWAP1 PUSH1 0x40 SWAP1 DUP2 DUP6 ADD SWAP1 DUP7 DUP5 ADD DUP6 JUMPDEST DUP3 DUP2 LT ISZERO PUSH2 0x2414 JUMPI DUP2 MLOAD DUP1 MLOAD DUP6 MSTORE DUP7 DUP2 ADD MLOAD PUSH1 0x1 PUSH1 0x1 PUSH1 0xA0 SHL SUB SWAP1 DUP2 AND DUP9 DUP8 ADD MSTORE DUP7 DUP3 ADD MLOAD AND DUP7 DUP7 ADD MSTORE PUSH1 0x60 DUP1 DUP3 ADD MLOAD SWAP1 DUP7 ADD MSTORE PUSH1 0x80 SWAP1 DUP2 ADD MLOAD ISZERO ISZERO SWAP1 DUP6 ADD MSTORE PUSH1 0xA0 SWAP1 SWAP4 ADD SWAP3 SWAP1 DUP6 ADD SWAP1 PUSH1 0x1 ADD PUSH2 0x23C2 JUMP JUMPDEST POP SWAP2 SWAP8 SWAP7 POP POP POP POP POP POP POP JUMP JUMPDEST PUSH1 0x0 DUP1 PUSH1 0x40 DUP4 DUP6 SUB SLT ISZERO PUSH2 0x2434 JUMPI PUSH1 0x0 DUP1 REVERT JUMPDEST POP POP DUP1 CALLDATALOAD SWAP3 PUSH1 0x20 SWAP1 SWAP2 ADD CALLDATALOAD SWAP2 POP JUMP JUMPDEST PUSH1 0x0 PUSH1 0x1 PUSH1 0x1 PUSH1 0x40 SHL SUB DUP3 GT ISZERO PUSH2 0x245C JUMPI PUSH2 0x245C PUSH2 0x221E JUMP JUMPDEST POP PUSH1 0x5 SHL PUSH1 0x20 ADD SWAP1 JUMP JUMPDEST PUSH1 0x0 DUP3 PUSH1 0x1F DUP4 ADD SLT PUSH2 0x2477 JUMPI PUSH1 0x0 DUP1 REVERT JUMPDEST DUP2 CALLDATALOAD PUSH1 0x20 PUSH2 0x2484 DUP3 PUSH2 0x2443 JUMP JUMPDEST PUSH1 0x40 MLOAD PUSH2 0x2491 DUP3 DUP3 PUSH2 0x2234 JUMP JUMPDEST DUP4 DUP2 MSTORE PUSH1 0x5 SWAP4 SWAP1 SWAP4 SHL DUP6 ADD DUP3 ADD SWAP3 DUP3 DUP2 ADD SWAP2 POP DUP7 DUP5 GT ISZERO PUSH2 0x24B1 JUMPI PUSH1 0x0 DUP1 REVERT JUMPDEST DUP3 DUP7 ADD JUMPDEST DUP5 DUP2 LT ISZERO PUSH2 0x24CC JUMPI DUP1 CALLDATALOAD DUP4 MSTORE SWAP2 DUP4 ADD SWAP2 DUP4 ADD PUSH2 0x24B5 JUMP JUMPDEST POP SWAP7 SWAP6 POP POP POP POP POP POP JUMP JUMPDEST PUSH1 0x0 DUP1 PUSH1 0x0 DUP1 PUSH1 0x0 PUSH1 0xA0 DUP7 DUP9 SUB SLT ISZERO PUSH2 0x24EF JUMPI PUSH1 0x0 DUP1 REVERT JUMPDEST PUSH2 0x24F8 DUP7 PUSH2 0x21A5 JUMP JUMPDEST SWAP5 POP PUSH2 0x2506 PUSH1 0x20 DUP8 ADD PUSH2 0x21A5 JUMP JUMPDEST SWAP4 POP PUSH1 0x40 DUP7 ADD CALLDATALOAD PUSH1 0x1 PUSH1 0x1 PUSH1 0x40 SHL SUB DUP1 DUP3 GT ISZERO PUSH2 0x2522 JUMPI PUSH1 0x0 DUP1 REVERT JUMPDEST PUSH2 0x252E DUP10 DUP4 DUP11 ADD PUSH2 0x2466 JUMP JUMPDEST SWAP5 POP PUSH1 0x60 DUP9 ADD CALLDATALOAD SWAP2 POP DUP1 DUP3 GT ISZERO PUSH2 0x2544 JUMPI PUSH1 0x0 DUP1 REVERT JUMPDEST PUSH2 0x2550 DUP10 DUP4 DUP11 ADD PUSH2 0x2466 JUMP JUMPDEST SWAP4 POP PUSH1 0x80 DUP9 ADD CALLDATALOAD SWAP2 POP DUP1 DUP3 GT ISZERO PUSH2 0x2566 JUMPI PUSH1 0x0 DUP1 REVERT JUMPDEST POP PUSH2 0x2573 DUP9 DUP3 DUP10 ADD PUSH2 0x2260 JUMP JUMPDEST SWAP2 POP POP SWAP3 SWAP6 POP SWAP3 SWAP6 SWAP1 SWAP4 POP JUMP JUMPDEST PUSH1 0x0 DUP1 PUSH1 0x40 DUP4 DUP6 SUB SLT ISZERO PUSH2 0x2593 JUMPI PUSH1 0x0 DUP1 REVERT JUMPDEST DUP3 CALLDATALOAD PUSH1 0x1 PUSH1 0x1 PUSH1 0x40 SHL SUB DUP1 DUP3 GT ISZERO PUSH2 0x25AA JUMPI PUSH1 0x0 DUP1 REVERT JUMPDEST DUP2 DUP6 ADD SWAP2 POP DUP6 PUSH1 0x1F DUP4 ADD SLT PUSH2 0x25BE JUMPI PUSH1 0x0 DUP1 REVERT JUMPDEST DUP2 CALLDATALOAD PUSH1 0x20 PUSH2 0x25CB DUP3 PUSH2 0x2443 JUMP JUMPDEST PUSH1 0x40 MLOAD PUSH2 0x25D8 DUP3 DUP3 PUSH2 0x2234 JUMP JUMPDEST DUP4 DUP2 MSTORE PUSH1 0x5 SWAP4 SWAP1 SWAP4 SHL DUP6 ADD DUP3 ADD SWAP3 DUP3 DUP2 ADD SWAP2 POP DUP10 DUP5 GT ISZERO PUSH2 0x25F8 JUMPI PUSH1 0x0 DUP1 REVERT JUMPDEST SWAP5 DUP3 ADD SWAP5 JUMPDEST DUP4 DUP7 LT ISZERO PUSH2 0x261D JUMPI PUSH2 0x260E DUP7 PUSH2 0x21A5 JUMP JUMPDEST DUP3 MSTORE SWAP5 DUP3 ADD SWAP5 SWAP1 DUP3 ADD SWAP1 PUSH2 0x25FD JUMP JUMPDEST SWAP7 POP POP DUP7 ADD CALLDATALOAD SWAP3 POP POP DUP1 DUP3 GT ISZERO PUSH2 0x2633 JUMPI PUSH1 0x0 DUP1 REVERT JUMPDEST POP PUSH2 0xC17 DUP6 DUP3 DUP7 ADD PUSH2 0x2466 JUMP JUMPDEST PUSH1 0x0 DUP2 MLOAD DUP1 DUP5 MSTORE PUSH1 0x20 DUP1 DUP6 ADD SWAP5 POP DUP1 DUP5 ADD PUSH1 0x0 JUMPDEST DUP4 DUP2 LT ISZERO PUSH2 0x2670 JUMPI DUP2 MLOAD DUP8 MSTORE SWAP6 DUP3 ADD SWAP6 SWAP1 DUP3 ADD SWAP1 PUSH1 0x1 ADD PUSH2 0x2654 JUMP JUMPDEST POP SWAP5 SWAP6 SWAP5 POP POP POP POP POP JUMP JUMPDEST PUSH1 0x20 DUP2 MSTORE PUSH1 0x0 PUSH2 0x853 PUSH1 0x20 DUP4 ADD DUP5 PUSH2 0x2640 JUMP JUMPDEST DUP1 MLOAD DUP3 MSTORE PUSH1 0x0 PUSH1 0x20 DUP3 ADD MLOAD PUSH1 0x60 PUSH1 0x20 DUP6 ADD MSTORE PUSH2 0x26AD PUSH1 0x60 DUP6 ADD DUP3 PUSH2 0x234D JUMP JUMPDEST PUSH1 0x40 SWAP4 DUP5 ADD MLOAD SWAP5 SWAP1 SWAP4 ADD SWAP4 SWAP1 SWAP4 MSTORE POP SWAP2 SWAP1 POP JUMP JUMPDEST PUSH1 0x20 DUP2 MSTORE PUSH1 0x0 PUSH2 0x853 PUSH1 0x20 DUP4 ADD DUP5 PUSH2 0x268E JUMP JUMPDEST PUSH1 0x0 DUP1 PUSH1 0x40 DUP4 DUP6 SUB SLT ISZERO PUSH2 0x26E7 JUMPI PUSH1 0x0 DUP1 REVERT JUMPDEST DUP3 CALLDATALOAD SWAP2 POP PUSH1 0x20 DUP4 ADD CALLDATALOAD PUSH1 0x1 PUSH1 0x1 PUSH1 0x40 SHL SUB DUP2 GT ISZERO PUSH2 0x2704 JUMPI PUSH1 0x0 DUP1 REVERT JUMPDEST PUSH2 0xC17 DUP6 DUP3 DUP7 ADD PUSH2 0x2260 JUMP JUMPDEST PUSH1 0x0 PUSH1 0x20 DUP1 DUP4 ADD DUP2 DUP5 MSTORE DUP1 DUP6 MLOAD DUP1 DUP4 MSTORE PUSH1 0x40 DUP7 ADD SWAP2 POP PUSH1 0x40 DUP2 PUSH1 0x5 SHL DUP8 ADD ADD SWAP3 POP DUP4 DUP8 ADD PUSH1 0x0 JUMPDEST DUP3 DUP2 LT ISZERO PUSH2 0x2765 JUMPI PUSH1 0x3F NOT DUP9 DUP7 SUB ADD DUP5 MSTORE PUSH2 0x2753 DUP6 DUP4 MLOAD PUSH2 0x268E JUMP JUMPDEST SWAP5 POP SWAP3 DUP6 ADD SWAP3 SWAP1 DUP6 ADD SWAP1 PUSH1 0x1 ADD PUSH2 0x2737 JUMP JUMPDEST POP SWAP3 SWAP8 SWAP7 POP POP POP POP POP POP POP JUMP JUMPDEST PUSH1 0x0 DUP1 PUSH1 0x40 DUP4 DUP6 SUB SLT ISZERO PUSH2 0x2785 JUMPI PUSH1 0x0 DUP1 REVERT JUMPDEST PUSH2 0x278E DUP4 PUSH2 0x21A5 JUMP JUMPDEST SWAP2 POP PUSH1 0x20 DUP4 ADD CALLDATALOAD DUP1 ISZERO ISZERO DUP2 EQ PUSH2 0x27A3 JUMPI PUSH1 0x0 DUP1 REVERT JUMPDEST DUP1 SWAP2 POP POP SWAP3 POP SWAP3 SWAP1 POP JUMP JUMPDEST PUSH1 0x0 DUP1 PUSH1 0x40 DUP4 DUP6 SUB SLT ISZERO PUSH2 0x27C1 JUMPI PUSH1 0x0 DUP1 REVERT JUMPDEST PUSH2 0x27CA DUP4 PUSH2 0x21A5 JUMP JUMPDEST SWAP2 POP PUSH2 0x27D8 PUSH1 0x20 DUP5 ADD PUSH2 0x21A5 JUMP JUMPDEST SWAP1 POP SWAP3 POP SWAP3 SWAP1 POP JUMP JUMPDEST PUSH1 0x0 DUP1 PUSH1 0x0 PUSH1 0x60 DUP5 DUP7 SUB SLT ISZERO PUSH2 0x27F6 JUMPI PUSH1 0x0 DUP1 REVERT JUMPDEST POP POP DUP2 CALLDATALOAD SWAP4 PUSH1 0x20 DUP4 ADD CALLDATALOAD SWAP4 POP PUSH1 0x40 SWAP1 SWAP3 ADD CALLDATALOAD SWAP2 SWAP1 POP JUMP JUMPDEST PUSH1 0x0 DUP1 PUSH1 0x0 DUP1 PUSH1 0x0 PUSH1 0xA0 DUP7 DUP9 SUB SLT ISZERO PUSH2 0x2825 JUMPI PUSH1 0x0 DUP1 REVERT JUMPDEST PUSH2 0x282E DUP7 PUSH2 0x21A5 JUMP JUMPDEST SWAP5 POP PUSH2 0x283C PUSH1 0x20 DUP8 ADD PUSH2 0x21A5 JUMP JUMPDEST SWAP4 POP PUSH1 0x40 DUP7 ADD CALLDATALOAD SWAP3 POP PUSH1 0x60 DUP7 ADD CALLDATALOAD SWAP2 POP PUSH1 0x80 DUP7 ADD CALLDATALOAD PUSH1 0x1 PUSH1 0x1 PUSH1 0x40 SHL SUB DUP2 GT ISZERO PUSH2 0x2865 JUMPI PUSH1 0x0 DUP1 REVERT JUMPDEST PUSH2 0x2573 DUP9 DUP3 DUP10 ADD PUSH2 0x2260 JUMP JUMPDEST PUSH1 0x0 PUSH1 0x20 DUP3 DUP5 SUB SLT ISZERO PUSH2 0x2883 JUMPI PUSH1 0x0 DUP1 REVERT JUMPDEST PUSH2 0x853 DUP3 PUSH2 0x21A5 JUMP JUMPDEST PUSH1 0x1 DUP2 DUP2 SHR SWAP1 DUP3 AND DUP1 PUSH2 0x28A0 JUMPI PUSH1 0x7F DUP3 AND SWAP2 POP JUMPDEST PUSH1 0x20 DUP3 LT DUP2 SUB PUSH2 0x28C0 JUMPI PUSH4 0x4E487B71 PUSH1 0xE0 SHL PUSH1 0x0 MSTORE PUSH1 0x22 PUSH1 0x4 MSTORE PUSH1 0x24 PUSH1 0x0 REVERT JUMPDEST POP SWAP2 SWAP1 POP JUMP JUMPDEST PUSH1 0x1F DUP3 GT ISZERO PUSH2 0x10BD JUMPI PUSH1 0x0 DUP2 DUP2 MSTORE PUSH1 0x20 DUP2 KECCAK256 PUSH1 0x1F DUP6 ADD PUSH1 0x5 SHR DUP2 ADD PUSH1 0x20 DUP7 LT ISZERO PUSH2 0x28ED JUMPI POP DUP1 JUMPDEST PUSH1 0x1F DUP6 ADD PUSH1 0x5 SHR DUP3 ADD SWAP2 POP JUMPDEST DUP2 DUP2 LT ISZERO PUSH2 0x1BDC JUMPI DUP3 DUP2 SSTORE PUSH1 0x1 ADD PUSH2 0x28F9 JUMP JUMPDEST DUP2 MLOAD PUSH1 0x1 PUSH1 0x1 PUSH1 0x40 SHL SUB DUP2 GT ISZERO PUSH2 0x2925 JUMPI PUSH2 0x2925 PUSH2 0x221E JUMP JUMPDEST PUSH2 0x2939 DUP2 PUSH2 0x2933 DUP5 SLOAD PUSH2 0x288C JUMP JUMPDEST DUP5 PUSH2 0x28C6 JUMP JUMPDEST PUSH1 0x20 DUP1 PUSH1 0x1F DUP4 GT PUSH1 0x1 DUP2 EQ PUSH2 0x296E JUMPI PUSH1 0x0 DUP5 ISZERO PUSH2 0x2956 JUMPI POP DUP6 DUP4 ADD MLOAD JUMPDEST PUSH1 0x0 NOT PUSH1 0x3 DUP7 SWAP1 SHL SHR NOT AND PUSH1 0x1 DUP6 SWAP1 SHL OR DUP6 SSTORE PUSH2 0x1BDC JUMP JUMPDEST PUSH1 0x0 DUP6 DUP2 MSTORE PUSH1 0x20 DUP2 KECCAK256 PUSH1 0x1F NOT DUP7 AND SWAP2 JUMPDEST DUP3 DUP2 LT ISZERO PUSH2 0x299D JUMPI DUP9 DUP7 ADD MLOAD DUP3 SSTORE SWAP5 DUP5 ADD SWAP5 PUSH1 0x1 SWAP1 SWAP2 ADD SWAP1 DUP5 ADD PUSH2 0x297E JUMP JUMPDEST POP DUP6 DUP3 LT ISZERO PUSH2 0x29BB JUMPI DUP8 DUP6 ADD MLOAD PUSH1 0x0 NOT PUSH1 0x3 DUP9 SWAP1 SHL PUSH1 0xF8 AND SHR NOT AND DUP2 SSTORE JUMPDEST POP POP POP POP POP PUSH1 0x1 SWAP1 DUP2 SHL ADD SWAP1 SSTORE POP JUMP JUMPDEST PUSH4 0x4E487B71 PUSH1 0xE0 SHL PUSH1 0x0 MSTORE PUSH1 0x32 PUSH1 0x4 MSTORE PUSH1 0x24 PUSH1 0x0 REVERT JUMPDEST PUSH1 0x0 DUP2 SLOAD PUSH2 0x29EE DUP2 PUSH2 0x288C JUMP JUMPDEST PUSH1 0x1 DUP3 DUP2 AND DUP1 ISZERO PUSH2 0x2A06 JUMPI PUSH1 0x1 DUP2 EQ PUSH2 0x2A1B JUMPI PUSH2 0x2A4A JUMP JUMPDEST PUSH1 0xFF NOT DUP5 AND DUP8 MSTORE DUP3 ISZERO ISZERO DUP4 MUL DUP8 ADD SWAP5 POP PUSH2 0x2A4A JUMP JUMPDEST DUP6 PUSH1 0x0 MSTORE PUSH1 0x20 DUP1 PUSH1 0x0 KECCAK256 PUSH1 0x0 JUMPDEST DUP6 DUP2 LT ISZERO PUSH2 0x2A41 JUMPI DUP2 SLOAD DUP11 DUP3 ADD MSTORE SWAP1 DUP5 ADD SWAP1 DUP3 ADD PUSH2 0x2A28 JUMP JUMPDEST POP POP POP DUP3 DUP8 ADD SWAP5 POP JUMPDEST POP POP POP POP SWAP3 SWAP2 POP POP JUMP JUMPDEST PUSH1 0x0 PUSH2 0x2A60 DUP3 DUP6 PUSH2 0x29E1 JUMP JUMPDEST DUP4 MLOAD PUSH2 0x2A70 DUP2 DUP4 PUSH1 0x20 DUP9 ADD PUSH2 0x2329 JUMP JUMPDEST ADD SWAP5 SWAP4 POP POP POP POP JUMP JUMPDEST PUSH4 0x4E487B71 PUSH1 0xE0 SHL PUSH1 0x0 MSTORE PUSH1 0x11 PUSH1 0x4 MSTORE PUSH1 0x24 PUSH1 0x0 REVERT JUMPDEST DUP2 DUP2 SUB DUP2 DUP2 GT ISZERO PUSH2 0x5B2 JUMPI PUSH2 0x5B2 PUSH2 0x2A79 JUMP JUMPDEST DUP1 DUP3 ADD DUP1 DUP3 GT ISZERO PUSH2 0x5B2 JUMPI PUSH2 0x5B2 PUSH2 0x2A79 JUMP JUMPDEST PUSH1 0x0 PUSH1 0x1 DUP3 ADD PUSH2 0x2AC7 JUMPI PUSH2 0x2AC7 PUSH2 0x2A79 JUMP JUMPDEST POP PUSH1 0x1 ADD SWAP1 JUMP JUMPDEST DUP1 DUP3 MUL DUP2 ISZERO DUP3 DUP3 DIV DUP5 EQ OR PUSH2 0x5B2 JUMPI PUSH2 0x5B2 PUSH2 0x2A79 JUMP JUMPDEST PUSH1 0x0 DUP3 PUSH2 0x2B02 JUMPI PUSH4 0x4E487B71 PUSH1 0xE0 SHL PUSH1 0x0 MSTORE PUSH1 0x12 PUSH1 0x4 MSTORE PUSH1 0x24 PUSH1 0x0 REVERT JUMPDEST POP DIV SWAP1 JUMP JUMPDEST PUSH1 0x20 DUP1 DUP3 MSTORE PUSH1 0x2E SWAP1 DUP3 ADD MSTORE PUSH32 0x455243313135353A2063616C6C6572206973206E6F7420746F6B656E206F776E PUSH1 0x40 DUP3 ADD MSTORE PUSH14 0x195C881BDC88185C1C1C9BDD9959 PUSH1 0x92 SHL PUSH1 0x60 DUP3 ADD MSTORE PUSH1 0x80 ADD SWAP1 JUMP JUMPDEST PUSH1 0x20 DUP1 DUP3 MSTORE PUSH1 0x40 SWAP1 DUP3 ADD DUP2 SWAP1 MSTORE PUSH32 0x506C65617365207375626D6974207468652061736B696E672070726963652069 SWAP1 DUP3 ADD MSTORE PUSH32 0x6E206F7264657220746F20636F6D706C65746520746865207075726368617365 PUSH1 0x60 DUP3 ADD MSTORE PUSH1 0x80 ADD SWAP1 JUMP JUMPDEST PUSH1 0x0 PUSH2 0x2BC8 PUSH2 0x2BC2 DUP4 DUP8 PUSH2 0x29E1 JUMP JUMPDEST DUP6 PUSH2 0x29E1 JUMP JUMPDEST PUSH1 0x31 PUSH1 0xF8 SHL DUP2 MSTORE PUSH2 0x2BDC PUSH1 0x1 DUP3 ADD DUP6 PUSH2 0x29E1 JUMP JUMPDEST SWAP7 SWAP6 POP POP POP POP POP POP JUMP JUMPDEST PUSH1 0x0 PUSH2 0x2BF5 PUSH2 0x2BC2 DUP4 DUP8 PUSH2 0x29E1 JUMP JUMPDEST PUSH1 0x19 PUSH1 0xF9 SHL DUP2 MSTORE PUSH2 0x2BDC PUSH1 0x1 DUP3 ADD DUP6 PUSH2 0x29E1 JUMP JUMPDEST PUSH1 0x0 PUSH2 0x2C18 PUSH2 0x2BC2 DUP4 DUP8 PUSH2 0x29E1 JUMP JUMPDEST PUSH1 0x33 PUSH1 0xF8 SHL DUP2 MSTORE PUSH2 0x2BDC PUSH1 0x1 DUP3 ADD DUP6 PUSH2 0x29E1 JUMP JUMPDEST PUSH1 0x0 PUSH2 0x2C3B PUSH2 0x2BC2 DUP4 DUP8 PUSH2 0x29E1 JUMP JUMPDEST PUSH1 0xD PUSH1 0xFA SHL DUP2 MSTORE PUSH2 0x2BDC PUSH1 0x1 DUP3 ADD DUP6 PUSH2 0x29E1 JUMP JUMPDEST PUSH1 0x0 PUSH2 0x2C5E PUSH2 0x2BC2 DUP4 DUP8 PUSH2 0x29E1 JUMP JUMPDEST PUSH1 0x35 PUSH1 0xF8 SHL DUP2 MSTORE PUSH2 0x2BDC PUSH1 0x1 DUP3 ADD DUP6 PUSH2 0x29E1 JUMP JUMPDEST PUSH1 0x0 PUSH2 0x2C81 PUSH2 0x2BC2 DUP4 DUP8 PUSH2 0x29E1 JUMP JUMPDEST PUSH1 0x1B PUSH1 0xF9 SHL DUP2 MSTORE PUSH2 0x2BDC PUSH1 0x1 DUP3 ADD DUP6 PUSH2 0x29E1 JUMP JUMPDEST PUSH1 0x0 PUSH2 0x2CA4 PUSH2 0x2BC2 DUP4 DUP8 PUSH2 0x29E1 JUMP JUMPDEST PUSH1 0x37 PUSH1 0xF8 SHL DUP2 MSTORE PUSH2 0x2BDC PUSH1 0x1 DUP3 ADD DUP6 PUSH2 0x29E1 JUMP JUMPDEST PUSH1 0x20 DUP1 DUP3 MSTORE PUSH1 0x25 SWAP1 DUP3 ADD MSTORE PUSH32 0x455243313135353A207472616E7366657220746F20746865207A65726F206164 PUSH1 0x40 DUP3 ADD MSTORE PUSH5 0x6472657373 PUSH1 0xD8 SHL PUSH1 0x60 DUP3 ADD MSTORE PUSH1 0x80 ADD SWAP1 JUMP JUMPDEST PUSH1 0x20 DUP1 DUP3 MSTORE PUSH1 0x2A SWAP1 DUP3 ADD MSTORE PUSH32 0x455243313135353A20696E73756666696369656E742062616C616E636520666F PUSH1 0x40 DUP3 ADD MSTORE PUSH10 0x39103A3930B739B332B9 PUSH1 0xB1 SHL PUSH1 0x60 DUP3 ADD MSTORE PUSH1 0x80 ADD SWAP1 JUMP JUMPDEST PUSH1 0x40 DUP2 MSTORE PUSH1 0x0 PUSH2 0x2D5A PUSH1 0x40 DUP4 ADD DUP6 PUSH2 0x2640 JUMP JUMPDEST DUP3 DUP2 SUB PUSH1 0x20 DUP5 ADD MSTORE PUSH2 0x2D6C DUP2 DUP6 PUSH2 0x2640 JUMP JUMPDEST SWAP6 SWAP5 POP POP POP POP POP JUMP JUMPDEST PUSH1 0x1 PUSH1 0x1 PUSH1 0xA0 SHL SUB DUP7 DUP2 AND DUP3 MSTORE DUP6 AND PUSH1 0x20 DUP3 ADD MSTORE PUSH1 0x40 DUP2 ADD DUP5 SWAP1 MSTORE PUSH1 0x60 DUP2 ADD DUP4 SWAP1 MSTORE PUSH1 0xA0 PUSH1 0x80 DUP3 ADD DUP2 SWAP1 MSTORE PUSH1 0x0 SWAP1 PUSH2 0x2DAF SWAP1 DUP4 ADD DUP5 PUSH2 0x234D JUMP JUMPDEST SWAP8 SWAP7 POP POP POP POP POP POP POP JUMP JUMPDEST PUSH1 0x0 PUSH1 0x20 DUP3 DUP5 SUB SLT ISZERO PUSH2 0x2DCC JUMPI PUSH1 0x0 DUP1 REVERT JUMPDEST DUP2 MLOAD PUSH2 0x853 DUP2 PUSH2 0x21EB JUMP JUMPDEST PUSH1 0x0 PUSH1 0x3 RETURNDATASIZE GT ISZERO PUSH2 0x2DF0 JUMPI PUSH1 0x4 PUSH1 0x0 DUP1 RETURNDATACOPY POP PUSH1 0x0 MLOAD PUSH1 0xE0 SHR JUMPDEST SWAP1 JUMP JUMPDEST PUSH1 0x0 PUSH1 0x44 RETURNDATASIZE LT ISZERO PUSH2 0x2E01 JUMPI SWAP1 JUMP JUMPDEST PUSH1 0x40 MLOAD PUSH1 0x3 NOT RETURNDATASIZE DUP2 ADD PUSH1 0x4 DUP4 RETURNDATACOPY DUP2 MLOAD RETURNDATASIZE PUSH1 0x1 PUSH1 0x1 PUSH1 0x40 SHL SUB DUP2 PUSH1 0x24 DUP5 ADD GT DUP2 DUP5 GT OR ISZERO PUSH2 0x2E30 JUMPI POP POP POP POP POP SWAP1 JUMP JUMPDEST DUP3 DUP6 ADD SWAP2 POP DUP2 MLOAD DUP2 DUP2 GT ISZERO PUSH2 0x2E48 JUMPI POP POP POP POP POP POP SWAP1 JUMP JUMPDEST DUP5 RETURNDATASIZE DUP8 ADD ADD PUSH1 0x20 DUP3 DUP6 ADD ADD GT ISZERO PUSH2 0x2E62 JUMPI POP POP POP POP POP POP SWAP1 JUMP JUMPDEST PUSH2 0x2E71 PUSH1 0x20 DUP3 DUP7 ADD ADD DUP8 PUSH2 0x2234 JUMP JUMPDEST POP SWAP1 SWAP6 SWAP5 POP POP POP POP POP JUMP JUMPDEST PUSH1 0x20 DUP1 DUP3 MSTORE PUSH1 0x28 SWAP1 DUP3 ADD MSTORE PUSH32 0x455243313135353A204552433131353552656365697665722072656A65637465 PUSH1 0x40 DUP3 ADD MSTORE PUSH8 0x6420746F6B656E73 PUSH1 0xC0 SHL PUSH1 0x60 DUP3 ADD MSTORE PUSH1 0x80 ADD SWAP1 JUMP JUMPDEST PUSH1 0x1 PUSH1 0x1 PUSH1 0xA0 SHL SUB DUP7 DUP2 AND DUP3 MSTORE DUP6 AND PUSH1 0x20 DUP3 ADD MSTORE PUSH1 0xA0 PUSH1 0x40 DUP3 ADD DUP2 SWAP1 MSTORE PUSH1 0x0 SWAP1 PUSH2 0x2EF0 SWAP1 DUP4 ADD DUP7 PUSH2 0x2640 JUMP JUMPDEST DUP3 DUP2 SUB PUSH1 0x60 DUP5 ADD MSTORE PUSH2 0x2F02 DUP2 DUP7 PUSH2 0x2640 JUMP JUMPDEST SWAP1 POP DUP3 DUP2 SUB PUSH1 0x80 DUP5 ADD MSTORE PUSH2 0x2F16 DUP2 DUP6 PUSH2 0x234D JUMP JUMPDEST SWAP9 SWAP8 POP POP POP POP POP POP POP POP JUMP INVALID LOG2 PUSH5 0x6970667358 0x22 SLT KECCAK256 0xAC 0xB4 TIMESTAMP SELFBALANCE 0x5D 0x5D SUB 0x2E 0x21 SWAP1 PUSH28 0xFF70936704FF0EED765F3F7B1683150049516D895064736F6C634300 ADDMOD GT STOP CALLER PUSH9 0x747470733A2F2F6772 PUSH2 0x792D PUSH16 0x63636173696F6E616C2D66697265666C PUSH26 0x2D3639332E6D7970696E6174612E636C6F75642F697066732F51 PUSH14 0x504B4C72714C4851517A466E5854 PUSH5 0x37474B3545 JUMPI PUSH20 0x716B35614878646F4269396E364A6E6478325374 CALLDATASIZE PUSH21 0x2F0000000000000000000000000000000000000000 "},"methodIdentifiers":{"balanceOf(address,uint256)":"00fdd58e","balanceOfBatch(address[],uint256[])":"4e1273f4","createMarketSale(uint256)":"be9af536","createMarketSale(uint256,uint256)":"a1c11ca8","fetchItemsListed()":"45f8fa80","fetchMarketItems()":"0f08efe0","fetchMyNFTs()":"202e3740","getHorse(uint256)":"4f57641c","getHorses()":"90adec6f","getListingPrice()":"12e85585","init()":"e1c7392a","isApprovedForAll(address,address)":"e985e9c5","mintHorse(address,uint256,string)":"03d0f90a","name()":"06fdde03","owner()":"8da5cb5b","renounceOwnership()":"715018a6","resellToken(uint256,uint256,uint256)":"ea31247a","royaltyInfo(uint256,uint256)":"2a55205a","safeBatchTransferFrom(address,address,uint256[],uint256[],bytes)":"2eb2c2d6","safeTransferFrom(address,address,uint256,uint256,bytes)":"f242432a","setApprovalForAll(address,bool)":"a22cb465","setURI(uint256,string)":"862440e2","supportsInterface(bytes4)":"01ffc9a7","symbol()":"95d89b41","transferOwnership(address)":"f2fde38b","updateListingPrice(uint256)":"ae677aa3","uri(uint256)":"0e89341c"}}}}}