{"contracts/Horses.sol":{"Royalties":{"abi":[{"inputs":[{"internalType":"uint256","name":"tokenId","type":"uint256"},{"internalType":"uint256","name":"value","type":"uint256"}],"name":"royaltyInfo","outputs":[{"internalType":"address","name":"receiver","type":"address"},{"internalType":"uint256","name":"royaltyAmount","type":"uint256"}],"stateMutability":"view","type":"function"},{"inputs":[{"internalType":"bytes4","name":"interfaceId","type":"bytes4"}],"name":"supportsInterface","outputs":[{"internalType":"bool","name":"","type":"bool"}],"stateMutability":"view","type":"function"}],"evm":{"bytecode":{"linkReferences":{},"object":"608060405234801561001057600080fd5b506101f8806100206000396000f3fe608060405234801561001057600080fd5b50600436106100365760003560e01c806301ffc9a71461003b5780632a55205a14610063575b600080fd5b61004e610049366004610128565b610095565b60405190151581526020015b60405180910390f35b610076610071366004610159565b6100cc565b604080516001600160a01b03909316835260208301919091520161005a565b60006001600160e01b0319821663152a902d60e11b14806100c657506301ffc9a760e01b6001600160e01b03198316145b92915050565b6000828152602081815260408083208151808301909252546001600160a01b038116808352600160a01b90910462ffffff16928201839052929161271090610114908661017b565b61011e91906101a0565b9150509250929050565b60006020828403121561013a57600080fd5b81356001600160e01b03198116811461015257600080fd5b9392505050565b6000806040838503121561016c57600080fd5b50508035926020909101359150565b80820281158282048414176100c657634e487b7160e01b600052601160045260246000fd5b6000826101bd57634e487b7160e01b600052601260045260246000fd5b50049056fea264697066735822122004ed76d281a6049b1238c3d9377a3daa0b55a257d3d81fc53a99885dcdec39bb64736f6c63430008110033","opcodes":"PUSH1 0x80 PUSH1 0x40 MSTORE CALLVALUE DUP1 ISZERO PUSH2 0x10 JUMPI PUSH1 0x0 DUP1 REVERT JUMPDEST POP PUSH2 0x1F8 DUP1 PUSH2 0x20 PUSH1 0x0 CODECOPY PUSH1 0x0 RETURN INVALID PUSH1 0x80 PUSH1 0x40 MSTORE CALLVALUE DUP1 ISZERO PUSH2 0x10 JUMPI PUSH1 0x0 DUP1 REVERT JUMPDEST POP PUSH1 0x4 CALLDATASIZE LT PUSH2 0x36 JUMPI PUSH1 0x0 CALLDATALOAD PUSH1 0xE0 SHR DUP1 PUSH4 0x1FFC9A7 EQ PUSH2 0x3B JUMPI DUP1 PUSH4 0x2A55205A EQ PUSH2 0x63 JUMPI JUMPDEST PUSH1 0x0 DUP1 REVERT JUMPDEST PUSH2 0x4E PUSH2 0x49 CALLDATASIZE PUSH1 0x4 PUSH2 0x128 JUMP JUMPDEST PUSH2 0x95 JUMP JUMPDEST PUSH1 0x40 MLOAD SWAP1 ISZERO ISZERO DUP2 MSTORE PUSH1 0x20 ADD JUMPDEST PUSH1 0x40 MLOAD DUP1 SWAP2 SUB SWAP1 RETURN JUMPDEST PUSH2 0x76 PUSH2 0x71 CALLDATASIZE PUSH1 0x4 PUSH2 0x159 JUMP JUMPDEST PUSH2 0xCC JUMP JUMPDEST PUSH1 0x40 DUP1 MLOAD PUSH1 0x1 PUSH1 0x1 PUSH1 0xA0 SHL SUB SWAP1 SWAP4 AND DUP4 MSTORE PUSH1 0x20 DUP4 ADD SWAP2 SWAP1 SWAP2 MSTORE ADD PUSH2 0x5A JUMP JUMPDEST PUSH1 0x0 PUSH1 0x1 PUSH1 0x1 PUSH1 0xE0 SHL SUB NOT DUP3 AND PUSH4 0x152A902D PUSH1 0xE1 SHL EQ DUP1 PUSH2 0xC6 JUMPI POP PUSH4 0x1FFC9A7 PUSH1 0xE0 SHL PUSH1 0x1 PUSH1 0x1 PUSH1 0xE0 SHL SUB NOT DUP4 AND EQ JUMPDEST SWAP3 SWAP2 POP POP JUMP JUMPDEST PUSH1 0x0 DUP3 DUP2 MSTORE PUSH1 0x20 DUP2 DUP2 MSTORE PUSH1 0x40 DUP1 DUP4 KECCAK256 DUP2 MLOAD DUP1 DUP4 ADD SWAP1 SWAP3 MSTORE SLOAD PUSH1 0x1 PUSH1 0x1 PUSH1 0xA0 SHL SUB DUP2 AND DUP1 DUP4 MSTORE PUSH1 0x1 PUSH1 0xA0 SHL SWAP1 SWAP2 DIV PUSH3 0xFFFFFF AND SWAP3 DUP3 ADD DUP4 SWAP1 MSTORE SWAP3 SWAP2 PUSH2 0x2710 SWAP1 PUSH2 0x114 SWAP1 DUP7 PUSH2 0x17B JUMP JUMPDEST PUSH2 0x11E SWAP2 SWAP1 PUSH2 0x1A0 JUMP JUMPDEST SWAP2 POP POP SWAP3 POP SWAP3 SWAP1 POP JUMP JUMPDEST PUSH1 0x0 PUSH1 0x20 DUP3 DUP5 SUB SLT ISZERO PUSH2 0x13A JUMPI PUSH1 0x0 DUP1 REVERT JUMPDEST DUP2 CALLDATALOAD PUSH1 0x1 PUSH1 0x1 PUSH1 0xE0 SHL SUB NOT DUP2 AND DUP2 EQ PUSH2 0x152 JUMPI PUSH1 0x0 DUP1 REVERT JUMPDEST SWAP4 SWAP3 POP POP POP JUMP JUMPDEST PUSH1 0x0 DUP1 PUSH1 0x40 DUP4 DUP6 SUB SLT ISZERO PUSH2 0x16C JUMPI PUSH1 0x0 DUP1 REVERT JUMPDEST POP POP DUP1 CALLDATALOAD SWAP3 PUSH1 0x20 SWAP1 SWAP2 ADD CALLDATALOAD SWAP2 POP JUMP JUMPDEST DUP1 DUP3 MUL DUP2 ISZERO DUP3 DUP3 DIV DUP5 EQ OR PUSH2 0xC6 JUMPI PUSH4 0x4E487B71 PUSH1 0xE0 SHL PUSH1 0x0 MSTORE PUSH1 0x11 PUSH1 0x4 MSTORE PUSH1 0x24 PUSH1 0x0 REVERT JUMPDEST PUSH1 0x0 DUP3 PUSH2 0x1BD JUMPI PUSH4 0x4E487B71 PUSH1 0xE0 SHL PUSH1 0x0 MSTORE PUSH1 0x12 PUSH1 0x4 MSTORE PUSH1 0x24 PUSH1 0x0 REVERT JUMPDEST POP DIV SWAP1 JUMP INVALID LOG2 PUSH5 0x6970667358 0x22 SLT KECCAK256 DIV 0xED PUSH23 0xD281A6049B1238C3D9377A3DAA0B55A257D3D81FC53A99 DUP9 0x5D 0xCD 0xEC CODECOPY 0xBB PUSH5 0x736F6C6343 STOP ADDMOD GT STOP CALLER "},"methodIdentifiers":{"royaltyInfo(uint256,uint256)":"2a55205a","supportsInterface(bytes4)":"01ffc9a7"}}}}}