{"contracts/Horses.sol":{"Horses":{"abi":[{"inputs":[],"stateMutability":"nonpayable","type":"constructor"},{"anonymous":false,"inputs":[{"indexed":true,"internalType":"address","name":"account","type":"address"},{"indexed":true,"internalType":"address","name":"operator","type":"address"},{"indexed":false,"internalType":"bool","name":"approved","type":"bool"}],"name":"ApprovalForAll","type":"event"},{"anonymous":false,"inputs":[{"indexed":true,"internalType":"address","name":"previousOwner","type":"address"},{"indexed":true,"internalType":"address","name":"newOwner","type":"address"}],"name":"OwnershipTransferred","type":"event"},{"anonymous":false,"inputs":[{"indexed":true,"internalType":"address","name":"operator","type":"address"},{"indexed":true,"internalType":"address","name":"from","type":"address"},{"indexed":true,"internalType":"address","name":"to","type":"address"},{"indexed":false,"internalType":"uint256[]","name":"ids","type":"uint256[]"},{"indexed":false,"internalType":"uint256[]","name":"values","type":"uint256[]"}],"name":"TransferBatch","type":"event"},{"anonymous":false,"inputs":[{"indexed":true,"internalType":"address","name":"operator","type":"address"},{"indexed":true,"internalType":"address","name":"from","type":"address"},{"indexed":true,"internalType":"address","name":"to","type":"address"},{"indexed":false,"internalType":"uint256","name":"id","type":"uint256"},{"indexed":false,"internalType":"uint256","name":"value","type":"uint256"}],"name":"TransferSingle","type":"event"},{"anonymous":false,"inputs":[{"indexed":false,"internalType":"string","name":"value","type":"string"},{"indexed":true,"internalType":"uint256","name":"id","type":"uint256"}],"name":"URI","type":"event"},{"inputs":[{"internalType":"address","name":"account","type":"address"},{"internalType":"uint256","name":"id","type":"uint256"}],"name":"balanceOf","outputs":[{"internalType":"uint256","name":"","type":"uint256"}],"stateMutability":"view","type":"function"},{"inputs":[{"internalType":"address[]","name":"accounts","type":"address[]"},{"internalType":"uint256[]","name":"ids","type":"uint256[]"}],"name":"balanceOfBatch","outputs":[{"internalType":"uint256[]","name":"","type":"uint256[]"}],"stateMutability":"view","type":"function"},{"inputs":[{"internalType":"uint256","name":"tokenId","type":"uint256"}],"name":"getHorse","outputs":[{"components":[{"internalType":"uint256","name":"id","type":"uint256"},{"internalType":"string","name":"uri","type":"string"}],"internalType":"struct Horses.Horse","name":"","type":"tuple"}],"stateMutability":"view","type":"function"},{"inputs":[],"name":"getHorses","outputs":[{"components":[{"internalType":"uint256","name":"id","type":"uint256"},{"internalType":"string","name":"uri","type":"string"}],"internalType":"struct Horses.Horse[]","name":"","type":"tuple[]"}],"stateMutability":"view","type":"function"},{"inputs":[],"name":"init","outputs":[],"stateMutability":"nonpayable","type":"function"},{"inputs":[{"internalType":"address","name":"account","type":"address"},{"internalType":"address","name":"operator","type":"address"}],"name":"isApprovedForAll","outputs":[{"internalType":"bool","name":"","type":"bool"}],"stateMutability":"view","type":"function"},{"inputs":[{"internalType":"address","name":"account","type":"address"},{"internalType":"uint256","name":"amount","type":"uint256"},{"internalType":"string","name":"_uri","type":"string"}],"name":"mintHorse","outputs":[{"internalType":"uint256","name":"","type":"uint256"}],"stateMutability":"nonpayable","type":"function"},{"inputs":[],"name":"name","outputs":[{"internalType":"string","name":"","type":"string"}],"stateMutability":"view","type":"function"},{"inputs":[],"name":"owner","outputs":[{"internalType":"address","name":"","type":"address"}],"stateMutability":"view","type":"function"},{"inputs":[],"name":"renounceOwnership","outputs":[],"stateMutability":"nonpayable","type":"function"},{"inputs":[{"internalType":"uint256","name":"tokenId","type":"uint256"},{"internalType":"uint256","name":"value","type":"uint256"}],"name":"royaltyInfo","outputs":[{"internalType":"address","name":"receiver","type":"address"},{"internalType":"uint256","name":"royaltyAmount","type":"uint256"}],"stateMutability":"view","type":"function"},{"inputs":[{"internalType":"address","name":"from","type":"address"},{"internalType":"address","name":"to","type":"address"},{"internalType":"uint256[]","name":"ids","type":"uint256[]"},{"internalType":"uint256[]","name":"amounts","type":"uint256[]"},{"internalType":"bytes","name":"data","type":"bytes"}],"name":"safeBatchTransferFrom","outputs":[],"stateMutability":"nonpayable","type":"function"},{"inputs":[{"internalType":"address","name":"from","type":"address"},{"internalType":"address","name":"to","type":"address"},{"internalType":"uint256","name":"id","type":"uint256"},{"internalType":"uint256","name":"amount","type":"uint256"},{"internalType":"bytes","name":"data","type":"bytes"}],"name":"safeTransferFrom","outputs":[],"stateMutability":"nonpayable","type":"function"},{"inputs":[{"internalType":"address","name":"operator","type":"address"},{"internalType":"bool","name":"approved","type":"bool"}],"name":"setApprovalForAll","outputs":[],"stateMutability":"nonpayable","type":"function"},{"inputs":[{"internalType":"string","name":"newUri","type":"string"},{"internalType":"uint256","name":"tokenId","type":"uint256"}],"name":"setURI","outputs":[],"stateMutability":"nonpayable","type":"function"},{"inputs":[{"internalType":"bytes4","name":"interfaceId","type":"bytes4"}],"name":"supportsInterface","outputs":[{"internalType":"bool","name":"","type":"bool"}],"stateMutability":"view","type":"function"},{"inputs":[],"name":"symbol","outputs":[{"internalType":"string","name":"","type":"string"}],"stateMutability":"view","type":"function"},{"inputs":[{"internalType":"address","name":"newOwner","type":"address"}],"name":"transferOwnership","outputs":[],"stateMutability":"nonpayable","type":"function"},{"inputs":[{"internalType":"uint256","name":"id","type":"uint256"}],"name":"uri","outputs":[{"internalType":"string","name":"","type":"string"}],"stateMutability":"view","type":"function"}],"evm":{"bytecode":{"linkReferences":{},"object":"60e0604052603260808181529062002e4760a03960089062000022908262000895565b5060405180606001604052806035815260200162002e79603591396009906200004c908262000895565b50604080518082019091526005815264173539b7b760d91b6020820152600a9062000078908262000895565b503480156200008657600080fd5b50604080516020810190915260008152620000a1816200011f565b50620000ad3362000131565b60408051808201909152600e81526d416d62617373616427486f72736560901b6020820152600690620000e1908262000895565b50604080518082019091526007808252665a45484f52534560c81b6020830152906200010e908262000895565b506200011962000183565b62000cf5565b60026200012d828262000895565b5050565b600480546001600160a01b038381166001600160a01b0319831681179093556040519116919082907f8be0079c531659141344cd1fd0a4f28419497f9722a3daafe3b4186f6b6457e090600090a35050565b620001ba3360c860086009600a604051602001620001a493929190620009dc565b60408051601f1981840301815291905262000289565b50620001dc33608c60086009600a604051602001620001a49392919062000a15565b50620001fe33609660086009600a604051602001620001a49392919062000a3d565b50620002203360b460086009600a604051602001620001a49392919062000a65565b50620002423360a060086009600a604051602001620001a49392919062000a8d565b50620002643360fa60086009600a604051602001620001a49392919062000ab5565b50620002863360dc60086009600a604051602001620001a49392919062000add565b50565b6000620002956200038b565b620002ac6005620003ed60201b62000b901760201c565b6000620002c56005620003f660201b62000b991760201c565b6040805180820190915281815260208101858152600b8054600181018255600091909152825160029091027f0175b7a638427703f0dbe7bb9bbf987a2551717b34e79f33b5b1008d1fa01db98101918255915193945091927f0175b7a638427703f0dbe7bb9bbf987a2551717b34e79f33b5b1008d1fa01dba909101906200034e908262000895565b5050506200037485828660405180602001604052806000815250620003fa60201b60201c565b6200038381336103e862000518565b949350505050565b6004546001600160a01b03163314620003eb5760405162461bcd60e51b815260206004820181905260248201527f4f776e61626c653a2063616c6c6572206973206e6f7420746865206f776e657260448201526064015b60405180910390fd5b565b80546001019055565b5490565b6001600160a01b0384166200045c5760405162461bcd60e51b815260206004820152602160248201527f455243313135353a206d696e7420746f20746865207a65726f206164647265736044820152607360f81b6064820152608401620003e2565b3360006200046a85620005c3565b905060006200047985620005c3565b90506000868152602081815260408083206001600160a01b038b16845290915281208054879290620004ad90849062000b05565b909155505060408051878152602081018790526001600160a01b03808a1692600092918716917fc3d58168c5ae7397731d063d5bbf3d657854427343f4c083240f7aacaa2d0f62910160405180910390a46200050f8360008989898962000619565b50505050505050565b6127108111156200056c5760405162461bcd60e51b815260206004820152601a60248201527f45524332393831526f79616c746965733a20546f6f20686967680000000000006044820152606401620003e2565b6040805180820182526001600160a01b03938416815262ffffff928316602080830191825260009687526003905291909420935184549151909216600160a01b026001600160b81b03199091169190921617179055565b6040805160018082528183019092526060916000919060208083019080368337019050509050828160008151811062000600576200060062000b2d565b602090810291909101015292915050565b505050505050565b62000638846001600160a01b0316620007e560201b62000b9d1760201c565b15620006115760405163f23a6e6160e01b81526001600160a01b0385169063f23a6e619062000674908990899088908890889060040162000b8b565b6020604051808303816000875af1925050508015620006b2575060408051601f3d908101601f19168201909252620006af9181019062000bd2565b60015b6200077257620006c162000c05565b806308c379a003620007015750620006d862000c51565b80620006e5575062000703565b8060405162461bcd60e51b8152600401620003e2919062000ce0565b505b60405162461bcd60e51b815260206004820152603460248201527f455243313135353a207472616e7366657220746f206e6f6e2d4552433131353560448201527f526563656976657220696d706c656d656e7465720000000000000000000000006064820152608401620003e2565b6001600160e01b0319811663f23a6e6160e01b146200050f5760405162461bcd60e51b815260206004820152602860248201527f455243313135353a204552433131353552656365697665722072656a656374656044820152676420746f6b656e7360c01b6064820152608401620003e2565b6001600160a01b03163b151590565b634e487b7160e01b600052604160045260246000fd5b600181811c908216806200081f57607f821691505b6020821081036200084057634e487b7160e01b600052602260045260246000fd5b50919050565b601f8211156200089057600081815260208120601f850160051c810160208610156200086f5750805b601f850160051c820191505b8181101562000611578281556001016200087b565b505050565b81516001600160401b03811115620008b157620008b1620007f4565b620008c981620008c284546200080a565b8462000846565b602080601f831160018114620009015760008415620008e85750858301515b600019600386901b1c1916600185901b17855562000611565b600085815260208120601f198616915b82811015620009325788860151825594840194600190910190840162000911565b5085821015620009515787850151600019600388901b60f8161c191681555b5050505050600190811b01905550565b6000815462000970816200080a565b600182811680156200098b5760018114620009a157620009d2565b60ff1984168752821515830287019450620009d2565b8560005260208060002060005b85811015620009c95781548a820152908401908201620009ae565b50505082870194505b5050505092915050565b6000620009f5620009ee838762000961565b8562000961565b603160f81b815262000a0b600182018562000961565b9695505050505050565b600062000a27620009ee838762000961565b601960f91b815262000a0b600182018562000961565b600062000a4f620009ee838762000961565b603360f81b815262000a0b600182018562000961565b600062000a77620009ee838762000961565b600d60fa1b815262000a0b600182018562000961565b600062000a9f620009ee838762000961565b603560f81b815262000a0b600182018562000961565b600062000ac7620009ee838762000961565b601b60f91b815262000a0b600182018562000961565b600062000aef620009ee838762000961565b603760f81b815262000a0b600182018562000961565b8082018082111562000b2757634e487b7160e01b600052601160045260246000fd5b92915050565b634e487b7160e01b600052603260045260246000fd5b6000815180845260005b8181101562000b6b5760208185018101518683018201520162000b4d565b506000602082860101526020601f19601f83011685010191505092915050565b6001600160a01b03868116825285166020820152604081018490526060810183905260a06080820181905260009062000bc79083018462000b43565b979650505050505050565b60006020828403121562000be557600080fd5b81516001600160e01b03198116811462000bfe57600080fd5b9392505050565b600060033d111562000c1f5760046000803e5060005160e01c5b90565b601f8201601f191681016001600160401b038111828210171562000c4a5762000c4a620007f4565b6040525050565b600060443d101562000c605790565b6040516003193d81016004833e81513d6001600160401b03808311602484018310171562000c9057505050505090565b828501915081518181111562000ca95750505050505090565b843d870101602082850101111562000cc45750505050505090565b62000cd56020828601018762000c22565b509095945050505050565b60208152600062000bfe602083018462000b43565b6121428062000d056000396000f3fe608060405234801561001057600080fd5b50600436106101205760003560e01c806367db3b8f116100ad578063a22cb46511610071578063a22cb46514610283578063e1c7392a14610296578063e985e9c51461029e578063f242432a146102da578063f2fde38b146102ed57600080fd5b806367db3b8f14610230578063715018a6146102435780638da5cb5b1461024b57806390adec6f1461026657806395d89b411461027b57600080fd5b80630e89341c116100f45780630e89341c146101965780632a55205a146101a95780632eb2c2d6146101db5780634e1273f4146101f05780634f57641c1461021057600080fd5b8062fdd58e1461012557806301ffc9a71461014b57806303d0f90a1461016e57806306fdde0314610181575b600080fd5b6101386101333660046114ee565b610300565b6040519081526020015b60405180910390f35b61015e61015936600461152e565b610399565b6040519015158152602001610142565b61013861017c366004611609565b6103a4565b610189610481565b60405161014291906116a6565b6101896101a43660046116b9565b61050f565b6101bc6101b73660046116d2565b6105c5565b604080516001600160a01b039093168352602083019190915201610142565b6101ee6101e9366004611789565b610623565b005b6102036101fe366004611833565b61066f565b604051610142919061192f565b61022361021e3660046116b9565b610799565b6040516101429190611961565b6101ee61023e366004611974565b61087d565b6101ee6108bb565b6004546040516001600160a01b039091168152602001610142565b61026e6108cf565b60405161014291906119b9565b6101896109ca565b6101ee610291366004611a1b565b6109d7565b6101ee6109e6565b61015e6102ac366004611a57565b6001600160a01b03918216600090815260016020908152604080832093909416825291909152205460ff1690565b6101ee6102e8366004611a8a565b610ad5565b6101ee6102fb366004611aef565b610b1a565b60006001600160a01b0383166103705760405162461bcd60e51b815260206004820152602a60248201527f455243313135353a2061646472657373207a65726f206973206e6f742061207660448201526930b634b21037bbb732b960b11b60648201526084015b60405180910390fd5b506000818152602081815260408083206001600160a01b03861684529091529020545b92915050565b600061039382610bac565b60006103ae610bd1565b6103bc600580546001019055565b60006103c760055490565b6040805180820190915281815260208101858152600b8054600181018255600091909152825160029091027f0175b7a638427703f0dbe7bb9bbf987a2551717b34e79f33b5b1008d1fa01db98101918255915193945091927f0175b7a638427703f0dbe7bb9bbf987a2551717b34e79f33b5b1008d1fa01dba9091019061044e9082611b8a565b50505061046c85828660405180602001604052806000815250610c2b565b61047981336103e8610d3f565b949350505050565b6006805461048e90611b0a565b80601f01602080910402602001604051908101604052809291908181526020018280546104ba90611b0a565b80156105075780601f106104dc57610100808354040283529160200191610507565b820191906000526020600020905b8154815290600101906020018083116104ea57829003601f168201915b505050505081565b6060600b828154811061052457610524611c4a565b9060005260206000209060020201600101805461054090611b0a565b80601f016020809104026020016040519081016040528092919081815260200182805461056c90611b0a565b80156105b95780601f1061058e576101008083540402835291602001916105b9565b820191906000526020600020905b81548152906001019060200180831161059c57829003601f168201915b50505050509050919050565b60008281526003602090815260408083208151808301909252546001600160a01b038116808352600160a01b90910462ffffff1692820183905292916127109061060f9086611c76565b6106199190611c8d565b9150509250929050565b6001600160a01b03851633148061063f575061063f85336102ac565b61065b5760405162461bcd60e51b815260040161036790611caf565b6106688585858585610de8565b5050505050565b606081518351146106d45760405162461bcd60e51b815260206004820152602960248201527f455243313135353a206163636f756e747320616e6420696473206c656e677468604482015268040dad2e6dac2e8c6d60bb1b6064820152608401610367565b6000835167ffffffffffffffff8111156106f0576106f0611552565b604051908082528060200260200182016040528015610719578160200160208202803683370190505b50905060005b84518110156107915761076485828151811061073d5761073d611c4a565b602002602001015185838151811061075757610757611c4a565b6020026020010151610300565b82828151811061077657610776611c4a565b602090810291909101015261078a81611cfd565b905061071f565b509392505050565b604080518082019091526000815260606020820152600b82815481106107c1576107c1611c4a565b9060005260206000209060020201604051806040016040529081600082015481526020016001820180546107f490611b0a565b80601f016020809104026020016040519081016040528092919081815260200182805461082090611b0a565b801561086d5780601f106108425761010080835404028352916020019161086d565b820191906000526020600020905b81548152906001019060200180831161085057829003601f168201915b5050505050815250509050919050565b610885610bd1565b81600b828154811061089957610899611c4a565b906000526020600020906002020160010190816108b69190611b8a565b505050565b6108c3610bd1565b6108cd6000610fc5565b565b6060600b805480602002602001604051908101604052809291908181526020016000905b828210156109c157838290600052602060002090600202016040518060400160405290816000820154815260200160018201805461093090611b0a565b80601f016020809104026020016040519081016040528092919081815260200182805461095c90611b0a565b80156109a95780601f1061097e576101008083540402835291602001916109a9565b820191906000526020600020905b81548152906001019060200180831161098c57829003601f168201915b505050505081525050815260200190600101906108f3565b50505050905090565b6007805461048e90611b0a565b6109e2338383611017565b5050565b610a183360c860086009600a604051602001610a0493929190611d89565b6040516020818303038152906040526103a4565b50610a3733608c60086009600a604051602001610a0493929190611dbc565b50610a5633609660086009600a604051602001610a0493929190611ddf565b50610a753360b460086009600a604051602001610a0493929190611e02565b50610a943360a060086009600a604051602001610a0493929190611e25565b50610ab33360fa60086009600a604051602001610a0493929190611e48565b50610ad23360dc60086009600a604051602001610a0493929190611e6b565b50565b6001600160a01b038516331480610af15750610af185336102ac565b610b0d5760405162461bcd60e51b815260040161036790611caf565b61066885858585856110f7565b610b22610bd1565b6001600160a01b038116610b875760405162461bcd60e51b815260206004820152602660248201527f4f776e61626c653a206e6577206f776e657220697320746865207a65726f206160448201526564647265737360d01b6064820152608401610367565b610ad281610fc5565b80546001019055565b5490565b6001600160a01b03163b151590565b60006001600160e01b0319821663152a902d60e11b1480610393575061039382611221565b6004546001600160a01b031633146108cd5760405162461bcd60e51b815260206004820181905260248201527f4f776e61626c653a2063616c6c6572206973206e6f7420746865206f776e65726044820152606401610367565b6001600160a01b038416610c8b5760405162461bcd60e51b815260206004820152602160248201527f455243313135353a206d696e7420746f20746865207a65726f206164647265736044820152607360f81b6064820152608401610367565b336000610c9785611271565b90506000610ca485611271565b90506000868152602081815260408083206001600160a01b038b16845290915281208054879290610cd6908490611e8e565b909155505060408051878152602081018790526001600160a01b03808a1692600092918716917fc3d58168c5ae7397731d063d5bbf3d657854427343f4c083240f7aacaa2d0f62910160405180910390a4610d36836000898989896112bc565b50505050505050565b612710811115610d915760405162461bcd60e51b815260206004820152601a60248201527f45524332393831526f79616c746965733a20546f6f20686967680000000000006044820152606401610367565b6040805180820182526001600160a01b03938416815262ffffff928316602080830191825260009687526003905291909420935184549151909216600160a01b026001600160b81b03199091169190921617179055565b8151835114610e4a5760405162461bcd60e51b815260206004820152602860248201527f455243313135353a2069647320616e6420616d6f756e7473206c656e677468206044820152670dad2e6dac2e8c6d60c31b6064820152608401610367565b6001600160a01b038416610e705760405162461bcd60e51b815260040161036790611ea1565b3360005b8451811015610f57576000858281518110610e9157610e91611c4a565b602002602001015190506000858381518110610eaf57610eaf611c4a565b602090810291909101810151600084815280835260408082206001600160a01b038e168352909352919091205490915081811015610eff5760405162461bcd60e51b815260040161036790611ee6565b6000838152602081815260408083206001600160a01b038e8116855292528083208585039055908b16825281208054849290610f3c908490611e8e565b9250508190555050505080610f5090611cfd565b9050610e74565b50846001600160a01b0316866001600160a01b0316826001600160a01b03167f4a39dc06d4c0dbc64b70af90fd698a233a518aa5d07e595d983b8c0526c8f7fb8787604051610fa7929190611f30565b60405180910390a4610fbd818787878787611417565b505050505050565b600480546001600160a01b038381166001600160a01b0319831681179093556040519116919082907f8be0079c531659141344cd1fd0a4f28419497f9722a3daafe3b4186f6b6457e090600090a35050565b816001600160a01b0316836001600160a01b03160361108a5760405162461bcd60e51b815260206004820152602960248201527f455243313135353a2073657474696e6720617070726f76616c20737461747573604482015268103337b91039b2b63360b91b6064820152608401610367565b6001600160a01b03838116600081815260016020908152604080832094871680845294825291829020805460ff191686151590811790915591519182527f17307eab39ab6107e8899845ad3d59bd9653f200f220920489ca2b5937696c31910160405180910390a3505050565b6001600160a01b03841661111d5760405162461bcd60e51b815260040161036790611ea1565b33600061112985611271565b9050600061113685611271565b90506000868152602081815260408083206001600160a01b038c168452909152902054858110156111795760405162461bcd60e51b815260040161036790611ee6565b6000878152602081815260408083206001600160a01b038d8116855292528083208985039055908a168252812080548892906111b6908490611e8e565b909155505060408051888152602081018890526001600160a01b03808b16928c821692918816917fc3d58168c5ae7397731d063d5bbf3d657854427343f4c083240f7aacaa2d0f62910160405180910390a4611216848a8a8a8a8a6112bc565b505050505050505050565b60006001600160e01b03198216636cdb3d1360e11b148061125257506001600160e01b031982166303a24d0760e21b145b8061039357506301ffc9a760e01b6001600160e01b0319831614610393565b604080516001808252818301909252606091600091906020808301908036833701905050905082816000815181106112ab576112ab611c4a565b602090810291909101015292915050565b6001600160a01b0384163b15610fbd5760405163f23a6e6160e01b81526001600160a01b0385169063f23a6e61906113009089908990889088908890600401611f5e565b6020604051808303816000875af192505050801561133b575060408051601f3d908101601f1916820190925261133891810190611fa3565b60015b6113e757611347611fc0565b806308c379a003611380575061135b611fdc565b806113665750611382565b8060405162461bcd60e51b815260040161036791906116a6565b505b60405162461bcd60e51b815260206004820152603460248201527f455243313135353a207472616e7366657220746f206e6f6e2d455243313135356044820152732932b1b2b4bb32b91034b6b83632b6b2b73a32b960611b6064820152608401610367565b6001600160e01b0319811663f23a6e6160e01b14610d365760405162461bcd60e51b815260040161036790612066565b6001600160a01b0384163b15610fbd5760405163bc197c8160e01b81526001600160a01b0385169063bc197c819061145b90899089908890889088906004016120ae565b6020604051808303816000875af1925050508015611496575060408051601f3d908101601f1916820190925261149391810190611fa3565b60015b6114a257611347611fc0565b6001600160e01b0319811663bc197c8160e01b14610d365760405162461bcd60e51b815260040161036790612066565b80356001600160a01b03811681146114e957600080fd5b919050565b6000806040838503121561150157600080fd5b61150a836114d2565b946020939093013593505050565b6001600160e01b031981168114610ad257600080fd5b60006020828403121561154057600080fd5b813561154b81611518565b9392505050565b634e487b7160e01b600052604160045260246000fd5b601f8201601f1916810167ffffffffffffffff8111828210171561158e5761158e611552565b6040525050565b600082601f8301126115a657600080fd5b813567ffffffffffffffff8111156115c0576115c0611552565b6040516115d7601f8301601f191660200182611568565b8181528460208386010111156115ec57600080fd5b816020850160208301376000918101602001919091529392505050565b60008060006060848603121561161e57600080fd5b611627846114d2565b925060208401359150604084013567ffffffffffffffff81111561164a57600080fd5b61165686828701611595565b9150509250925092565b6000815180845260005b818110156116865760208185018101518683018201520161166a565b506000602082860101526020601f19601f83011685010191505092915050565b60208152600061154b6020830184611660565b6000602082840312156116cb57600080fd5b5035919050565b600080604083850312156116e557600080fd5b50508035926020909101359150565b600067ffffffffffffffff82111561170e5761170e611552565b5060051b60200190565b600082601f83011261172957600080fd5b81356020611736826116f4565b6040516117438282611568565b83815260059390931b850182019282810191508684111561176357600080fd5b8286015b8481101561177e5780358352918301918301611767565b509695505050505050565b600080600080600060a086880312156117a157600080fd5b6117aa866114d2565b94506117b8602087016114d2565b9350604086013567ffffffffffffffff808211156117d557600080fd5b6117e189838a01611718565b945060608801359150808211156117f757600080fd5b61180389838a01611718565b9350608088013591508082111561181957600080fd5b5061182688828901611595565b9150509295509295909350565b6000806040838503121561184657600080fd5b823567ffffffffffffffff8082111561185e57600080fd5b818501915085601f83011261187257600080fd5b8135602061187f826116f4565b60405161188c8282611568565b83815260059390931b85018201928281019150898411156118ac57600080fd5b948201945b838610156118d1576118c2866114d2565b825294820194908201906118b1565b965050860135925050808211156118e757600080fd5b5061061985828601611718565b600081518084526020808501945080840160005b8381101561192457815187529582019590820190600101611908565b509495945050505050565b60208152600061154b60208301846118f4565b8051825260006020820151604060208501526104796040850182611660565b60208152600061154b6020830184611942565b6000806040838503121561198757600080fd5b823567ffffffffffffffff81111561199e57600080fd5b6119aa85828601611595565b95602094909401359450505050565b6000602080830181845280855180835260408601915060408160051b870101925083870160005b82811015611a0e57603f198886030184526119fc858351611942565b945092850192908501906001016119e0565b5092979650505050505050565b60008060408385031215611a2e57600080fd5b611a37836114d2565b915060208301358015158114611a4c57600080fd5b809150509250929050565b60008060408385031215611a6a57600080fd5b611a73836114d2565b9150611a81602084016114d2565b90509250929050565b600080600080600060a08688031215611aa257600080fd5b611aab866114d2565b9450611ab9602087016114d2565b93506040860135925060608601359150608086013567ffffffffffffffff811115611ae357600080fd5b61182688828901611595565b600060208284031215611b0157600080fd5b61154b826114d2565b600181811c90821680611b1e57607f821691505b602082108103611b3e57634e487b7160e01b600052602260045260246000fd5b50919050565b601f8211156108b657600081815260208120601f850160051c81016020861015611b6b5750805b601f850160051c820191505b81811015610fbd57828155600101611b77565b815167ffffffffffffffff811115611ba457611ba4611552565b611bb881611bb28454611b0a565b84611b44565b602080601f831160018114611bed5760008415611bd55750858301515b600019600386901b1c1916600185901b178555610fbd565b600085815260208120601f198616915b82811015611c1c57888601518255948401946001909101908401611bfd565b5085821015611c3a5787850151600019600388901b60f8161c191681555b5050505050600190811b01905550565b634e487b7160e01b600052603260045260246000fd5b634e487b7160e01b600052601160045260246000fd5b808202811582820484141761039357610393611c60565b600082611caa57634e487b7160e01b600052601260045260246000fd5b500490565b6020808252602e908201527f455243313135353a2063616c6c6572206973206e6f7420746f6b656e206f776e60408201526d195c881bdc88185c1c1c9bdd995960921b606082015260800190565b600060018201611d0f57611d0f611c60565b5060010190565b60008154611d2381611b0a565b60018281168015611d3b5760018114611d5057611d7f565b60ff1984168752821515830287019450611d7f565b8560005260208060002060005b85811015611d765781548a820152908401908201611d5d565b50505082870194505b5050505092915050565b6000611d9e611d988387611d16565b85611d16565b603160f81b8152611db26001820185611d16565b9695505050505050565b6000611dcb611d988387611d16565b601960f91b8152611db26001820185611d16565b6000611dee611d988387611d16565b603360f81b8152611db26001820185611d16565b6000611e11611d988387611d16565b600d60fa1b8152611db26001820185611d16565b6000611e34611d988387611d16565b603560f81b8152611db26001820185611d16565b6000611e57611d988387611d16565b601b60f91b8152611db26001820185611d16565b6000611e7a611d988387611d16565b603760f81b8152611db26001820185611d16565b8082018082111561039357610393611c60565b60208082526025908201527f455243313135353a207472616e7366657220746f20746865207a65726f206164604082015264647265737360d81b606082015260800190565b6020808252602a908201527f455243313135353a20696e73756666696369656e742062616c616e636520666f60408201526939103a3930b739b332b960b11b606082015260800190565b604081526000611f4360408301856118f4565b8281036020840152611f5581856118f4565b95945050505050565b6001600160a01b03868116825285166020820152604081018490526060810183905260a060808201819052600090611f9890830184611660565b979650505050505050565b600060208284031215611fb557600080fd5b815161154b81611518565b600060033d1115611fd95760046000803e5060005160e01c5b90565b600060443d1015611fea5790565b6040516003193d81016004833e81513d67ffffffffffffffff816024840111818411171561201a57505050505090565b82850191508151818111156120325750505050505090565b843d870101602082850101111561204c5750505050505090565b61205b60208286010187611568565b509095945050505050565b60208082526028908201527f455243313135353a204552433131353552656365697665722072656a656374656040820152676420746f6b656e7360c01b606082015260800190565b6001600160a01b0386811682528516602082015260a0604082018190526000906120da908301866118f4565b82810360608401526120ec81866118f4565b905082810360808401526121008185611660565b9897505050505050505056fea2646970667358221220b53e1fabfba131c328181c8fc2c261e443f944c52d1ea174feef1de4d878ea1964736f6c6343000811003368747470733a2f2f677261792d6f63636173696f6e616c2d66697265666c792d3639332e6d7970696e6174612e636c6f75642f697066732f516d504b4c72714c4851517a466e58546437474b35455773716b35614878646f4269396e364a6e647832537436742f","opcodes":"PUSH1 0xE0 PUSH1 0x40 MSTORE PUSH1 0x32 PUSH1 0x80 DUP2 DUP2 MSTORE SWAP1 PUSH3 0x2E47 PUSH1 0xA0 CODECOPY PUSH1 0x8 SWAP1 PUSH3 0x22 SWAP1 DUP3 PUSH3 0x895 JUMP JUMPDEST POP PUSH1 0x40 MLOAD DUP1 PUSH1 0x60 ADD PUSH1 0x40 MSTORE DUP1 PUSH1 0x35 DUP2 MSTORE PUSH1 0x20 ADD PUSH3 0x2E79 PUSH1 0x35 SWAP2 CODECOPY PUSH1 0x9 SWAP1 PUSH3 0x4C SWAP1 DUP3 PUSH3 0x895 JUMP JUMPDEST POP PUSH1 0x40 DUP1 MLOAD DUP1 DUP3 ADD SWAP1 SWAP2 MSTORE PUSH1 0x5 DUP2 MSTORE PUSH5 0x173539B7B7 PUSH1 0xD9 SHL PUSH1 0x20 DUP3 ADD MSTORE PUSH1 0xA SWAP1 PUSH3 0x78 SWAP1 DUP3 PUSH3 0x895 JUMP JUMPDEST POP CALLVALUE DUP1 ISZERO PUSH3 0x86 JUMPI PUSH1 0x0 DUP1 REVERT JUMPDEST POP PUSH1 0x40 DUP1 MLOAD PUSH1 0x20 DUP2 ADD SWAP1 SWAP2 MSTORE PUSH1 0x0 DUP2 MSTORE PUSH3 0xA1 DUP2 PUSH3 0x11F JUMP JUMPDEST POP PUSH3 0xAD CALLER PUSH3 0x131 JUMP JUMPDEST PUSH1 0x40 DUP1 MLOAD DUP1 DUP3 ADD SWAP1 SWAP2 MSTORE PUSH1 0xE DUP2 MSTORE PUSH14 0x416D62617373616427486F727365 PUSH1 0x90 SHL PUSH1 0x20 DUP3 ADD MSTORE PUSH1 0x6 SWAP1 PUSH3 0xE1 SWAP1 DUP3 PUSH3 0x895 JUMP JUMPDEST POP PUSH1 0x40 DUP1 MLOAD DUP1 DUP3 ADD SWAP1 SWAP2 MSTORE PUSH1 0x7 DUP1 DUP3 MSTORE PUSH7 0x5A45484F525345 PUSH1 0xC8 SHL PUSH1 0x20 DUP4 ADD MSTORE SWAP1 PUSH3 0x10E SWAP1 DUP3 PUSH3 0x895 JUMP JUMPDEST POP PUSH3 0x119 PUSH3 0x183 JUMP JUMPDEST PUSH3 0xCF5 JUMP JUMPDEST PUSH1 0x2 PUSH3 0x12D DUP3 DUP3 PUSH3 0x895 JUMP JUMPDEST POP POP JUMP JUMPDEST PUSH1 0x4 DUP1 SLOAD PUSH1 0x1 PUSH1 0x1 PUSH1 0xA0 SHL SUB DUP4 DUP2 AND PUSH1 0x1 PUSH1 0x1 PUSH1 0xA0 SHL SUB NOT DUP4 AND DUP2 OR SWAP1 SWAP4 SSTORE PUSH1 0x40 MLOAD SWAP2 AND SWAP2 SWAP1 DUP3 SWAP1 PUSH32 0x8BE0079C531659141344CD1FD0A4F28419497F9722A3DAAFE3B4186F6B6457E0 SWAP1 PUSH1 0x0 SWAP1 LOG3 POP POP JUMP JUMPDEST PUSH3 0x1BA CALLER PUSH1 0xC8 PUSH1 0x8 PUSH1 0x9 PUSH1 0xA PUSH1 0x40 MLOAD PUSH1 0x20 ADD PUSH3 0x1A4 SWAP4 SWAP3 SWAP2 SWAP1 PUSH3 0x9DC JUMP JUMPDEST PUSH1 0x40 DUP1 MLOAD PUSH1 0x1F NOT DUP2 DUP5 SUB ADD DUP2 MSTORE SWAP2 SWAP1 MSTORE PUSH3 0x289 JUMP JUMPDEST POP PUSH3 0x1DC CALLER PUSH1 0x8C PUSH1 0x8 PUSH1 0x9 PUSH1 0xA PUSH1 0x40 MLOAD PUSH1 0x20 ADD PUSH3 0x1A4 SWAP4 SWAP3 SWAP2 SWAP1 PUSH3 0xA15 JUMP JUMPDEST POP PUSH3 0x1FE CALLER PUSH1 0x96 PUSH1 0x8 PUSH1 0x9 PUSH1 0xA PUSH1 0x40 MLOAD PUSH1 0x20 ADD PUSH3 0x1A4 SWAP4 SWAP3 SWAP2 SWAP1 PUSH3 0xA3D JUMP JUMPDEST POP PUSH3 0x220 CALLER PUSH1 0xB4 PUSH1 0x8 PUSH1 0x9 PUSH1 0xA PUSH1 0x40 MLOAD PUSH1 0x20 ADD PUSH3 0x1A4 SWAP4 SWAP3 SWAP2 SWAP1 PUSH3 0xA65 JUMP JUMPDEST POP PUSH3 0x242 CALLER PUSH1 0xA0 PUSH1 0x8 PUSH1 0x9 PUSH1 0xA PUSH1 0x40 MLOAD PUSH1 0x20 ADD PUSH3 0x1A4 SWAP4 SWAP3 SWAP2 SWAP1 PUSH3 0xA8D JUMP JUMPDEST POP PUSH3 0x264 CALLER PUSH1 0xFA PUSH1 0x8 PUSH1 0x9 PUSH1 0xA PUSH1 0x40 MLOAD PUSH1 0x20 ADD PUSH3 0x1A4 SWAP4 SWAP3 SWAP2 SWAP1 PUSH3 0xAB5 JUMP JUMPDEST POP PUSH3 0x286 CALLER PUSH1 0xDC PUSH1 0x8 PUSH1 0x9 PUSH1 0xA PUSH1 0x40 MLOAD PUSH1 0x20 ADD PUSH3 0x1A4 SWAP4 SWAP3 SWAP2 SWAP1 PUSH3 0xADD JUMP JUMPDEST POP JUMP JUMPDEST PUSH1 0x0 PUSH3 0x295 PUSH3 0x38B JUMP JUMPDEST PUSH3 0x2AC PUSH1 0x5 PUSH3 0x3ED PUSH1 0x20 SHL PUSH3 0xB90 OR PUSH1 0x20 SHR JUMP JUMPDEST PUSH1 0x0 PUSH3 0x2C5 PUSH1 0x5 PUSH3 0x3F6 PUSH1 0x20 SHL PUSH3 0xB99 OR PUSH1 0x20 SHR JUMP JUMPDEST PUSH1 0x40 DUP1 MLOAD DUP1 DUP3 ADD SWAP1 SWAP2 MSTORE DUP2 DUP2 MSTORE PUSH1 0x20 DUP2 ADD DUP6 DUP2 MSTORE PUSH1 0xB DUP1 SLOAD PUSH1 0x1 DUP2 ADD DUP3 SSTORE PUSH1 0x0 SWAP2 SWAP1 SWAP2 MSTORE DUP3 MLOAD PUSH1 0x2 SWAP1 SWAP2 MUL PUSH32 0x175B7A638427703F0DBE7BB9BBF987A2551717B34E79F33B5B1008D1FA01DB9 DUP2 ADD SWAP2 DUP3 SSTORE SWAP2 MLOAD SWAP4 SWAP5 POP SWAP2 SWAP3 PUSH32 0x175B7A638427703F0DBE7BB9BBF987A2551717B34E79F33B5B1008D1FA01DBA SWAP1 SWAP2 ADD SWAP1 PUSH3 0x34E SWAP1 DUP3 PUSH3 0x895 JUMP JUMPDEST POP POP POP PUSH3 0x374 DUP6 DUP3 DUP7 PUSH1 0x40 MLOAD DUP1 PUSH1 0x20 ADD PUSH1 0x40 MSTORE DUP1 PUSH1 0x0 DUP2 MSTORE POP PUSH3 0x3FA PUSH1 0x20 SHL PUSH1 0x20 SHR JUMP JUMPDEST PUSH3 0x383 DUP2 CALLER PUSH2 0x3E8 PUSH3 0x518 JUMP JUMPDEST SWAP5 SWAP4 POP POP POP POP JUMP JUMPDEST PUSH1 0x4 SLOAD PUSH1 0x1 PUSH1 0x1 PUSH1 0xA0 SHL SUB AND CALLER EQ PUSH3 0x3EB JUMPI PUSH1 0x40 MLOAD PUSH3 0x461BCD PUSH1 0xE5 SHL DUP2 MSTORE PUSH1 0x20 PUSH1 0x4 DUP3 ADD DUP2 SWAP1 MSTORE PUSH1 0x24 DUP3 ADD MSTORE PUSH32 0x4F776E61626C653A2063616C6C6572206973206E6F7420746865206F776E6572 PUSH1 0x44 DUP3 ADD MSTORE PUSH1 0x64 ADD JUMPDEST PUSH1 0x40 MLOAD DUP1 SWAP2 SUB SWAP1 REVERT JUMPDEST JUMP JUMPDEST DUP1 SLOAD PUSH1 0x1 ADD SWAP1 SSTORE JUMP JUMPDEST SLOAD SWAP1 JUMP JUMPDEST PUSH1 0x1 PUSH1 0x1 PUSH1 0xA0 SHL SUB DUP5 AND PUSH3 0x45C JUMPI PUSH1 0x40 MLOAD PUSH3 0x461BCD PUSH1 0xE5 SHL DUP2 MSTORE PUSH1 0x20 PUSH1 0x4 DUP3 ADD MSTORE PUSH1 0x21 PUSH1 0x24 DUP3 ADD MSTORE PUSH32 0x455243313135353A206D696E7420746F20746865207A65726F20616464726573 PUSH1 0x44 DUP3 ADD MSTORE PUSH1 0x73 PUSH1 0xF8 SHL PUSH1 0x64 DUP3 ADD MSTORE PUSH1 0x84 ADD PUSH3 0x3E2 JUMP JUMPDEST CALLER PUSH1 0x0 PUSH3 0x46A DUP6 PUSH3 0x5C3 JUMP JUMPDEST SWAP1 POP PUSH1 0x0 PUSH3 0x479 DUP6 PUSH3 0x5C3 JUMP JUMPDEST SWAP1 POP PUSH1 0x0 DUP7 DUP2 MSTORE PUSH1 0x20 DUP2 DUP2 MSTORE PUSH1 0x40 DUP1 DUP4 KECCAK256 PUSH1 0x1 PUSH1 0x1 PUSH1 0xA0 SHL SUB DUP12 AND DUP5 MSTORE SWAP1 SWAP2 MSTORE DUP2 KECCAK256 DUP1 SLOAD DUP8 SWAP3 SWAP1 PUSH3 0x4AD SWAP1 DUP5 SWAP1 PUSH3 0xB05 JUMP JUMPDEST SWAP1 SWAP2 SSTORE POP POP PUSH1 0x40 DUP1 MLOAD DUP8 DUP2 MSTORE PUSH1 0x20 DUP2 ADD DUP8 SWAP1 MSTORE PUSH1 0x1 PUSH1 0x1 PUSH1 0xA0 SHL SUB DUP1 DUP11 AND SWAP3 PUSH1 0x0 SWAP3 SWAP2 DUP8 AND SWAP2 PUSH32 0xC3D58168C5AE7397731D063D5BBF3D657854427343F4C083240F7AACAA2D0F62 SWAP2 ADD PUSH1 0x40 MLOAD DUP1 SWAP2 SUB SWAP1 LOG4 PUSH3 0x50F DUP4 PUSH1 0x0 DUP10 DUP10 DUP10 DUP10 PUSH3 0x619 JUMP JUMPDEST POP POP POP POP POP POP POP JUMP JUMPDEST PUSH2 0x2710 DUP2 GT ISZERO PUSH3 0x56C JUMPI PUSH1 0x40 MLOAD PUSH3 0x461BCD PUSH1 0xE5 SHL DUP2 MSTORE PUSH1 0x20 PUSH1 0x4 DUP3 ADD MSTORE PUSH1 0x1A PUSH1 0x24 DUP3 ADD MSTORE PUSH32 0x45524332393831526F79616C746965733A20546F6F2068696768000000000000 PUSH1 0x44 DUP3 ADD MSTORE PUSH1 0x64 ADD PUSH3 0x3E2 JUMP JUMPDEST PUSH1 0x40 DUP1 MLOAD DUP1 DUP3 ADD DUP3 MSTORE PUSH1 0x1 PUSH1 0x1 PUSH1 0xA0 SHL SUB SWAP4 DUP5 AND DUP2 MSTORE PUSH3 0xFFFFFF SWAP3 DUP4 AND PUSH1 0x20 DUP1 DUP4 ADD SWAP2 DUP3 MSTORE PUSH1 0x0 SWAP7 DUP8 MSTORE PUSH1 0x3 SWAP1 MSTORE SWAP2 SWAP1 SWAP5 KECCAK256 SWAP4 MLOAD DUP5 SLOAD SWAP2 MLOAD SWAP1 SWAP3 AND PUSH1 0x1 PUSH1 0xA0 SHL MUL PUSH1 0x1 PUSH1 0x1 PUSH1 0xB8 SHL SUB NOT SWAP1 SWAP2 AND SWAP2 SWAP1 SWAP3 AND OR OR SWAP1 SSTORE JUMP JUMPDEST PUSH1 0x40 DUP1 MLOAD PUSH1 0x1 DUP1 DUP3 MSTORE DUP2 DUP4 ADD SWAP1 SWAP3 MSTORE PUSH1 0x60 SWAP2 PUSH1 0x0 SWAP2 SWAP1 PUSH1 0x20 DUP1 DUP4 ADD SWAP1 DUP1 CALLDATASIZE DUP4 CALLDATACOPY ADD SWAP1 POP POP SWAP1 POP DUP3 DUP2 PUSH1 0x0 DUP2 MLOAD DUP2 LT PUSH3 0x600 JUMPI PUSH3 0x600 PUSH3 0xB2D JUMP JUMPDEST PUSH1 0x20 SWAP1 DUP2 MUL SWAP2 SWAP1 SWAP2 ADD ADD MSTORE SWAP3 SWAP2 POP POP JUMP JUMPDEST POP POP POP POP POP POP JUMP JUMPDEST PUSH3 0x638 DUP5 PUSH1 0x1 PUSH1 0x1 PUSH1 0xA0 SHL SUB AND PUSH3 0x7E5 PUSH1 0x20 SHL PUSH3 0xB9D OR PUSH1 0x20 SHR JUMP JUMPDEST ISZERO PUSH3 0x611 JUMPI PUSH1 0x40 MLOAD PUSH4 0xF23A6E61 PUSH1 0xE0 SHL DUP2 MSTORE PUSH1 0x1 PUSH1 0x1 PUSH1 0xA0 SHL SUB DUP6 AND SWAP1 PUSH4 0xF23A6E61 SWAP1 PUSH3 0x674 SWAP1 DUP10 SWAP1 DUP10 SWAP1 DUP9 SWAP1 DUP9 SWAP1 DUP9 SWAP1 PUSH1 0x4 ADD PUSH3 0xB8B JUMP JUMPDEST PUSH1 0x20 PUSH1 0x40 MLOAD DUP1 DUP4 SUB DUP2 PUSH1 0x0 DUP8 GAS CALL SWAP3 POP POP POP DUP1 ISZERO PUSH3 0x6B2 JUMPI POP PUSH1 0x40 DUP1 MLOAD PUSH1 0x1F RETURNDATASIZE SWAP1 DUP2 ADD PUSH1 0x1F NOT AND DUP3 ADD SWAP1 SWAP3 MSTORE PUSH3 0x6AF SWAP2 DUP2 ADD SWAP1 PUSH3 0xBD2 JUMP JUMPDEST PUSH1 0x1 JUMPDEST PUSH3 0x772 JUMPI PUSH3 0x6C1 PUSH3 0xC05 JUMP JUMPDEST DUP1 PUSH4 0x8C379A0 SUB PUSH3 0x701 JUMPI POP PUSH3 0x6D8 PUSH3 0xC51 JUMP JUMPDEST DUP1 PUSH3 0x6E5 JUMPI POP PUSH3 0x703 JUMP JUMPDEST DUP1 PUSH1 0x40 MLOAD PUSH3 0x461BCD PUSH1 0xE5 SHL DUP2 MSTORE PUSH1 0x4 ADD PUSH3 0x3E2 SWAP2 SWAP1 PUSH3 0xCE0 JUMP JUMPDEST POP JUMPDEST PUSH1 0x40 MLOAD PUSH3 0x461BCD PUSH1 0xE5 SHL DUP2 MSTORE PUSH1 0x20 PUSH1 0x4 DUP3 ADD MSTORE PUSH1 0x34 PUSH1 0x24 DUP3 ADD MSTORE PUSH32 0x455243313135353A207472616E7366657220746F206E6F6E2D45524331313535 PUSH1 0x44 DUP3 ADD MSTORE PUSH32 0x526563656976657220696D706C656D656E746572000000000000000000000000 PUSH1 0x64 DUP3 ADD MSTORE PUSH1 0x84 ADD PUSH3 0x3E2 JUMP JUMPDEST PUSH1 0x1 PUSH1 0x1 PUSH1 0xE0 SHL SUB NOT DUP2 AND PUSH4 0xF23A6E61 PUSH1 0xE0 SHL EQ PUSH3 0x50F JUMPI PUSH1 0x40 MLOAD PUSH3 0x461BCD PUSH1 0xE5 SHL DUP2 MSTORE PUSH1 0x20 PUSH1 0x4 DUP3 ADD MSTORE PUSH1 0x28 PUSH1 0x24 DUP3 ADD MSTORE PUSH32 0x455243313135353A204552433131353552656365697665722072656A65637465 PUSH1 0x44 DUP3 ADD MSTORE PUSH8 0x6420746F6B656E73 PUSH1 0xC0 SHL PUSH1 0x64 DUP3 ADD MSTORE PUSH1 0x84 ADD PUSH3 0x3E2 JUMP JUMPDEST PUSH1 0x1 PUSH1 0x1 PUSH1 0xA0 SHL SUB AND EXTCODESIZE ISZERO ISZERO SWAP1 JUMP JUMPDEST PUSH4 0x4E487B71 PUSH1 0xE0 SHL PUSH1 0x0 MSTORE PUSH1 0x41 PUSH1 0x4 MSTORE PUSH1 0x24 PUSH1 0x0 REVERT JUMPDEST PUSH1 0x1 DUP2 DUP2 SHR SWAP1 DUP3 AND DUP1 PUSH3 0x81F JUMPI PUSH1 0x7F DUP3 AND SWAP2 POP JUMPDEST PUSH1 0x20 DUP3 LT DUP2 SUB PUSH3 0x840 JUMPI PUSH4 0x4E487B71 PUSH1 0xE0 SHL PUSH1 0x0 MSTORE PUSH1 0x22 PUSH1 0x4 MSTORE PUSH1 0x24 PUSH1 0x0 REVERT JUMPDEST POP SWAP2 SWAP1 POP JUMP JUMPDEST PUSH1 0x1F DUP3 GT ISZERO PUSH3 0x890 JUMPI PUSH1 0x0 DUP2 DUP2 MSTORE PUSH1 0x20 DUP2 KECCAK256 PUSH1 0x1F DUP6 ADD PUSH1 0x5 SHR DUP2 ADD PUSH1 0x20 DUP7 LT ISZERO PUSH3 0x86F JUMPI POP DUP1 JUMPDEST PUSH1 0x1F DUP6 ADD PUSH1 0x5 SHR DUP3 ADD SWAP2 POP JUMPDEST DUP2 DUP2 LT ISZERO PUSH3 0x611 JUMPI DUP3 DUP2 SSTORE PUSH1 0x1 ADD PUSH3 0x87B JUMP JUMPDEST POP POP POP JUMP JUMPDEST DUP2 MLOAD PUSH1 0x1 PUSH1 0x1 PUSH1 0x40 SHL SUB DUP2 GT ISZERO PUSH3 0x8B1 JUMPI PUSH3 0x8B1 PUSH3 0x7F4 JUMP JUMPDEST PUSH3 0x8C9 DUP2 PUSH3 0x8C2 DUP5 SLOAD PUSH3 0x80A JUMP JUMPDEST DUP5 PUSH3 0x846 JUMP JUMPDEST PUSH1 0x20 DUP1 PUSH1 0x1F DUP4 GT PUSH1 0x1 DUP2 EQ PUSH3 0x901 JUMPI PUSH1 0x0 DUP5 ISZERO PUSH3 0x8E8 JUMPI POP DUP6 DUP4 ADD MLOAD JUMPDEST PUSH1 0x0 NOT PUSH1 0x3 DUP7 SWAP1 SHL SHR NOT AND PUSH1 0x1 DUP6 SWAP1 SHL OR DUP6 SSTORE PUSH3 0x611 JUMP JUMPDEST PUSH1 0x0 DUP6 DUP2 MSTORE PUSH1 0x20 DUP2 KECCAK256 PUSH1 0x1F NOT DUP7 AND SWAP2 JUMPDEST DUP3 DUP2 LT ISZERO PUSH3 0x932 JUMPI DUP9 DUP7 ADD MLOAD DUP3 SSTORE SWAP5 DUP5 ADD SWAP5 PUSH1 0x1 SWAP1 SWAP2 ADD SWAP1 DUP5 ADD PUSH3 0x911 JUMP JUMPDEST POP DUP6 DUP3 LT ISZERO PUSH3 0x951 JUMPI DUP8 DUP6 ADD MLOAD PUSH1 0x0 NOT PUSH1 0x3 DUP9 SWAP1 SHL PUSH1 0xF8 AND SHR NOT AND DUP2 SSTORE JUMPDEST POP POP POP POP POP PUSH1 0x1 SWAP1 DUP2 SHL ADD SWAP1 SSTORE POP JUMP JUMPDEST PUSH1 0x0 DUP2 SLOAD PUSH3 0x970 DUP2 PUSH3 0x80A JUMP JUMPDEST PUSH1 0x1 DUP3 DUP2 AND DUP1 ISZERO PUSH3 0x98B JUMPI PUSH1 0x1 DUP2 EQ PUSH3 0x9A1 JUMPI PUSH3 0x9D2 JUMP JUMPDEST PUSH1 0xFF NOT DUP5 AND DUP8 MSTORE DUP3 ISZERO ISZERO DUP4 MUL DUP8 ADD SWAP5 POP PUSH3 0x9D2 JUMP JUMPDEST DUP6 PUSH1 0x0 MSTORE PUSH1 0x20 DUP1 PUSH1 0x0 KECCAK256 PUSH1 0x0 JUMPDEST DUP6 DUP2 LT ISZERO PUSH3 0x9C9 JUMPI DUP2 SLOAD DUP11 DUP3 ADD MSTORE SWAP1 DUP5 ADD SWAP1 DUP3 ADD PUSH3 0x9AE JUMP JUMPDEST POP POP POP DUP3 DUP8 ADD SWAP5 POP JUMPDEST POP POP POP POP SWAP3 SWAP2 POP POP JUMP JUMPDEST PUSH1 0x0 PUSH3 0x9F5 PUSH3 0x9EE DUP4 DUP8 PUSH3 0x961 JUMP JUMPDEST DUP6 PUSH3 0x961 JUMP JUMPDEST PUSH1 0x31 PUSH1 0xF8 SHL DUP2 MSTORE PUSH3 0xA0B PUSH1 0x1 DUP3 ADD DUP6 PUSH3 0x961 JUMP JUMPDEST SWAP7 SWAP6 POP POP POP POP POP POP JUMP JUMPDEST PUSH1 0x0 PUSH3 0xA27 PUSH3 0x9EE DUP4 DUP8 PUSH3 0x961 JUMP JUMPDEST PUSH1 0x19 PUSH1 0xF9 SHL DUP2 MSTORE PUSH3 0xA0B PUSH1 0x1 DUP3 ADD DUP6 PUSH3 0x961 JUMP JUMPDEST PUSH1 0x0 PUSH3 0xA4F PUSH3 0x9EE DUP4 DUP8 PUSH3 0x961 JUMP JUMPDEST PUSH1 0x33 PUSH1 0xF8 SHL DUP2 MSTORE PUSH3 0xA0B PUSH1 0x1 DUP3 ADD DUP6 PUSH3 0x961 JUMP JUMPDEST PUSH1 0x0 PUSH3 0xA77 PUSH3 0x9EE DUP4 DUP8 PUSH3 0x961 JUMP JUMPDEST PUSH1 0xD PUSH1 0xFA SHL DUP2 MSTORE PUSH3 0xA0B PUSH1 0x1 DUP3 ADD DUP6 PUSH3 0x961 JUMP JUMPDEST PUSH1 0x0 PUSH3 0xA9F PUSH3 0x9EE DUP4 DUP8 PUSH3 0x961 JUMP JUMPDEST PUSH1 0x35 PUSH1 0xF8 SHL DUP2 MSTORE PUSH3 0xA0B PUSH1 0x1 DUP3 ADD DUP6 PUSH3 0x961 JUMP JUMPDEST PUSH1 0x0 PUSH3 0xAC7 PUSH3 0x9EE DUP4 DUP8 PUSH3 0x961 JUMP JUMPDEST PUSH1 0x1B PUSH1 0xF9 SHL DUP2 MSTORE PUSH3 0xA0B PUSH1 0x1 DUP3 ADD DUP6 PUSH3 0x961 JUMP JUMPDEST PUSH1 0x0 PUSH3 0xAEF PUSH3 0x9EE DUP4 DUP8 PUSH3 0x961 JUMP JUMPDEST PUSH1 0x37 PUSH1 0xF8 SHL DUP2 MSTORE PUSH3 0xA0B PUSH1 0x1 DUP3 ADD DUP6 PUSH3 0x961 JUMP JUMPDEST DUP1 DUP3 ADD DUP1 DUP3 GT ISZERO PUSH3 0xB27 JUMPI PUSH4 0x4E487B71 PUSH1 0xE0 SHL PUSH1 0x0 MSTORE PUSH1 0x11 PUSH1 0x4 MSTORE PUSH1 0x24 PUSH1 0x0 REVERT JUMPDEST SWAP3 SWAP2 POP POP JUMP JUMPDEST PUSH4 0x4E487B71 PUSH1 0xE0 SHL PUSH1 0x0 MSTORE PUSH1 0x32 PUSH1 0x4 MSTORE PUSH1 0x24 PUSH1 0x0 REVERT JUMPDEST PUSH1 0x0 DUP2 MLOAD DUP1 DUP5 MSTORE PUSH1 0x0 JUMPDEST DUP2 DUP2 LT ISZERO PUSH3 0xB6B JUMPI PUSH1 0x20 DUP2 DUP6 ADD DUP2 ADD MLOAD DUP7 DUP4 ADD DUP3 ADD MSTORE ADD PUSH3 0xB4D JUMP JUMPDEST POP PUSH1 0x0 PUSH1 0x20 DUP3 DUP7 ADD ADD MSTORE PUSH1 0x20 PUSH1 0x1F NOT PUSH1 0x1F DUP4 ADD AND DUP6 ADD ADD SWAP2 POP POP SWAP3 SWAP2 POP POP JUMP JUMPDEST PUSH1 0x1 PUSH1 0x1 PUSH1 0xA0 SHL SUB DUP7 DUP2 AND DUP3 MSTORE DUP6 AND PUSH1 0x20 DUP3 ADD MSTORE PUSH1 0x40 DUP2 ADD DUP5 SWAP1 MSTORE PUSH1 0x60 DUP2 ADD DUP4 SWAP1 MSTORE PUSH1 0xA0 PUSH1 0x80 DUP3 ADD DUP2 SWAP1 MSTORE PUSH1 0x0 SWAP1 PUSH3 0xBC7 SWAP1 DUP4 ADD DUP5 PUSH3 0xB43 JUMP JUMPDEST SWAP8 SWAP7 POP POP POP POP POP POP POP JUMP JUMPDEST PUSH1 0x0 PUSH1 0x20 DUP3 DUP5 SUB SLT ISZERO PUSH3 0xBE5 JUMPI PUSH1 0x0 DUP1 REVERT JUMPDEST DUP2 MLOAD PUSH1 0x1 PUSH1 0x1 PUSH1 0xE0 SHL SUB NOT DUP2 AND DUP2 EQ PUSH3 0xBFE JUMPI PUSH1 0x0 DUP1 REVERT JUMPDEST SWAP4 SWAP3 POP POP POP JUMP JUMPDEST PUSH1 0x0 PUSH1 0x3 RETURNDATASIZE GT ISZERO PUSH3 0xC1F JUMPI PUSH1 0x4 PUSH1 0x0 DUP1 RETURNDATACOPY POP PUSH1 0x0 MLOAD PUSH1 0xE0 SHR JUMPDEST SWAP1 JUMP JUMPDEST PUSH1 0x1F DUP3 ADD PUSH1 0x1F NOT AND DUP2 ADD PUSH1 0x1 PUSH1 0x1 PUSH1 0x40 SHL SUB DUP2 GT DUP3 DUP3 LT OR ISZERO PUSH3 0xC4A JUMPI PUSH3 0xC4A PUSH3 0x7F4 JUMP JUMPDEST PUSH1 0x40 MSTORE POP POP JUMP JUMPDEST PUSH1 0x0 PUSH1 0x44 RETURNDATASIZE LT ISZERO PUSH3 0xC60 JUMPI SWAP1 JUMP JUMPDEST PUSH1 0x40 MLOAD PUSH1 0x3 NOT RETURNDATASIZE DUP2 ADD PUSH1 0x4 DUP4 RETURNDATACOPY DUP2 MLOAD RETURNDATASIZE PUSH1 0x1 PUSH1 0x1 PUSH1 0x40 SHL SUB DUP1 DUP4 GT PUSH1 0x24 DUP5 ADD DUP4 LT OR ISZERO PUSH3 0xC90 JUMPI POP POP POP POP POP SWAP1 JUMP JUMPDEST DUP3 DUP6 ADD SWAP2 POP DUP2 MLOAD DUP2 DUP2 GT ISZERO PUSH3 0xCA9 JUMPI POP POP POP POP POP POP SWAP1 JUMP JUMPDEST DUP5 RETURNDATASIZE DUP8 ADD ADD PUSH1 0x20 DUP3 DUP6 ADD ADD GT ISZERO PUSH3 0xCC4 JUMPI POP POP POP POP POP POP SWAP1 JUMP JUMPDEST PUSH3 0xCD5 PUSH1 0x20 DUP3 DUP7 ADD ADD DUP8 PUSH3 0xC22 JUMP JUMPDEST POP SWAP1 SWAP6 SWAP5 POP POP POP POP POP JUMP JUMPDEST PUSH1 0x20 DUP2 MSTORE PUSH1 0x0 PUSH3 0xBFE PUSH1 0x20 DUP4 ADD DUP5 PUSH3 0xB43 JUMP JUMPDEST PUSH2 0x2142 DUP1 PUSH3 0xD05 PUSH1 0x0 CODECOPY PUSH1 0x0 RETURN INVALID PUSH1 0x80 PUSH1 0x40 MSTORE CALLVALUE DUP1 ISZERO PUSH2 0x10 JUMPI PUSH1 0x0 DUP1 REVERT JUMPDEST POP PUSH1 0x4 CALLDATASIZE LT PUSH2 0x120 JUMPI PUSH1 0x0 CALLDATALOAD PUSH1 0xE0 SHR DUP1 PUSH4 0x67DB3B8F GT PUSH2 0xAD JUMPI DUP1 PUSH4 0xA22CB465 GT PUSH2 0x71 JUMPI DUP1 PUSH4 0xA22CB465 EQ PUSH2 0x283 JUMPI DUP1 PUSH4 0xE1C7392A EQ PUSH2 0x296 JUMPI DUP1 PUSH4 0xE985E9C5 EQ PUSH2 0x29E JUMPI DUP1 PUSH4 0xF242432A EQ PUSH2 0x2DA JUMPI DUP1 PUSH4 0xF2FDE38B EQ PUSH2 0x2ED JUMPI PUSH1 0x0 DUP1 REVERT JUMPDEST DUP1 PUSH4 0x67DB3B8F EQ PUSH2 0x230 JUMPI DUP1 PUSH4 0x715018A6 EQ PUSH2 0x243 JUMPI DUP1 PUSH4 0x8DA5CB5B EQ PUSH2 0x24B JUMPI DUP1 PUSH4 0x90ADEC6F EQ PUSH2 0x266 JUMPI DUP1 PUSH4 0x95D89B41 EQ PUSH2 0x27B JUMPI PUSH1 0x0 DUP1 REVERT JUMPDEST DUP1 PUSH4 0xE89341C GT PUSH2 0xF4 JUMPI DUP1 PUSH4 0xE89341C EQ PUSH2 0x196 JUMPI DUP1 PUSH4 0x2A55205A EQ PUSH2 0x1A9 JUMPI DUP1 PUSH4 0x2EB2C2D6 EQ PUSH2 0x1DB JUMPI DUP1 PUSH4 0x4E1273F4 EQ PUSH2 0x1F0 JUMPI DUP1 PUSH4 0x4F57641C EQ PUSH2 0x210 JUMPI PUSH1 0x0 DUP1 REVERT JUMPDEST DUP1 PUSH3 0xFDD58E EQ PUSH2 0x125 JUMPI DUP1 PUSH4 0x1FFC9A7 EQ PUSH2 0x14B JUMPI DUP1 PUSH4 0x3D0F90A EQ PUSH2 0x16E JUMPI DUP1 PUSH4 0x6FDDE03 EQ PUSH2 0x181 JUMPI JUMPDEST PUSH1 0x0 DUP1 REVERT JUMPDEST PUSH2 0x138 PUSH2 0x133 CALLDATASIZE PUSH1 0x4 PUSH2 0x14EE JUMP JUMPDEST PUSH2 0x300 JUMP JUMPDEST PUSH1 0x40 MLOAD SWAP1 DUP2 MSTORE PUSH1 0x20 ADD JUMPDEST PUSH1 0x40 MLOAD DUP1 SWAP2 SUB SWAP1 RETURN JUMPDEST PUSH2 0x15E PUSH2 0x159 CALLDATASIZE PUSH1 0x4 PUSH2 0x152E JUMP JUMPDEST PUSH2 0x399 JUMP JUMPDEST PUSH1 0x40 MLOAD SWAP1 ISZERO ISZERO DUP2 MSTORE PUSH1 0x20 ADD PUSH2 0x142 JUMP JUMPDEST PUSH2 0x138 PUSH2 0x17C CALLDATASIZE PUSH1 0x4 PUSH2 0x1609 JUMP JUMPDEST PUSH2 0x3A4 JUMP JUMPDEST PUSH2 0x189 PUSH2 0x481 JUMP JUMPDEST PUSH1 0x40 MLOAD PUSH2 0x142 SWAP2 SWAP1 PUSH2 0x16A6 JUMP JUMPDEST PUSH2 0x189 PUSH2 0x1A4 CALLDATASIZE PUSH1 0x4 PUSH2 0x16B9 JUMP JUMPDEST PUSH2 0x50F JUMP JUMPDEST PUSH2 0x1BC PUSH2 0x1B7 CALLDATASIZE PUSH1 0x4 PUSH2 0x16D2 JUMP JUMPDEST PUSH2 0x5C5 JUMP JUMPDEST PUSH1 0x40 DUP1 MLOAD PUSH1 0x1 PUSH1 0x1 PUSH1 0xA0 SHL SUB SWAP1 SWAP4 AND DUP4 MSTORE PUSH1 0x20 DUP4 ADD SWAP2 SWAP1 SWAP2 MSTORE ADD PUSH2 0x142 JUMP JUMPDEST PUSH2 0x1EE PUSH2 0x1E9 CALLDATASIZE PUSH1 0x4 PUSH2 0x1789 JUMP JUMPDEST PUSH2 0x623 JUMP JUMPDEST STOP JUMPDEST PUSH2 0x203 PUSH2 0x1FE CALLDATASIZE PUSH1 0x4 PUSH2 0x1833 JUMP JUMPDEST PUSH2 0x66F JUMP JUMPDEST PUSH1 0x40 MLOAD PUSH2 0x142 SWAP2 SWAP1 PUSH2 0x192F JUMP JUMPDEST PUSH2 0x223 PUSH2 0x21E CALLDATASIZE PUSH1 0x4 PUSH2 0x16B9 JUMP JUMPDEST PUSH2 0x799 JUMP JUMPDEST PUSH1 0x40 MLOAD PUSH2 0x142 SWAP2 SWAP1 PUSH2 0x1961 JUMP JUMPDEST PUSH2 0x1EE PUSH2 0x23E CALLDATASIZE PUSH1 0x4 PUSH2 0x1974 JUMP JUMPDEST PUSH2 0x87D JUMP JUMPDEST PUSH2 0x1EE PUSH2 0x8BB JUMP JUMPDEST PUSH1 0x4 SLOAD PUSH1 0x40 MLOAD PUSH1 0x1 PUSH1 0x1 PUSH1 0xA0 SHL SUB SWAP1 SWAP2 AND DUP2 MSTORE PUSH1 0x20 ADD PUSH2 0x142 JUMP JUMPDEST PUSH2 0x26E PUSH2 0x8CF JUMP JUMPDEST PUSH1 0x40 MLOAD PUSH2 0x142 SWAP2 SWAP1 PUSH2 0x19B9 JUMP JUMPDEST PUSH2 0x189 PUSH2 0x9CA JUMP JUMPDEST PUSH2 0x1EE PUSH2 0x291 CALLDATASIZE PUSH1 0x4 PUSH2 0x1A1B JUMP JUMPDEST PUSH2 0x9D7 JUMP JUMPDEST PUSH2 0x1EE PUSH2 0x9E6 JUMP JUMPDEST PUSH2 0x15E PUSH2 0x2AC CALLDATASIZE PUSH1 0x4 PUSH2 0x1A57 JUMP JUMPDEST PUSH1 0x1 PUSH1 0x1 PUSH1 0xA0 SHL SUB SWAP2 DUP3 AND PUSH1 0x0 SWAP1 DUP2 MSTORE PUSH1 0x1 PUSH1 0x20 SWAP1 DUP2 MSTORE PUSH1 0x40 DUP1 DUP4 KECCAK256 SWAP4 SWAP1 SWAP5 AND DUP3 MSTORE SWAP2 SWAP1 SWAP2 MSTORE KECCAK256 SLOAD PUSH1 0xFF AND SWAP1 JUMP JUMPDEST PUSH2 0x1EE PUSH2 0x2E8 CALLDATASIZE PUSH1 0x4 PUSH2 0x1A8A JUMP JUMPDEST PUSH2 0xAD5 JUMP JUMPDEST PUSH2 0x1EE PUSH2 0x2FB CALLDATASIZE PUSH1 0x4 PUSH2 0x1AEF JUMP JUMPDEST PUSH2 0xB1A JUMP JUMPDEST PUSH1 0x0 PUSH1 0x1 PUSH1 0x1 PUSH1 0xA0 SHL SUB DUP4 AND PUSH2 0x370 JUMPI PUSH1 0x40 MLOAD PUSH3 0x461BCD PUSH1 0xE5 SHL DUP2 MSTORE PUSH1 0x20 PUSH1 0x4 DUP3 ADD MSTORE PUSH1 0x2A PUSH1 0x24 DUP3 ADD MSTORE PUSH32 0x455243313135353A2061646472657373207A65726F206973206E6F7420612076 PUSH1 0x44 DUP3 ADD MSTORE PUSH10 0x30B634B21037BBB732B9 PUSH1 0xB1 SHL PUSH1 0x64 DUP3 ADD MSTORE PUSH1 0x84 ADD JUMPDEST PUSH1 0x40 MLOAD DUP1 SWAP2 SUB SWAP1 REVERT JUMPDEST POP PUSH1 0x0 DUP2 DUP2 MSTORE PUSH1 0x20 DUP2 DUP2 MSTORE PUSH1 0x40 DUP1 DUP4 KECCAK256 PUSH1 0x1 PUSH1 0x1 PUSH1 0xA0 SHL SUB DUP7 AND DUP5 MSTORE SWAP1 SWAP2 MSTORE SWAP1 KECCAK256 SLOAD JUMPDEST SWAP3 SWAP2 POP POP JUMP JUMPDEST PUSH1 0x0 PUSH2 0x393 DUP3 PUSH2 0xBAC JUMP JUMPDEST PUSH1 0x0 PUSH2 0x3AE PUSH2 0xBD1 JUMP JUMPDEST PUSH2 0x3BC PUSH1 0x5 DUP1 SLOAD PUSH1 0x1 ADD SWAP1 SSTORE JUMP JUMPDEST PUSH1 0x0 PUSH2 0x3C7 PUSH1 0x5 SLOAD SWAP1 JUMP JUMPDEST PUSH1 0x40 DUP1 MLOAD DUP1 DUP3 ADD SWAP1 SWAP2 MSTORE DUP2 DUP2 MSTORE PUSH1 0x20 DUP2 ADD DUP6 DUP2 MSTORE PUSH1 0xB DUP1 SLOAD PUSH1 0x1 DUP2 ADD DUP3 SSTORE PUSH1 0x0 SWAP2 SWAP1 SWAP2 MSTORE DUP3 MLOAD PUSH1 0x2 SWAP1 SWAP2 MUL PUSH32 0x175B7A638427703F0DBE7BB9BBF987A2551717B34E79F33B5B1008D1FA01DB9 DUP2 ADD SWAP2 DUP3 SSTORE SWAP2 MLOAD SWAP4 SWAP5 POP SWAP2 SWAP3 PUSH32 0x175B7A638427703F0DBE7BB9BBF987A2551717B34E79F33B5B1008D1FA01DBA SWAP1 SWAP2 ADD SWAP1 PUSH2 0x44E SWAP1 DUP3 PUSH2 0x1B8A JUMP JUMPDEST POP POP POP PUSH2 0x46C DUP6 DUP3 DUP7 PUSH1 0x40 MLOAD DUP1 PUSH1 0x20 ADD PUSH1 0x40 MSTORE DUP1 PUSH1 0x0 DUP2 MSTORE POP PUSH2 0xC2B JUMP JUMPDEST PUSH2 0x479 DUP2 CALLER PUSH2 0x3E8 PUSH2 0xD3F JUMP JUMPDEST SWAP5 SWAP4 POP POP POP POP JUMP JUMPDEST PUSH1 0x6 DUP1 SLOAD PUSH2 0x48E SWAP1 PUSH2 0x1B0A JUMP JUMPDEST DUP1 PUSH1 0x1F ADD PUSH1 0x20 DUP1 SWAP2 DIV MUL PUSH1 0x20 ADD PUSH1 0x40 MLOAD SWAP1 DUP2 ADD PUSH1 0x40 MSTORE DUP1 SWAP3 SWAP2 SWAP1 DUP2 DUP2 MSTORE PUSH1 0x20 ADD DUP3 DUP1 SLOAD PUSH2 0x4BA SWAP1 PUSH2 0x1B0A JUMP JUMPDEST DUP1 ISZERO PUSH2 0x507 JUMPI DUP1 PUSH1 0x1F LT PUSH2 0x4DC JUMPI PUSH2 0x100 DUP1 DUP4 SLOAD DIV MUL DUP4 MSTORE SWAP2 PUSH1 0x20 ADD SWAP2 PUSH2 0x507 JUMP JUMPDEST DUP3 ADD SWAP2 SWAP1 PUSH1 0x0 MSTORE PUSH1 0x20 PUSH1 0x0 KECCAK256 SWAP1 JUMPDEST DUP2 SLOAD DUP2 MSTORE SWAP1 PUSH1 0x1 ADD SWAP1 PUSH1 0x20 ADD DUP1 DUP4 GT PUSH2 0x4EA JUMPI DUP3 SWAP1 SUB PUSH1 0x1F AND DUP3 ADD SWAP2 JUMPDEST POP POP POP POP POP DUP2 JUMP JUMPDEST PUSH1 0x60 PUSH1 0xB DUP3 DUP2 SLOAD DUP2 LT PUSH2 0x524 JUMPI PUSH2 0x524 PUSH2 0x1C4A JUMP JUMPDEST SWAP1 PUSH1 0x0 MSTORE PUSH1 0x20 PUSH1 0x0 KECCAK256 SWAP1 PUSH1 0x2 MUL ADD PUSH1 0x1 ADD DUP1 SLOAD PUSH2 0x540 SWAP1 PUSH2 0x1B0A JUMP JUMPDEST DUP1 PUSH1 0x1F ADD PUSH1 0x20 DUP1 SWAP2 DIV MUL PUSH1 0x20 ADD PUSH1 0x40 MLOAD SWAP1 DUP2 ADD PUSH1 0x40 MSTORE DUP1 SWAP3 SWAP2 SWAP1 DUP2 DUP2 MSTORE PUSH1 0x20 ADD DUP3 DUP1 SLOAD PUSH2 0x56C SWAP1 PUSH2 0x1B0A JUMP JUMPDEST DUP1 ISZERO PUSH2 0x5B9 JUMPI DUP1 PUSH1 0x1F LT PUSH2 0x58E JUMPI PUSH2 0x100 DUP1 DUP4 SLOAD DIV MUL DUP4 MSTORE SWAP2 PUSH1 0x20 ADD SWAP2 PUSH2 0x5B9 JUMP JUMPDEST DUP3 ADD SWAP2 SWAP1 PUSH1 0x0 MSTORE PUSH1 0x20 PUSH1 0x0 KECCAK256 SWAP1 JUMPDEST DUP2 SLOAD DUP2 MSTORE SWAP1 PUSH1 0x1 ADD SWAP1 PUSH1 0x20 ADD DUP1 DUP4 GT PUSH2 0x59C JUMPI DUP3 SWAP1 SUB PUSH1 0x1F AND DUP3 ADD SWAP2 JUMPDEST POP POP POP POP POP SWAP1 POP SWAP2 SWAP1 POP JUMP JUMPDEST PUSH1 0x0 DUP3 DUP2 MSTORE PUSH1 0x3 PUSH1 0x20 SWAP1 DUP2 MSTORE PUSH1 0x40 DUP1 DUP4 KECCAK256 DUP2 MLOAD DUP1 DUP4 ADD SWAP1 SWAP3 MSTORE SLOAD PUSH1 0x1 PUSH1 0x1 PUSH1 0xA0 SHL SUB DUP2 AND DUP1 DUP4 MSTORE PUSH1 0x1 PUSH1 0xA0 SHL SWAP1 SWAP2 DIV PUSH3 0xFFFFFF AND SWAP3 DUP3 ADD DUP4 SWAP1 MSTORE SWAP3 SWAP2 PUSH2 0x2710 SWAP1 PUSH2 0x60F SWAP1 DUP7 PUSH2 0x1C76 JUMP JUMPDEST PUSH2 0x619 SWAP2 SWAP1 PUSH2 0x1C8D JUMP JUMPDEST SWAP2 POP POP SWAP3 POP SWAP3 SWAP1 POP JUMP JUMPDEST PUSH1 0x1 PUSH1 0x1 PUSH1 0xA0 SHL SUB DUP6 AND CALLER EQ DUP1 PUSH2 0x63F JUMPI POP PUSH2 0x63F DUP6 CALLER PUSH2 0x2AC JUMP JUMPDEST PUSH2 0x65B JUMPI PUSH1 0x40 MLOAD PUSH3 0x461BCD PUSH1 0xE5 SHL DUP2 MSTORE PUSH1 0x4 ADD PUSH2 0x367 SWAP1 PUSH2 0x1CAF JUMP JUMPDEST PUSH2 0x668 DUP6 DUP6 DUP6 DUP6 DUP6 PUSH2 0xDE8 JUMP JUMPDEST POP POP POP POP POP JUMP JUMPDEST PUSH1 0x60 DUP2 MLOAD DUP4 MLOAD EQ PUSH2 0x6D4 JUMPI PUSH1 0x40 MLOAD PUSH3 0x461BCD PUSH1 0xE5 SHL DUP2 MSTORE PUSH1 0x20 PUSH1 0x4 DUP3 ADD MSTORE PUSH1 0x29 PUSH1 0x24 DUP3 ADD MSTORE PUSH32 0x455243313135353A206163636F756E747320616E6420696473206C656E677468 PUSH1 0x44 DUP3 ADD MSTORE PUSH9 0x40DAD2E6DAC2E8C6D PUSH1 0xBB SHL PUSH1 0x64 DUP3 ADD MSTORE PUSH1 0x84 ADD PUSH2 0x367 JUMP JUMPDEST PUSH1 0x0 DUP4 MLOAD PUSH8 0xFFFFFFFFFFFFFFFF DUP2 GT ISZERO PUSH2 0x6F0 JUMPI PUSH2 0x6F0 PUSH2 0x1552 JUMP JUMPDEST PUSH1 0x40 MLOAD SWAP1 DUP1 DUP3 MSTORE DUP1 PUSH1 0x20 MUL PUSH1 0x20 ADD DUP3 ADD PUSH1 0x40 MSTORE DUP1 ISZERO PUSH2 0x719 JUMPI DUP2 PUSH1 0x20 ADD PUSH1 0x20 DUP3 MUL DUP1 CALLDATASIZE DUP4 CALLDATACOPY ADD SWAP1 POP JUMPDEST POP SWAP1 POP PUSH1 0x0 JUMPDEST DUP5 MLOAD DUP2 LT ISZERO PUSH2 0x791 JUMPI PUSH2 0x764 DUP6 DUP3 DUP2 MLOAD DUP2 LT PUSH2 0x73D JUMPI PUSH2 0x73D PUSH2 0x1C4A JUMP JUMPDEST PUSH1 0x20 MUL PUSH1 0x20 ADD ADD MLOAD DUP6 DUP4 DUP2 MLOAD DUP2 LT PUSH2 0x757 JUMPI PUSH2 0x757 PUSH2 0x1C4A JUMP JUMPDEST PUSH1 0x20 MUL PUSH1 0x20 ADD ADD MLOAD PUSH2 0x300 JUMP JUMPDEST DUP3 DUP3 DUP2 MLOAD DUP2 LT PUSH2 0x776 JUMPI PUSH2 0x776 PUSH2 0x1C4A JUMP JUMPDEST PUSH1 0x20 SWAP1 DUP2 MUL SWAP2 SWAP1 SWAP2 ADD ADD MSTORE PUSH2 0x78A DUP2 PUSH2 0x1CFD JUMP JUMPDEST SWAP1 POP PUSH2 0x71F JUMP JUMPDEST POP SWAP4 SWAP3 POP POP POP JUMP JUMPDEST PUSH1 0x40 DUP1 MLOAD DUP1 DUP3 ADD SWAP1 SWAP2 MSTORE PUSH1 0x0 DUP2 MSTORE PUSH1 0x60 PUSH1 0x20 DUP3 ADD MSTORE PUSH1 0xB DUP3 DUP2 SLOAD DUP2 LT PUSH2 0x7C1 JUMPI PUSH2 0x7C1 PUSH2 0x1C4A JUMP JUMPDEST SWAP1 PUSH1 0x0 MSTORE PUSH1 0x20 PUSH1 0x0 KECCAK256 SWAP1 PUSH1 0x2 MUL ADD PUSH1 0x40 MLOAD DUP1 PUSH1 0x40 ADD PUSH1 0x40 MSTORE SWAP1 DUP2 PUSH1 0x0 DUP3 ADD SLOAD DUP2 MSTORE PUSH1 0x20 ADD PUSH1 0x1 DUP3 ADD DUP1 SLOAD PUSH2 0x7F4 SWAP1 PUSH2 0x1B0A JUMP JUMPDEST DUP1 PUSH1 0x1F ADD PUSH1 0x20 DUP1 SWAP2 DIV MUL PUSH1 0x20 ADD PUSH1 0x40 MLOAD SWAP1 DUP2 ADD PUSH1 0x40 MSTORE DUP1 SWAP3 SWAP2 SWAP1 DUP2 DUP2 MSTORE PUSH1 0x20 ADD DUP3 DUP1 SLOAD PUSH2 0x820 SWAP1 PUSH2 0x1B0A JUMP JUMPDEST DUP1 ISZERO PUSH2 0x86D JUMPI DUP1 PUSH1 0x1F LT PUSH2 0x842 JUMPI PUSH2 0x100 DUP1 DUP4 SLOAD DIV MUL DUP4 MSTORE SWAP2 PUSH1 0x20 ADD SWAP2 PUSH2 0x86D JUMP JUMPDEST DUP3 ADD SWAP2 SWAP1 PUSH1 0x0 MSTORE PUSH1 0x20 PUSH1 0x0 KECCAK256 SWAP1 JUMPDEST DUP2 SLOAD DUP2 MSTORE SWAP1 PUSH1 0x1 ADD SWAP1 PUSH1 0x20 ADD DUP1 DUP4 GT PUSH2 0x850 JUMPI DUP3 SWAP1 SUB PUSH1 0x1F AND DUP3 ADD SWAP2 JUMPDEST POP POP POP POP POP DUP2 MSTORE POP POP SWAP1 POP SWAP2 SWAP1 POP JUMP JUMPDEST PUSH2 0x885 PUSH2 0xBD1 JUMP JUMPDEST DUP2 PUSH1 0xB DUP3 DUP2 SLOAD DUP2 LT PUSH2 0x899 JUMPI PUSH2 0x899 PUSH2 0x1C4A JUMP JUMPDEST SWAP1 PUSH1 0x0 MSTORE PUSH1 0x20 PUSH1 0x0 KECCAK256 SWAP1 PUSH1 0x2 MUL ADD PUSH1 0x1 ADD SWAP1 DUP2 PUSH2 0x8B6 SWAP2 SWAP1 PUSH2 0x1B8A JUMP JUMPDEST POP POP POP JUMP JUMPDEST PUSH2 0x8C3 PUSH2 0xBD1 JUMP JUMPDEST PUSH2 0x8CD PUSH1 0x0 PUSH2 0xFC5 JUMP JUMPDEST JUMP JUMPDEST PUSH1 0x60 PUSH1 0xB DUP1 SLOAD DUP1 PUSH1 0x20 MUL PUSH1 0x20 ADD PUSH1 0x40 MLOAD SWAP1 DUP2 ADD PUSH1 0x40 MSTORE DUP1 SWAP3 SWAP2 SWAP1 DUP2 DUP2 MSTORE PUSH1 0x20 ADD PUSH1 0x0 SWAP1 JUMPDEST DUP3 DUP3 LT ISZERO PUSH2 0x9C1 JUMPI DUP4 DUP3 SWAP1 PUSH1 0x0 MSTORE PUSH1 0x20 PUSH1 0x0 KECCAK256 SWAP1 PUSH1 0x2 MUL ADD PUSH1 0x40 MLOAD DUP1 PUSH1 0x40 ADD PUSH1 0x40 MSTORE SWAP1 DUP2 PUSH1 0x0 DUP3 ADD SLOAD DUP2 MSTORE PUSH1 0x20 ADD PUSH1 0x1 DUP3 ADD DUP1 SLOAD PUSH2 0x930 SWAP1 PUSH2 0x1B0A JUMP JUMPDEST DUP1 PUSH1 0x1F ADD PUSH1 0x20 DUP1 SWAP2 DIV MUL PUSH1 0x20 ADD PUSH1 0x40 MLOAD SWAP1 DUP2 ADD PUSH1 0x40 MSTORE DUP1 SWAP3 SWAP2 SWAP1 DUP2 DUP2 MSTORE PUSH1 0x20 ADD DUP3 DUP1 SLOAD PUSH2 0x95C SWAP1 PUSH2 0x1B0A JUMP JUMPDEST DUP1 ISZERO PUSH2 0x9A9 JUMPI DUP1 PUSH1 0x1F LT PUSH2 0x97E JUMPI PUSH2 0x100 DUP1 DUP4 SLOAD DIV MUL DUP4 MSTORE SWAP2 PUSH1 0x20 ADD SWAP2 PUSH2 0x9A9 JUMP JUMPDEST DUP3 ADD SWAP2 SWAP1 PUSH1 0x0 MSTORE PUSH1 0x20 PUSH1 0x0 KECCAK256 SWAP1 JUMPDEST DUP2 SLOAD DUP2 MSTORE SWAP1 PUSH1 0x1 ADD SWAP1 PUSH1 0x20 ADD DUP1 DUP4 GT PUSH2 0x98C JUMPI DUP3 SWAP1 SUB PUSH1 0x1F AND DUP3 ADD SWAP2 JUMPDEST POP POP POP POP POP DUP2 MSTORE POP POP DUP2 MSTORE PUSH1 0x20 ADD SWAP1 PUSH1 0x1 ADD SWAP1 PUSH2 0x8F3 JUMP JUMPDEST POP POP POP POP SWAP1 POP SWAP1 JUMP JUMPDEST PUSH1 0x7 DUP1 SLOAD PUSH2 0x48E SWAP1 PUSH2 0x1B0A JUMP JUMPDEST PUSH2 0x9E2 CALLER DUP4 DUP4 PUSH2 0x1017 JUMP JUMPDEST POP POP JUMP JUMPDEST PUSH2 0xA18 CALLER PUSH1 0xC8 PUSH1 0x8 PUSH1 0x9 PUSH1 0xA PUSH1 0x40 MLOAD PUSH1 0x20 ADD PUSH2 0xA04 SWAP4 SWAP3 SWAP2 SWAP1 PUSH2 0x1D89 JUMP JUMPDEST PUSH1 0x40 MLOAD PUSH1 0x20 DUP2 DUP4 SUB SUB DUP2 MSTORE SWAP1 PUSH1 0x40 MSTORE PUSH2 0x3A4 JUMP JUMPDEST POP PUSH2 0xA37 CALLER PUSH1 0x8C PUSH1 0x8 PUSH1 0x9 PUSH1 0xA PUSH1 0x40 MLOAD PUSH1 0x20 ADD PUSH2 0xA04 SWAP4 SWAP3 SWAP2 SWAP1 PUSH2 0x1DBC JUMP JUMPDEST POP PUSH2 0xA56 CALLER PUSH1 0x96 PUSH1 0x8 PUSH1 0x9 PUSH1 0xA PUSH1 0x40 MLOAD PUSH1 0x20 ADD PUSH2 0xA04 SWAP4 SWAP3 SWAP2 SWAP1 PUSH2 0x1DDF JUMP JUMPDEST POP PUSH2 0xA75 CALLER PUSH1 0xB4 PUSH1 0x8 PUSH1 0x9 PUSH1 0xA PUSH1 0x40 MLOAD PUSH1 0x20 ADD PUSH2 0xA04 SWAP4 SWAP3 SWAP2 SWAP1 PUSH2 0x1E02 JUMP JUMPDEST POP PUSH2 0xA94 CALLER PUSH1 0xA0 PUSH1 0x8 PUSH1 0x9 PUSH1 0xA PUSH1 0x40 MLOAD PUSH1 0x20 ADD PUSH2 0xA04 SWAP4 SWAP3 SWAP2 SWAP1 PUSH2 0x1E25 JUMP JUMPDEST POP PUSH2 0xAB3 CALLER PUSH1 0xFA PUSH1 0x8 PUSH1 0x9 PUSH1 0xA PUSH1 0x40 MLOAD PUSH1 0x20 ADD PUSH2 0xA04 SWAP4 SWAP3 SWAP2 SWAP1 PUSH2 0x1E48 JUMP JUMPDEST POP PUSH2 0xAD2 CALLER PUSH1 0xDC PUSH1 0x8 PUSH1 0x9 PUSH1 0xA PUSH1 0x40 MLOAD PUSH1 0x20 ADD PUSH2 0xA04 SWAP4 SWAP3 SWAP2 SWAP1 PUSH2 0x1E6B JUMP JUMPDEST POP JUMP JUMPDEST PUSH1 0x1 PUSH1 0x1 PUSH1 0xA0 SHL SUB DUP6 AND CALLER EQ DUP1 PUSH2 0xAF1 JUMPI POP PUSH2 0xAF1 DUP6 CALLER PUSH2 0x2AC JUMP JUMPDEST PUSH2 0xB0D JUMPI PUSH1 0x40 MLOAD PUSH3 0x461BCD PUSH1 0xE5 SHL DUP2 MSTORE PUSH1 0x4 ADD PUSH2 0x367 SWAP1 PUSH2 0x1CAF JUMP JUMPDEST PUSH2 0x668 DUP6 DUP6 DUP6 DUP6 DUP6 PUSH2 0x10F7 JUMP JUMPDEST PUSH2 0xB22 PUSH2 0xBD1 JUMP JUMPDEST PUSH1 0x1 PUSH1 0x1 PUSH1 0xA0 SHL SUB DUP2 AND PUSH2 0xB87 JUMPI PUSH1 0x40 MLOAD PUSH3 0x461BCD PUSH1 0xE5 SHL DUP2 MSTORE PUSH1 0x20 PUSH1 0x4 DUP3 ADD MSTORE PUSH1 0x26 PUSH1 0x24 DUP3 ADD MSTORE PUSH32 0x4F776E61626C653A206E6577206F776E657220697320746865207A65726F2061 PUSH1 0x44 DUP3 ADD MSTORE PUSH6 0x646472657373 PUSH1 0xD0 SHL PUSH1 0x64 DUP3 ADD MSTORE PUSH1 0x84 ADD PUSH2 0x367 JUMP JUMPDEST PUSH2 0xAD2 DUP2 PUSH2 0xFC5 JUMP JUMPDEST DUP1 SLOAD PUSH1 0x1 ADD SWAP1 SSTORE JUMP JUMPDEST SLOAD SWAP1 JUMP JUMPDEST PUSH1 0x1 PUSH1 0x1 PUSH1 0xA0 SHL SUB AND EXTCODESIZE ISZERO ISZERO SWAP1 JUMP JUMPDEST PUSH1 0x0 PUSH1 0x1 PUSH1 0x1 PUSH1 0xE0 SHL SUB NOT DUP3 AND PUSH4 0x152A902D PUSH1 0xE1 SHL EQ DUP1 PUSH2 0x393 JUMPI POP PUSH2 0x393 DUP3 PUSH2 0x1221 JUMP JUMPDEST PUSH1 0x4 SLOAD PUSH1 0x1 PUSH1 0x1 PUSH1 0xA0 SHL SUB AND CALLER EQ PUSH2 0x8CD JUMPI PUSH1 0x40 MLOAD PUSH3 0x461BCD PUSH1 0xE5 SHL DUP2 MSTORE PUSH1 0x20 PUSH1 0x4 DUP3 ADD DUP2 SWAP1 MSTORE PUSH1 0x24 DUP3 ADD MSTORE PUSH32 0x4F776E61626C653A2063616C6C6572206973206E6F7420746865206F776E6572 PUSH1 0x44 DUP3 ADD MSTORE PUSH1 0x64 ADD PUSH2 0x367 JUMP JUMPDEST PUSH1 0x1 PUSH1 0x1 PUSH1 0xA0 SHL SUB DUP5 AND PUSH2 0xC8B JUMPI PUSH1 0x40 MLOAD PUSH3 0x461BCD PUSH1 0xE5 SHL DUP2 MSTORE PUSH1 0x20 PUSH1 0x4 DUP3 ADD MSTORE PUSH1 0x21 PUSH1 0x24 DUP3 ADD MSTORE PUSH32 0x455243313135353A206D696E7420746F20746865207A65726F20616464726573 PUSH1 0x44 DUP3 ADD MSTORE PUSH1 0x73 PUSH1 0xF8 SHL PUSH1 0x64 DUP3 ADD MSTORE PUSH1 0x84 ADD PUSH2 0x367 JUMP JUMPDEST CALLER PUSH1 0x0 PUSH2 0xC97 DUP6 PUSH2 0x1271 JUMP JUMPDEST SWAP1 POP PUSH1 0x0 PUSH2 0xCA4 DUP6 PUSH2 0x1271 JUMP JUMPDEST SWAP1 POP PUSH1 0x0 DUP7 DUP2 MSTORE PUSH1 0x20 DUP2 DUP2 MSTORE PUSH1 0x40 DUP1 DUP4 KECCAK256 PUSH1 0x1 PUSH1 0x1 PUSH1 0xA0 SHL SUB DUP12 AND DUP5 MSTORE SWAP1 SWAP2 MSTORE DUP2 KECCAK256 DUP1 SLOAD DUP8 SWAP3 SWAP1 PUSH2 0xCD6 SWAP1 DUP5 SWAP1 PUSH2 0x1E8E JUMP JUMPDEST SWAP1 SWAP2 SSTORE POP POP PUSH1 0x40 DUP1 MLOAD DUP8 DUP2 MSTORE PUSH1 0x20 DUP2 ADD DUP8 SWAP1 MSTORE PUSH1 0x1 PUSH1 0x1 PUSH1 0xA0 SHL SUB DUP1 DUP11 AND SWAP3 PUSH1 0x0 SWAP3 SWAP2 DUP8 AND SWAP2 PUSH32 0xC3D58168C5AE7397731D063D5BBF3D657854427343F4C083240F7AACAA2D0F62 SWAP2 ADD PUSH1 0x40 MLOAD DUP1 SWAP2 SUB SWAP1 LOG4 PUSH2 0xD36 DUP4 PUSH1 0x0 DUP10 DUP10 DUP10 DUP10 PUSH2 0x12BC JUMP JUMPDEST POP POP POP POP POP POP POP JUMP JUMPDEST PUSH2 0x2710 DUP2 GT ISZERO PUSH2 0xD91 JUMPI PUSH1 0x40 MLOAD PUSH3 0x461BCD PUSH1 0xE5 SHL DUP2 MSTORE PUSH1 0x20 PUSH1 0x4 DUP3 ADD MSTORE PUSH1 0x1A PUSH1 0x24 DUP3 ADD MSTORE PUSH32 0x45524332393831526F79616C746965733A20546F6F2068696768000000000000 PUSH1 0x44 DUP3 ADD MSTORE PUSH1 0x64 ADD PUSH2 0x367 JUMP JUMPDEST PUSH1 0x40 DUP1 MLOAD DUP1 DUP3 ADD DUP3 MSTORE PUSH1 0x1 PUSH1 0x1 PUSH1 0xA0 SHL SUB SWAP4 DUP5 AND DUP2 MSTORE PUSH3 0xFFFFFF SWAP3 DUP4 AND PUSH1 0x20 DUP1 DUP4 ADD SWAP2 DUP3 MSTORE PUSH1 0x0 SWAP7 DUP8 MSTORE PUSH1 0x3 SWAP1 MSTORE SWAP2 SWAP1 SWAP5 KECCAK256 SWAP4 MLOAD DUP5 SLOAD SWAP2 MLOAD SWAP1 SWAP3 AND PUSH1 0x1 PUSH1 0xA0 SHL MUL PUSH1 0x1 PUSH1 0x1 PUSH1 0xB8 SHL SUB NOT SWAP1 SWAP2 AND SWAP2 SWAP1 SWAP3 AND OR OR SWAP1 SSTORE JUMP JUMPDEST DUP2 MLOAD DUP4 MLOAD EQ PUSH2 0xE4A JUMPI PUSH1 0x40 MLOAD PUSH3 0x461BCD PUSH1 0xE5 SHL DUP2 MSTORE PUSH1 0x20 PUSH1 0x4 DUP3 ADD MSTORE PUSH1 0x28 PUSH1 0x24 DUP3 ADD MSTORE PUSH32 0x455243313135353A2069647320616E6420616D6F756E7473206C656E67746820 PUSH1 0x44 DUP3 ADD MSTORE PUSH8 0xDAD2E6DAC2E8C6D PUSH1 0xC3 SHL PUSH1 0x64 DUP3 ADD MSTORE PUSH1 0x84 ADD PUSH2 0x367 JUMP JUMPDEST PUSH1 0x1 PUSH1 0x1 PUSH1 0xA0 SHL SUB DUP5 AND PUSH2 0xE70 JUMPI PUSH1 0x40 MLOAD PUSH3 0x461BCD PUSH1 0xE5 SHL DUP2 MSTORE PUSH1 0x4 ADD PUSH2 0x367 SWAP1 PUSH2 0x1EA1 JUMP JUMPDEST CALLER PUSH1 0x0 JUMPDEST DUP5 MLOAD DUP2 LT ISZERO PUSH2 0xF57 JUMPI PUSH1 0x0 DUP6 DUP3 DUP2 MLOAD DUP2 LT PUSH2 0xE91 JUMPI PUSH2 0xE91 PUSH2 0x1C4A JUMP JUMPDEST PUSH1 0x20 MUL PUSH1 0x20 ADD ADD MLOAD SWAP1 POP PUSH1 0x0 DUP6 DUP4 DUP2 MLOAD DUP2 LT PUSH2 0xEAF JUMPI PUSH2 0xEAF PUSH2 0x1C4A JUMP JUMPDEST PUSH1 0x20 SWAP1 DUP2 MUL SWAP2 SWAP1 SWAP2 ADD DUP2 ADD MLOAD PUSH1 0x0 DUP5 DUP2 MSTORE DUP1 DUP4 MSTORE PUSH1 0x40 DUP1 DUP3 KECCAK256 PUSH1 0x1 PUSH1 0x1 PUSH1 0xA0 SHL SUB DUP15 AND DUP4 MSTORE SWAP1 SWAP4 MSTORE SWAP2 SWAP1 SWAP2 KECCAK256 SLOAD SWAP1 SWAP2 POP DUP2 DUP2 LT ISZERO PUSH2 0xEFF JUMPI PUSH1 0x40 MLOAD PUSH3 0x461BCD PUSH1 0xE5 SHL DUP2 MSTORE PUSH1 0x4 ADD PUSH2 0x367 SWAP1 PUSH2 0x1EE6 JUMP JUMPDEST PUSH1 0x0 DUP4 DUP2 MSTORE PUSH1 0x20 DUP2 DUP2 MSTORE PUSH1 0x40 DUP1 DUP4 KECCAK256 PUSH1 0x1 PUSH1 0x1 PUSH1 0xA0 SHL SUB DUP15 DUP2 AND DUP6 MSTORE SWAP3 MSTORE DUP1 DUP4 KECCAK256 DUP6 DUP6 SUB SWAP1 SSTORE SWAP1 DUP12 AND DUP3 MSTORE DUP2 KECCAK256 DUP1 SLOAD DUP5 SWAP3 SWAP1 PUSH2 0xF3C SWAP1 DUP5 SWAP1 PUSH2 0x1E8E JUMP JUMPDEST SWAP3 POP POP DUP2 SWAP1 SSTORE POP POP POP POP DUP1 PUSH2 0xF50 SWAP1 PUSH2 0x1CFD JUMP JUMPDEST SWAP1 POP PUSH2 0xE74 JUMP JUMPDEST POP DUP5 PUSH1 0x1 PUSH1 0x1 PUSH1 0xA0 SHL SUB AND DUP7 PUSH1 0x1 PUSH1 0x1 PUSH1 0xA0 SHL SUB AND DUP3 PUSH1 0x1 PUSH1 0x1 PUSH1 0xA0 SHL SUB AND PUSH32 0x4A39DC06D4C0DBC64B70AF90FD698A233A518AA5D07E595D983B8C0526C8F7FB DUP8 DUP8 PUSH1 0x40 MLOAD PUSH2 0xFA7 SWAP3 SWAP2 SWAP1 PUSH2 0x1F30 JUMP JUMPDEST PUSH1 0x40 MLOAD DUP1 SWAP2 SUB SWAP1 LOG4 PUSH2 0xFBD DUP2 DUP8 DUP8 DUP8 DUP8 DUP8 PUSH2 0x1417 JUMP JUMPDEST POP POP POP POP POP POP JUMP JUMPDEST PUSH1 0x4 DUP1 SLOAD PUSH1 0x1 PUSH1 0x1 PUSH1 0xA0 SHL SUB DUP4 DUP2 AND PUSH1 0x1 PUSH1 0x1 PUSH1 0xA0 SHL SUB NOT DUP4 AND DUP2 OR SWAP1 SWAP4 SSTORE PUSH1 0x40 MLOAD SWAP2 AND SWAP2 SWAP1 DUP3 SWAP1 PUSH32 0x8BE0079C531659141344CD1FD0A4F28419497F9722A3DAAFE3B4186F6B6457E0 SWAP1 PUSH1 0x0 SWAP1 LOG3 POP POP JUMP JUMPDEST DUP2 PUSH1 0x1 PUSH1 0x1 PUSH1 0xA0 SHL SUB AND DUP4 PUSH1 0x1 PUSH1 0x1 PUSH1 0xA0 SHL SUB AND SUB PUSH2 0x108A JUMPI PUSH1 0x40 MLOAD PUSH3 0x461BCD PUSH1 0xE5 SHL DUP2 MSTORE PUSH1 0x20 PUSH1 0x4 DUP3 ADD MSTORE PUSH1 0x29 PUSH1 0x24 DUP3 ADD MSTORE PUSH32 0x455243313135353A2073657474696E6720617070726F76616C20737461747573 PUSH1 0x44 DUP3 ADD MSTORE PUSH9 0x103337B91039B2B633 PUSH1 0xB9 SHL PUSH1 0x64 DUP3 ADD MSTORE PUSH1 0x84 ADD PUSH2 0x367 JUMP JUMPDEST PUSH1 0x1 PUSH1 0x1 PUSH1 0xA0 SHL SUB DUP4 DUP2 AND PUSH1 0x0 DUP2 DUP2 MSTORE PUSH1 0x1 PUSH1 0x20 SWAP1 DUP2 MSTORE PUSH1 0x40 DUP1 DUP4 KECCAK256 SWAP5 DUP8 AND DUP1 DUP5 MSTORE SWAP5 DUP3 MSTORE SWAP2 DUP3 SWAP1 KECCAK256 DUP1 SLOAD PUSH1 0xFF NOT AND DUP7 ISZERO ISZERO SWAP1 DUP2 OR SWAP1 SWAP2 SSTORE SWAP2 MLOAD SWAP2 DUP3 MSTORE PUSH32 0x17307EAB39AB6107E8899845AD3D59BD9653F200F220920489CA2B5937696C31 SWAP2 ADD PUSH1 0x40 MLOAD DUP1 SWAP2 SUB SWAP1 LOG3 POP POP POP JUMP JUMPDEST PUSH1 0x1 PUSH1 0x1 PUSH1 0xA0 SHL SUB DUP5 AND PUSH2 0x111D JUMPI PUSH1 0x40 MLOAD PUSH3 0x461BCD PUSH1 0xE5 SHL DUP2 MSTORE PUSH1 0x4 ADD PUSH2 0x367 SWAP1 PUSH2 0x1EA1 JUMP JUMPDEST CALLER PUSH1 0x0 PUSH2 0x1129 DUP6 PUSH2 0x1271 JUMP JUMPDEST SWAP1 POP PUSH1 0x0 PUSH2 0x1136 DUP6 PUSH2 0x1271 JUMP JUMPDEST SWAP1 POP PUSH1 0x0 DUP7 DUP2 MSTORE PUSH1 0x20 DUP2 DUP2 MSTORE PUSH1 0x40 DUP1 DUP4 KECCAK256 PUSH1 0x1 PUSH1 0x1 PUSH1 0xA0 SHL SUB DUP13 AND DUP5 MSTORE SWAP1 SWAP2 MSTORE SWAP1 KECCAK256 SLOAD DUP6 DUP2 LT ISZERO PUSH2 0x1179 JUMPI PUSH1 0x40 MLOAD PUSH3 0x461BCD PUSH1 0xE5 SHL DUP2 MSTORE PUSH1 0x4 ADD PUSH2 0x367 SWAP1 PUSH2 0x1EE6 JUMP JUMPDEST PUSH1 0x0 DUP8 DUP2 MSTORE PUSH1 0x20 DUP2 DUP2 MSTORE PUSH1 0x40 DUP1 DUP4 KECCAK256 PUSH1 0x1 PUSH1 0x1 PUSH1 0xA0 SHL SUB DUP14 DUP2 AND DUP6 MSTORE SWAP3 MSTORE DUP1 DUP4 KECCAK256 DUP10 DUP6 SUB SWAP1 SSTORE SWAP1 DUP11 AND DUP3 MSTORE DUP2 KECCAK256 DUP1 SLOAD DUP9 SWAP3 SWAP1 PUSH2 0x11B6 SWAP1 DUP5 SWAP1 PUSH2 0x1E8E JUMP JUMPDEST SWAP1 SWAP2 SSTORE POP POP PUSH1 0x40 DUP1 MLOAD DUP9 DUP2 MSTORE PUSH1 0x20 DUP2 ADD DUP9 SWAP1 MSTORE PUSH1 0x1 PUSH1 0x1 PUSH1 0xA0 SHL SUB DUP1 DUP12 AND SWAP3 DUP13 DUP3 AND SWAP3 SWAP2 DUP9 AND SWAP2 PUSH32 0xC3D58168C5AE7397731D063D5BBF3D657854427343F4C083240F7AACAA2D0F62 SWAP2 ADD PUSH1 0x40 MLOAD DUP1 SWAP2 SUB SWAP1 LOG4 PUSH2 0x1216 DUP5 DUP11 DUP11 DUP11 DUP11 DUP11 PUSH2 0x12BC JUMP JUMPDEST POP POP POP POP POP POP POP POP POP JUMP JUMPDEST PUSH1 0x0 PUSH1 0x1 PUSH1 0x1 PUSH1 0xE0 SHL SUB NOT DUP3 AND PUSH4 0x6CDB3D13 PUSH1 0xE1 SHL EQ DUP1 PUSH2 0x1252 JUMPI POP PUSH1 0x1 PUSH1 0x1 PUSH1 0xE0 SHL SUB NOT DUP3 AND PUSH4 0x3A24D07 PUSH1 0xE2 SHL EQ JUMPDEST DUP1 PUSH2 0x393 JUMPI POP PUSH4 0x1FFC9A7 PUSH1 0xE0 SHL PUSH1 0x1 PUSH1 0x1 PUSH1 0xE0 SHL SUB NOT DUP4 AND EQ PUSH2 0x393 JUMP JUMPDEST PUSH1 0x40 DUP1 MLOAD PUSH1 0x1 DUP1 DUP3 MSTORE DUP2 DUP4 ADD SWAP1 SWAP3 MSTORE PUSH1 0x60 SWAP2 PUSH1 0x0 SWAP2 SWAP1 PUSH1 0x20 DUP1 DUP4 ADD SWAP1 DUP1 CALLDATASIZE DUP4 CALLDATACOPY ADD SWAP1 POP POP SWAP1 POP DUP3 DUP2 PUSH1 0x0 DUP2 MLOAD DUP2 LT PUSH2 0x12AB JUMPI PUSH2 0x12AB PUSH2 0x1C4A JUMP JUMPDEST PUSH1 0x20 SWAP1 DUP2 MUL SWAP2 SWAP1 SWAP2 ADD ADD MSTORE SWAP3 SWAP2 POP POP JUMP JUMPDEST PUSH1 0x1 PUSH1 0x1 PUSH1 0xA0 SHL SUB DUP5 AND EXTCODESIZE ISZERO PUSH2 0xFBD JUMPI PUSH1 0x40 MLOAD PUSH4 0xF23A6E61 PUSH1 0xE0 SHL DUP2 MSTORE PUSH1 0x1 PUSH1 0x1 PUSH1 0xA0 SHL SUB DUP6 AND SWAP1 PUSH4 0xF23A6E61 SWAP1 PUSH2 0x1300 SWAP1 DUP10 SWAP1 DUP10 SWAP1 DUP9 SWAP1 DUP9 SWAP1 DUP9 SWAP1 PUSH1 0x4 ADD PUSH2 0x1F5E JUMP JUMPDEST PUSH1 0x20 PUSH1 0x40 MLOAD DUP1 DUP4 SUB DUP2 PUSH1 0x0 DUP8 GAS CALL SWAP3 POP POP POP DUP1 ISZERO PUSH2 0x133B JUMPI POP PUSH1 0x40 DUP1 MLOAD PUSH1 0x1F RETURNDATASIZE SWAP1 DUP2 ADD PUSH1 0x1F NOT AND DUP3 ADD SWAP1 SWAP3 MSTORE PUSH2 0x1338 SWAP2 DUP2 ADD SWAP1 PUSH2 0x1FA3 JUMP JUMPDEST PUSH1 0x1 JUMPDEST PUSH2 0x13E7 JUMPI PUSH2 0x1347 PUSH2 0x1FC0 JUMP JUMPDEST DUP1 PUSH4 0x8C379A0 SUB PUSH2 0x1380 JUMPI POP PUSH2 0x135B PUSH2 0x1FDC JUMP JUMPDEST DUP1 PUSH2 0x1366 JUMPI POP PUSH2 0x1382 JUMP JUMPDEST DUP1 PUSH1 0x40 MLOAD PUSH3 0x461BCD PUSH1 0xE5 SHL DUP2 MSTORE PUSH1 0x4 ADD PUSH2 0x367 SWAP2 SWAP1 PUSH2 0x16A6 JUMP JUMPDEST POP JUMPDEST PUSH1 0x40 MLOAD PUSH3 0x461BCD PUSH1 0xE5 SHL DUP2 MSTORE PUSH1 0x20 PUSH1 0x4 DUP3 ADD MSTORE PUSH1 0x34 PUSH1 0x24 DUP3 ADD MSTORE PUSH32 0x455243313135353A207472616E7366657220746F206E6F6E2D45524331313535 PUSH1 0x44 DUP3 ADD MSTORE PUSH20 0x2932B1B2B4BB32B91034B6B83632B6B2B73A32B9 PUSH1 0x61 SHL PUSH1 0x64 DUP3 ADD MSTORE PUSH1 0x84 ADD PUSH2 0x367 JUMP JUMPDEST PUSH1 0x1 PUSH1 0x1 PUSH1 0xE0 SHL SUB NOT DUP2 AND PUSH4 0xF23A6E61 PUSH1 0xE0 SHL EQ PUSH2 0xD36 JUMPI PUSH1 0x40 MLOAD PUSH3 0x461BCD PUSH1 0xE5 SHL DUP2 MSTORE PUSH1 0x4 ADD PUSH2 0x367 SWAP1 PUSH2 0x2066 JUMP JUMPDEST PUSH1 0x1 PUSH1 0x1 PUSH1 0xA0 SHL SUB DUP5 AND EXTCODESIZE ISZERO PUSH2 0xFBD JUMPI PUSH1 0x40 MLOAD PUSH4 0xBC197C81 PUSH1 0xE0 SHL DUP2 MSTORE PUSH1 0x1 PUSH1 0x1 PUSH1 0xA0 SHL SUB DUP6 AND SWAP1 PUSH4 0xBC197C81 SWAP1 PUSH2 0x145B SWAP1 DUP10 SWAP1 DUP10 SWAP1 DUP9 SWAP1 DUP9 SWAP1 DUP9 SWAP1 PUSH1 0x4 ADD PUSH2 0x20AE JUMP JUMPDEST PUSH1 0x20 PUSH1 0x40 MLOAD DUP1 DUP4 SUB DUP2 PUSH1 0x0 DUP8 GAS CALL SWAP3 POP POP POP DUP1 ISZERO PUSH2 0x1496 JUMPI POP PUSH1 0x40 DUP1 MLOAD PUSH1 0x1F RETURNDATASIZE SWAP1 DUP2 ADD PUSH1 0x1F NOT AND DUP3 ADD SWAP1 SWAP3 MSTORE PUSH2 0x1493 SWAP2 DUP2 ADD SWAP1 PUSH2 0x1FA3 JUMP JUMPDEST PUSH1 0x1 JUMPDEST PUSH2 0x14A2 JUMPI PUSH2 0x1347 PUSH2 0x1FC0 JUMP JUMPDEST PUSH1 0x1 PUSH1 0x1 PUSH1 0xE0 SHL SUB NOT DUP2 AND PUSH4 0xBC197C81 PUSH1 0xE0 SHL EQ PUSH2 0xD36 JUMPI PUSH1 0x40 MLOAD PUSH3 0x461BCD PUSH1 0xE5 SHL DUP2 MSTORE PUSH1 0x4 ADD PUSH2 0x367 SWAP1 PUSH2 0x2066 JUMP JUMPDEST DUP1 CALLDATALOAD PUSH1 0x1 PUSH1 0x1 PUSH1 0xA0 SHL SUB DUP2 AND DUP2 EQ PUSH2 0x14E9 JUMPI PUSH1 0x0 DUP1 REVERT JUMPDEST SWAP2 SWAP1 POP JUMP JUMPDEST PUSH1 0x0 DUP1 PUSH1 0x40 DUP4 DUP6 SUB SLT ISZERO PUSH2 0x1501 JUMPI PUSH1 0x0 DUP1 REVERT JUMPDEST PUSH2 0x150A DUP4 PUSH2 0x14D2 JUMP JUMPDEST SWAP5 PUSH1 0x20 SWAP4 SWAP1 SWAP4 ADD CALLDATALOAD SWAP4 POP POP POP JUMP JUMPDEST PUSH1 0x1 PUSH1 0x1 PUSH1 0xE0 SHL SUB NOT DUP2 AND DUP2 EQ PUSH2 0xAD2 JUMPI PUSH1 0x0 DUP1 REVERT JUMPDEST PUSH1 0x0 PUSH1 0x20 DUP3 DUP5 SUB SLT ISZERO PUSH2 0x1540 JUMPI PUSH1 0x0 DUP1 REVERT JUMPDEST DUP2 CALLDATALOAD PUSH2 0x154B DUP2 PUSH2 0x1518 JUMP JUMPDEST SWAP4 SWAP3 POP POP POP JUMP JUMPDEST PUSH4 0x4E487B71 PUSH1 0xE0 SHL PUSH1 0x0 MSTORE PUSH1 0x41 PUSH1 0x4 MSTORE PUSH1 0x24 PUSH1 0x0 REVERT JUMPDEST PUSH1 0x1F DUP3 ADD PUSH1 0x1F NOT AND DUP2 ADD PUSH8 0xFFFFFFFFFFFFFFFF DUP2 GT DUP3 DUP3 LT OR ISZERO PUSH2 0x158E JUMPI PUSH2 0x158E PUSH2 0x1552 JUMP JUMPDEST PUSH1 0x40 MSTORE POP POP JUMP JUMPDEST PUSH1 0x0 DUP3 PUSH1 0x1F DUP4 ADD SLT PUSH2 0x15A6 JUMPI PUSH1 0x0 DUP1 REVERT JUMPDEST DUP2 CALLDATALOAD PUSH8 0xFFFFFFFFFFFFFFFF DUP2 GT ISZERO PUSH2 0x15C0 JUMPI PUSH2 0x15C0 PUSH2 0x1552 JUMP JUMPDEST PUSH1 0x40 MLOAD PUSH2 0x15D7 PUSH1 0x1F DUP4 ADD PUSH1 0x1F NOT AND PUSH1 0x20 ADD DUP3 PUSH2 0x1568 JUMP JUMPDEST DUP2 DUP2 MSTORE DUP5 PUSH1 0x20 DUP4 DUP7 ADD ADD GT ISZERO PUSH2 0x15EC JUMPI PUSH1 0x0 DUP1 REVERT JUMPDEST DUP2 PUSH1 0x20 DUP6 ADD PUSH1 0x20 DUP4 ADD CALLDATACOPY PUSH1 0x0 SWAP2 DUP2 ADD PUSH1 0x20 ADD SWAP2 SWAP1 SWAP2 MSTORE SWAP4 SWAP3 POP POP POP JUMP JUMPDEST PUSH1 0x0 DUP1 PUSH1 0x0 PUSH1 0x60 DUP5 DUP7 SUB SLT ISZERO PUSH2 0x161E JUMPI PUSH1 0x0 DUP1 REVERT JUMPDEST PUSH2 0x1627 DUP5 PUSH2 0x14D2 JUMP JUMPDEST SWAP3 POP PUSH1 0x20 DUP5 ADD CALLDATALOAD SWAP2 POP PUSH1 0x40 DUP5 ADD CALLDATALOAD PUSH8 0xFFFFFFFFFFFFFFFF DUP2 GT ISZERO PUSH2 0x164A JUMPI PUSH1 0x0 DUP1 REVERT JUMPDEST PUSH2 0x1656 DUP7 DUP3 DUP8 ADD PUSH2 0x1595 JUMP JUMPDEST SWAP2 POP POP SWAP3 POP SWAP3 POP SWAP3 JUMP JUMPDEST PUSH1 0x0 DUP2 MLOAD DUP1 DUP5 MSTORE PUSH1 0x0 JUMPDEST DUP2 DUP2 LT ISZERO PUSH2 0x1686 JUMPI PUSH1 0x20 DUP2 DUP6 ADD DUP2 ADD MLOAD DUP7 DUP4 ADD DUP3 ADD MSTORE ADD PUSH2 0x166A JUMP JUMPDEST POP PUSH1 0x0 PUSH1 0x20 DUP3 DUP7 ADD ADD MSTORE PUSH1 0x20 PUSH1 0x1F NOT PUSH1 0x1F DUP4 ADD AND DUP6 ADD ADD SWAP2 POP POP SWAP3 SWAP2 POP POP JUMP JUMPDEST PUSH1 0x20 DUP2 MSTORE PUSH1 0x0 PUSH2 0x154B PUSH1 0x20 DUP4 ADD DUP5 PUSH2 0x1660 JUMP JUMPDEST PUSH1 0x0 PUSH1 0x20 DUP3 DUP5 SUB SLT ISZERO PUSH2 0x16CB JUMPI PUSH1 0x0 DUP1 REVERT JUMPDEST POP CALLDATALOAD SWAP2 SWAP1 POP JUMP JUMPDEST PUSH1 0x0 DUP1 PUSH1 0x40 DUP4 DUP6 SUB SLT ISZERO PUSH2 0x16E5 JUMPI PUSH1 0x0 DUP1 REVERT JUMPDEST POP POP DUP1 CALLDATALOAD SWAP3 PUSH1 0x20 SWAP1 SWAP2 ADD CALLDATALOAD SWAP2 POP JUMP JUMPDEST PUSH1 0x0 PUSH8 0xFFFFFFFFFFFFFFFF DUP3 GT ISZERO PUSH2 0x170E JUMPI PUSH2 0x170E PUSH2 0x1552 JUMP JUMPDEST POP PUSH1 0x5 SHL PUSH1 0x20 ADD SWAP1 JUMP JUMPDEST PUSH1 0x0 DUP3 PUSH1 0x1F DUP4 ADD SLT PUSH2 0x1729 JUMPI PUSH1 0x0 DUP1 REVERT JUMPDEST DUP2 CALLDATALOAD PUSH1 0x20 PUSH2 0x1736 DUP3 PUSH2 0x16F4 JUMP JUMPDEST PUSH1 0x40 MLOAD PUSH2 0x1743 DUP3 DUP3 PUSH2 0x1568 JUMP JUMPDEST DUP4 DUP2 MSTORE PUSH1 0x5 SWAP4 SWAP1 SWAP4 SHL DUP6 ADD DUP3 ADD SWAP3 DUP3 DUP2 ADD SWAP2 POP DUP7 DUP5 GT ISZERO PUSH2 0x1763 JUMPI PUSH1 0x0 DUP1 REVERT JUMPDEST DUP3 DUP7 ADD JUMPDEST DUP5 DUP2 LT ISZERO PUSH2 0x177E JUMPI DUP1 CALLDATALOAD DUP4 MSTORE SWAP2 DUP4 ADD SWAP2 DUP4 ADD PUSH2 0x1767 JUMP JUMPDEST POP SWAP7 SWAP6 POP POP POP POP POP POP JUMP JUMPDEST PUSH1 0x0 DUP1 PUSH1 0x0 DUP1 PUSH1 0x0 PUSH1 0xA0 DUP7 DUP9 SUB SLT ISZERO PUSH2 0x17A1 JUMPI PUSH1 0x0 DUP1 REVERT JUMPDEST PUSH2 0x17AA DUP7 PUSH2 0x14D2 JUMP JUMPDEST SWAP5 POP PUSH2 0x17B8 PUSH1 0x20 DUP8 ADD PUSH2 0x14D2 JUMP JUMPDEST SWAP4 POP PUSH1 0x40 DUP7 ADD CALLDATALOAD PUSH8 0xFFFFFFFFFFFFFFFF DUP1 DUP3 GT ISZERO PUSH2 0x17D5 JUMPI PUSH1 0x0 DUP1 REVERT JUMPDEST PUSH2 0x17E1 DUP10 DUP4 DUP11 ADD PUSH2 0x1718 JUMP JUMPDEST SWAP5 POP PUSH1 0x60 DUP9 ADD CALLDATALOAD SWAP2 POP DUP1 DUP3 GT ISZERO PUSH2 0x17F7 JUMPI PUSH1 0x0 DUP1 REVERT JUMPDEST PUSH2 0x1803 DUP10 DUP4 DUP11 ADD PUSH2 0x1718 JUMP JUMPDEST SWAP4 POP PUSH1 0x80 DUP9 ADD CALLDATALOAD SWAP2 POP DUP1 DUP3 GT ISZERO PUSH2 0x1819 JUMPI PUSH1 0x0 DUP1 REVERT JUMPDEST POP PUSH2 0x1826 DUP9 DUP3 DUP10 ADD PUSH2 0x1595 JUMP JUMPDEST SWAP2 POP POP SWAP3 SWAP6 POP SWAP3 SWAP6 SWAP1 SWAP4 POP JUMP JUMPDEST PUSH1 0x0 DUP1 PUSH1 0x40 DUP4 DUP6 SUB SLT ISZERO PUSH2 0x1846 JUMPI PUSH1 0x0 DUP1 REVERT JUMPDEST DUP3 CALLDATALOAD PUSH8 0xFFFFFFFFFFFFFFFF DUP1 DUP3 GT ISZERO PUSH2 0x185E JUMPI PUSH1 0x0 DUP1 REVERT JUMPDEST DUP2 DUP6 ADD SWAP2 POP DUP6 PUSH1 0x1F DUP4 ADD SLT PUSH2 0x1872 JUMPI PUSH1 0x0 DUP1 REVERT JUMPDEST DUP2 CALLDATALOAD PUSH1 0x20 PUSH2 0x187F DUP3 PUSH2 0x16F4 JUMP JUMPDEST PUSH1 0x40 MLOAD PUSH2 0x188C DUP3 DUP3 PUSH2 0x1568 JUMP JUMPDEST DUP4 DUP2 MSTORE PUSH1 0x5 SWAP4 SWAP1 SWAP4 SHL DUP6 ADD DUP3 ADD SWAP3 DUP3 DUP2 ADD SWAP2 POP DUP10 DUP5 GT ISZERO PUSH2 0x18AC JUMPI PUSH1 0x0 DUP1 REVERT JUMPDEST SWAP5 DUP3 ADD SWAP5 JUMPDEST DUP4 DUP7 LT ISZERO PUSH2 0x18D1 JUMPI PUSH2 0x18C2 DUP7 PUSH2 0x14D2 JUMP JUMPDEST DUP3 MSTORE SWAP5 DUP3 ADD SWAP5 SWAP1 DUP3 ADD SWAP1 PUSH2 0x18B1 JUMP JUMPDEST SWAP7 POP POP DUP7 ADD CALLDATALOAD SWAP3 POP POP DUP1 DUP3 GT ISZERO PUSH2 0x18E7 JUMPI PUSH1 0x0 DUP1 REVERT JUMPDEST POP PUSH2 0x619 DUP6 DUP3 DUP7 ADD PUSH2 0x1718 JUMP JUMPDEST PUSH1 0x0 DUP2 MLOAD DUP1 DUP5 MSTORE PUSH1 0x20 DUP1 DUP6 ADD SWAP5 POP DUP1 DUP5 ADD PUSH1 0x0 JUMPDEST DUP4 DUP2 LT ISZERO PUSH2 0x1924 JUMPI DUP2 MLOAD DUP8 MSTORE SWAP6 DUP3 ADD SWAP6 SWAP1 DUP3 ADD SWAP1 PUSH1 0x1 ADD PUSH2 0x1908 JUMP JUMPDEST POP SWAP5 SWAP6 SWAP5 POP POP POP POP POP JUMP JUMPDEST PUSH1 0x20 DUP2 MSTORE PUSH1 0x0 PUSH2 0x154B PUSH1 0x20 DUP4 ADD DUP5 PUSH2 0x18F4 JUMP JUMPDEST DUP1 MLOAD DUP3 MSTORE PUSH1 0x0 PUSH1 0x20 DUP3 ADD MLOAD PUSH1 0x40 PUSH1 0x20 DUP6 ADD MSTORE PUSH2 0x479 PUSH1 0x40 DUP6 ADD DUP3 PUSH2 0x1660 JUMP JUMPDEST PUSH1 0x20 DUP2 MSTORE PUSH1 0x0 PUSH2 0x154B PUSH1 0x20 DUP4 ADD DUP5 PUSH2 0x1942 JUMP JUMPDEST PUSH1 0x0 DUP1 PUSH1 0x40 DUP4 DUP6 SUB SLT ISZERO PUSH2 0x1987 JUMPI PUSH1 0x0 DUP1 REVERT JUMPDEST DUP3 CALLDATALOAD PUSH8 0xFFFFFFFFFFFFFFFF DUP2 GT ISZERO PUSH2 0x199E JUMPI PUSH1 0x0 DUP1 REVERT JUMPDEST PUSH2 0x19AA DUP6 DUP3 DUP7 ADD PUSH2 0x1595 JUMP JUMPDEST SWAP6 PUSH1 0x20 SWAP5 SWAP1 SWAP5 ADD CALLDATALOAD SWAP5 POP POP POP POP JUMP JUMPDEST PUSH1 0x0 PUSH1 0x20 DUP1 DUP4 ADD DUP2 DUP5 MSTORE DUP1 DUP6 MLOAD DUP1 DUP4 MSTORE PUSH1 0x40 DUP7 ADD SWAP2 POP PUSH1 0x40 DUP2 PUSH1 0x5 SHL DUP8 ADD ADD SWAP3 POP DUP4 DUP8 ADD PUSH1 0x0 JUMPDEST DUP3 DUP2 LT ISZERO PUSH2 0x1A0E JUMPI PUSH1 0x3F NOT DUP9 DUP7 SUB ADD DUP5 MSTORE PUSH2 0x19FC DUP6 DUP4 MLOAD PUSH2 0x1942 JUMP JUMPDEST SWAP5 POP SWAP3 DUP6 ADD SWAP3 SWAP1 DUP6 ADD SWAP1 PUSH1 0x1 ADD PUSH2 0x19E0 JUMP JUMPDEST POP SWAP3 SWAP8 SWAP7 POP POP POP POP POP POP POP JUMP JUMPDEST PUSH1 0x0 DUP1 PUSH1 0x40 DUP4 DUP6 SUB SLT ISZERO PUSH2 0x1A2E JUMPI PUSH1 0x0 DUP1 REVERT JUMPDEST PUSH2 0x1A37 DUP4 PUSH2 0x14D2 JUMP JUMPDEST SWAP2 POP PUSH1 0x20 DUP4 ADD CALLDATALOAD DUP1 ISZERO ISZERO DUP2 EQ PUSH2 0x1A4C JUMPI PUSH1 0x0 DUP1 REVERT JUMPDEST DUP1 SWAP2 POP POP SWAP3 POP SWAP3 SWAP1 POP JUMP JUMPDEST PUSH1 0x0 DUP1 PUSH1 0x40 DUP4 DUP6 SUB SLT ISZERO PUSH2 0x1A6A JUMPI PUSH1 0x0 DUP1 REVERT JUMPDEST PUSH2 0x1A73 DUP4 PUSH2 0x14D2 JUMP JUMPDEST SWAP2 POP PUSH2 0x1A81 PUSH1 0x20 DUP5 ADD PUSH2 0x14D2 JUMP JUMPDEST SWAP1 POP SWAP3 POP SWAP3 SWAP1 POP JUMP JUMPDEST PUSH1 0x0 DUP1 PUSH1 0x0 DUP1 PUSH1 0x0 PUSH1 0xA0 DUP7 DUP9 SUB SLT ISZERO PUSH2 0x1AA2 JUMPI PUSH1 0x0 DUP1 REVERT JUMPDEST PUSH2 0x1AAB DUP7 PUSH2 0x14D2 JUMP JUMPDEST SWAP5 POP PUSH2 0x1AB9 PUSH1 0x20 DUP8 ADD PUSH2 0x14D2 JUMP JUMPDEST SWAP4 POP PUSH1 0x40 DUP7 ADD CALLDATALOAD SWAP3 POP PUSH1 0x60 DUP7 ADD CALLDATALOAD SWAP2 POP PUSH1 0x80 DUP7 ADD CALLDATALOAD PUSH8 0xFFFFFFFFFFFFFFFF DUP2 GT ISZERO PUSH2 0x1AE3 JUMPI PUSH1 0x0 DUP1 REVERT JUMPDEST PUSH2 0x1826 DUP9 DUP3 DUP10 ADD PUSH2 0x1595 JUMP JUMPDEST PUSH1 0x0 PUSH1 0x20 DUP3 DUP5 SUB SLT ISZERO PUSH2 0x1B01 JUMPI PUSH1 0x0 DUP1 REVERT JUMPDEST PUSH2 0x154B DUP3 PUSH2 0x14D2 JUMP JUMPDEST PUSH1 0x1 DUP2 DUP2 SHR SWAP1 DUP3 AND DUP1 PUSH2 0x1B1E JUMPI PUSH1 0x7F DUP3 AND SWAP2 POP JUMPDEST PUSH1 0x20 DUP3 LT DUP2 SUB PUSH2 0x1B3E JUMPI PUSH4 0x4E487B71 PUSH1 0xE0 SHL PUSH1 0x0 MSTORE PUSH1 0x22 PUSH1 0x4 MSTORE PUSH1 0x24 PUSH1 0x0 REVERT JUMPDEST POP SWAP2 SWAP1 POP JUMP JUMPDEST PUSH1 0x1F DUP3 GT ISZERO PUSH2 0x8B6 JUMPI PUSH1 0x0 DUP2 DUP2 MSTORE PUSH1 0x20 DUP2 KECCAK256 PUSH1 0x1F DUP6 ADD PUSH1 0x5 SHR DUP2 ADD PUSH1 0x20 DUP7 LT ISZERO PUSH2 0x1B6B JUMPI POP DUP1 JUMPDEST PUSH1 0x1F DUP6 ADD PUSH1 0x5 SHR DUP3 ADD SWAP2 POP JUMPDEST DUP2 DUP2 LT ISZERO PUSH2 0xFBD JUMPI DUP3 DUP2 SSTORE PUSH1 0x1 ADD PUSH2 0x1B77 JUMP JUMPDEST DUP2 MLOAD PUSH8 0xFFFFFFFFFFFFFFFF DUP2 GT ISZERO PUSH2 0x1BA4 JUMPI PUSH2 0x1BA4 PUSH2 0x1552 JUMP JUMPDEST PUSH2 0x1BB8 DUP2 PUSH2 0x1BB2 DUP5 SLOAD PUSH2 0x1B0A JUMP JUMPDEST DUP5 PUSH2 0x1B44 JUMP JUMPDEST PUSH1 0x20 DUP1 PUSH1 0x1F DUP4 GT PUSH1 0x1 DUP2 EQ PUSH2 0x1BED JUMPI PUSH1 0x0 DUP5 ISZERO PUSH2 0x1BD5 JUMPI POP DUP6 DUP4 ADD MLOAD JUMPDEST PUSH1 0x0 NOT PUSH1 0x3 DUP7 SWAP1 SHL SHR NOT AND PUSH1 0x1 DUP6 SWAP1 SHL OR DUP6 SSTORE PUSH2 0xFBD JUMP JUMPDEST PUSH1 0x0 DUP6 DUP2 MSTORE PUSH1 0x20 DUP2 KECCAK256 PUSH1 0x1F NOT DUP7 AND SWAP2 JUMPDEST DUP3 DUP2 LT ISZERO PUSH2 0x1C1C JUMPI DUP9 DUP7 ADD MLOAD DUP3 SSTORE SWAP5 DUP5 ADD SWAP5 PUSH1 0x1 SWAP1 SWAP2 ADD SWAP1 DUP5 ADD PUSH2 0x1BFD JUMP JUMPDEST POP DUP6 DUP3 LT ISZERO PUSH2 0x1C3A JUMPI DUP8 DUP6 ADD MLOAD PUSH1 0x0 NOT PUSH1 0x3 DUP9 SWAP1 SHL PUSH1 0xF8 AND SHR NOT AND DUP2 SSTORE JUMPDEST POP POP POP POP POP PUSH1 0x1 SWAP1 DUP2 SHL ADD SWAP1 SSTORE POP JUMP JUMPDEST PUSH4 0x4E487B71 PUSH1 0xE0 SHL PUSH1 0x0 MSTORE PUSH1 0x32 PUSH1 0x4 MSTORE PUSH1 0x24 PUSH1 0x0 REVERT JUMPDEST PUSH4 0x4E487B71 PUSH1 0xE0 SHL PUSH1 0x0 MSTORE PUSH1 0x11 PUSH1 0x4 MSTORE PUSH1 0x24 PUSH1 0x0 REVERT JUMPDEST DUP1 DUP3 MUL DUP2 ISZERO DUP3 DUP3 DIV DUP5 EQ OR PUSH2 0x393 JUMPI PUSH2 0x393 PUSH2 0x1C60 JUMP JUMPDEST PUSH1 0x0 DUP3 PUSH2 0x1CAA JUMPI PUSH4 0x4E487B71 PUSH1 0xE0 SHL PUSH1 0x0 MSTORE PUSH1 0x12 PUSH1 0x4 MSTORE PUSH1 0x24 PUSH1 0x0 REVERT JUMPDEST POP DIV SWAP1 JUMP JUMPDEST PUSH1 0x20 DUP1 DUP3 MSTORE PUSH1 0x2E SWAP1 DUP3 ADD MSTORE PUSH32 0x455243313135353A2063616C6C6572206973206E6F7420746F6B656E206F776E PUSH1 0x40 DUP3 ADD MSTORE PUSH14 0x195C881BDC88185C1C1C9BDD9959 PUSH1 0x92 SHL PUSH1 0x60 DUP3 ADD MSTORE PUSH1 0x80 ADD SWAP1 JUMP JUMPDEST PUSH1 0x0 PUSH1 0x1 DUP3 ADD PUSH2 0x1D0F JUMPI PUSH2 0x1D0F PUSH2 0x1C60 JUMP JUMPDEST POP PUSH1 0x1 ADD SWAP1 JUMP JUMPDEST PUSH1 0x0 DUP2 SLOAD PUSH2 0x1D23 DUP2 PUSH2 0x1B0A JUMP JUMPDEST PUSH1 0x1 DUP3 DUP2 AND DUP1 ISZERO PUSH2 0x1D3B JUMPI PUSH1 0x1 DUP2 EQ PUSH2 0x1D50 JUMPI PUSH2 0x1D7F JUMP JUMPDEST PUSH1 0xFF NOT DUP5 AND DUP8 MSTORE DUP3 ISZERO ISZERO DUP4 MUL DUP8 ADD SWAP5 POP PUSH2 0x1D7F JUMP JUMPDEST DUP6 PUSH1 0x0 MSTORE PUSH1 0x20 DUP1 PUSH1 0x0 KECCAK256 PUSH1 0x0 JUMPDEST DUP6 DUP2 LT ISZERO PUSH2 0x1D76 JUMPI DUP2 SLOAD DUP11 DUP3 ADD MSTORE SWAP1 DUP5 ADD SWAP1 DUP3 ADD PUSH2 0x1D5D JUMP JUMPDEST POP POP POP DUP3 DUP8 ADD SWAP5 POP JUMPDEST POP POP POP POP SWAP3 SWAP2 POP POP JUMP JUMPDEST PUSH1 0x0 PUSH2 0x1D9E PUSH2 0x1D98 DUP4 DUP8 PUSH2 0x1D16 JUMP JUMPDEST DUP6 PUSH2 0x1D16 JUMP JUMPDEST PUSH1 0x31 PUSH1 0xF8 SHL DUP2 MSTORE PUSH2 0x1DB2 PUSH1 0x1 DUP3 ADD DUP6 PUSH2 0x1D16 JUMP JUMPDEST SWAP7 SWAP6 POP POP POP POP POP POP JUMP JUMPDEST PUSH1 0x0 PUSH2 0x1DCB PUSH2 0x1D98 DUP4 DUP8 PUSH2 0x1D16 JUMP JUMPDEST PUSH1 0x19 PUSH1 0xF9 SHL DUP2 MSTORE PUSH2 0x1DB2 PUSH1 0x1 DUP3 ADD DUP6 PUSH2 0x1D16 JUMP JUMPDEST PUSH1 0x0 PUSH2 0x1DEE PUSH2 0x1D98 DUP4 DUP8 PUSH2 0x1D16 JUMP JUMPDEST PUSH1 0x33 PUSH1 0xF8 SHL DUP2 MSTORE PUSH2 0x1DB2 PUSH1 0x1 DUP3 ADD DUP6 PUSH2 0x1D16 JUMP JUMPDEST PUSH1 0x0 PUSH2 0x1E11 PUSH2 0x1D98 DUP4 DUP8 PUSH2 0x1D16 JUMP JUMPDEST PUSH1 0xD PUSH1 0xFA SHL DUP2 MSTORE PUSH2 0x1DB2 PUSH1 0x1 DUP3 ADD DUP6 PUSH2 0x1D16 JUMP JUMPDEST PUSH1 0x0 PUSH2 0x1E34 PUSH2 0x1D98 DUP4 DUP8 PUSH2 0x1D16 JUMP JUMPDEST PUSH1 0x35 PUSH1 0xF8 SHL DUP2 MSTORE PUSH2 0x1DB2 PUSH1 0x1 DUP3 ADD DUP6 PUSH2 0x1D16 JUMP JUMPDEST PUSH1 0x0 PUSH2 0x1E57 PUSH2 0x1D98 DUP4 DUP8 PUSH2 0x1D16 JUMP JUMPDEST PUSH1 0x1B PUSH1 0xF9 SHL DUP2 MSTORE PUSH2 0x1DB2 PUSH1 0x1 DUP3 ADD DUP6 PUSH2 0x1D16 JUMP JUMPDEST PUSH1 0x0 PUSH2 0x1E7A PUSH2 0x1D98 DUP4 DUP8 PUSH2 0x1D16 JUMP JUMPDEST PUSH1 0x37 PUSH1 0xF8 SHL DUP2 MSTORE PUSH2 0x1DB2 PUSH1 0x1 DUP3 ADD DUP6 PUSH2 0x1D16 JUMP JUMPDEST DUP1 DUP3 ADD DUP1 DUP3 GT ISZERO PUSH2 0x393 JUMPI PUSH2 0x393 PUSH2 0x1C60 JUMP JUMPDEST PUSH1 0x20 DUP1 DUP3 MSTORE PUSH1 0x25 SWAP1 DUP3 ADD MSTORE PUSH32 0x455243313135353A207472616E7366657220746F20746865207A65726F206164 PUSH1 0x40 DUP3 ADD MSTORE PUSH5 0x6472657373 PUSH1 0xD8 SHL PUSH1 0x60 DUP3 ADD MSTORE PUSH1 0x80 ADD SWAP1 JUMP JUMPDEST PUSH1 0x20 DUP1 DUP3 MSTORE PUSH1 0x2A SWAP1 DUP3 ADD MSTORE PUSH32 0x455243313135353A20696E73756666696369656E742062616C616E636520666F PUSH1 0x40 DUP3 ADD MSTORE PUSH10 0x39103A3930B739B332B9 PUSH1 0xB1 SHL PUSH1 0x60 DUP3 ADD MSTORE PUSH1 0x80 ADD SWAP1 JUMP JUMPDEST PUSH1 0x40 DUP2 MSTORE PUSH1 0x0 PUSH2 0x1F43 PUSH1 0x40 DUP4 ADD DUP6 PUSH2 0x18F4 JUMP JUMPDEST DUP3 DUP2 SUB PUSH1 0x20 DUP5 ADD MSTORE PUSH2 0x1F55 DUP2 DUP6 PUSH2 0x18F4 JUMP JUMPDEST SWAP6 SWAP5 POP POP POP POP POP JUMP JUMPDEST PUSH1 0x1 PUSH1 0x1 PUSH1 0xA0 SHL SUB DUP7 DUP2 AND DUP3 MSTORE DUP6 AND PUSH1 0x20 DUP3 ADD MSTORE PUSH1 0x40 DUP2 ADD DUP5 SWAP1 MSTORE PUSH1 0x60 DUP2 ADD DUP4 SWAP1 MSTORE PUSH1 0xA0 PUSH1 0x80 DUP3 ADD DUP2 SWAP1 MSTORE PUSH1 0x0 SWAP1 PUSH2 0x1F98 SWAP1 DUP4 ADD DUP5 PUSH2 0x1660 JUMP JUMPDEST SWAP8 SWAP7 POP POP POP POP POP POP POP JUMP JUMPDEST PUSH1 0x0 PUSH1 0x20 DUP3 DUP5 SUB SLT ISZERO PUSH2 0x1FB5 JUMPI PUSH1 0x0 DUP1 REVERT JUMPDEST DUP2 MLOAD PUSH2 0x154B DUP2 PUSH2 0x1518 JUMP JUMPDEST PUSH1 0x0 PUSH1 0x3 RETURNDATASIZE GT ISZERO PUSH2 0x1FD9 JUMPI PUSH1 0x4 PUSH1 0x0 DUP1 RETURNDATACOPY POP PUSH1 0x0 MLOAD PUSH1 0xE0 SHR JUMPDEST SWAP1 JUMP JUMPDEST PUSH1 0x0 PUSH1 0x44 RETURNDATASIZE LT ISZERO PUSH2 0x1FEA JUMPI SWAP1 JUMP JUMPDEST PUSH1 0x40 MLOAD PUSH1 0x3 NOT RETURNDATASIZE DUP2 ADD PUSH1 0x4 DUP4 RETURNDATACOPY DUP2 MLOAD RETURNDATASIZE PUSH8 0xFFFFFFFFFFFFFFFF DUP2 PUSH1 0x24 DUP5 ADD GT DUP2 DUP5 GT OR ISZERO PUSH2 0x201A JUMPI POP POP POP POP POP SWAP1 JUMP JUMPDEST DUP3 DUP6 ADD SWAP2 POP DUP2 MLOAD DUP2 DUP2 GT ISZERO PUSH2 0x2032 JUMPI POP POP POP POP POP POP SWAP1 JUMP JUMPDEST DUP5 RETURNDATASIZE DUP8 ADD ADD PUSH1 0x20 DUP3 DUP6 ADD ADD GT ISZERO PUSH2 0x204C JUMPI POP POP POP POP POP POP SWAP1 JUMP JUMPDEST PUSH2 0x205B PUSH1 0x20 DUP3 DUP7 ADD ADD DUP8 PUSH2 0x1568 JUMP JUMPDEST POP SWAP1 SWAP6 SWAP5 POP POP POP POP POP JUMP JUMPDEST PUSH1 0x20 DUP1 DUP3 MSTORE PUSH1 0x28 SWAP1 DUP3 ADD MSTORE PUSH32 0x455243313135353A204552433131353552656365697665722072656A65637465 PUSH1 0x40 DUP3 ADD MSTORE PUSH8 0x6420746F6B656E73 PUSH1 0xC0 SHL PUSH1 0x60 DUP3 ADD MSTORE PUSH1 0x80 ADD SWAP1 JUMP JUMPDEST PUSH1 0x1 PUSH1 0x1 PUSH1 0xA0 SHL SUB DUP7 DUP2 AND DUP3 MSTORE DUP6 AND PUSH1 0x20 DUP3 ADD MSTORE PUSH1 0xA0 PUSH1 0x40 DUP3 ADD DUP2 SWAP1 MSTORE PUSH1 0x0 SWAP1 PUSH2 0x20DA SWAP1 DUP4 ADD DUP7 PUSH2 0x18F4 JUMP JUMPDEST DUP3 DUP2 SUB PUSH1 0x60 DUP5 ADD MSTORE PUSH2 0x20EC DUP2 DUP7 PUSH2 0x18F4 JUMP JUMPDEST SWAP1 POP DUP3 DUP2 SUB PUSH1 0x80 DUP5 ADD MSTORE PUSH2 0x2100 DUP2 DUP6 PUSH2 0x1660 JUMP JUMPDEST SWAP9 SWAP8 POP POP POP POP POP POP POP POP JUMP INVALID LOG2 PUSH5 0x6970667358 0x22 SLT KECCAK256 0xB5 RETURNDATACOPY 0x1F 0xAB 0xFB LOG1 BALANCE 0xC3 0x28 XOR SHR DUP16 0xC2 0xC2 PUSH2 0xE443 0xF9 DIFFICULTY 0xC5 0x2D 0x1E LOG1 PUSH21 0xFEEF1DE4D878EA1964736F6C634300081100336874 PUSH21 0x70733A2F2F677261792D6F63636173696F6E616C2D PUSH7 0x697265666C792D CALLDATASIZE CODECOPY CALLER 0x2E PUSH14 0x7970696E6174612E636C6F75642F PUSH10 0x7066732F516D504B4C72 PUSH18 0x4C4851517A466E58546437474B3545577371 PUSH12 0x35614878646F4269396E364A PUSH15 0x647832537436742F00000000000000 "},"methodIdentifiers":{"balanceOf(address,uint256)":"00fdd58e","balanceOfBatch(address[],uint256[])":"4e1273f4","getHorse(uint256)":"4f57641c","getHorses()":"90adec6f","init()":"e1c7392a","isApprovedForAll(address,address)":"e985e9c5","mintHorse(address,uint256,string)":"03d0f90a","name()":"06fdde03","owner()":"8da5cb5b","renounceOwnership()":"715018a6","royaltyInfo(uint256,uint256)":"2a55205a","safeBatchTransferFrom(address,address,uint256[],uint256[],bytes)":"2eb2c2d6","safeTransferFrom(address,address,uint256,uint256,bytes)":"f242432a","setApprovalForAll(address,bool)":"a22cb465","setURI(string,uint256)":"67db3b8f","supportsInterface(bytes4)":"01ffc9a7","symbol()":"95d89b41","transferOwnership(address)":"f2fde38b","uri(uint256)":"0e89341c"}}}}}