{"contracts/Horses.sol":{"Horses":{"abi":[{"inputs":[],"stateMutability":"nonpayable","type":"constructor"},{"anonymous":false,"inputs":[{"indexed":true,"internalType":"address","name":"account","type":"address"},{"indexed":true,"internalType":"address","name":"operator","type":"address"},{"indexed":false,"internalType":"bool","name":"approved","type":"bool"}],"name":"ApprovalForAll","type":"event"},{"anonymous":false,"inputs":[{"indexed":true,"internalType":"uint256","name":"tokenId","type":"uint256"},{"indexed":false,"internalType":"address","name":"seller","type":"address"},{"indexed":false,"internalType":"address","name":"owner","type":"address"},{"indexed":false,"internalType":"uint256","name":"price","type":"uint256"},{"indexed":false,"internalType":"bool","name":"sold","type":"bool"}],"name":"MarketItemCreated","type":"event"},{"anonymous":false,"inputs":[{"indexed":true,"internalType":"address","name":"previousOwner","type":"address"},{"indexed":true,"internalType":"address","name":"newOwner","type":"address"}],"name":"OwnershipTransferred","type":"event"},{"anonymous":false,"inputs":[{"indexed":false,"internalType":"address","name":"account","type":"address"}],"name":"Paused","type":"event"},{"anonymous":false,"inputs":[{"indexed":true,"internalType":"address","name":"operator","type":"address"},{"indexed":true,"internalType":"address","name":"from","type":"address"},{"indexed":true,"internalType":"address","name":"to","type":"address"},{"indexed":false,"internalType":"uint256[]","name":"ids","type":"uint256[]"},{"indexed":false,"internalType":"uint256[]","name":"values","type":"uint256[]"}],"name":"TransferBatch","type":"event"},{"anonymous":false,"inputs":[{"indexed":true,"internalType":"address","name":"operator","type":"address"},{"indexed":true,"internalType":"address","name":"from","type":"address"},{"indexed":true,"internalType":"address","name":"to","type":"address"},{"indexed":false,"internalType":"uint256","name":"id","type":"uint256"},{"indexed":false,"internalType":"uint256","name":"value","type":"uint256"}],"name":"TransferSingle","type":"event"},{"anonymous":false,"inputs":[{"indexed":false,"internalType":"string","name":"value","type":"string"},{"indexed":true,"internalType":"uint256","name":"id","type":"uint256"}],"name":"URI","type":"event"},{"anonymous":false,"inputs":[{"indexed":false,"internalType":"address","name":"account","type":"address"}],"name":"Unpaused","type":"event"},{"inputs":[{"internalType":"address","name":"account","type":"address"},{"internalType":"uint256","name":"id","type":"uint256"}],"name":"balanceOf","outputs":[{"internalType":"uint256","name":"","type":"uint256"}],"stateMutability":"view","type":"function"},{"inputs":[{"internalType":"address[]","name":"accounts","type":"address[]"},{"internalType":"uint256[]","name":"ids","type":"uint256[]"}],"name":"balanceOfBatch","outputs":[{"internalType":"uint256[]","name":"","type":"uint256[]"}],"stateMutability":"view","type":"function"},{"inputs":[{"internalType":"uint256","name":"id","type":"uint256"}],"name":"exists","outputs":[{"internalType":"bool","name":"","type":"bool"}],"stateMutability":"view","type":"function"},{"inputs":[{"internalType":"uint256","name":"tokenId","type":"uint256"}],"name":"getHorse","outputs":[{"components":[{"internalType":"uint256","name":"id","type":"uint256"},{"internalType":"string","name":"uri","type":"string"},{"internalType":"uint256","name":"amount","type":"uint256"}],"internalType":"struct Horses.Horse","name":"","type":"tuple"}],"stateMutability":"view","type":"function"},{"inputs":[],"name":"getHorses","outputs":[{"components":[{"internalType":"uint256","name":"id","type":"uint256"},{"internalType":"string","name":"uri","type":"string"},{"internalType":"uint256","name":"amount","type":"uint256"}],"internalType":"struct Horses.Horse[]","name":"","type":"tuple[]"}],"stateMutability":"view","type":"function"},{"inputs":[],"name":"init","outputs":[],"stateMutability":"nonpayable","type":"function"},{"inputs":[{"internalType":"address","name":"account","type":"address"},{"internalType":"address","name":"operator","type":"address"}],"name":"isApprovedForAll","outputs":[{"internalType":"bool","name":"","type":"bool"}],"stateMutability":"view","type":"function"},{"inputs":[{"internalType":"address","name":"account","type":"address"},{"internalType":"uint256","name":"amount","type":"uint256"},{"internalType":"string","name":"_uri","type":"string"}],"name":"mintHorse","outputs":[{"internalType":"uint256","name":"","type":"uint256"}],"stateMutability":"nonpayable","type":"function"},{"inputs":[],"name":"name","outputs":[{"internalType":"string","name":"","type":"string"}],"stateMutability":"view","type":"function"},{"inputs":[],"name":"owner","outputs":[{"internalType":"address","name":"","type":"address"}],"stateMutability":"view","type":"function"},{"inputs":[],"name":"paused","outputs":[{"internalType":"bool","name":"","type":"bool"}],"stateMutability":"view","type":"function"},{"inputs":[],"name":"renounceOwnership","outputs":[],"stateMutability":"nonpayable","type":"function"},{"inputs":[{"internalType":"address","name":"from","type":"address"},{"internalType":"address","name":"to","type":"address"},{"internalType":"uint256[]","name":"ids","type":"uint256[]"},{"internalType":"uint256[]","name":"amounts","type":"uint256[]"},{"internalType":"bytes","name":"data","type":"bytes"}],"name":"safeBatchTransferFrom","outputs":[],"stateMutability":"nonpayable","type":"function"},{"inputs":[{"internalType":"address","name":"from","type":"address"},{"internalType":"address","name":"to","type":"address"},{"internalType":"uint256","name":"id","type":"uint256"},{"internalType":"uint256","name":"amount","type":"uint256"},{"internalType":"bytes","name":"data","type":"bytes"}],"name":"safeTransferFrom","outputs":[],"stateMutability":"nonpayable","type":"function"},{"inputs":[{"internalType":"address","name":"operator","type":"address"},{"internalType":"bool","name":"approved","type":"bool"}],"name":"setApprovalForAll","outputs":[],"stateMutability":"nonpayable","type":"function"},{"inputs":[{"internalType":"string","name":"baseURI","type":"string"}],"name":"setBaseURI","outputs":[],"stateMutability":"nonpayable","type":"function"},{"inputs":[{"internalType":"uint256","name":"_tokenId","type":"uint256"},{"internalType":"string","name":"_cid","type":"string"}],"name":"setTokenURI","outputs":[],"stateMutability":"nonpayable","type":"function"},{"inputs":[{"internalType":"uint256","name":"tokenId","type":"uint256"},{"internalType":"string","name":"newUri","type":"string"}],"name":"setURI","outputs":[],"stateMutability":"nonpayable","type":"function"},{"inputs":[{"internalType":"bytes4","name":"interfaceId","type":"bytes4"}],"name":"supportsInterface","outputs":[{"internalType":"bool","name":"","type":"bool"}],"stateMutability":"view","type":"function"},{"inputs":[],"name":"symbol","outputs":[{"internalType":"string","name":"","type":"string"}],"stateMutability":"view","type":"function"},{"inputs":[{"internalType":"uint256","name":"id","type":"uint256"}],"name":"totalSupply","outputs":[{"internalType":"uint256","name":"","type":"uint256"}],"stateMutability":"view","type":"function"},{"inputs":[{"internalType":"address","name":"newOwner","type":"address"}],"name":"transferOwnership","outputs":[],"stateMutability":"nonpayable","type":"function"},{"inputs":[{"internalType":"uint256","name":"tokenId","type":"uint256"}],"name":"uri","outputs":[{"internalType":"string","name":"","type":"string"}],"stateMutability":"view","type":"function"}],"evm":{"bytecode":{"linkReferences":{},"object":"60a0604052600060809081526003906200001a908262000de6565b50633b9aca00600a556040518060600160405280603281526020016200375c603291396010906200004c908262000de6565b506040518060600160405280603581526020016200378e6035913960119062000076908262000de6565b50604080518082019091526005815264173539b7b760d91b6020820152601290620000a2908262000de6565b50348015620000b057600080fd5b50604080516020810190915260008152620000cb81620001a1565b50620000d733620001b3565b6007805460ff1916905560408051808201909152600e8082526d416d62617373616427486f72736560901b60208301529062000114908262000de6565b506040805180820190915260078152665a45484f52534560c81b6020820152600f9062000142908262000de6565b50600b80546001600160a01b03199081163317909155600c80549091167370ae7f5a41517ad09b1df2e623a771e3718040431790556200018162000205565b6040805160208101909152600081526200019b906200030b565b62001294565b6002620001af828262000de6565b5050565b600580546001600160a01b038381166001600160a01b0319831681179093556040519116919082907f8be0079c531659141344cd1fd0a4f28419497f9722a3daafe3b4186f6b6457e090600090a35050565b6200023c3360c8601060116012604051602001620002269392919062000f2d565b60408051601f1981840301815291905262000319565b506200025e33608c601060116012604051602001620002269392919062000f66565b5062000280336096601060116012604051602001620002269392919062000f8e565b50620002a23360b4601060116012604051602001620002269392919062000fb6565b50620002c43360a0601060116012604051602001620002269392919062000fde565b50620002e63360fa601060116012604051602001620002269392919062001006565b50620003083360dc60106011601260405160200162000226939291906200102e565b50565b6003620001af828262000de6565b60006200032562000476565b6200033b82620004d860201b62000bcd1760201c565b60006200035460086200052360201b62000c101760201c565b604080516060810182528281526020810186815291810187905260138054600181018255600091909152815160039091027f66de8ffda797e3de9c05e8fc57b3bf0ec28a930d40b0d285d93c06501cf6a09081019182559251939450909290917f66de8ffda797e3de9c05e8fc57b3bf0ec28a930d40b0d285d93c06501cf6a0910190620003e3908262000de6565b5060409190910151600290910155620003fd818462000527565b826013828154811062000414576200041462001056565b9060005260206000209060030201600101908162000433919062000de6565b5062000457858286604051806020016040528060008152506200057460201b60201c565b6200046e6008620006a360201b62000c141760201c565b949350505050565b6005546001600160a01b03163314620004d65760405162461bcd60e51b815260206004820181905260248201527f4f776e61626c653a2063616c6c6572206973206e6f7420746865206f776e657260448201526064015b60405180910390fd5b565b6200030881604051602401620004ef9190620010c0565b60408051601f198184030181529190526020810180516001600160e01b0390811663104c13eb60e21b17909152620006ac16565b5490565b6200053162000476565b806013838154811062000548576200054862001056565b9060005260206000209060030201600101908162000567919062000de6565b50620001af8282620006cd565b6001600160a01b038416620005d65760405162461bcd60e51b815260206004820152602160248201527f455243313135353a206d696e7420746f20746865207a65726f206164647265736044820152607360f81b6064820152608401620004cd565b336000620005e485620006e3565b90506000620005f385620006e3565b9050620006068360008985858962000731565b6000868152602081815260408083206001600160a01b038b1684529091528120805487929062000638908490620010eb565b909155505060408051878152602081018790526001600160a01b03808a1692600092918716917fc3d58168c5ae7397731d063d5bbf3d657854427343f4c083240f7aacaa2d0f62910160405180910390a46200069a836000898989896200075e565b50505050505050565b80546001019055565b80516a636f6e736f6c652e6c6f67602083016000808483855afa5050505050565b620006d762000476565b620001af82826200092a565b6040805160018082528183019092526060916000919060208083019080368337019050509050828160008151811062000720576200072062001056565b602090810291909101015292915050565b6200073b6200098d565b62000756868686868686620009d560201b62000c1d1760201c565b505050505050565b6200077d846001600160a01b031662000b8360201b62000da01760201c565b15620007565760405163f23a6e6160e01b81526001600160a01b0385169063f23a6e6190620007b9908990899088908890889060040162001101565b6020604051808303816000875af1925050508015620007f7575060408051601f3d908101601f19168201909252620007f49181019062001148565b60015b620008b7576200080662001174565b806308c379a0036200084657506200081d620011c0565b806200082a575062000848565b8060405162461bcd60e51b8152600401620004cd9190620010c0565b505b60405162461bcd60e51b815260206004820152603460248201527f455243313135353a207472616e7366657220746f206e6f6e2d4552433131353560448201527f526563656976657220696d706c656d656e7465720000000000000000000000006064820152608401620004cd565b6001600160e01b0319811663f23a6e6160e01b146200069a5760405162461bcd60e51b815260206004820152602860248201527f455243313135353a204552433131353552656365697665722072656a656374656044820152676420746f6b656e7360c01b6064820152608401620004cd565b600082815260046020526040902062000944828262000de6565b50817f6bb7ff708619ba0610cba295a58592e0451dee2622938c8755667688daf3529b620009728262000b92565b604051620009819190620010c0565b60405180910390a25050565b60075460ff1615620004d65760405162461bcd60e51b815260206004820152601060248201526f14185d5cd8589b194e881c185d5cd95960821b6044820152606401620004cd565b620009f08686868686866200075660201b62000d981760201c565b6001600160a01b03851662000a845760005b835181101562000a825782818151811062000a215762000a2162001056565b60200260200101516006600086848151811062000a425762000a4262001056565b60200260200101518152602001908152602001600020600082825462000a699190620010eb565b9091555062000a7a9050816200124f565b905062000a02565b505b6001600160a01b038416620007565760005b83518110156200069a57600084828151811062000ab75762000ab762001056565b60200260200101519050600084838151811062000ad85762000ad862001056565b602002602001015190506000600660008481526020019081526020016000205490508181101562000b5d5760405162461bcd60e51b815260206004820152602860248201527f455243313135353a206275726e20616d6f756e74206578636565647320746f74604482015267616c537570706c7960c01b6064820152608401620004cd565b6000928352600660205260409092209103905562000b7b816200124f565b905062000a96565b6001600160a01b03163b151590565b606062000baa8262000bb060201b62000daf1760201c565b92915050565b60008181526004602052604081208054606092919062000bd09062000d5b565b80601f016020809104026020016040519081016040528092919081815260200182805462000bfe9062000d5b565b801562000c4f5780601f1062000c235761010080835404028352916020019162000c4f565b820191906000526020600020905b81548152906001019060200180831162000c3157829003601f168201915b50505050509050600081511162000c7c5762000c768362000ca960201b62000e8f1760201c565b62000ca2565b60038160405160200162000c929291906200126b565b6040516020818303038152906040525b9392505050565b60606002805462000cba9062000d5b565b80601f016020809104026020016040519081016040528092919081815260200182805462000ce89062000d5b565b801562000d395780601f1062000d0d5761010080835404028352916020019162000d39565b820191906000526020600020905b81548152906001019060200180831162000d1b57829003601f168201915b50505050509050919050565b634e487b7160e01b600052604160045260246000fd5b600181811c9082168062000d7057607f821691505b60208210810362000d9157634e487b7160e01b600052602260045260246000fd5b50919050565b601f82111562000de157600081815260208120601f850160051c8101602086101562000dc05750805b601f850160051c820191505b81811015620007565782815560010162000dcc565b505050565b81516001600160401b0381111562000e025762000e0262000d45565b62000e1a8162000e13845462000d5b565b8462000d97565b602080601f83116001811462000e52576000841562000e395750858301515b600019600386901b1c1916600185901b17855562000756565b600085815260208120601f198616915b8281101562000e835788860151825594840194600190910190840162000e62565b508582101562000ea25787850151600019600388901b60f8161c191681555b5050505050600190811b01905550565b6000815462000ec18162000d5b565b6001828116801562000edc576001811462000ef25762000f23565b60ff198416875282151583028701945062000f23565b8560005260208060002060005b8581101562000f1a5781548a82015290840190820162000eff565b50505082870194505b5050505092915050565b600062000f4662000f3f838762000eb2565b8562000eb2565b603160f81b815262000f5c600182018562000eb2565b9695505050505050565b600062000f7862000f3f838762000eb2565b601960f91b815262000f5c600182018562000eb2565b600062000fa062000f3f838762000eb2565b603360f81b815262000f5c600182018562000eb2565b600062000fc862000f3f838762000eb2565b600d60fa1b815262000f5c600182018562000eb2565b600062000ff062000f3f838762000eb2565b603560f81b815262000f5c600182018562000eb2565b60006200101862000f3f838762000eb2565b601b60f91b815262000f5c600182018562000eb2565b60006200104062000f3f838762000eb2565b603760f81b815262000f5c600182018562000eb2565b634e487b7160e01b600052603260045260246000fd5b60005b83811015620010895781810151838201526020016200106f565b50506000910152565b60008151808452620010ac8160208601602086016200106c565b601f01601f19169290920160200192915050565b60208152600062000ca2602083018462001092565b634e487b7160e01b600052601160045260246000fd5b8082018082111562000baa5762000baa620010d5565b6001600160a01b03868116825285166020820152604081018490526060810183905260a0608082018190526000906200113d9083018462001092565b979650505050505050565b6000602082840312156200115b57600080fd5b81516001600160e01b03198116811462000ca257600080fd5b600060033d11156200118e5760046000803e5060005160e01c5b90565b601f8201601f191681016001600160401b0381118282101715620011b957620011b962000d45565b6040525050565b600060443d1015620011cf5790565b6040516003193d81016004833e81513d6001600160401b038083116024840183101715620011ff57505050505090565b8285019150815181811115620012185750505050505090565b843d8701016020828501011115620012335750505050505090565b620012446020828601018762001191565b509095945050505050565b600060018201620012645762001264620010d5565b5060010190565b600062001279828562000eb2565b83516200128b8183602088016200106c565b01949350505050565b6124b880620012a46000396000f3fe608060405234801561001057600080fd5b506004361061014c5760003560e01c80635c975abb116100c3578063a22cb4651161007c578063a22cb465146102d0578063bd85b039146102e3578063e1c7392a14610303578063e985e9c51461030b578063f242432a14610347578063f2fde38b1461035a57600080fd5b80635c975abb14610272578063715018a61461027d578063862440e2146102855780638da5cb5b1461029857806390adec6f146102b357806395d89b41146102c857600080fd5b8063162094c411610115578063162094c4146101d55780632eb2c2d6146101ea5780634e1273f4146101fd5780634f558e791461021d5780634f57641c1461023f57806355f804b31461025f57600080fd5b8062fdd58e1461015157806301ffc9a71461017757806303d0f90a1461019a57806306fdde03146101ad5780630e89341c146101c2575b600080fd5b61016461015f366004611847565b61036d565b6040519081526020015b60405180910390f35b61018a610185366004611887565b610406565b604051901515815260200161016e565b6101646101a836600461195b565b610456565b6101b561057b565b60405161016e9190611a02565b6101b56101d0366004611a15565b610609565b6101e86101e3366004611a2e565b610614565b005b6101e86101f8366004611b0a565b61062a565b61021061020b366004611bb4565b610676565b60405161016e9190611cb0565b61018a61022b366004611a15565b600090815260066020526040902054151590565b61025261024d366004611a15565b6107a0565b60405161016e9190611cf6565b6101e861026d366004611d09565b61089d565b60075460ff1661018a565b6101e86108b1565b6101e8610293366004611a2e565b6108c5565b6005546040516001600160a01b03909116815260200161016e565b6102bb610909565b60405161016e9190611d3e565b6101b5610a0e565b6101e86102de366004611da0565b610a1b565b6101646102f1366004611a15565b60009081526006602052604090205490565b6101e8610a26565b61018a610319366004611ddc565b6001600160a01b03918216600090815260016020908152604080832093909416825291909152205460ff1690565b6101e8610355366004611e0f565b610b12565b6101e8610368366004611e74565b610b57565b60006001600160a01b0383166103dd5760405162461bcd60e51b815260206004820152602a60248201527f455243313135353a2061646472657373207a65726f206973206e6f742061207660448201526930b634b21037bbb732b960b11b60648201526084015b60405180910390fd5b506000818152602081815260408083206001600160a01b03861684529091529020545b92915050565b60006001600160e01b03198216636cdb3d1360e11b148061043757506001600160e01b031982166303a24d0760e21b145b8061040057506301ffc9a760e01b6001600160e01b0319831614610400565b6000610460610f23565b61046982610bcd565b600061047460085490565b604080516060810182528281526020810186815291810187905260138054600181018255600091909152815160039091027f66de8ffda797e3de9c05e8fc57b3bf0ec28a930d40b0d285d93c06501cf6a09081019182559251939450909290917f66de8ffda797e3de9c05e8fc57b3bf0ec28a930d40b0d285d93c06501cf6a09101906105019082611f14565b5060408201518160020155505061051881846108c5565b826013828154811061052c5761052c611fd4565b906000526020600020906003020160010190816105499190611f14565b5061056585828660405180602001604052806000815250610f7d565b610573600880546001019055565b949350505050565b600e805461058890611e8f565b80601f01602080910402602001604051908101604052809291908181526020018280546105b490611e8f565b80156106015780601f106105d657610100808354040283529160200191610601565b820191906000526020600020905b8154815290600101906020018083116105e457829003601f168201915b505050505081565b606061040082610daf565b61061c610f23565b6106268282611097565b5050565b6001600160a01b03851633148061064657506106468533610319565b6106625760405162461bcd60e51b81526004016103d490611fea565b61066f85858585856110f4565b5050505050565b606081518351146106db5760405162461bcd60e51b815260206004820152602960248201527f455243313135353a206163636f756e747320616e6420696473206c656e677468604482015268040dad2e6dac2e8c6d60bb1b60648201526084016103d4565b6000835167ffffffffffffffff8111156106f7576106f76118a4565b604051908082528060200260200182016040528015610720578160200160208202803683370190505b50905060005b84518110156107985761076b85828151811061074457610744611fd4565b602002602001015185838151811061075e5761075e611fd4565b602002602001015161036d565b82828151811061077d5761077d611fd4565b60209081029190910101526107918161204e565b9050610726565b509392505050565b6107c460405180606001604052806000815260200160608152602001600081525090565b601382815481106107d7576107d7611fd4565b90600052602060002090600302016040518060600160405290816000820154815260200160018201805461080a90611e8f565b80601f016020809104026020016040519081016040528092919081815260200182805461083690611e8f565b80156108835780601f1061085857610100808354040283529160200191610883565b820191906000526020600020905b81548152906001019060200180831161086657829003601f168201915b505050505081526020016002820154815250509050919050565b6108a5610f23565b6108ae816112d7565b50565b6108b9610f23565b6108c360006112e3565b565b6108cd610f23565b80601383815481106108e1576108e1611fd4565b906000526020600020906003020160010190816108fe9190611f14565b506106268282610614565b60606013805480602002602001604051908101604052809291908181526020016000905b82821015610a0557838290600052602060002090600302016040518060600160405290816000820154815260200160018201805461096a90611e8f565b80601f016020809104026020016040519081016040528092919081815260200182805461099690611e8f565b80156109e35780601f106109b8576101008083540402835291602001916109e3565b820191906000526020600020905b8154815290600101906020018083116109c657829003601f168201915b505050505081526020016002820154815250508152602001906001019061092d565b50505050905090565b600f805461058890611e8f565b610626338383611335565b610a583360c8601060116012604051602001610a44939291906120da565b604051602081830303815290604052610456565b50610a7733608c601060116012604051602001610a449392919061210d565b50610a96336096601060116012604051602001610a4493929190612130565b50610ab53360b4601060116012604051602001610a4493929190612153565b50610ad43360a0601060116012604051602001610a4493929190612176565b50610af33360fa601060116012604051602001610a4493929190612199565b506108ae3360dc601060116012604051602001610a44939291906121bc565b6001600160a01b038516331480610b2e5750610b2e8533610319565b610b4a5760405162461bcd60e51b81526004016103d490611fea565b61066f8585858585611415565b610b5f610f23565b6001600160a01b038116610bc45760405162461bcd60e51b815260206004820152602660248201527f4f776e61626c653a206e6577206f776e657220697320746865207a65726f206160448201526564647265737360d01b60648201526084016103d4565b6108ae816112e3565b6108ae81604051602401610be19190611a02565b60408051601f198184030181529190526020810180516001600160e01b031663104c13eb60e21b17905261154d565b5490565b80546001019055565b6001600160a01b038516610ca45760005b8351811015610ca257828181518110610c4957610c49611fd4565b602002602001015160066000868481518110610c6757610c67611fd4565b602002602001015181526020019081526020016000206000828254610c8c91906121df565b90915550610c9b90508161204e565b9050610c2e565b505b6001600160a01b038416610d985760005b8351811015610d96576000848281518110610cd257610cd2611fd4565b602002602001015190506000848381518110610cf057610cf0611fd4565b6020026020010151905060006006600084815260200190815260200160002054905081811015610d735760405162461bcd60e51b815260206004820152602860248201527f455243313135353a206275726e20616d6f756e74206578636565647320746f74604482015267616c537570706c7960c01b60648201526084016103d4565b60009283526006602052604090922091039055610d8f8161204e565b9050610cb5565b505b505050505050565b6001600160a01b03163b151590565b600081815260046020526040812080546060929190610dcd90611e8f565b80601f0160208091040260200160405190810160405280929190818152602001828054610df990611e8f565b8015610e465780601f10610e1b57610100808354040283529160200191610e46565b820191906000526020600020905b815481529060010190602001808311610e2957829003601f168201915b505050505090506000815111610e6457610e5f83610e8f565b610e88565b600381604051602001610e789291906121f2565b6040516020818303038152906040525b9392505050565b606060028054610e9e90611e8f565b80601f0160208091040260200160405190810160405280929190818152602001828054610eca90611e8f565b8015610f175780601f10610eec57610100808354040283529160200191610f17565b820191906000526020600020905b815481529060010190602001808311610efa57829003601f168201915b50505050509050919050565b6005546001600160a01b031633146108c35760405162461bcd60e51b815260206004820181905260248201527f4f776e61626c653a2063616c6c6572206973206e6f7420746865206f776e657260448201526064016103d4565b6001600160a01b038416610fdd5760405162461bcd60e51b815260206004820152602160248201527f455243313135353a206d696e7420746f20746865207a65726f206164647265736044820152607360f81b60648201526084016103d4565b336000610fe98561156e565b90506000610ff68561156e565b9050611007836000898585896115b9565b6000868152602081815260408083206001600160a01b038b168452909152812080548792906110379084906121df565b909155505060408051878152602081018790526001600160a01b03808a1692600092918716917fc3d58168c5ae7397731d063d5bbf3d657854427343f4c083240f7aacaa2d0f62910160405180910390a4610d96836000898989896115cf565b60008281526004602052604090206110af8282611f14565b50817f6bb7ff708619ba0610cba295a58592e0451dee2622938c8755667688daf3529b6110db84610609565b6040516110e89190611a02565b60405180910390a25050565b81518351146111565760405162461bcd60e51b815260206004820152602860248201527f455243313135353a2069647320616e6420616d6f756e7473206c656e677468206044820152670dad2e6dac2e8c6d60c31b60648201526084016103d4565b6001600160a01b03841661117c5760405162461bcd60e51b81526004016103d490612217565b3361118b8187878787876115b9565b60005b84518110156112715760008582815181106111ab576111ab611fd4565b6020026020010151905060008583815181106111c9576111c9611fd4565b602090810291909101810151600084815280835260408082206001600160a01b038e1683529093529190912054909150818110156112195760405162461bcd60e51b81526004016103d49061225c565b6000838152602081815260408083206001600160a01b038e8116855292528083208585039055908b168252812080548492906112569084906121df565b925050819055505050508061126a9061204e565b905061118e565b50846001600160a01b0316866001600160a01b0316826001600160a01b03167f4a39dc06d4c0dbc64b70af90fd698a233a518aa5d07e595d983b8c0526c8f7fb87876040516112c19291906122a6565b60405180910390a4610d9881878787878761172a565b60036106268282611f14565b600580546001600160a01b038381166001600160a01b0319831681179093556040519116919082907f8be0079c531659141344cd1fd0a4f28419497f9722a3daafe3b4186f6b6457e090600090a35050565b816001600160a01b0316836001600160a01b0316036113a85760405162461bcd60e51b815260206004820152602960248201527f455243313135353a2073657474696e6720617070726f76616c20737461747573604482015268103337b91039b2b63360b91b60648201526084016103d4565b6001600160a01b03838116600081815260016020908152604080832094871680845294825291829020805460ff191686151590811790915591519182527f17307eab39ab6107e8899845ad3d59bd9653f200f220920489ca2b5937696c31910160405180910390a3505050565b6001600160a01b03841661143b5760405162461bcd60e51b81526004016103d490612217565b3360006114478561156e565b905060006114548561156e565b90506114648389898585896115b9565b6000868152602081815260408083206001600160a01b038c168452909152902054858110156114a55760405162461bcd60e51b81526004016103d49061225c565b6000878152602081815260408083206001600160a01b038d8116855292528083208985039055908a168252812080548892906114e29084906121df565b909155505060408051888152602081018890526001600160a01b03808b16928c821692918816917fc3d58168c5ae7397731d063d5bbf3d657854427343f4c083240f7aacaa2d0f62910160405180910390a4611542848a8a8a8a8a6115cf565b505050505050505050565b80516a636f6e736f6c652e6c6f67602083016000808483855afa5050505050565b604080516001808252818301909252606091600091906020808301908036833701905050905082816000815181106115a8576115a8611fd4565b602090810291909101015292915050565b6115c16117e5565b610d98868686868686610c1d565b6001600160a01b0384163b15610d985760405163f23a6e6160e01b81526001600160a01b0385169063f23a6e619061161390899089908890889088906004016122d4565b6020604051808303816000875af192505050801561164e575060408051601f3d908101601f1916820190925261164b91810190612319565b60015b6116fa5761165a612336565b806308c379a003611693575061166e612352565b806116795750611695565b8060405162461bcd60e51b81526004016103d49190611a02565b505b60405162461bcd60e51b815260206004820152603460248201527f455243313135353a207472616e7366657220746f206e6f6e2d455243313135356044820152732932b1b2b4bb32b91034b6b83632b6b2b73a32b960611b60648201526084016103d4565b6001600160e01b0319811663f23a6e6160e01b14610d965760405162461bcd60e51b81526004016103d4906123dc565b6001600160a01b0384163b15610d985760405163bc197c8160e01b81526001600160a01b0385169063bc197c819061176e9089908990889088908890600401612424565b6020604051808303816000875af19250505080156117a9575060408051601f3d908101601f191682019092526117a691810190612319565b60015b6117b55761165a612336565b6001600160e01b0319811663bc197c8160e01b14610d965760405162461bcd60e51b81526004016103d4906123dc565b60075460ff16156108c35760405162461bcd60e51b815260206004820152601060248201526f14185d5cd8589b194e881c185d5cd95960821b60448201526064016103d4565b80356001600160a01b038116811461184257600080fd5b919050565b6000806040838503121561185a57600080fd5b6118638361182b565b946020939093013593505050565b6001600160e01b0319811681146108ae57600080fd5b60006020828403121561189957600080fd5b8135610e8881611871565b634e487b7160e01b600052604160045260246000fd5b601f8201601f1916810167ffffffffffffffff811182821017156118e0576118e06118a4565b6040525050565b600082601f8301126118f857600080fd5b813567ffffffffffffffff811115611912576119126118a4565b604051611929601f8301601f1916602001826118ba565b81815284602083860101111561193e57600080fd5b816020850160208301376000918101602001919091529392505050565b60008060006060848603121561197057600080fd5b6119798461182b565b925060208401359150604084013567ffffffffffffffff81111561199c57600080fd5b6119a8868287016118e7565b9150509250925092565b60005b838110156119cd5781810151838201526020016119b5565b50506000910152565b600081518084526119ee8160208601602086016119b2565b601f01601f19169290920160200192915050565b602081526000610e8860208301846119d6565b600060208284031215611a2757600080fd5b5035919050565b60008060408385031215611a4157600080fd5b82359150602083013567ffffffffffffffff811115611a5f57600080fd5b611a6b858286016118e7565b9150509250929050565b600067ffffffffffffffff821115611a8f57611a8f6118a4565b5060051b60200190565b600082601f830112611aaa57600080fd5b81356020611ab782611a75565b604051611ac482826118ba565b83815260059390931b8501820192828101915086841115611ae457600080fd5b8286015b84811015611aff5780358352918301918301611ae8565b509695505050505050565b600080600080600060a08688031215611b2257600080fd5b611b2b8661182b565b9450611b396020870161182b565b9350604086013567ffffffffffffffff80821115611b5657600080fd5b611b6289838a01611a99565b94506060880135915080821115611b7857600080fd5b611b8489838a01611a99565b93506080880135915080821115611b9a57600080fd5b50611ba7888289016118e7565b9150509295509295909350565b60008060408385031215611bc757600080fd5b823567ffffffffffffffff80821115611bdf57600080fd5b818501915085601f830112611bf357600080fd5b81356020611c0082611a75565b604051611c0d82826118ba565b83815260059390931b8501820192828101915089841115611c2d57600080fd5b948201945b83861015611c5257611c438661182b565b82529482019490820190611c32565b96505086013592505080821115611c6857600080fd5b50611a6b85828601611a99565b600081518084526020808501945080840160005b83811015611ca557815187529582019590820190600101611c89565b509495945050505050565b602081526000610e886020830184611c75565b805182526000602082015160606020850152611ce260608501826119d6565b604093840151949093019390935250919050565b602081526000610e886020830184611cc3565b600060208284031215611d1b57600080fd5b813567ffffffffffffffff811115611d3257600080fd5b610573848285016118e7565b6000602080830181845280855180835260408601915060408160051b870101925083870160005b82811015611d9357603f19888603018452611d81858351611cc3565b94509285019290850190600101611d65565b5092979650505050505050565b60008060408385031215611db357600080fd5b611dbc8361182b565b915060208301358015158114611dd157600080fd5b809150509250929050565b60008060408385031215611def57600080fd5b611df88361182b565b9150611e066020840161182b565b90509250929050565b600080600080600060a08688031215611e2757600080fd5b611e308661182b565b9450611e3e6020870161182b565b93506040860135925060608601359150608086013567ffffffffffffffff811115611e6857600080fd5b611ba7888289016118e7565b600060208284031215611e8657600080fd5b610e888261182b565b600181811c90821680611ea357607f821691505b602082108103611ec357634e487b7160e01b600052602260045260246000fd5b50919050565b601f821115611f0f57600081815260208120601f850160051c81016020861015611ef05750805b601f850160051c820191505b81811015610d9857828155600101611efc565b505050565b815167ffffffffffffffff811115611f2e57611f2e6118a4565b611f4281611f3c8454611e8f565b84611ec9565b602080601f831160018114611f775760008415611f5f5750858301515b600019600386901b1c1916600185901b178555610d98565b600085815260208120601f198616915b82811015611fa657888601518255948401946001909101908401611f87565b5085821015611fc45787850151600019600388901b60f8161c191681555b5050505050600190811b01905550565b634e487b7160e01b600052603260045260246000fd5b6020808252602e908201527f455243313135353a2063616c6c6572206973206e6f7420746f6b656e206f776e60408201526d195c881bdc88185c1c1c9bdd995960921b606082015260800190565b634e487b7160e01b600052601160045260246000fd5b60006001820161206057612060612038565b5060010190565b6000815461207481611e8f565b6001828116801561208c57600181146120a1576120d0565b60ff19841687528215158302870194506120d0565b8560005260208060002060005b858110156120c75781548a8201529084019082016120ae565b50505082870194505b5050505092915050565b60006120ef6120e98387612067565b85612067565b603160f81b81526121036001820185612067565b9695505050505050565b600061211c6120e98387612067565b601960f91b81526121036001820185612067565b600061213f6120e98387612067565b603360f81b81526121036001820185612067565b60006121626120e98387612067565b600d60fa1b81526121036001820185612067565b60006121856120e98387612067565b603560f81b81526121036001820185612067565b60006121a86120e98387612067565b601b60f91b81526121036001820185612067565b60006121cb6120e98387612067565b603760f81b81526121036001820185612067565b8082018082111561040057610400612038565b60006121fe8285612067565b835161220e8183602088016119b2565b01949350505050565b60208082526025908201527f455243313135353a207472616e7366657220746f20746865207a65726f206164604082015264647265737360d81b606082015260800190565b6020808252602a908201527f455243313135353a20696e73756666696369656e742062616c616e636520666f60408201526939103a3930b739b332b960b11b606082015260800190565b6040815260006122b96040830185611c75565b82810360208401526122cb8185611c75565b95945050505050565b6001600160a01b03868116825285166020820152604081018490526060810183905260a06080820181905260009061230e908301846119d6565b979650505050505050565b60006020828403121561232b57600080fd5b8151610e8881611871565b600060033d111561234f5760046000803e5060005160e01c5b90565b600060443d10156123605790565b6040516003193d81016004833e81513d67ffffffffffffffff816024840111818411171561239057505050505090565b82850191508151818111156123a85750505050505090565b843d87010160208285010111156123c25750505050505090565b6123d1602082860101876118ba565b509095945050505050565b60208082526028908201527f455243313135353a204552433131353552656365697665722072656a656374656040820152676420746f6b656e7360c01b606082015260800190565b6001600160a01b0386811682528516602082015260a06040820181905260009061245090830186611c75565b82810360608401526124628186611c75565b9050828103608084015261247681856119d6565b9897505050505050505056fea26469706673582212205cc2e91e094b9898f4e864c21156c5f222adf29ddc12115addec6374c70c9d8164736f6c6343000811003368747470733a2f2f677261792d6f63636173696f6e616c2d66697265666c792d3639332e6d7970696e6174612e636c6f75642f697066732f516d504b4c72714c4851517a466e58546437474b35455773716b35614878646f4269396e364a6e647832537436742f","opcodes":"PUSH1 0xA0 PUSH1 0x40 MSTORE PUSH1 0x0 PUSH1 0x80 SWAP1 DUP2 MSTORE PUSH1 0x3 SWAP1 PUSH3 0x1A SWAP1 DUP3 PUSH3 0xDE6 JUMP JUMPDEST POP PUSH4 0x3B9ACA00 PUSH1 0xA SSTORE PUSH1 0x40 MLOAD DUP1 PUSH1 0x60 ADD PUSH1 0x40 MSTORE DUP1 PUSH1 0x32 DUP2 MSTORE PUSH1 0x20 ADD PUSH3 0x375C PUSH1 0x32 SWAP2 CODECOPY PUSH1 0x10 SWAP1 PUSH3 0x4C SWAP1 DUP3 PUSH3 0xDE6 JUMP JUMPDEST POP PUSH1 0x40 MLOAD DUP1 PUSH1 0x60 ADD PUSH1 0x40 MSTORE DUP1 PUSH1 0x35 DUP2 MSTORE PUSH1 0x20 ADD PUSH3 0x378E PUSH1 0x35 SWAP2 CODECOPY PUSH1 0x11 SWAP1 PUSH3 0x76 SWAP1 DUP3 PUSH3 0xDE6 JUMP JUMPDEST POP PUSH1 0x40 DUP1 MLOAD DUP1 DUP3 ADD SWAP1 SWAP2 MSTORE PUSH1 0x5 DUP2 MSTORE PUSH5 0x173539B7B7 PUSH1 0xD9 SHL PUSH1 0x20 DUP3 ADD MSTORE PUSH1 0x12 SWAP1 PUSH3 0xA2 SWAP1 DUP3 PUSH3 0xDE6 JUMP JUMPDEST POP CALLVALUE DUP1 ISZERO PUSH3 0xB0 JUMPI PUSH1 0x0 DUP1 REVERT JUMPDEST POP PUSH1 0x40 DUP1 MLOAD PUSH1 0x20 DUP2 ADD SWAP1 SWAP2 MSTORE PUSH1 0x0 DUP2 MSTORE PUSH3 0xCB DUP2 PUSH3 0x1A1 JUMP JUMPDEST POP PUSH3 0xD7 CALLER PUSH3 0x1B3 JUMP JUMPDEST PUSH1 0x7 DUP1 SLOAD PUSH1 0xFF NOT AND SWAP1 SSTORE PUSH1 0x40 DUP1 MLOAD DUP1 DUP3 ADD SWAP1 SWAP2 MSTORE PUSH1 0xE DUP1 DUP3 MSTORE PUSH14 0x416D62617373616427486F727365 PUSH1 0x90 SHL PUSH1 0x20 DUP4 ADD MSTORE SWAP1 PUSH3 0x114 SWAP1 DUP3 PUSH3 0xDE6 JUMP JUMPDEST POP PUSH1 0x40 DUP1 MLOAD DUP1 DUP3 ADD SWAP1 SWAP2 MSTORE PUSH1 0x7 DUP2 MSTORE PUSH7 0x5A45484F525345 PUSH1 0xC8 SHL PUSH1 0x20 DUP3 ADD MSTORE PUSH1 0xF SWAP1 PUSH3 0x142 SWAP1 DUP3 PUSH3 0xDE6 JUMP JUMPDEST POP PUSH1 0xB DUP1 SLOAD PUSH1 0x1 PUSH1 0x1 PUSH1 0xA0 SHL SUB NOT SWAP1 DUP2 AND CALLER OR SWAP1 SWAP2 SSTORE PUSH1 0xC DUP1 SLOAD SWAP1 SWAP2 AND PUSH20 0x70AE7F5A41517AD09B1DF2E623A771E371804043 OR SWAP1 SSTORE PUSH3 0x181 PUSH3 0x205 JUMP JUMPDEST PUSH1 0x40 DUP1 MLOAD PUSH1 0x20 DUP2 ADD SWAP1 SWAP2 MSTORE PUSH1 0x0 DUP2 MSTORE PUSH3 0x19B SWAP1 PUSH3 0x30B JUMP JUMPDEST PUSH3 0x1294 JUMP JUMPDEST PUSH1 0x2 PUSH3 0x1AF DUP3 DUP3 PUSH3 0xDE6 JUMP JUMPDEST POP POP JUMP JUMPDEST PUSH1 0x5 DUP1 SLOAD PUSH1 0x1 PUSH1 0x1 PUSH1 0xA0 SHL SUB DUP4 DUP2 AND PUSH1 0x1 PUSH1 0x1 PUSH1 0xA0 SHL SUB NOT DUP4 AND DUP2 OR SWAP1 SWAP4 SSTORE PUSH1 0x40 MLOAD SWAP2 AND SWAP2 SWAP1 DUP3 SWAP1 PUSH32 0x8BE0079C531659141344CD1FD0A4F28419497F9722A3DAAFE3B4186F6B6457E0 SWAP1 PUSH1 0x0 SWAP1 LOG3 POP POP JUMP JUMPDEST PUSH3 0x23C CALLER PUSH1 0xC8 PUSH1 0x10 PUSH1 0x11 PUSH1 0x12 PUSH1 0x40 MLOAD PUSH1 0x20 ADD PUSH3 0x226 SWAP4 SWAP3 SWAP2 SWAP1 PUSH3 0xF2D JUMP JUMPDEST PUSH1 0x40 DUP1 MLOAD PUSH1 0x1F NOT DUP2 DUP5 SUB ADD DUP2 MSTORE SWAP2 SWAP1 MSTORE PUSH3 0x319 JUMP JUMPDEST POP PUSH3 0x25E CALLER PUSH1 0x8C PUSH1 0x10 PUSH1 0x11 PUSH1 0x12 PUSH1 0x40 MLOAD PUSH1 0x20 ADD PUSH3 0x226 SWAP4 SWAP3 SWAP2 SWAP1 PUSH3 0xF66 JUMP JUMPDEST POP PUSH3 0x280 CALLER PUSH1 0x96 PUSH1 0x10 PUSH1 0x11 PUSH1 0x12 PUSH1 0x40 MLOAD PUSH1 0x20 ADD PUSH3 0x226 SWAP4 SWAP3 SWAP2 SWAP1 PUSH3 0xF8E JUMP JUMPDEST POP PUSH3 0x2A2 CALLER PUSH1 0xB4 PUSH1 0x10 PUSH1 0x11 PUSH1 0x12 PUSH1 0x40 MLOAD PUSH1 0x20 ADD PUSH3 0x226 SWAP4 SWAP3 SWAP2 SWAP1 PUSH3 0xFB6 JUMP JUMPDEST POP PUSH3 0x2C4 CALLER PUSH1 0xA0 PUSH1 0x10 PUSH1 0x11 PUSH1 0x12 PUSH1 0x40 MLOAD PUSH1 0x20 ADD PUSH3 0x226 SWAP4 SWAP3 SWAP2 SWAP1 PUSH3 0xFDE JUMP JUMPDEST POP PUSH3 0x2E6 CALLER PUSH1 0xFA PUSH1 0x10 PUSH1 0x11 PUSH1 0x12 PUSH1 0x40 MLOAD PUSH1 0x20 ADD PUSH3 0x226 SWAP4 SWAP3 SWAP2 SWAP1 PUSH3 0x1006 JUMP JUMPDEST POP PUSH3 0x308 CALLER PUSH1 0xDC PUSH1 0x10 PUSH1 0x11 PUSH1 0x12 PUSH1 0x40 MLOAD PUSH1 0x20 ADD PUSH3 0x226 SWAP4 SWAP3 SWAP2 SWAP1 PUSH3 0x102E JUMP JUMPDEST POP JUMP JUMPDEST PUSH1 0x3 PUSH3 0x1AF DUP3 DUP3 PUSH3 0xDE6 JUMP JUMPDEST PUSH1 0x0 PUSH3 0x325 PUSH3 0x476 JUMP JUMPDEST PUSH3 0x33B DUP3 PUSH3 0x4D8 PUSH1 0x20 SHL PUSH3 0xBCD OR PUSH1 0x20 SHR JUMP JUMPDEST PUSH1 0x0 PUSH3 0x354 PUSH1 0x8 PUSH3 0x523 PUSH1 0x20 SHL PUSH3 0xC10 OR PUSH1 0x20 SHR JUMP JUMPDEST PUSH1 0x40 DUP1 MLOAD PUSH1 0x60 DUP2 ADD DUP3 MSTORE DUP3 DUP2 MSTORE PUSH1 0x20 DUP2 ADD DUP7 DUP2 MSTORE SWAP2 DUP2 ADD DUP8 SWAP1 MSTORE PUSH1 0x13 DUP1 SLOAD PUSH1 0x1 DUP2 ADD DUP3 SSTORE PUSH1 0x0 SWAP2 SWAP1 SWAP2 MSTORE DUP2 MLOAD PUSH1 0x3 SWAP1 SWAP2 MUL PUSH32 0x66DE8FFDA797E3DE9C05E8FC57B3BF0EC28A930D40B0D285D93C06501CF6A090 DUP2 ADD SWAP2 DUP3 SSTORE SWAP3 MLOAD SWAP4 SWAP5 POP SWAP1 SWAP3 SWAP1 SWAP2 PUSH32 0x66DE8FFDA797E3DE9C05E8FC57B3BF0EC28A930D40B0D285D93C06501CF6A091 ADD SWAP1 PUSH3 0x3E3 SWAP1 DUP3 PUSH3 0xDE6 JUMP JUMPDEST POP PUSH1 0x40 SWAP2 SWAP1 SWAP2 ADD MLOAD PUSH1 0x2 SWAP1 SWAP2 ADD SSTORE PUSH3 0x3FD DUP2 DUP5 PUSH3 0x527 JUMP JUMPDEST DUP3 PUSH1 0x13 DUP3 DUP2 SLOAD DUP2 LT PUSH3 0x414 JUMPI PUSH3 0x414 PUSH3 0x1056 JUMP JUMPDEST SWAP1 PUSH1 0x0 MSTORE PUSH1 0x20 PUSH1 0x0 KECCAK256 SWAP1 PUSH1 0x3 MUL ADD PUSH1 0x1 ADD SWAP1 DUP2 PUSH3 0x433 SWAP2 SWAP1 PUSH3 0xDE6 JUMP JUMPDEST POP PUSH3 0x457 DUP6 DUP3 DUP7 PUSH1 0x40 MLOAD DUP1 PUSH1 0x20 ADD PUSH1 0x40 MSTORE DUP1 PUSH1 0x0 DUP2 MSTORE POP PUSH3 0x574 PUSH1 0x20 SHL PUSH1 0x20 SHR JUMP JUMPDEST PUSH3 0x46E PUSH1 0x8 PUSH3 0x6A3 PUSH1 0x20 SHL PUSH3 0xC14 OR PUSH1 0x20 SHR JUMP JUMPDEST SWAP5 SWAP4 POP POP POP POP JUMP JUMPDEST PUSH1 0x5 SLOAD PUSH1 0x1 PUSH1 0x1 PUSH1 0xA0 SHL SUB AND CALLER EQ PUSH3 0x4D6 JUMPI PUSH1 0x40 MLOAD PUSH3 0x461BCD PUSH1 0xE5 SHL DUP2 MSTORE PUSH1 0x20 PUSH1 0x4 DUP3 ADD DUP2 SWAP1 MSTORE PUSH1 0x24 DUP3 ADD MSTORE PUSH32 0x4F776E61626C653A2063616C6C6572206973206E6F7420746865206F776E6572 PUSH1 0x44 DUP3 ADD MSTORE PUSH1 0x64 ADD JUMPDEST PUSH1 0x40 MLOAD DUP1 SWAP2 SUB SWAP1 REVERT JUMPDEST JUMP JUMPDEST PUSH3 0x308 DUP2 PUSH1 0x40 MLOAD PUSH1 0x24 ADD PUSH3 0x4EF SWAP2 SWAP1 PUSH3 0x10C0 JUMP JUMPDEST PUSH1 0x40 DUP1 MLOAD PUSH1 0x1F NOT DUP2 DUP5 SUB ADD DUP2 MSTORE SWAP2 SWAP1 MSTORE PUSH1 0x20 DUP2 ADD DUP1 MLOAD PUSH1 0x1 PUSH1 0x1 PUSH1 0xE0 SHL SUB SWAP1 DUP2 AND PUSH4 0x104C13EB PUSH1 0xE2 SHL OR SWAP1 SWAP2 MSTORE PUSH3 0x6AC AND JUMP JUMPDEST SLOAD SWAP1 JUMP JUMPDEST PUSH3 0x531 PUSH3 0x476 JUMP JUMPDEST DUP1 PUSH1 0x13 DUP4 DUP2 SLOAD DUP2 LT PUSH3 0x548 JUMPI PUSH3 0x548 PUSH3 0x1056 JUMP JUMPDEST SWAP1 PUSH1 0x0 MSTORE PUSH1 0x20 PUSH1 0x0 KECCAK256 SWAP1 PUSH1 0x3 MUL ADD PUSH1 0x1 ADD SWAP1 DUP2 PUSH3 0x567 SWAP2 SWAP1 PUSH3 0xDE6 JUMP JUMPDEST POP PUSH3 0x1AF DUP3 DUP3 PUSH3 0x6CD JUMP JUMPDEST PUSH1 0x1 PUSH1 0x1 PUSH1 0xA0 SHL SUB DUP5 AND PUSH3 0x5D6 JUMPI PUSH1 0x40 MLOAD PUSH3 0x461BCD PUSH1 0xE5 SHL DUP2 MSTORE PUSH1 0x20 PUSH1 0x4 DUP3 ADD MSTORE PUSH1 0x21 PUSH1 0x24 DUP3 ADD MSTORE PUSH32 0x455243313135353A206D696E7420746F20746865207A65726F20616464726573 PUSH1 0x44 DUP3 ADD MSTORE PUSH1 0x73 PUSH1 0xF8 SHL PUSH1 0x64 DUP3 ADD MSTORE PUSH1 0x84 ADD PUSH3 0x4CD JUMP JUMPDEST CALLER PUSH1 0x0 PUSH3 0x5E4 DUP6 PUSH3 0x6E3 JUMP JUMPDEST SWAP1 POP PUSH1 0x0 PUSH3 0x5F3 DUP6 PUSH3 0x6E3 JUMP JUMPDEST SWAP1 POP PUSH3 0x606 DUP4 PUSH1 0x0 DUP10 DUP6 DUP6 DUP10 PUSH3 0x731 JUMP JUMPDEST PUSH1 0x0 DUP7 DUP2 MSTORE PUSH1 0x20 DUP2 DUP2 MSTORE PUSH1 0x40 DUP1 DUP4 KECCAK256 PUSH1 0x1 PUSH1 0x1 PUSH1 0xA0 SHL SUB DUP12 AND DUP5 MSTORE SWAP1 SWAP2 MSTORE DUP2 KECCAK256 DUP1 SLOAD DUP8 SWAP3 SWAP1 PUSH3 0x638 SWAP1 DUP5 SWAP1 PUSH3 0x10EB JUMP JUMPDEST SWAP1 SWAP2 SSTORE POP POP PUSH1 0x40 DUP1 MLOAD DUP8 DUP2 MSTORE PUSH1 0x20 DUP2 ADD DUP8 SWAP1 MSTORE PUSH1 0x1 PUSH1 0x1 PUSH1 0xA0 SHL SUB DUP1 DUP11 AND SWAP3 PUSH1 0x0 SWAP3 SWAP2 DUP8 AND SWAP2 PUSH32 0xC3D58168C5AE7397731D063D5BBF3D657854427343F4C083240F7AACAA2D0F62 SWAP2 ADD PUSH1 0x40 MLOAD DUP1 SWAP2 SUB SWAP1 LOG4 PUSH3 0x69A DUP4 PUSH1 0x0 DUP10 DUP10 DUP10 DUP10 PUSH3 0x75E JUMP JUMPDEST POP POP POP POP POP POP POP JUMP JUMPDEST DUP1 SLOAD PUSH1 0x1 ADD SWAP1 SSTORE JUMP JUMPDEST DUP1 MLOAD PUSH11 0x636F6E736F6C652E6C6F67 PUSH1 0x20 DUP4 ADD PUSH1 0x0 DUP1 DUP5 DUP4 DUP6 GAS STATICCALL POP POP POP POP POP JUMP JUMPDEST PUSH3 0x6D7 PUSH3 0x476 JUMP JUMPDEST PUSH3 0x1AF DUP3 DUP3 PUSH3 0x92A JUMP JUMPDEST PUSH1 0x40 DUP1 MLOAD PUSH1 0x1 DUP1 DUP3 MSTORE DUP2 DUP4 ADD SWAP1 SWAP3 MSTORE PUSH1 0x60 SWAP2 PUSH1 0x0 SWAP2 SWAP1 PUSH1 0x20 DUP1 DUP4 ADD SWAP1 DUP1 CALLDATASIZE DUP4 CALLDATACOPY ADD SWAP1 POP POP SWAP1 POP DUP3 DUP2 PUSH1 0x0 DUP2 MLOAD DUP2 LT PUSH3 0x720 JUMPI PUSH3 0x720 PUSH3 0x1056 JUMP JUMPDEST PUSH1 0x20 SWAP1 DUP2 MUL SWAP2 SWAP1 SWAP2 ADD ADD MSTORE SWAP3 SWAP2 POP POP JUMP JUMPDEST PUSH3 0x73B PUSH3 0x98D JUMP JUMPDEST PUSH3 0x756 DUP7 DUP7 DUP7 DUP7 DUP7 DUP7 PUSH3 0x9D5 PUSH1 0x20 SHL PUSH3 0xC1D OR PUSH1 0x20 SHR JUMP JUMPDEST POP POP POP POP POP POP JUMP JUMPDEST PUSH3 0x77D DUP5 PUSH1 0x1 PUSH1 0x1 PUSH1 0xA0 SHL SUB AND PUSH3 0xB83 PUSH1 0x20 SHL PUSH3 0xDA0 OR PUSH1 0x20 SHR JUMP JUMPDEST ISZERO PUSH3 0x756 JUMPI PUSH1 0x40 MLOAD PUSH4 0xF23A6E61 PUSH1 0xE0 SHL DUP2 MSTORE PUSH1 0x1 PUSH1 0x1 PUSH1 0xA0 SHL SUB DUP6 AND SWAP1 PUSH4 0xF23A6E61 SWAP1 PUSH3 0x7B9 SWAP1 DUP10 SWAP1 DUP10 SWAP1 DUP9 SWAP1 DUP9 SWAP1 DUP9 SWAP1 PUSH1 0x4 ADD PUSH3 0x1101 JUMP JUMPDEST PUSH1 0x20 PUSH1 0x40 MLOAD DUP1 DUP4 SUB DUP2 PUSH1 0x0 DUP8 GAS CALL SWAP3 POP POP POP DUP1 ISZERO PUSH3 0x7F7 JUMPI POP PUSH1 0x40 DUP1 MLOAD PUSH1 0x1F RETURNDATASIZE SWAP1 DUP2 ADD PUSH1 0x1F NOT AND DUP3 ADD SWAP1 SWAP3 MSTORE PUSH3 0x7F4 SWAP2 DUP2 ADD SWAP1 PUSH3 0x1148 JUMP JUMPDEST PUSH1 0x1 JUMPDEST PUSH3 0x8B7 JUMPI PUSH3 0x806 PUSH3 0x1174 JUMP JUMPDEST DUP1 PUSH4 0x8C379A0 SUB PUSH3 0x846 JUMPI POP PUSH3 0x81D PUSH3 0x11C0 JUMP JUMPDEST DUP1 PUSH3 0x82A JUMPI POP PUSH3 0x848 JUMP JUMPDEST DUP1 PUSH1 0x40 MLOAD PUSH3 0x461BCD PUSH1 0xE5 SHL DUP2 MSTORE PUSH1 0x4 ADD PUSH3 0x4CD SWAP2 SWAP1 PUSH3 0x10C0 JUMP JUMPDEST POP JUMPDEST PUSH1 0x40 MLOAD PUSH3 0x461BCD PUSH1 0xE5 SHL DUP2 MSTORE PUSH1 0x20 PUSH1 0x4 DUP3 ADD MSTORE PUSH1 0x34 PUSH1 0x24 DUP3 ADD MSTORE PUSH32 0x455243313135353A207472616E7366657220746F206E6F6E2D45524331313535 PUSH1 0x44 DUP3 ADD MSTORE PUSH32 0x526563656976657220696D706C656D656E746572000000000000000000000000 PUSH1 0x64 DUP3 ADD MSTORE PUSH1 0x84 ADD PUSH3 0x4CD JUMP JUMPDEST PUSH1 0x1 PUSH1 0x1 PUSH1 0xE0 SHL SUB NOT DUP2 AND PUSH4 0xF23A6E61 PUSH1 0xE0 SHL EQ PUSH3 0x69A JUMPI PUSH1 0x40 MLOAD PUSH3 0x461BCD PUSH1 0xE5 SHL DUP2 MSTORE PUSH1 0x20 PUSH1 0x4 DUP3 ADD MSTORE PUSH1 0x28 PUSH1 0x24 DUP3 ADD MSTORE PUSH32 0x455243313135353A204552433131353552656365697665722072656A65637465 PUSH1 0x44 DUP3 ADD MSTORE PUSH8 0x6420746F6B656E73 PUSH1 0xC0 SHL PUSH1 0x64 DUP3 ADD MSTORE PUSH1 0x84 ADD PUSH3 0x4CD JUMP JUMPDEST PUSH1 0x0 DUP3 DUP2 MSTORE PUSH1 0x4 PUSH1 0x20 MSTORE PUSH1 0x40 SWAP1 KECCAK256 PUSH3 0x944 DUP3 DUP3 PUSH3 0xDE6 JUMP JUMPDEST POP DUP2 PUSH32 0x6BB7FF708619BA0610CBA295A58592E0451DEE2622938C8755667688DAF3529B PUSH3 0x972 DUP3 PUSH3 0xB92 JUMP JUMPDEST PUSH1 0x40 MLOAD PUSH3 0x981 SWAP2 SWAP1 PUSH3 0x10C0 JUMP JUMPDEST PUSH1 0x40 MLOAD DUP1 SWAP2 SUB SWAP1 LOG2 POP POP JUMP JUMPDEST PUSH1 0x7 SLOAD PUSH1 0xFF AND ISZERO PUSH3 0x4D6 JUMPI PUSH1 0x40 MLOAD PUSH3 0x461BCD PUSH1 0xE5 SHL DUP2 MSTORE PUSH1 0x20 PUSH1 0x4 DUP3 ADD MSTORE PUSH1 0x10 PUSH1 0x24 DUP3 ADD MSTORE PUSH16 0x14185D5CD8589B194E881C185D5CD959 PUSH1 0x82 SHL PUSH1 0x44 DUP3 ADD MSTORE PUSH1 0x64 ADD PUSH3 0x4CD JUMP JUMPDEST PUSH3 0x9F0 DUP7 DUP7 DUP7 DUP7 DUP7 DUP7 PUSH3 0x756 PUSH1 0x20 SHL PUSH3 0xD98 OR PUSH1 0x20 SHR JUMP JUMPDEST PUSH1 0x1 PUSH1 0x1 PUSH1 0xA0 SHL SUB DUP6 AND PUSH3 0xA84 JUMPI PUSH1 0x0 JUMPDEST DUP4 MLOAD DUP2 LT ISZERO PUSH3 0xA82 JUMPI DUP3 DUP2 DUP2 MLOAD DUP2 LT PUSH3 0xA21 JUMPI PUSH3 0xA21 PUSH3 0x1056 JUMP JUMPDEST PUSH1 0x20 MUL PUSH1 0x20 ADD ADD MLOAD PUSH1 0x6 PUSH1 0x0 DUP7 DUP5 DUP2 MLOAD DUP2 LT PUSH3 0xA42 JUMPI PUSH3 0xA42 PUSH3 0x1056 JUMP JUMPDEST PUSH1 0x20 MUL PUSH1 0x20 ADD ADD MLOAD DUP2 MSTORE PUSH1 0x20 ADD SWAP1 DUP2 MSTORE PUSH1 0x20 ADD PUSH1 0x0 KECCAK256 PUSH1 0x0 DUP3 DUP3 SLOAD PUSH3 0xA69 SWAP2 SWAP1 PUSH3 0x10EB JUMP JUMPDEST SWAP1 SWAP2 SSTORE POP PUSH3 0xA7A SWAP1 POP DUP2 PUSH3 0x124F JUMP JUMPDEST SWAP1 POP PUSH3 0xA02 JUMP JUMPDEST POP JUMPDEST PUSH1 0x1 PUSH1 0x1 PUSH1 0xA0 SHL SUB DUP5 AND PUSH3 0x756 JUMPI PUSH1 0x0 JUMPDEST DUP4 MLOAD DUP2 LT ISZERO PUSH3 0x69A JUMPI PUSH1 0x0 DUP5 DUP3 DUP2 MLOAD DUP2 LT PUSH3 0xAB7 JUMPI PUSH3 0xAB7 PUSH3 0x1056 JUMP JUMPDEST PUSH1 0x20 MUL PUSH1 0x20 ADD ADD MLOAD SWAP1 POP PUSH1 0x0 DUP5 DUP4 DUP2 MLOAD DUP2 LT PUSH3 0xAD8 JUMPI PUSH3 0xAD8 PUSH3 0x1056 JUMP JUMPDEST PUSH1 0x20 MUL PUSH1 0x20 ADD ADD MLOAD SWAP1 POP PUSH1 0x0 PUSH1 0x6 PUSH1 0x0 DUP5 DUP2 MSTORE PUSH1 0x20 ADD SWAP1 DUP2 MSTORE PUSH1 0x20 ADD PUSH1 0x0 KECCAK256 SLOAD SWAP1 POP DUP2 DUP2 LT ISZERO PUSH3 0xB5D JUMPI PUSH1 0x40 MLOAD PUSH3 0x461BCD PUSH1 0xE5 SHL DUP2 MSTORE PUSH1 0x20 PUSH1 0x4 DUP3 ADD MSTORE PUSH1 0x28 PUSH1 0x24 DUP3 ADD MSTORE PUSH32 0x455243313135353A206275726E20616D6F756E74206578636565647320746F74 PUSH1 0x44 DUP3 ADD MSTORE PUSH8 0x616C537570706C79 PUSH1 0xC0 SHL PUSH1 0x64 DUP3 ADD MSTORE PUSH1 0x84 ADD PUSH3 0x4CD JUMP JUMPDEST PUSH1 0x0 SWAP3 DUP4 MSTORE PUSH1 0x6 PUSH1 0x20 MSTORE PUSH1 0x40 SWAP1 SWAP3 KECCAK256 SWAP2 SUB SWAP1 SSTORE PUSH3 0xB7B DUP2 PUSH3 0x124F JUMP JUMPDEST SWAP1 POP PUSH3 0xA96 JUMP JUMPDEST PUSH1 0x1 PUSH1 0x1 PUSH1 0xA0 SHL SUB AND EXTCODESIZE ISZERO ISZERO SWAP1 JUMP JUMPDEST PUSH1 0x60 PUSH3 0xBAA DUP3 PUSH3 0xBB0 PUSH1 0x20 SHL PUSH3 0xDAF OR PUSH1 0x20 SHR JUMP JUMPDEST SWAP3 SWAP2 POP POP JUMP JUMPDEST PUSH1 0x0 DUP2 DUP2 MSTORE PUSH1 0x4 PUSH1 0x20 MSTORE PUSH1 0x40 DUP2 KECCAK256 DUP1 SLOAD PUSH1 0x60 SWAP3 SWAP2 SWAP1 PUSH3 0xBD0 SWAP1 PUSH3 0xD5B JUMP JUMPDEST DUP1 PUSH1 0x1F ADD PUSH1 0x20 DUP1 SWAP2 DIV MUL PUSH1 0x20 ADD PUSH1 0x40 MLOAD SWAP1 DUP2 ADD PUSH1 0x40 MSTORE DUP1 SWAP3 SWAP2 SWAP1 DUP2 DUP2 MSTORE PUSH1 0x20 ADD DUP3 DUP1 SLOAD PUSH3 0xBFE SWAP1 PUSH3 0xD5B JUMP JUMPDEST DUP1 ISZERO PUSH3 0xC4F JUMPI DUP1 PUSH1 0x1F LT PUSH3 0xC23 JUMPI PUSH2 0x100 DUP1 DUP4 SLOAD DIV MUL DUP4 MSTORE SWAP2 PUSH1 0x20 ADD SWAP2 PUSH3 0xC4F JUMP JUMPDEST DUP3 ADD SWAP2 SWAP1 PUSH1 0x0 MSTORE PUSH1 0x20 PUSH1 0x0 KECCAK256 SWAP1 JUMPDEST DUP2 SLOAD DUP2 MSTORE SWAP1 PUSH1 0x1 ADD SWAP1 PUSH1 0x20 ADD DUP1 DUP4 GT PUSH3 0xC31 JUMPI DUP3 SWAP1 SUB PUSH1 0x1F AND DUP3 ADD SWAP2 JUMPDEST POP POP POP POP POP SWAP1 POP PUSH1 0x0 DUP2 MLOAD GT PUSH3 0xC7C JUMPI PUSH3 0xC76 DUP4 PUSH3 0xCA9 PUSH1 0x20 SHL PUSH3 0xE8F OR PUSH1 0x20 SHR JUMP JUMPDEST PUSH3 0xCA2 JUMP JUMPDEST PUSH1 0x3 DUP2 PUSH1 0x40 MLOAD PUSH1 0x20 ADD PUSH3 0xC92 SWAP3 SWAP2 SWAP1 PUSH3 0x126B JUMP JUMPDEST PUSH1 0x40 MLOAD PUSH1 0x20 DUP2 DUP4 SUB SUB DUP2 MSTORE SWAP1 PUSH1 0x40 MSTORE JUMPDEST SWAP4 SWAP3 POP POP POP JUMP JUMPDEST PUSH1 0x60 PUSH1 0x2 DUP1 SLOAD PUSH3 0xCBA SWAP1 PUSH3 0xD5B JUMP JUMPDEST DUP1 PUSH1 0x1F ADD PUSH1 0x20 DUP1 SWAP2 DIV MUL PUSH1 0x20 ADD PUSH1 0x40 MLOAD SWAP1 DUP2 ADD PUSH1 0x40 MSTORE DUP1 SWAP3 SWAP2 SWAP1 DUP2 DUP2 MSTORE PUSH1 0x20 ADD DUP3 DUP1 SLOAD PUSH3 0xCE8 SWAP1 PUSH3 0xD5B JUMP JUMPDEST DUP1 ISZERO PUSH3 0xD39 JUMPI DUP1 PUSH1 0x1F LT PUSH3 0xD0D JUMPI PUSH2 0x100 DUP1 DUP4 SLOAD DIV MUL DUP4 MSTORE SWAP2 PUSH1 0x20 ADD SWAP2 PUSH3 0xD39 JUMP JUMPDEST DUP3 ADD SWAP2 SWAP1 PUSH1 0x0 MSTORE PUSH1 0x20 PUSH1 0x0 KECCAK256 SWAP1 JUMPDEST DUP2 SLOAD DUP2 MSTORE SWAP1 PUSH1 0x1 ADD SWAP1 PUSH1 0x20 ADD DUP1 DUP4 GT PUSH3 0xD1B JUMPI DUP3 SWAP1 SUB PUSH1 0x1F AND DUP3 ADD SWAP2 JUMPDEST POP POP POP POP POP SWAP1 POP SWAP2 SWAP1 POP JUMP JUMPDEST PUSH4 0x4E487B71 PUSH1 0xE0 SHL PUSH1 0x0 MSTORE PUSH1 0x41 PUSH1 0x4 MSTORE PUSH1 0x24 PUSH1 0x0 REVERT JUMPDEST PUSH1 0x1 DUP2 DUP2 SHR SWAP1 DUP3 AND DUP1 PUSH3 0xD70 JUMPI PUSH1 0x7F DUP3 AND SWAP2 POP JUMPDEST PUSH1 0x20 DUP3 LT DUP2 SUB PUSH3 0xD91 JUMPI PUSH4 0x4E487B71 PUSH1 0xE0 SHL PUSH1 0x0 MSTORE PUSH1 0x22 PUSH1 0x4 MSTORE PUSH1 0x24 PUSH1 0x0 REVERT JUMPDEST POP SWAP2 SWAP1 POP JUMP JUMPDEST PUSH1 0x1F DUP3 GT ISZERO PUSH3 0xDE1 JUMPI PUSH1 0x0 DUP2 DUP2 MSTORE PUSH1 0x20 DUP2 KECCAK256 PUSH1 0x1F DUP6 ADD PUSH1 0x5 SHR DUP2 ADD PUSH1 0x20 DUP7 LT ISZERO PUSH3 0xDC0 JUMPI POP DUP1 JUMPDEST PUSH1 0x1F DUP6 ADD PUSH1 0x5 SHR DUP3 ADD SWAP2 POP JUMPDEST DUP2 DUP2 LT ISZERO PUSH3 0x756 JUMPI DUP3 DUP2 SSTORE PUSH1 0x1 ADD PUSH3 0xDCC JUMP JUMPDEST POP POP POP JUMP JUMPDEST DUP2 MLOAD PUSH1 0x1 PUSH1 0x1 PUSH1 0x40 SHL SUB DUP2 GT ISZERO PUSH3 0xE02 JUMPI PUSH3 0xE02 PUSH3 0xD45 JUMP JUMPDEST PUSH3 0xE1A DUP2 PUSH3 0xE13 DUP5 SLOAD PUSH3 0xD5B JUMP JUMPDEST DUP5 PUSH3 0xD97 JUMP JUMPDEST PUSH1 0x20 DUP1 PUSH1 0x1F DUP4 GT PUSH1 0x1 DUP2 EQ PUSH3 0xE52 JUMPI PUSH1 0x0 DUP5 ISZERO PUSH3 0xE39 JUMPI POP DUP6 DUP4 ADD MLOAD JUMPDEST PUSH1 0x0 NOT PUSH1 0x3 DUP7 SWAP1 SHL SHR NOT AND PUSH1 0x1 DUP6 SWAP1 SHL OR DUP6 SSTORE PUSH3 0x756 JUMP JUMPDEST PUSH1 0x0 DUP6 DUP2 MSTORE PUSH1 0x20 DUP2 KECCAK256 PUSH1 0x1F NOT DUP7 AND SWAP2 JUMPDEST DUP3 DUP2 LT ISZERO PUSH3 0xE83 JUMPI DUP9 DUP7 ADD MLOAD DUP3 SSTORE SWAP5 DUP5 ADD SWAP5 PUSH1 0x1 SWAP1 SWAP2 ADD SWAP1 DUP5 ADD PUSH3 0xE62 JUMP JUMPDEST POP DUP6 DUP3 LT ISZERO PUSH3 0xEA2 JUMPI DUP8 DUP6 ADD MLOAD PUSH1 0x0 NOT PUSH1 0x3 DUP9 SWAP1 SHL PUSH1 0xF8 AND SHR NOT AND DUP2 SSTORE JUMPDEST POP POP POP POP POP PUSH1 0x1 SWAP1 DUP2 SHL ADD SWAP1 SSTORE POP JUMP JUMPDEST PUSH1 0x0 DUP2 SLOAD PUSH3 0xEC1 DUP2 PUSH3 0xD5B JUMP JUMPDEST PUSH1 0x1 DUP3 DUP2 AND DUP1 ISZERO PUSH3 0xEDC JUMPI PUSH1 0x1 DUP2 EQ PUSH3 0xEF2 JUMPI PUSH3 0xF23 JUMP JUMPDEST PUSH1 0xFF NOT DUP5 AND DUP8 MSTORE DUP3 ISZERO ISZERO DUP4 MUL DUP8 ADD SWAP5 POP PUSH3 0xF23 JUMP JUMPDEST DUP6 PUSH1 0x0 MSTORE PUSH1 0x20 DUP1 PUSH1 0x0 KECCAK256 PUSH1 0x0 JUMPDEST DUP6 DUP2 LT ISZERO PUSH3 0xF1A JUMPI DUP2 SLOAD DUP11 DUP3 ADD MSTORE SWAP1 DUP5 ADD SWAP1 DUP3 ADD PUSH3 0xEFF JUMP JUMPDEST POP POP POP DUP3 DUP8 ADD SWAP5 POP JUMPDEST POP POP POP POP SWAP3 SWAP2 POP POP JUMP JUMPDEST PUSH1 0x0 PUSH3 0xF46 PUSH3 0xF3F DUP4 DUP8 PUSH3 0xEB2 JUMP JUMPDEST DUP6 PUSH3 0xEB2 JUMP JUMPDEST PUSH1 0x31 PUSH1 0xF8 SHL DUP2 MSTORE PUSH3 0xF5C PUSH1 0x1 DUP3 ADD DUP6 PUSH3 0xEB2 JUMP JUMPDEST SWAP7 SWAP6 POP POP POP POP POP POP JUMP JUMPDEST PUSH1 0x0 PUSH3 0xF78 PUSH3 0xF3F DUP4 DUP8 PUSH3 0xEB2 JUMP JUMPDEST PUSH1 0x19 PUSH1 0xF9 SHL DUP2 MSTORE PUSH3 0xF5C PUSH1 0x1 DUP3 ADD DUP6 PUSH3 0xEB2 JUMP JUMPDEST PUSH1 0x0 PUSH3 0xFA0 PUSH3 0xF3F DUP4 DUP8 PUSH3 0xEB2 JUMP JUMPDEST PUSH1 0x33 PUSH1 0xF8 SHL DUP2 MSTORE PUSH3 0xF5C PUSH1 0x1 DUP3 ADD DUP6 PUSH3 0xEB2 JUMP JUMPDEST PUSH1 0x0 PUSH3 0xFC8 PUSH3 0xF3F DUP4 DUP8 PUSH3 0xEB2 JUMP JUMPDEST PUSH1 0xD PUSH1 0xFA SHL DUP2 MSTORE PUSH3 0xF5C PUSH1 0x1 DUP3 ADD DUP6 PUSH3 0xEB2 JUMP JUMPDEST PUSH1 0x0 PUSH3 0xFF0 PUSH3 0xF3F DUP4 DUP8 PUSH3 0xEB2 JUMP JUMPDEST PUSH1 0x35 PUSH1 0xF8 SHL DUP2 MSTORE PUSH3 0xF5C PUSH1 0x1 DUP3 ADD DUP6 PUSH3 0xEB2 JUMP JUMPDEST PUSH1 0x0 PUSH3 0x1018 PUSH3 0xF3F DUP4 DUP8 PUSH3 0xEB2 JUMP JUMPDEST PUSH1 0x1B PUSH1 0xF9 SHL DUP2 MSTORE PUSH3 0xF5C PUSH1 0x1 DUP3 ADD DUP6 PUSH3 0xEB2 JUMP JUMPDEST PUSH1 0x0 PUSH3 0x1040 PUSH3 0xF3F DUP4 DUP8 PUSH3 0xEB2 JUMP JUMPDEST PUSH1 0x37 PUSH1 0xF8 SHL DUP2 MSTORE PUSH3 0xF5C PUSH1 0x1 DUP3 ADD DUP6 PUSH3 0xEB2 JUMP JUMPDEST PUSH4 0x4E487B71 PUSH1 0xE0 SHL PUSH1 0x0 MSTORE PUSH1 0x32 PUSH1 0x4 MSTORE PUSH1 0x24 PUSH1 0x0 REVERT JUMPDEST PUSH1 0x0 JUMPDEST DUP4 DUP2 LT ISZERO PUSH3 0x1089 JUMPI DUP2 DUP2 ADD MLOAD DUP4 DUP3 ADD MSTORE PUSH1 0x20 ADD PUSH3 0x106F JUMP JUMPDEST POP POP PUSH1 0x0 SWAP2 ADD MSTORE JUMP JUMPDEST PUSH1 0x0 DUP2 MLOAD DUP1 DUP5 MSTORE PUSH3 0x10AC DUP2 PUSH1 0x20 DUP7 ADD PUSH1 0x20 DUP7 ADD PUSH3 0x106C JUMP JUMPDEST PUSH1 0x1F ADD PUSH1 0x1F NOT AND SWAP3 SWAP1 SWAP3 ADD PUSH1 0x20 ADD SWAP3 SWAP2 POP POP JUMP JUMPDEST PUSH1 0x20 DUP2 MSTORE PUSH1 0x0 PUSH3 0xCA2 PUSH1 0x20 DUP4 ADD DUP5 PUSH3 0x1092 JUMP JUMPDEST PUSH4 0x4E487B71 PUSH1 0xE0 SHL PUSH1 0x0 MSTORE PUSH1 0x11 PUSH1 0x4 MSTORE PUSH1 0x24 PUSH1 0x0 REVERT JUMPDEST DUP1 DUP3 ADD DUP1 DUP3 GT ISZERO PUSH3 0xBAA JUMPI PUSH3 0xBAA PUSH3 0x10D5 JUMP JUMPDEST PUSH1 0x1 PUSH1 0x1 PUSH1 0xA0 SHL SUB DUP7 DUP2 AND DUP3 MSTORE DUP6 AND PUSH1 0x20 DUP3 ADD MSTORE PUSH1 0x40 DUP2 ADD DUP5 SWAP1 MSTORE PUSH1 0x60 DUP2 ADD DUP4 SWAP1 MSTORE PUSH1 0xA0 PUSH1 0x80 DUP3 ADD DUP2 SWAP1 MSTORE PUSH1 0x0 SWAP1 PUSH3 0x113D SWAP1 DUP4 ADD DUP5 PUSH3 0x1092 JUMP JUMPDEST SWAP8 SWAP7 POP POP POP POP POP POP POP JUMP JUMPDEST PUSH1 0x0 PUSH1 0x20 DUP3 DUP5 SUB SLT ISZERO PUSH3 0x115B JUMPI PUSH1 0x0 DUP1 REVERT JUMPDEST DUP2 MLOAD PUSH1 0x1 PUSH1 0x1 PUSH1 0xE0 SHL SUB NOT DUP2 AND DUP2 EQ PUSH3 0xCA2 JUMPI PUSH1 0x0 DUP1 REVERT JUMPDEST PUSH1 0x0 PUSH1 0x3 RETURNDATASIZE GT ISZERO PUSH3 0x118E JUMPI PUSH1 0x4 PUSH1 0x0 DUP1 RETURNDATACOPY POP PUSH1 0x0 MLOAD PUSH1 0xE0 SHR JUMPDEST SWAP1 JUMP JUMPDEST PUSH1 0x1F DUP3 ADD PUSH1 0x1F NOT AND DUP2 ADD PUSH1 0x1 PUSH1 0x1 PUSH1 0x40 SHL SUB DUP2 GT DUP3 DUP3 LT OR ISZERO PUSH3 0x11B9 JUMPI PUSH3 0x11B9 PUSH3 0xD45 JUMP JUMPDEST PUSH1 0x40 MSTORE POP POP JUMP JUMPDEST PUSH1 0x0 PUSH1 0x44 RETURNDATASIZE LT ISZERO PUSH3 0x11CF JUMPI SWAP1 JUMP JUMPDEST PUSH1 0x40 MLOAD PUSH1 0x3 NOT RETURNDATASIZE DUP2 ADD PUSH1 0x4 DUP4 RETURNDATACOPY DUP2 MLOAD RETURNDATASIZE PUSH1 0x1 PUSH1 0x1 PUSH1 0x40 SHL SUB DUP1 DUP4 GT PUSH1 0x24 DUP5 ADD DUP4 LT OR ISZERO PUSH3 0x11FF JUMPI POP POP POP POP POP SWAP1 JUMP JUMPDEST DUP3 DUP6 ADD SWAP2 POP DUP2 MLOAD DUP2 DUP2 GT ISZERO PUSH3 0x1218 JUMPI POP POP POP POP POP POP SWAP1 JUMP JUMPDEST DUP5 RETURNDATASIZE DUP8 ADD ADD PUSH1 0x20 DUP3 DUP6 ADD ADD GT ISZERO PUSH3 0x1233 JUMPI POP POP POP POP POP POP SWAP1 JUMP JUMPDEST PUSH3 0x1244 PUSH1 0x20 DUP3 DUP7 ADD ADD DUP8 PUSH3 0x1191 JUMP JUMPDEST POP SWAP1 SWAP6 SWAP5 POP POP POP POP POP JUMP JUMPDEST PUSH1 0x0 PUSH1 0x1 DUP3 ADD PUSH3 0x1264 JUMPI PUSH3 0x1264 PUSH3 0x10D5 JUMP JUMPDEST POP PUSH1 0x1 ADD SWAP1 JUMP JUMPDEST PUSH1 0x0 PUSH3 0x1279 DUP3 DUP6 PUSH3 0xEB2 JUMP JUMPDEST DUP4 MLOAD PUSH3 0x128B DUP2 DUP4 PUSH1 0x20 DUP9 ADD PUSH3 0x106C JUMP JUMPDEST ADD SWAP5 SWAP4 POP POP POP POP JUMP JUMPDEST PUSH2 0x24B8 DUP1 PUSH3 0x12A4 PUSH1 0x0 CODECOPY PUSH1 0x0 RETURN INVALID PUSH1 0x80 PUSH1 0x40 MSTORE CALLVALUE DUP1 ISZERO PUSH2 0x10 JUMPI PUSH1 0x0 DUP1 REVERT JUMPDEST POP PUSH1 0x4 CALLDATASIZE LT PUSH2 0x14C JUMPI PUSH1 0x0 CALLDATALOAD PUSH1 0xE0 SHR DUP1 PUSH4 0x5C975ABB GT PUSH2 0xC3 JUMPI DUP1 PUSH4 0xA22CB465 GT PUSH2 0x7C JUMPI DUP1 PUSH4 0xA22CB465 EQ PUSH2 0x2D0 JUMPI DUP1 PUSH4 0xBD85B039 EQ PUSH2 0x2E3 JUMPI DUP1 PUSH4 0xE1C7392A EQ PUSH2 0x303 JUMPI DUP1 PUSH4 0xE985E9C5 EQ PUSH2 0x30B JUMPI DUP1 PUSH4 0xF242432A EQ PUSH2 0x347 JUMPI DUP1 PUSH4 0xF2FDE38B EQ PUSH2 0x35A JUMPI PUSH1 0x0 DUP1 REVERT JUMPDEST DUP1 PUSH4 0x5C975ABB EQ PUSH2 0x272 JUMPI DUP1 PUSH4 0x715018A6 EQ PUSH2 0x27D JUMPI DUP1 PUSH4 0x862440E2 EQ PUSH2 0x285 JUMPI DUP1 PUSH4 0x8DA5CB5B EQ PUSH2 0x298 JUMPI DUP1 PUSH4 0x90ADEC6F EQ PUSH2 0x2B3 JUMPI DUP1 PUSH4 0x95D89B41 EQ PUSH2 0x2C8 JUMPI PUSH1 0x0 DUP1 REVERT JUMPDEST DUP1 PUSH4 0x162094C4 GT PUSH2 0x115 JUMPI DUP1 PUSH4 0x162094C4 EQ PUSH2 0x1D5 JUMPI DUP1 PUSH4 0x2EB2C2D6 EQ PUSH2 0x1EA JUMPI DUP1 PUSH4 0x4E1273F4 EQ PUSH2 0x1FD JUMPI DUP1 PUSH4 0x4F558E79 EQ PUSH2 0x21D JUMPI DUP1 PUSH4 0x4F57641C EQ PUSH2 0x23F JUMPI DUP1 PUSH4 0x55F804B3 EQ PUSH2 0x25F JUMPI PUSH1 0x0 DUP1 REVERT JUMPDEST DUP1 PUSH3 0xFDD58E EQ PUSH2 0x151 JUMPI DUP1 PUSH4 0x1FFC9A7 EQ PUSH2 0x177 JUMPI DUP1 PUSH4 0x3D0F90A EQ PUSH2 0x19A JUMPI DUP1 PUSH4 0x6FDDE03 EQ PUSH2 0x1AD JUMPI DUP1 PUSH4 0xE89341C EQ PUSH2 0x1C2 JUMPI JUMPDEST PUSH1 0x0 DUP1 REVERT JUMPDEST PUSH2 0x164 PUSH2 0x15F CALLDATASIZE PUSH1 0x4 PUSH2 0x1847 JUMP JUMPDEST PUSH2 0x36D JUMP JUMPDEST PUSH1 0x40 MLOAD SWAP1 DUP2 MSTORE PUSH1 0x20 ADD JUMPDEST PUSH1 0x40 MLOAD DUP1 SWAP2 SUB SWAP1 RETURN JUMPDEST PUSH2 0x18A PUSH2 0x185 CALLDATASIZE PUSH1 0x4 PUSH2 0x1887 JUMP JUMPDEST PUSH2 0x406 JUMP JUMPDEST PUSH1 0x40 MLOAD SWAP1 ISZERO ISZERO DUP2 MSTORE PUSH1 0x20 ADD PUSH2 0x16E JUMP JUMPDEST PUSH2 0x164 PUSH2 0x1A8 CALLDATASIZE PUSH1 0x4 PUSH2 0x195B JUMP JUMPDEST PUSH2 0x456 JUMP JUMPDEST PUSH2 0x1B5 PUSH2 0x57B JUMP JUMPDEST PUSH1 0x40 MLOAD PUSH2 0x16E SWAP2 SWAP1 PUSH2 0x1A02 JUMP JUMPDEST PUSH2 0x1B5 PUSH2 0x1D0 CALLDATASIZE PUSH1 0x4 PUSH2 0x1A15 JUMP JUMPDEST PUSH2 0x609 JUMP JUMPDEST PUSH2 0x1E8 PUSH2 0x1E3 CALLDATASIZE PUSH1 0x4 PUSH2 0x1A2E JUMP JUMPDEST PUSH2 0x614 JUMP JUMPDEST STOP JUMPDEST PUSH2 0x1E8 PUSH2 0x1F8 CALLDATASIZE PUSH1 0x4 PUSH2 0x1B0A JUMP JUMPDEST PUSH2 0x62A JUMP JUMPDEST PUSH2 0x210 PUSH2 0x20B CALLDATASIZE PUSH1 0x4 PUSH2 0x1BB4 JUMP JUMPDEST PUSH2 0x676 JUMP JUMPDEST PUSH1 0x40 MLOAD PUSH2 0x16E SWAP2 SWAP1 PUSH2 0x1CB0 JUMP JUMPDEST PUSH2 0x18A PUSH2 0x22B CALLDATASIZE PUSH1 0x4 PUSH2 0x1A15 JUMP JUMPDEST PUSH1 0x0 SWAP1 DUP2 MSTORE PUSH1 0x6 PUSH1 0x20 MSTORE PUSH1 0x40 SWAP1 KECCAK256 SLOAD ISZERO ISZERO SWAP1 JUMP JUMPDEST PUSH2 0x252 PUSH2 0x24D CALLDATASIZE PUSH1 0x4 PUSH2 0x1A15 JUMP JUMPDEST PUSH2 0x7A0 JUMP JUMPDEST PUSH1 0x40 MLOAD PUSH2 0x16E SWAP2 SWAP1 PUSH2 0x1CF6 JUMP JUMPDEST PUSH2 0x1E8 PUSH2 0x26D CALLDATASIZE PUSH1 0x4 PUSH2 0x1D09 JUMP JUMPDEST PUSH2 0x89D JUMP JUMPDEST PUSH1 0x7 SLOAD PUSH1 0xFF AND PUSH2 0x18A JUMP JUMPDEST PUSH2 0x1E8 PUSH2 0x8B1 JUMP JUMPDEST PUSH2 0x1E8 PUSH2 0x293 CALLDATASIZE PUSH1 0x4 PUSH2 0x1A2E JUMP JUMPDEST PUSH2 0x8C5 JUMP JUMPDEST PUSH1 0x5 SLOAD PUSH1 0x40 MLOAD PUSH1 0x1 PUSH1 0x1 PUSH1 0xA0 SHL SUB SWAP1 SWAP2 AND DUP2 MSTORE PUSH1 0x20 ADD PUSH2 0x16E JUMP JUMPDEST PUSH2 0x2BB PUSH2 0x909 JUMP JUMPDEST PUSH1 0x40 MLOAD PUSH2 0x16E SWAP2 SWAP1 PUSH2 0x1D3E JUMP JUMPDEST PUSH2 0x1B5 PUSH2 0xA0E JUMP JUMPDEST PUSH2 0x1E8 PUSH2 0x2DE CALLDATASIZE PUSH1 0x4 PUSH2 0x1DA0 JUMP JUMPDEST PUSH2 0xA1B JUMP JUMPDEST PUSH2 0x164 PUSH2 0x2F1 CALLDATASIZE PUSH1 0x4 PUSH2 0x1A15 JUMP JUMPDEST PUSH1 0x0 SWAP1 DUP2 MSTORE PUSH1 0x6 PUSH1 0x20 MSTORE PUSH1 0x40 SWAP1 KECCAK256 SLOAD SWAP1 JUMP JUMPDEST PUSH2 0x1E8 PUSH2 0xA26 JUMP JUMPDEST PUSH2 0x18A PUSH2 0x319 CALLDATASIZE PUSH1 0x4 PUSH2 0x1DDC JUMP JUMPDEST PUSH1 0x1 PUSH1 0x1 PUSH1 0xA0 SHL SUB SWAP2 DUP3 AND PUSH1 0x0 SWAP1 DUP2 MSTORE PUSH1 0x1 PUSH1 0x20 SWAP1 DUP2 MSTORE PUSH1 0x40 DUP1 DUP4 KECCAK256 SWAP4 SWAP1 SWAP5 AND DUP3 MSTORE SWAP2 SWAP1 SWAP2 MSTORE KECCAK256 SLOAD PUSH1 0xFF AND SWAP1 JUMP JUMPDEST PUSH2 0x1E8 PUSH2 0x355 CALLDATASIZE PUSH1 0x4 PUSH2 0x1E0F JUMP JUMPDEST PUSH2 0xB12 JUMP JUMPDEST PUSH2 0x1E8 PUSH2 0x368 CALLDATASIZE PUSH1 0x4 PUSH2 0x1E74 JUMP JUMPDEST PUSH2 0xB57 JUMP JUMPDEST PUSH1 0x0 PUSH1 0x1 PUSH1 0x1 PUSH1 0xA0 SHL SUB DUP4 AND PUSH2 0x3DD JUMPI PUSH1 0x40 MLOAD PUSH3 0x461BCD PUSH1 0xE5 SHL DUP2 MSTORE PUSH1 0x20 PUSH1 0x4 DUP3 ADD MSTORE PUSH1 0x2A PUSH1 0x24 DUP3 ADD MSTORE PUSH32 0x455243313135353A2061646472657373207A65726F206973206E6F7420612076 PUSH1 0x44 DUP3 ADD MSTORE PUSH10 0x30B634B21037BBB732B9 PUSH1 0xB1 SHL PUSH1 0x64 DUP3 ADD MSTORE PUSH1 0x84 ADD JUMPDEST PUSH1 0x40 MLOAD DUP1 SWAP2 SUB SWAP1 REVERT JUMPDEST POP PUSH1 0x0 DUP2 DUP2 MSTORE PUSH1 0x20 DUP2 DUP2 MSTORE PUSH1 0x40 DUP1 DUP4 KECCAK256 PUSH1 0x1 PUSH1 0x1 PUSH1 0xA0 SHL SUB DUP7 AND DUP5 MSTORE SWAP1 SWAP2 MSTORE SWAP1 KECCAK256 SLOAD JUMPDEST SWAP3 SWAP2 POP POP JUMP JUMPDEST PUSH1 0x0 PUSH1 0x1 PUSH1 0x1 PUSH1 0xE0 SHL SUB NOT DUP3 AND PUSH4 0x6CDB3D13 PUSH1 0xE1 SHL EQ DUP1 PUSH2 0x437 JUMPI POP PUSH1 0x1 PUSH1 0x1 PUSH1 0xE0 SHL SUB NOT DUP3 AND PUSH4 0x3A24D07 PUSH1 0xE2 SHL EQ JUMPDEST DUP1 PUSH2 0x400 JUMPI POP PUSH4 0x1FFC9A7 PUSH1 0xE0 SHL PUSH1 0x1 PUSH1 0x1 PUSH1 0xE0 SHL SUB NOT DUP4 AND EQ PUSH2 0x400 JUMP JUMPDEST PUSH1 0x0 PUSH2 0x460 PUSH2 0xF23 JUMP JUMPDEST PUSH2 0x469 DUP3 PUSH2 0xBCD JUMP JUMPDEST PUSH1 0x0 PUSH2 0x474 PUSH1 0x8 SLOAD SWAP1 JUMP JUMPDEST PUSH1 0x40 DUP1 MLOAD PUSH1 0x60 DUP2 ADD DUP3 MSTORE DUP3 DUP2 MSTORE PUSH1 0x20 DUP2 ADD DUP7 DUP2 MSTORE SWAP2 DUP2 ADD DUP8 SWAP1 MSTORE PUSH1 0x13 DUP1 SLOAD PUSH1 0x1 DUP2 ADD DUP3 SSTORE PUSH1 0x0 SWAP2 SWAP1 SWAP2 MSTORE DUP2 MLOAD PUSH1 0x3 SWAP1 SWAP2 MUL PUSH32 0x66DE8FFDA797E3DE9C05E8FC57B3BF0EC28A930D40B0D285D93C06501CF6A090 DUP2 ADD SWAP2 DUP3 SSTORE SWAP3 MLOAD SWAP4 SWAP5 POP SWAP1 SWAP3 SWAP1 SWAP2 PUSH32 0x66DE8FFDA797E3DE9C05E8FC57B3BF0EC28A930D40B0D285D93C06501CF6A091 ADD SWAP1 PUSH2 0x501 SWAP1 DUP3 PUSH2 0x1F14 JUMP JUMPDEST POP PUSH1 0x40 DUP3 ADD MLOAD DUP2 PUSH1 0x2 ADD SSTORE POP POP PUSH2 0x518 DUP2 DUP5 PUSH2 0x8C5 JUMP JUMPDEST DUP3 PUSH1 0x13 DUP3 DUP2 SLOAD DUP2 LT PUSH2 0x52C JUMPI PUSH2 0x52C PUSH2 0x1FD4 JUMP JUMPDEST SWAP1 PUSH1 0x0 MSTORE PUSH1 0x20 PUSH1 0x0 KECCAK256 SWAP1 PUSH1 0x3 MUL ADD PUSH1 0x1 ADD SWAP1 DUP2 PUSH2 0x549 SWAP2 SWAP1 PUSH2 0x1F14 JUMP JUMPDEST POP PUSH2 0x565 DUP6 DUP3 DUP7 PUSH1 0x40 MLOAD DUP1 PUSH1 0x20 ADD PUSH1 0x40 MSTORE DUP1 PUSH1 0x0 DUP2 MSTORE POP PUSH2 0xF7D JUMP JUMPDEST PUSH2 0x573 PUSH1 0x8 DUP1 SLOAD PUSH1 0x1 ADD SWAP1 SSTORE JUMP JUMPDEST SWAP5 SWAP4 POP POP POP POP JUMP JUMPDEST PUSH1 0xE DUP1 SLOAD PUSH2 0x588 SWAP1 PUSH2 0x1E8F JUMP JUMPDEST DUP1 PUSH1 0x1F ADD PUSH1 0x20 DUP1 SWAP2 DIV MUL PUSH1 0x20 ADD PUSH1 0x40 MLOAD SWAP1 DUP2 ADD PUSH1 0x40 MSTORE DUP1 SWAP3 SWAP2 SWAP1 DUP2 DUP2 MSTORE PUSH1 0x20 ADD DUP3 DUP1 SLOAD PUSH2 0x5B4 SWAP1 PUSH2 0x1E8F JUMP JUMPDEST DUP1 ISZERO PUSH2 0x601 JUMPI DUP1 PUSH1 0x1F LT PUSH2 0x5D6 JUMPI PUSH2 0x100 DUP1 DUP4 SLOAD DIV MUL DUP4 MSTORE SWAP2 PUSH1 0x20 ADD SWAP2 PUSH2 0x601 JUMP JUMPDEST DUP3 ADD SWAP2 SWAP1 PUSH1 0x0 MSTORE PUSH1 0x20 PUSH1 0x0 KECCAK256 SWAP1 JUMPDEST DUP2 SLOAD DUP2 MSTORE SWAP1 PUSH1 0x1 ADD SWAP1 PUSH1 0x20 ADD DUP1 DUP4 GT PUSH2 0x5E4 JUMPI DUP3 SWAP1 SUB PUSH1 0x1F AND DUP3 ADD SWAP2 JUMPDEST POP POP POP POP POP DUP2 JUMP JUMPDEST PUSH1 0x60 PUSH2 0x400 DUP3 PUSH2 0xDAF JUMP JUMPDEST PUSH2 0x61C PUSH2 0xF23 JUMP JUMPDEST PUSH2 0x626 DUP3 DUP3 PUSH2 0x1097 JUMP JUMPDEST POP POP JUMP JUMPDEST PUSH1 0x1 PUSH1 0x1 PUSH1 0xA0 SHL SUB DUP6 AND CALLER EQ DUP1 PUSH2 0x646 JUMPI POP PUSH2 0x646 DUP6 CALLER PUSH2 0x319 JUMP JUMPDEST PUSH2 0x662 JUMPI PUSH1 0x40 MLOAD PUSH3 0x461BCD PUSH1 0xE5 SHL DUP2 MSTORE PUSH1 0x4 ADD PUSH2 0x3D4 SWAP1 PUSH2 0x1FEA JUMP JUMPDEST PUSH2 0x66F DUP6 DUP6 DUP6 DUP6 DUP6 PUSH2 0x10F4 JUMP JUMPDEST POP POP POP POP POP JUMP JUMPDEST PUSH1 0x60 DUP2 MLOAD DUP4 MLOAD EQ PUSH2 0x6DB JUMPI PUSH1 0x40 MLOAD PUSH3 0x461BCD PUSH1 0xE5 SHL DUP2 MSTORE PUSH1 0x20 PUSH1 0x4 DUP3 ADD MSTORE PUSH1 0x29 PUSH1 0x24 DUP3 ADD MSTORE PUSH32 0x455243313135353A206163636F756E747320616E6420696473206C656E677468 PUSH1 0x44 DUP3 ADD MSTORE PUSH9 0x40DAD2E6DAC2E8C6D PUSH1 0xBB SHL PUSH1 0x64 DUP3 ADD MSTORE PUSH1 0x84 ADD PUSH2 0x3D4 JUMP JUMPDEST PUSH1 0x0 DUP4 MLOAD PUSH8 0xFFFFFFFFFFFFFFFF DUP2 GT ISZERO PUSH2 0x6F7 JUMPI PUSH2 0x6F7 PUSH2 0x18A4 JUMP JUMPDEST PUSH1 0x40 MLOAD SWAP1 DUP1 DUP3 MSTORE DUP1 PUSH1 0x20 MUL PUSH1 0x20 ADD DUP3 ADD PUSH1 0x40 MSTORE DUP1 ISZERO PUSH2 0x720 JUMPI DUP2 PUSH1 0x20 ADD PUSH1 0x20 DUP3 MUL DUP1 CALLDATASIZE DUP4 CALLDATACOPY ADD SWAP1 POP JUMPDEST POP SWAP1 POP PUSH1 0x0 JUMPDEST DUP5 MLOAD DUP2 LT ISZERO PUSH2 0x798 JUMPI PUSH2 0x76B DUP6 DUP3 DUP2 MLOAD DUP2 LT PUSH2 0x744 JUMPI PUSH2 0x744 PUSH2 0x1FD4 JUMP JUMPDEST PUSH1 0x20 MUL PUSH1 0x20 ADD ADD MLOAD DUP6 DUP4 DUP2 MLOAD DUP2 LT PUSH2 0x75E JUMPI PUSH2 0x75E PUSH2 0x1FD4 JUMP JUMPDEST PUSH1 0x20 MUL PUSH1 0x20 ADD ADD MLOAD PUSH2 0x36D JUMP JUMPDEST DUP3 DUP3 DUP2 MLOAD DUP2 LT PUSH2 0x77D JUMPI PUSH2 0x77D PUSH2 0x1FD4 JUMP JUMPDEST PUSH1 0x20 SWAP1 DUP2 MUL SWAP2 SWAP1 SWAP2 ADD ADD MSTORE PUSH2 0x791 DUP2 PUSH2 0x204E JUMP JUMPDEST SWAP1 POP PUSH2 0x726 JUMP JUMPDEST POP SWAP4 SWAP3 POP POP POP JUMP JUMPDEST PUSH2 0x7C4 PUSH1 0x40 MLOAD DUP1 PUSH1 0x60 ADD PUSH1 0x40 MSTORE DUP1 PUSH1 0x0 DUP2 MSTORE PUSH1 0x20 ADD PUSH1 0x60 DUP2 MSTORE PUSH1 0x20 ADD PUSH1 0x0 DUP2 MSTORE POP SWAP1 JUMP JUMPDEST PUSH1 0x13 DUP3 DUP2 SLOAD DUP2 LT PUSH2 0x7D7 JUMPI PUSH2 0x7D7 PUSH2 0x1FD4 JUMP JUMPDEST SWAP1 PUSH1 0x0 MSTORE PUSH1 0x20 PUSH1 0x0 KECCAK256 SWAP1 PUSH1 0x3 MUL ADD PUSH1 0x40 MLOAD DUP1 PUSH1 0x60 ADD PUSH1 0x40 MSTORE SWAP1 DUP2 PUSH1 0x0 DUP3 ADD SLOAD DUP2 MSTORE PUSH1 0x20 ADD PUSH1 0x1 DUP3 ADD DUP1 SLOAD PUSH2 0x80A SWAP1 PUSH2 0x1E8F JUMP JUMPDEST DUP1 PUSH1 0x1F ADD PUSH1 0x20 DUP1 SWAP2 DIV MUL PUSH1 0x20 ADD PUSH1 0x40 MLOAD SWAP1 DUP2 ADD PUSH1 0x40 MSTORE DUP1 SWAP3 SWAP2 SWAP1 DUP2 DUP2 MSTORE PUSH1 0x20 ADD DUP3 DUP1 SLOAD PUSH2 0x836 SWAP1 PUSH2 0x1E8F JUMP JUMPDEST DUP1 ISZERO PUSH2 0x883 JUMPI DUP1 PUSH1 0x1F LT PUSH2 0x858 JUMPI PUSH2 0x100 DUP1 DUP4 SLOAD DIV MUL DUP4 MSTORE SWAP2 PUSH1 0x20 ADD SWAP2 PUSH2 0x883 JUMP JUMPDEST DUP3 ADD SWAP2 SWAP1 PUSH1 0x0 MSTORE PUSH1 0x20 PUSH1 0x0 KECCAK256 SWAP1 JUMPDEST DUP2 SLOAD DUP2 MSTORE SWAP1 PUSH1 0x1 ADD SWAP1 PUSH1 0x20 ADD DUP1 DUP4 GT PUSH2 0x866 JUMPI DUP3 SWAP1 SUB PUSH1 0x1F AND DUP3 ADD SWAP2 JUMPDEST POP POP POP POP POP DUP2 MSTORE PUSH1 0x20 ADD PUSH1 0x2 DUP3 ADD SLOAD DUP2 MSTORE POP POP SWAP1 POP SWAP2 SWAP1 POP JUMP JUMPDEST PUSH2 0x8A5 PUSH2 0xF23 JUMP JUMPDEST PUSH2 0x8AE DUP2 PUSH2 0x12D7 JUMP JUMPDEST POP JUMP JUMPDEST PUSH2 0x8B9 PUSH2 0xF23 JUMP JUMPDEST PUSH2 0x8C3 PUSH1 0x0 PUSH2 0x12E3 JUMP JUMPDEST JUMP JUMPDEST PUSH2 0x8CD PUSH2 0xF23 JUMP JUMPDEST DUP1 PUSH1 0x13 DUP4 DUP2 SLOAD DUP2 LT PUSH2 0x8E1 JUMPI PUSH2 0x8E1 PUSH2 0x1FD4 JUMP JUMPDEST SWAP1 PUSH1 0x0 MSTORE PUSH1 0x20 PUSH1 0x0 KECCAK256 SWAP1 PUSH1 0x3 MUL ADD PUSH1 0x1 ADD SWAP1 DUP2 PUSH2 0x8FE SWAP2 SWAP1 PUSH2 0x1F14 JUMP JUMPDEST POP PUSH2 0x626 DUP3 DUP3 PUSH2 0x614 JUMP JUMPDEST PUSH1 0x60 PUSH1 0x13 DUP1 SLOAD DUP1 PUSH1 0x20 MUL PUSH1 0x20 ADD PUSH1 0x40 MLOAD SWAP1 DUP2 ADD PUSH1 0x40 MSTORE DUP1 SWAP3 SWAP2 SWAP1 DUP2 DUP2 MSTORE PUSH1 0x20 ADD PUSH1 0x0 SWAP1 JUMPDEST DUP3 DUP3 LT ISZERO PUSH2 0xA05 JUMPI DUP4 DUP3 SWAP1 PUSH1 0x0 MSTORE PUSH1 0x20 PUSH1 0x0 KECCAK256 SWAP1 PUSH1 0x3 MUL ADD PUSH1 0x40 MLOAD DUP1 PUSH1 0x60 ADD PUSH1 0x40 MSTORE SWAP1 DUP2 PUSH1 0x0 DUP3 ADD SLOAD DUP2 MSTORE PUSH1 0x20 ADD PUSH1 0x1 DUP3 ADD DUP1 SLOAD PUSH2 0x96A SWAP1 PUSH2 0x1E8F JUMP JUMPDEST DUP1 PUSH1 0x1F ADD PUSH1 0x20 DUP1 SWAP2 DIV MUL PUSH1 0x20 ADD PUSH1 0x40 MLOAD SWAP1 DUP2 ADD PUSH1 0x40 MSTORE DUP1 SWAP3 SWAP2 SWAP1 DUP2 DUP2 MSTORE PUSH1 0x20 ADD DUP3 DUP1 SLOAD PUSH2 0x996 SWAP1 PUSH2 0x1E8F JUMP JUMPDEST DUP1 ISZERO PUSH2 0x9E3 JUMPI DUP1 PUSH1 0x1F LT PUSH2 0x9B8 JUMPI PUSH2 0x100 DUP1 DUP4 SLOAD DIV MUL DUP4 MSTORE SWAP2 PUSH1 0x20 ADD SWAP2 PUSH2 0x9E3 JUMP JUMPDEST DUP3 ADD SWAP2 SWAP1 PUSH1 0x0 MSTORE PUSH1 0x20 PUSH1 0x0 KECCAK256 SWAP1 JUMPDEST DUP2 SLOAD DUP2 MSTORE SWAP1 PUSH1 0x1 ADD SWAP1 PUSH1 0x20 ADD DUP1 DUP4 GT PUSH2 0x9C6 JUMPI DUP3 SWAP1 SUB PUSH1 0x1F AND DUP3 ADD SWAP2 JUMPDEST POP POP POP POP POP DUP2 MSTORE PUSH1 0x20 ADD PUSH1 0x2 DUP3 ADD SLOAD DUP2 MSTORE POP POP DUP2 MSTORE PUSH1 0x20 ADD SWAP1 PUSH1 0x1 ADD SWAP1 PUSH2 0x92D JUMP JUMPDEST POP POP POP POP SWAP1 POP SWAP1 JUMP JUMPDEST PUSH1 0xF DUP1 SLOAD PUSH2 0x588 SWAP1 PUSH2 0x1E8F JUMP JUMPDEST PUSH2 0x626 CALLER DUP4 DUP4 PUSH2 0x1335 JUMP JUMPDEST PUSH2 0xA58 CALLER PUSH1 0xC8 PUSH1 0x10 PUSH1 0x11 PUSH1 0x12 PUSH1 0x40 MLOAD PUSH1 0x20 ADD PUSH2 0xA44 SWAP4 SWAP3 SWAP2 SWAP1 PUSH2 0x20DA JUMP JUMPDEST PUSH1 0x40 MLOAD PUSH1 0x20 DUP2 DUP4 SUB SUB DUP2 MSTORE SWAP1 PUSH1 0x40 MSTORE PUSH2 0x456 JUMP JUMPDEST POP PUSH2 0xA77 CALLER PUSH1 0x8C PUSH1 0x10 PUSH1 0x11 PUSH1 0x12 PUSH1 0x40 MLOAD PUSH1 0x20 ADD PUSH2 0xA44 SWAP4 SWAP3 SWAP2 SWAP1 PUSH2 0x210D JUMP JUMPDEST POP PUSH2 0xA96 CALLER PUSH1 0x96 PUSH1 0x10 PUSH1 0x11 PUSH1 0x12 PUSH1 0x40 MLOAD PUSH1 0x20 ADD PUSH2 0xA44 SWAP4 SWAP3 SWAP2 SWAP1 PUSH2 0x2130 JUMP JUMPDEST POP PUSH2 0xAB5 CALLER PUSH1 0xB4 PUSH1 0x10 PUSH1 0x11 PUSH1 0x12 PUSH1 0x40 MLOAD PUSH1 0x20 ADD PUSH2 0xA44 SWAP4 SWAP3 SWAP2 SWAP1 PUSH2 0x2153 JUMP JUMPDEST POP PUSH2 0xAD4 CALLER PUSH1 0xA0 PUSH1 0x10 PUSH1 0x11 PUSH1 0x12 PUSH1 0x40 MLOAD PUSH1 0x20 ADD PUSH2 0xA44 SWAP4 SWAP3 SWAP2 SWAP1 PUSH2 0x2176 JUMP JUMPDEST POP PUSH2 0xAF3 CALLER PUSH1 0xFA PUSH1 0x10 PUSH1 0x11 PUSH1 0x12 PUSH1 0x40 MLOAD PUSH1 0x20 ADD PUSH2 0xA44 SWAP4 SWAP3 SWAP2 SWAP1 PUSH2 0x2199 JUMP JUMPDEST POP PUSH2 0x8AE CALLER PUSH1 0xDC PUSH1 0x10 PUSH1 0x11 PUSH1 0x12 PUSH1 0x40 MLOAD PUSH1 0x20 ADD PUSH2 0xA44 SWAP4 SWAP3 SWAP2 SWAP1 PUSH2 0x21BC JUMP JUMPDEST PUSH1 0x1 PUSH1 0x1 PUSH1 0xA0 SHL SUB DUP6 AND CALLER EQ DUP1 PUSH2 0xB2E JUMPI POP PUSH2 0xB2E DUP6 CALLER PUSH2 0x319 JUMP JUMPDEST PUSH2 0xB4A JUMPI PUSH1 0x40 MLOAD PUSH3 0x461BCD PUSH1 0xE5 SHL DUP2 MSTORE PUSH1 0x4 ADD PUSH2 0x3D4 SWAP1 PUSH2 0x1FEA JUMP JUMPDEST PUSH2 0x66F DUP6 DUP6 DUP6 DUP6 DUP6 PUSH2 0x1415 JUMP JUMPDEST PUSH2 0xB5F PUSH2 0xF23 JUMP JUMPDEST PUSH1 0x1 PUSH1 0x1 PUSH1 0xA0 SHL SUB DUP2 AND PUSH2 0xBC4 JUMPI PUSH1 0x40 MLOAD PUSH3 0x461BCD PUSH1 0xE5 SHL DUP2 MSTORE PUSH1 0x20 PUSH1 0x4 DUP3 ADD MSTORE PUSH1 0x26 PUSH1 0x24 DUP3 ADD MSTORE PUSH32 0x4F776E61626C653A206E6577206F776E657220697320746865207A65726F2061 PUSH1 0x44 DUP3 ADD MSTORE PUSH6 0x646472657373 PUSH1 0xD0 SHL PUSH1 0x64 DUP3 ADD MSTORE PUSH1 0x84 ADD PUSH2 0x3D4 JUMP JUMPDEST PUSH2 0x8AE DUP2 PUSH2 0x12E3 JUMP JUMPDEST PUSH2 0x8AE DUP2 PUSH1 0x40 MLOAD PUSH1 0x24 ADD PUSH2 0xBE1 SWAP2 SWAP1 PUSH2 0x1A02 JUMP JUMPDEST PUSH1 0x40 DUP1 MLOAD PUSH1 0x1F NOT DUP2 DUP5 SUB ADD DUP2 MSTORE SWAP2 SWAP1 MSTORE PUSH1 0x20 DUP2 ADD DUP1 MLOAD PUSH1 0x1 PUSH1 0x1 PUSH1 0xE0 SHL SUB AND PUSH4 0x104C13EB PUSH1 0xE2 SHL OR SWAP1 MSTORE PUSH2 0x154D JUMP JUMPDEST SLOAD SWAP1 JUMP JUMPDEST DUP1 SLOAD PUSH1 0x1 ADD SWAP1 SSTORE JUMP JUMPDEST PUSH1 0x1 PUSH1 0x1 PUSH1 0xA0 SHL SUB DUP6 AND PUSH2 0xCA4 JUMPI PUSH1 0x0 JUMPDEST DUP4 MLOAD DUP2 LT ISZERO PUSH2 0xCA2 JUMPI DUP3 DUP2 DUP2 MLOAD DUP2 LT PUSH2 0xC49 JUMPI PUSH2 0xC49 PUSH2 0x1FD4 JUMP JUMPDEST PUSH1 0x20 MUL PUSH1 0x20 ADD ADD MLOAD PUSH1 0x6 PUSH1 0x0 DUP7 DUP5 DUP2 MLOAD DUP2 LT PUSH2 0xC67 JUMPI PUSH2 0xC67 PUSH2 0x1FD4 JUMP JUMPDEST PUSH1 0x20 MUL PUSH1 0x20 ADD ADD MLOAD DUP2 MSTORE PUSH1 0x20 ADD SWAP1 DUP2 MSTORE PUSH1 0x20 ADD PUSH1 0x0 KECCAK256 PUSH1 0x0 DUP3 DUP3 SLOAD PUSH2 0xC8C SWAP2 SWAP1 PUSH2 0x21DF JUMP JUMPDEST SWAP1 SWAP2 SSTORE POP PUSH2 0xC9B SWAP1 POP DUP2 PUSH2 0x204E JUMP JUMPDEST SWAP1 POP PUSH2 0xC2E JUMP JUMPDEST POP JUMPDEST PUSH1 0x1 PUSH1 0x1 PUSH1 0xA0 SHL SUB DUP5 AND PUSH2 0xD98 JUMPI PUSH1 0x0 JUMPDEST DUP4 MLOAD DUP2 LT ISZERO PUSH2 0xD96 JUMPI PUSH1 0x0 DUP5 DUP3 DUP2 MLOAD DUP2 LT PUSH2 0xCD2 JUMPI PUSH2 0xCD2 PUSH2 0x1FD4 JUMP JUMPDEST PUSH1 0x20 MUL PUSH1 0x20 ADD ADD MLOAD SWAP1 POP PUSH1 0x0 DUP5 DUP4 DUP2 MLOAD DUP2 LT PUSH2 0xCF0 JUMPI PUSH2 0xCF0 PUSH2 0x1FD4 JUMP JUMPDEST PUSH1 0x20 MUL PUSH1 0x20 ADD ADD MLOAD SWAP1 POP PUSH1 0x0 PUSH1 0x6 PUSH1 0x0 DUP5 DUP2 MSTORE PUSH1 0x20 ADD SWAP1 DUP2 MSTORE PUSH1 0x20 ADD PUSH1 0x0 KECCAK256 SLOAD SWAP1 POP DUP2 DUP2 LT ISZERO PUSH2 0xD73 JUMPI PUSH1 0x40 MLOAD PUSH3 0x461BCD PUSH1 0xE5 SHL DUP2 MSTORE PUSH1 0x20 PUSH1 0x4 DUP3 ADD MSTORE PUSH1 0x28 PUSH1 0x24 DUP3 ADD MSTORE PUSH32 0x455243313135353A206275726E20616D6F756E74206578636565647320746F74 PUSH1 0x44 DUP3 ADD MSTORE PUSH8 0x616C537570706C79 PUSH1 0xC0 SHL PUSH1 0x64 DUP3 ADD MSTORE PUSH1 0x84 ADD PUSH2 0x3D4 JUMP JUMPDEST PUSH1 0x0 SWAP3 DUP4 MSTORE PUSH1 0x6 PUSH1 0x20 MSTORE PUSH1 0x40 SWAP1 SWAP3 KECCAK256 SWAP2 SUB SWAP1 SSTORE PUSH2 0xD8F DUP2 PUSH2 0x204E JUMP JUMPDEST SWAP1 POP PUSH2 0xCB5 JUMP JUMPDEST POP JUMPDEST POP POP POP POP POP POP JUMP JUMPDEST PUSH1 0x1 PUSH1 0x1 PUSH1 0xA0 SHL SUB AND EXTCODESIZE ISZERO ISZERO SWAP1 JUMP JUMPDEST PUSH1 0x0 DUP2 DUP2 MSTORE PUSH1 0x4 PUSH1 0x20 MSTORE PUSH1 0x40 DUP2 KECCAK256 DUP1 SLOAD PUSH1 0x60 SWAP3 SWAP2 SWAP1 PUSH2 0xDCD SWAP1 PUSH2 0x1E8F JUMP JUMPDEST DUP1 PUSH1 0x1F ADD PUSH1 0x20 DUP1 SWAP2 DIV MUL PUSH1 0x20 ADD PUSH1 0x40 MLOAD SWAP1 DUP2 ADD PUSH1 0x40 MSTORE DUP1 SWAP3 SWAP2 SWAP1 DUP2 DUP2 MSTORE PUSH1 0x20 ADD DUP3 DUP1 SLOAD PUSH2 0xDF9 SWAP1 PUSH2 0x1E8F JUMP JUMPDEST DUP1 ISZERO PUSH2 0xE46 JUMPI DUP1 PUSH1 0x1F LT PUSH2 0xE1B JUMPI PUSH2 0x100 DUP1 DUP4 SLOAD DIV MUL DUP4 MSTORE SWAP2 PUSH1 0x20 ADD SWAP2 PUSH2 0xE46 JUMP JUMPDEST DUP3 ADD SWAP2 SWAP1 PUSH1 0x0 MSTORE PUSH1 0x20 PUSH1 0x0 KECCAK256 SWAP1 JUMPDEST DUP2 SLOAD DUP2 MSTORE SWAP1 PUSH1 0x1 ADD SWAP1 PUSH1 0x20 ADD DUP1 DUP4 GT PUSH2 0xE29 JUMPI DUP3 SWAP1 SUB PUSH1 0x1F AND DUP3 ADD SWAP2 JUMPDEST POP POP POP POP POP SWAP1 POP PUSH1 0x0 DUP2 MLOAD GT PUSH2 0xE64 JUMPI PUSH2 0xE5F DUP4 PUSH2 0xE8F JUMP JUMPDEST PUSH2 0xE88 JUMP JUMPDEST PUSH1 0x3 DUP2 PUSH1 0x40 MLOAD PUSH1 0x20 ADD PUSH2 0xE78 SWAP3 SWAP2 SWAP1 PUSH2 0x21F2 JUMP JUMPDEST PUSH1 0x40 MLOAD PUSH1 0x20 DUP2 DUP4 SUB SUB DUP2 MSTORE SWAP1 PUSH1 0x40 MSTORE JUMPDEST SWAP4 SWAP3 POP POP POP JUMP JUMPDEST PUSH1 0x60 PUSH1 0x2 DUP1 SLOAD PUSH2 0xE9E SWAP1 PUSH2 0x1E8F JUMP JUMPDEST DUP1 PUSH1 0x1F ADD PUSH1 0x20 DUP1 SWAP2 DIV MUL PUSH1 0x20 ADD PUSH1 0x40 MLOAD SWAP1 DUP2 ADD PUSH1 0x40 MSTORE DUP1 SWAP3 SWAP2 SWAP1 DUP2 DUP2 MSTORE PUSH1 0x20 ADD DUP3 DUP1 SLOAD PUSH2 0xECA SWAP1 PUSH2 0x1E8F JUMP JUMPDEST DUP1 ISZERO PUSH2 0xF17 JUMPI DUP1 PUSH1 0x1F LT PUSH2 0xEEC JUMPI PUSH2 0x100 DUP1 DUP4 SLOAD DIV MUL DUP4 MSTORE SWAP2 PUSH1 0x20 ADD SWAP2 PUSH2 0xF17 JUMP JUMPDEST DUP3 ADD SWAP2 SWAP1 PUSH1 0x0 MSTORE PUSH1 0x20 PUSH1 0x0 KECCAK256 SWAP1 JUMPDEST DUP2 SLOAD DUP2 MSTORE SWAP1 PUSH1 0x1 ADD SWAP1 PUSH1 0x20 ADD DUP1 DUP4 GT PUSH2 0xEFA JUMPI DUP3 SWAP1 SUB PUSH1 0x1F AND DUP3 ADD SWAP2 JUMPDEST POP POP POP POP POP SWAP1 POP SWAP2 SWAP1 POP JUMP JUMPDEST PUSH1 0x5 SLOAD PUSH1 0x1 PUSH1 0x1 PUSH1 0xA0 SHL SUB AND CALLER EQ PUSH2 0x8C3 JUMPI PUSH1 0x40 MLOAD PUSH3 0x461BCD PUSH1 0xE5 SHL DUP2 MSTORE PUSH1 0x20 PUSH1 0x4 DUP3 ADD DUP2 SWAP1 MSTORE PUSH1 0x24 DUP3 ADD MSTORE PUSH32 0x4F776E61626C653A2063616C6C6572206973206E6F7420746865206F776E6572 PUSH1 0x44 DUP3 ADD MSTORE PUSH1 0x64 ADD PUSH2 0x3D4 JUMP JUMPDEST PUSH1 0x1 PUSH1 0x1 PUSH1 0xA0 SHL SUB DUP5 AND PUSH2 0xFDD JUMPI PUSH1 0x40 MLOAD PUSH3 0x461BCD PUSH1 0xE5 SHL DUP2 MSTORE PUSH1 0x20 PUSH1 0x4 DUP3 ADD MSTORE PUSH1 0x21 PUSH1 0x24 DUP3 ADD MSTORE PUSH32 0x455243313135353A206D696E7420746F20746865207A65726F20616464726573 PUSH1 0x44 DUP3 ADD MSTORE PUSH1 0x73 PUSH1 0xF8 SHL PUSH1 0x64 DUP3 ADD MSTORE PUSH1 0x84 ADD PUSH2 0x3D4 JUMP JUMPDEST CALLER PUSH1 0x0 PUSH2 0xFE9 DUP6 PUSH2 0x156E JUMP JUMPDEST SWAP1 POP PUSH1 0x0 PUSH2 0xFF6 DUP6 PUSH2 0x156E JUMP JUMPDEST SWAP1 POP PUSH2 0x1007 DUP4 PUSH1 0x0 DUP10 DUP6 DUP6 DUP10 PUSH2 0x15B9 JUMP JUMPDEST PUSH1 0x0 DUP7 DUP2 MSTORE PUSH1 0x20 DUP2 DUP2 MSTORE PUSH1 0x40 DUP1 DUP4 KECCAK256 PUSH1 0x1 PUSH1 0x1 PUSH1 0xA0 SHL SUB DUP12 AND DUP5 MSTORE SWAP1 SWAP2 MSTORE DUP2 KECCAK256 DUP1 SLOAD DUP8 SWAP3 SWAP1 PUSH2 0x1037 SWAP1 DUP5 SWAP1 PUSH2 0x21DF JUMP JUMPDEST SWAP1 SWAP2 SSTORE POP POP PUSH1 0x40 DUP1 MLOAD DUP8 DUP2 MSTORE PUSH1 0x20 DUP2 ADD DUP8 SWAP1 MSTORE PUSH1 0x1 PUSH1 0x1 PUSH1 0xA0 SHL SUB DUP1 DUP11 AND SWAP3 PUSH1 0x0 SWAP3 SWAP2 DUP8 AND SWAP2 PUSH32 0xC3D58168C5AE7397731D063D5BBF3D657854427343F4C083240F7AACAA2D0F62 SWAP2 ADD PUSH1 0x40 MLOAD DUP1 SWAP2 SUB SWAP1 LOG4 PUSH2 0xD96 DUP4 PUSH1 0x0 DUP10 DUP10 DUP10 DUP10 PUSH2 0x15CF JUMP JUMPDEST PUSH1 0x0 DUP3 DUP2 MSTORE PUSH1 0x4 PUSH1 0x20 MSTORE PUSH1 0x40 SWAP1 KECCAK256 PUSH2 0x10AF DUP3 DUP3 PUSH2 0x1F14 JUMP JUMPDEST POP DUP2 PUSH32 0x6BB7FF708619BA0610CBA295A58592E0451DEE2622938C8755667688DAF3529B PUSH2 0x10DB DUP5 PUSH2 0x609 JUMP JUMPDEST PUSH1 0x40 MLOAD PUSH2 0x10E8 SWAP2 SWAP1 PUSH2 0x1A02 JUMP JUMPDEST PUSH1 0x40 MLOAD DUP1 SWAP2 SUB SWAP1 LOG2 POP POP JUMP JUMPDEST DUP2 MLOAD DUP4 MLOAD EQ PUSH2 0x1156 JUMPI PUSH1 0x40 MLOAD PUSH3 0x461BCD PUSH1 0xE5 SHL DUP2 MSTORE PUSH1 0x20 PUSH1 0x4 DUP3 ADD MSTORE PUSH1 0x28 PUSH1 0x24 DUP3 ADD MSTORE PUSH32 0x455243313135353A2069647320616E6420616D6F756E7473206C656E67746820 PUSH1 0x44 DUP3 ADD MSTORE PUSH8 0xDAD2E6DAC2E8C6D PUSH1 0xC3 SHL PUSH1 0x64 DUP3 ADD MSTORE PUSH1 0x84 ADD PUSH2 0x3D4 JUMP JUMPDEST PUSH1 0x1 PUSH1 0x1 PUSH1 0xA0 SHL SUB DUP5 AND PUSH2 0x117C JUMPI PUSH1 0x40 MLOAD PUSH3 0x461BCD PUSH1 0xE5 SHL DUP2 MSTORE PUSH1 0x4 ADD PUSH2 0x3D4 SWAP1 PUSH2 0x2217 JUMP JUMPDEST CALLER PUSH2 0x118B DUP2 DUP8 DUP8 DUP8 DUP8 DUP8 PUSH2 0x15B9 JUMP JUMPDEST PUSH1 0x0 JUMPDEST DUP5 MLOAD DUP2 LT ISZERO PUSH2 0x1271 JUMPI PUSH1 0x0 DUP6 DUP3 DUP2 MLOAD DUP2 LT PUSH2 0x11AB JUMPI PUSH2 0x11AB PUSH2 0x1FD4 JUMP JUMPDEST PUSH1 0x20 MUL PUSH1 0x20 ADD ADD MLOAD SWAP1 POP PUSH1 0x0 DUP6 DUP4 DUP2 MLOAD DUP2 LT PUSH2 0x11C9 JUMPI PUSH2 0x11C9 PUSH2 0x1FD4 JUMP JUMPDEST PUSH1 0x20 SWAP1 DUP2 MUL SWAP2 SWAP1 SWAP2 ADD DUP2 ADD MLOAD PUSH1 0x0 DUP5 DUP2 MSTORE DUP1 DUP4 MSTORE PUSH1 0x40 DUP1 DUP3 KECCAK256 PUSH1 0x1 PUSH1 0x1 PUSH1 0xA0 SHL SUB DUP15 AND DUP4 MSTORE SWAP1 SWAP4 MSTORE SWAP2 SWAP1 SWAP2 KECCAK256 SLOAD SWAP1 SWAP2 POP DUP2 DUP2 LT ISZERO PUSH2 0x1219 JUMPI PUSH1 0x40 MLOAD PUSH3 0x461BCD PUSH1 0xE5 SHL DUP2 MSTORE PUSH1 0x4 ADD PUSH2 0x3D4 SWAP1 PUSH2 0x225C JUMP JUMPDEST PUSH1 0x0 DUP4 DUP2 MSTORE PUSH1 0x20 DUP2 DUP2 MSTORE PUSH1 0x40 DUP1 DUP4 KECCAK256 PUSH1 0x1 PUSH1 0x1 PUSH1 0xA0 SHL SUB DUP15 DUP2 AND DUP6 MSTORE SWAP3 MSTORE DUP1 DUP4 KECCAK256 DUP6 DUP6 SUB SWAP1 SSTORE SWAP1 DUP12 AND DUP3 MSTORE DUP2 KECCAK256 DUP1 SLOAD DUP5 SWAP3 SWAP1 PUSH2 0x1256 SWAP1 DUP5 SWAP1 PUSH2 0x21DF JUMP JUMPDEST SWAP3 POP POP DUP2 SWAP1 SSTORE POP POP POP POP DUP1 PUSH2 0x126A SWAP1 PUSH2 0x204E JUMP JUMPDEST SWAP1 POP PUSH2 0x118E JUMP JUMPDEST POP DUP5 PUSH1 0x1 PUSH1 0x1 PUSH1 0xA0 SHL SUB AND DUP7 PUSH1 0x1 PUSH1 0x1 PUSH1 0xA0 SHL SUB AND DUP3 PUSH1 0x1 PUSH1 0x1 PUSH1 0xA0 SHL SUB AND PUSH32 0x4A39DC06D4C0DBC64B70AF90FD698A233A518AA5D07E595D983B8C0526C8F7FB DUP8 DUP8 PUSH1 0x40 MLOAD PUSH2 0x12C1 SWAP3 SWAP2 SWAP1 PUSH2 0x22A6 JUMP JUMPDEST PUSH1 0x40 MLOAD DUP1 SWAP2 SUB SWAP1 LOG4 PUSH2 0xD98 DUP2 DUP8 DUP8 DUP8 DUP8 DUP8 PUSH2 0x172A JUMP JUMPDEST PUSH1 0x3 PUSH2 0x626 DUP3 DUP3 PUSH2 0x1F14 JUMP JUMPDEST PUSH1 0x5 DUP1 SLOAD PUSH1 0x1 PUSH1 0x1 PUSH1 0xA0 SHL SUB DUP4 DUP2 AND PUSH1 0x1 PUSH1 0x1 PUSH1 0xA0 SHL SUB NOT DUP4 AND DUP2 OR SWAP1 SWAP4 SSTORE PUSH1 0x40 MLOAD SWAP2 AND SWAP2 SWAP1 DUP3 SWAP1 PUSH32 0x8BE0079C531659141344CD1FD0A4F28419497F9722A3DAAFE3B4186F6B6457E0 SWAP1 PUSH1 0x0 SWAP1 LOG3 POP POP JUMP JUMPDEST DUP2 PUSH1 0x1 PUSH1 0x1 PUSH1 0xA0 SHL SUB AND DUP4 PUSH1 0x1 PUSH1 0x1 PUSH1 0xA0 SHL SUB AND SUB PUSH2 0x13A8 JUMPI PUSH1 0x40 MLOAD PUSH3 0x461BCD PUSH1 0xE5 SHL DUP2 MSTORE PUSH1 0x20 PUSH1 0x4 DUP3 ADD MSTORE PUSH1 0x29 PUSH1 0x24 DUP3 ADD MSTORE PUSH32 0x455243313135353A2073657474696E6720617070726F76616C20737461747573 PUSH1 0x44 DUP3 ADD MSTORE PUSH9 0x103337B91039B2B633 PUSH1 0xB9 SHL PUSH1 0x64 DUP3 ADD MSTORE PUSH1 0x84 ADD PUSH2 0x3D4 JUMP JUMPDEST PUSH1 0x1 PUSH1 0x1 PUSH1 0xA0 SHL SUB DUP4 DUP2 AND PUSH1 0x0 DUP2 DUP2 MSTORE PUSH1 0x1 PUSH1 0x20 SWAP1 DUP2 MSTORE PUSH1 0x40 DUP1 DUP4 KECCAK256 SWAP5 DUP8 AND DUP1 DUP5 MSTORE SWAP5 DUP3 MSTORE SWAP2 DUP3 SWAP1 KECCAK256 DUP1 SLOAD PUSH1 0xFF NOT AND DUP7 ISZERO ISZERO SWAP1 DUP2 OR SWAP1 SWAP2 SSTORE SWAP2 MLOAD SWAP2 DUP3 MSTORE PUSH32 0x17307EAB39AB6107E8899845AD3D59BD9653F200F220920489CA2B5937696C31 SWAP2 ADD PUSH1 0x40 MLOAD DUP1 SWAP2 SUB SWAP1 LOG3 POP POP POP JUMP JUMPDEST PUSH1 0x1 PUSH1 0x1 PUSH1 0xA0 SHL SUB DUP5 AND PUSH2 0x143B JUMPI PUSH1 0x40 MLOAD PUSH3 0x461BCD PUSH1 0xE5 SHL DUP2 MSTORE PUSH1 0x4 ADD PUSH2 0x3D4 SWAP1 PUSH2 0x2217 JUMP JUMPDEST CALLER PUSH1 0x0 PUSH2 0x1447 DUP6 PUSH2 0x156E JUMP JUMPDEST SWAP1 POP PUSH1 0x0 PUSH2 0x1454 DUP6 PUSH2 0x156E JUMP JUMPDEST SWAP1 POP PUSH2 0x1464 DUP4 DUP10 DUP10 DUP6 DUP6 DUP10 PUSH2 0x15B9 JUMP JUMPDEST PUSH1 0x0 DUP7 DUP2 MSTORE PUSH1 0x20 DUP2 DUP2 MSTORE PUSH1 0x40 DUP1 DUP4 KECCAK256 PUSH1 0x1 PUSH1 0x1 PUSH1 0xA0 SHL SUB DUP13 AND DUP5 MSTORE SWAP1 SWAP2 MSTORE SWAP1 KECCAK256 SLOAD DUP6 DUP2 LT ISZERO PUSH2 0x14A5 JUMPI PUSH1 0x40 MLOAD PUSH3 0x461BCD PUSH1 0xE5 SHL DUP2 MSTORE PUSH1 0x4 ADD PUSH2 0x3D4 SWAP1 PUSH2 0x225C JUMP JUMPDEST PUSH1 0x0 DUP8 DUP2 MSTORE PUSH1 0x20 DUP2 DUP2 MSTORE PUSH1 0x40 DUP1 DUP4 KECCAK256 PUSH1 0x1 PUSH1 0x1 PUSH1 0xA0 SHL SUB DUP14 DUP2 AND DUP6 MSTORE SWAP3 MSTORE DUP1 DUP4 KECCAK256 DUP10 DUP6 SUB SWAP1 SSTORE SWAP1 DUP11 AND DUP3 MSTORE DUP2 KECCAK256 DUP1 SLOAD DUP9 SWAP3 SWAP1 PUSH2 0x14E2 SWAP1 DUP5 SWAP1 PUSH2 0x21DF JUMP JUMPDEST SWAP1 SWAP2 SSTORE POP POP PUSH1 0x40 DUP1 MLOAD DUP9 DUP2 MSTORE PUSH1 0x20 DUP2 ADD DUP9 SWAP1 MSTORE PUSH1 0x1 PUSH1 0x1 PUSH1 0xA0 SHL SUB DUP1 DUP12 AND SWAP3 DUP13 DUP3 AND SWAP3 SWAP2 DUP9 AND SWAP2 PUSH32 0xC3D58168C5AE7397731D063D5BBF3D657854427343F4C083240F7AACAA2D0F62 SWAP2 ADD PUSH1 0x40 MLOAD DUP1 SWAP2 SUB SWAP1 LOG4 PUSH2 0x1542 DUP5 DUP11 DUP11 DUP11 DUP11 DUP11 PUSH2 0x15CF JUMP JUMPDEST POP POP POP POP POP POP POP POP POP JUMP JUMPDEST DUP1 MLOAD PUSH11 0x636F6E736F6C652E6C6F67 PUSH1 0x20 DUP4 ADD PUSH1 0x0 DUP1 DUP5 DUP4 DUP6 GAS STATICCALL POP POP POP POP POP JUMP JUMPDEST PUSH1 0x40 DUP1 MLOAD PUSH1 0x1 DUP1 DUP3 MSTORE DUP2 DUP4 ADD SWAP1 SWAP3 MSTORE PUSH1 0x60 SWAP2 PUSH1 0x0 SWAP2 SWAP1 PUSH1 0x20 DUP1 DUP4 ADD SWAP1 DUP1 CALLDATASIZE DUP4 CALLDATACOPY ADD SWAP1 POP POP SWAP1 POP DUP3 DUP2 PUSH1 0x0 DUP2 MLOAD DUP2 LT PUSH2 0x15A8 JUMPI PUSH2 0x15A8 PUSH2 0x1FD4 JUMP JUMPDEST PUSH1 0x20 SWAP1 DUP2 MUL SWAP2 SWAP1 SWAP2 ADD ADD MSTORE SWAP3 SWAP2 POP POP JUMP JUMPDEST PUSH2 0x15C1 PUSH2 0x17E5 JUMP JUMPDEST PUSH2 0xD98 DUP7 DUP7 DUP7 DUP7 DUP7 DUP7 PUSH2 0xC1D JUMP JUMPDEST PUSH1 0x1 PUSH1 0x1 PUSH1 0xA0 SHL SUB DUP5 AND EXTCODESIZE ISZERO PUSH2 0xD98 JUMPI PUSH1 0x40 MLOAD PUSH4 0xF23A6E61 PUSH1 0xE0 SHL DUP2 MSTORE PUSH1 0x1 PUSH1 0x1 PUSH1 0xA0 SHL SUB DUP6 AND SWAP1 PUSH4 0xF23A6E61 SWAP1 PUSH2 0x1613 SWAP1 DUP10 SWAP1 DUP10 SWAP1 DUP9 SWAP1 DUP9 SWAP1 DUP9 SWAP1 PUSH1 0x4 ADD PUSH2 0x22D4 JUMP JUMPDEST PUSH1 0x20 PUSH1 0x40 MLOAD DUP1 DUP4 SUB DUP2 PUSH1 0x0 DUP8 GAS CALL SWAP3 POP POP POP DUP1 ISZERO PUSH2 0x164E JUMPI POP PUSH1 0x40 DUP1 MLOAD PUSH1 0x1F RETURNDATASIZE SWAP1 DUP2 ADD PUSH1 0x1F NOT AND DUP3 ADD SWAP1 SWAP3 MSTORE PUSH2 0x164B SWAP2 DUP2 ADD SWAP1 PUSH2 0x2319 JUMP JUMPDEST PUSH1 0x1 JUMPDEST PUSH2 0x16FA JUMPI PUSH2 0x165A PUSH2 0x2336 JUMP JUMPDEST DUP1 PUSH4 0x8C379A0 SUB PUSH2 0x1693 JUMPI POP PUSH2 0x166E PUSH2 0x2352 JUMP JUMPDEST DUP1 PUSH2 0x1679 JUMPI POP PUSH2 0x1695 JUMP JUMPDEST DUP1 PUSH1 0x40 MLOAD PUSH3 0x461BCD PUSH1 0xE5 SHL DUP2 MSTORE PUSH1 0x4 ADD PUSH2 0x3D4 SWAP2 SWAP1 PUSH2 0x1A02 JUMP JUMPDEST POP JUMPDEST PUSH1 0x40 MLOAD PUSH3 0x461BCD PUSH1 0xE5 SHL DUP2 MSTORE PUSH1 0x20 PUSH1 0x4 DUP3 ADD MSTORE PUSH1 0x34 PUSH1 0x24 DUP3 ADD MSTORE PUSH32 0x455243313135353A207472616E7366657220746F206E6F6E2D45524331313535 PUSH1 0x44 DUP3 ADD MSTORE PUSH20 0x2932B1B2B4BB32B91034B6B83632B6B2B73A32B9 PUSH1 0x61 SHL PUSH1 0x64 DUP3 ADD MSTORE PUSH1 0x84 ADD PUSH2 0x3D4 JUMP JUMPDEST PUSH1 0x1 PUSH1 0x1 PUSH1 0xE0 SHL SUB NOT DUP2 AND PUSH4 0xF23A6E61 PUSH1 0xE0 SHL EQ PUSH2 0xD96 JUMPI PUSH1 0x40 MLOAD PUSH3 0x461BCD PUSH1 0xE5 SHL DUP2 MSTORE PUSH1 0x4 ADD PUSH2 0x3D4 SWAP1 PUSH2 0x23DC JUMP JUMPDEST PUSH1 0x1 PUSH1 0x1 PUSH1 0xA0 SHL SUB DUP5 AND EXTCODESIZE ISZERO PUSH2 0xD98 JUMPI PUSH1 0x40 MLOAD PUSH4 0xBC197C81 PUSH1 0xE0 SHL DUP2 MSTORE PUSH1 0x1 PUSH1 0x1 PUSH1 0xA0 SHL SUB DUP6 AND SWAP1 PUSH4 0xBC197C81 SWAP1 PUSH2 0x176E SWAP1 DUP10 SWAP1 DUP10 SWAP1 DUP9 SWAP1 DUP9 SWAP1 DUP9 SWAP1 PUSH1 0x4 ADD PUSH2 0x2424 JUMP JUMPDEST PUSH1 0x20 PUSH1 0x40 MLOAD DUP1 DUP4 SUB DUP2 PUSH1 0x0 DUP8 GAS CALL SWAP3 POP POP POP DUP1 ISZERO PUSH2 0x17A9 JUMPI POP PUSH1 0x40 DUP1 MLOAD PUSH1 0x1F RETURNDATASIZE SWAP1 DUP2 ADD PUSH1 0x1F NOT AND DUP3 ADD SWAP1 SWAP3 MSTORE PUSH2 0x17A6 SWAP2 DUP2 ADD SWAP1 PUSH2 0x2319 JUMP JUMPDEST PUSH1 0x1 JUMPDEST PUSH2 0x17B5 JUMPI PUSH2 0x165A PUSH2 0x2336 JUMP JUMPDEST PUSH1 0x1 PUSH1 0x1 PUSH1 0xE0 SHL SUB NOT DUP2 AND PUSH4 0xBC197C81 PUSH1 0xE0 SHL EQ PUSH2 0xD96 JUMPI PUSH1 0x40 MLOAD PUSH3 0x461BCD PUSH1 0xE5 SHL DUP2 MSTORE PUSH1 0x4 ADD PUSH2 0x3D4 SWAP1 PUSH2 0x23DC JUMP JUMPDEST PUSH1 0x7 SLOAD PUSH1 0xFF AND ISZERO PUSH2 0x8C3 JUMPI PUSH1 0x40 MLOAD PUSH3 0x461BCD PUSH1 0xE5 SHL DUP2 MSTORE PUSH1 0x20 PUSH1 0x4 DUP3 ADD MSTORE PUSH1 0x10 PUSH1 0x24 DUP3 ADD MSTORE PUSH16 0x14185D5CD8589B194E881C185D5CD959 PUSH1 0x82 SHL PUSH1 0x44 DUP3 ADD MSTORE PUSH1 0x64 ADD PUSH2 0x3D4 JUMP JUMPDEST DUP1 CALLDATALOAD PUSH1 0x1 PUSH1 0x1 PUSH1 0xA0 SHL SUB DUP2 AND DUP2 EQ PUSH2 0x1842 JUMPI PUSH1 0x0 DUP1 REVERT JUMPDEST SWAP2 SWAP1 POP JUMP JUMPDEST PUSH1 0x0 DUP1 PUSH1 0x40 DUP4 DUP6 SUB SLT ISZERO PUSH2 0x185A JUMPI PUSH1 0x0 DUP1 REVERT JUMPDEST PUSH2 0x1863 DUP4 PUSH2 0x182B JUMP JUMPDEST SWAP5 PUSH1 0x20 SWAP4 SWAP1 SWAP4 ADD CALLDATALOAD SWAP4 POP POP POP JUMP JUMPDEST PUSH1 0x1 PUSH1 0x1 PUSH1 0xE0 SHL SUB NOT DUP2 AND DUP2 EQ PUSH2 0x8AE JUMPI PUSH1 0x0 DUP1 REVERT JUMPDEST PUSH1 0x0 PUSH1 0x20 DUP3 DUP5 SUB SLT ISZERO PUSH2 0x1899 JUMPI PUSH1 0x0 DUP1 REVERT JUMPDEST DUP2 CALLDATALOAD PUSH2 0xE88 DUP2 PUSH2 0x1871 JUMP JUMPDEST PUSH4 0x4E487B71 PUSH1 0xE0 SHL PUSH1 0x0 MSTORE PUSH1 0x41 PUSH1 0x4 MSTORE PUSH1 0x24 PUSH1 0x0 REVERT JUMPDEST PUSH1 0x1F DUP3 ADD PUSH1 0x1F NOT AND DUP2 ADD PUSH8 0xFFFFFFFFFFFFFFFF DUP2 GT DUP3 DUP3 LT OR ISZERO PUSH2 0x18E0 JUMPI PUSH2 0x18E0 PUSH2 0x18A4 JUMP JUMPDEST PUSH1 0x40 MSTORE POP POP JUMP JUMPDEST PUSH1 0x0 DUP3 PUSH1 0x1F DUP4 ADD SLT PUSH2 0x18F8 JUMPI PUSH1 0x0 DUP1 REVERT JUMPDEST DUP2 CALLDATALOAD PUSH8 0xFFFFFFFFFFFFFFFF DUP2 GT ISZERO PUSH2 0x1912 JUMPI PUSH2 0x1912 PUSH2 0x18A4 JUMP JUMPDEST PUSH1 0x40 MLOAD PUSH2 0x1929 PUSH1 0x1F DUP4 ADD PUSH1 0x1F NOT AND PUSH1 0x20 ADD DUP3 PUSH2 0x18BA JUMP JUMPDEST DUP2 DUP2 MSTORE DUP5 PUSH1 0x20 DUP4 DUP7 ADD ADD GT ISZERO PUSH2 0x193E JUMPI PUSH1 0x0 DUP1 REVERT JUMPDEST DUP2 PUSH1 0x20 DUP6 ADD PUSH1 0x20 DUP4 ADD CALLDATACOPY PUSH1 0x0 SWAP2 DUP2 ADD PUSH1 0x20 ADD SWAP2 SWAP1 SWAP2 MSTORE SWAP4 SWAP3 POP POP POP JUMP JUMPDEST PUSH1 0x0 DUP1 PUSH1 0x0 PUSH1 0x60 DUP5 DUP7 SUB SLT ISZERO PUSH2 0x1970 JUMPI PUSH1 0x0 DUP1 REVERT JUMPDEST PUSH2 0x1979 DUP5 PUSH2 0x182B JUMP JUMPDEST SWAP3 POP PUSH1 0x20 DUP5 ADD CALLDATALOAD SWAP2 POP PUSH1 0x40 DUP5 ADD CALLDATALOAD PUSH8 0xFFFFFFFFFFFFFFFF DUP2 GT ISZERO PUSH2 0x199C JUMPI PUSH1 0x0 DUP1 REVERT JUMPDEST PUSH2 0x19A8 DUP7 DUP3 DUP8 ADD PUSH2 0x18E7 JUMP JUMPDEST SWAP2 POP POP SWAP3 POP SWAP3 POP SWAP3 JUMP JUMPDEST PUSH1 0x0 JUMPDEST DUP4 DUP2 LT ISZERO PUSH2 0x19CD JUMPI DUP2 DUP2 ADD MLOAD DUP4 DUP3 ADD MSTORE PUSH1 0x20 ADD PUSH2 0x19B5 JUMP JUMPDEST POP POP PUSH1 0x0 SWAP2 ADD MSTORE JUMP JUMPDEST PUSH1 0x0 DUP2 MLOAD DUP1 DUP5 MSTORE PUSH2 0x19EE DUP2 PUSH1 0x20 DUP7 ADD PUSH1 0x20 DUP7 ADD PUSH2 0x19B2 JUMP JUMPDEST PUSH1 0x1F ADD PUSH1 0x1F NOT AND SWAP3 SWAP1 SWAP3 ADD PUSH1 0x20 ADD SWAP3 SWAP2 POP POP JUMP JUMPDEST PUSH1 0x20 DUP2 MSTORE PUSH1 0x0 PUSH2 0xE88 PUSH1 0x20 DUP4 ADD DUP5 PUSH2 0x19D6 JUMP JUMPDEST PUSH1 0x0 PUSH1 0x20 DUP3 DUP5 SUB SLT ISZERO PUSH2 0x1A27 JUMPI PUSH1 0x0 DUP1 REVERT JUMPDEST POP CALLDATALOAD SWAP2 SWAP1 POP JUMP JUMPDEST PUSH1 0x0 DUP1 PUSH1 0x40 DUP4 DUP6 SUB SLT ISZERO PUSH2 0x1A41 JUMPI PUSH1 0x0 DUP1 REVERT JUMPDEST DUP3 CALLDATALOAD SWAP2 POP PUSH1 0x20 DUP4 ADD CALLDATALOAD PUSH8 0xFFFFFFFFFFFFFFFF DUP2 GT ISZERO PUSH2 0x1A5F JUMPI PUSH1 0x0 DUP1 REVERT JUMPDEST PUSH2 0x1A6B DUP6 DUP3 DUP7 ADD PUSH2 0x18E7 JUMP JUMPDEST SWAP2 POP POP SWAP3 POP SWAP3 SWAP1 POP JUMP JUMPDEST PUSH1 0x0 PUSH8 0xFFFFFFFFFFFFFFFF DUP3 GT ISZERO PUSH2 0x1A8F JUMPI PUSH2 0x1A8F PUSH2 0x18A4 JUMP JUMPDEST POP PUSH1 0x5 SHL PUSH1 0x20 ADD SWAP1 JUMP JUMPDEST PUSH1 0x0 DUP3 PUSH1 0x1F DUP4 ADD SLT PUSH2 0x1AAA JUMPI PUSH1 0x0 DUP1 REVERT JUMPDEST DUP2 CALLDATALOAD PUSH1 0x20 PUSH2 0x1AB7 DUP3 PUSH2 0x1A75 JUMP JUMPDEST PUSH1 0x40 MLOAD PUSH2 0x1AC4 DUP3 DUP3 PUSH2 0x18BA JUMP JUMPDEST DUP4 DUP2 MSTORE PUSH1 0x5 SWAP4 SWAP1 SWAP4 SHL DUP6 ADD DUP3 ADD SWAP3 DUP3 DUP2 ADD SWAP2 POP DUP7 DUP5 GT ISZERO PUSH2 0x1AE4 JUMPI PUSH1 0x0 DUP1 REVERT JUMPDEST DUP3 DUP7 ADD JUMPDEST DUP5 DUP2 LT ISZERO PUSH2 0x1AFF JUMPI DUP1 CALLDATALOAD DUP4 MSTORE SWAP2 DUP4 ADD SWAP2 DUP4 ADD PUSH2 0x1AE8 JUMP JUMPDEST POP SWAP7 SWAP6 POP POP POP POP POP POP JUMP JUMPDEST PUSH1 0x0 DUP1 PUSH1 0x0 DUP1 PUSH1 0x0 PUSH1 0xA0 DUP7 DUP9 SUB SLT ISZERO PUSH2 0x1B22 JUMPI PUSH1 0x0 DUP1 REVERT JUMPDEST PUSH2 0x1B2B DUP7 PUSH2 0x182B JUMP JUMPDEST SWAP5 POP PUSH2 0x1B39 PUSH1 0x20 DUP8 ADD PUSH2 0x182B JUMP JUMPDEST SWAP4 POP PUSH1 0x40 DUP7 ADD CALLDATALOAD PUSH8 0xFFFFFFFFFFFFFFFF DUP1 DUP3 GT ISZERO PUSH2 0x1B56 JUMPI PUSH1 0x0 DUP1 REVERT JUMPDEST PUSH2 0x1B62 DUP10 DUP4 DUP11 ADD PUSH2 0x1A99 JUMP JUMPDEST SWAP5 POP PUSH1 0x60 DUP9 ADD CALLDATALOAD SWAP2 POP DUP1 DUP3 GT ISZERO PUSH2 0x1B78 JUMPI PUSH1 0x0 DUP1 REVERT JUMPDEST PUSH2 0x1B84 DUP10 DUP4 DUP11 ADD PUSH2 0x1A99 JUMP JUMPDEST SWAP4 POP PUSH1 0x80 DUP9 ADD CALLDATALOAD SWAP2 POP DUP1 DUP3 GT ISZERO PUSH2 0x1B9A JUMPI PUSH1 0x0 DUP1 REVERT JUMPDEST POP PUSH2 0x1BA7 DUP9 DUP3 DUP10 ADD PUSH2 0x18E7 JUMP JUMPDEST SWAP2 POP POP SWAP3 SWAP6 POP SWAP3 SWAP6 SWAP1 SWAP4 POP JUMP JUMPDEST PUSH1 0x0 DUP1 PUSH1 0x40 DUP4 DUP6 SUB SLT ISZERO PUSH2 0x1BC7 JUMPI PUSH1 0x0 DUP1 REVERT JUMPDEST DUP3 CALLDATALOAD PUSH8 0xFFFFFFFFFFFFFFFF DUP1 DUP3 GT ISZERO PUSH2 0x1BDF JUMPI PUSH1 0x0 DUP1 REVERT JUMPDEST DUP2 DUP6 ADD SWAP2 POP DUP6 PUSH1 0x1F DUP4 ADD SLT PUSH2 0x1BF3 JUMPI PUSH1 0x0 DUP1 REVERT JUMPDEST DUP2 CALLDATALOAD PUSH1 0x20 PUSH2 0x1C00 DUP3 PUSH2 0x1A75 JUMP JUMPDEST PUSH1 0x40 MLOAD PUSH2 0x1C0D DUP3 DUP3 PUSH2 0x18BA JUMP JUMPDEST DUP4 DUP2 MSTORE PUSH1 0x5 SWAP4 SWAP1 SWAP4 SHL DUP6 ADD DUP3 ADD SWAP3 DUP3 DUP2 ADD SWAP2 POP DUP10 DUP5 GT ISZERO PUSH2 0x1C2D JUMPI PUSH1 0x0 DUP1 REVERT JUMPDEST SWAP5 DUP3 ADD SWAP5 JUMPDEST DUP4 DUP7 LT ISZERO PUSH2 0x1C52 JUMPI PUSH2 0x1C43 DUP7 PUSH2 0x182B JUMP JUMPDEST DUP3 MSTORE SWAP5 DUP3 ADD SWAP5 SWAP1 DUP3 ADD SWAP1 PUSH2 0x1C32 JUMP JUMPDEST SWAP7 POP POP DUP7 ADD CALLDATALOAD SWAP3 POP POP DUP1 DUP3 GT ISZERO PUSH2 0x1C68 JUMPI PUSH1 0x0 DUP1 REVERT JUMPDEST POP PUSH2 0x1A6B DUP6 DUP3 DUP7 ADD PUSH2 0x1A99 JUMP JUMPDEST PUSH1 0x0 DUP2 MLOAD DUP1 DUP5 MSTORE PUSH1 0x20 DUP1 DUP6 ADD SWAP5 POP DUP1 DUP5 ADD PUSH1 0x0 JUMPDEST DUP4 DUP2 LT ISZERO PUSH2 0x1CA5 JUMPI DUP2 MLOAD DUP8 MSTORE SWAP6 DUP3 ADD SWAP6 SWAP1 DUP3 ADD SWAP1 PUSH1 0x1 ADD PUSH2 0x1C89 JUMP JUMPDEST POP SWAP5 SWAP6 SWAP5 POP POP POP POP POP JUMP JUMPDEST PUSH1 0x20 DUP2 MSTORE PUSH1 0x0 PUSH2 0xE88 PUSH1 0x20 DUP4 ADD DUP5 PUSH2 0x1C75 JUMP JUMPDEST DUP1 MLOAD DUP3 MSTORE PUSH1 0x0 PUSH1 0x20 DUP3 ADD MLOAD PUSH1 0x60 PUSH1 0x20 DUP6 ADD MSTORE PUSH2 0x1CE2 PUSH1 0x60 DUP6 ADD DUP3 PUSH2 0x19D6 JUMP JUMPDEST PUSH1 0x40 SWAP4 DUP5 ADD MLOAD SWAP5 SWAP1 SWAP4 ADD SWAP4 SWAP1 SWAP4 MSTORE POP SWAP2 SWAP1 POP JUMP JUMPDEST PUSH1 0x20 DUP2 MSTORE PUSH1 0x0 PUSH2 0xE88 PUSH1 0x20 DUP4 ADD DUP5 PUSH2 0x1CC3 JUMP JUMPDEST PUSH1 0x0 PUSH1 0x20 DUP3 DUP5 SUB SLT ISZERO PUSH2 0x1D1B JUMPI PUSH1 0x0 DUP1 REVERT JUMPDEST DUP2 CALLDATALOAD PUSH8 0xFFFFFFFFFFFFFFFF DUP2 GT ISZERO PUSH2 0x1D32 JUMPI PUSH1 0x0 DUP1 REVERT JUMPDEST PUSH2 0x573 DUP5 DUP3 DUP6 ADD PUSH2 0x18E7 JUMP JUMPDEST PUSH1 0x0 PUSH1 0x20 DUP1 DUP4 ADD DUP2 DUP5 MSTORE DUP1 DUP6 MLOAD DUP1 DUP4 MSTORE PUSH1 0x40 DUP7 ADD SWAP2 POP PUSH1 0x40 DUP2 PUSH1 0x5 SHL DUP8 ADD ADD SWAP3 POP DUP4 DUP8 ADD PUSH1 0x0 JUMPDEST DUP3 DUP2 LT ISZERO PUSH2 0x1D93 JUMPI PUSH1 0x3F NOT DUP9 DUP7 SUB ADD DUP5 MSTORE PUSH2 0x1D81 DUP6 DUP4 MLOAD PUSH2 0x1CC3 JUMP JUMPDEST SWAP5 POP SWAP3 DUP6 ADD SWAP3 SWAP1 DUP6 ADD SWAP1 PUSH1 0x1 ADD PUSH2 0x1D65 JUMP JUMPDEST POP SWAP3 SWAP8 SWAP7 POP POP POP POP POP POP POP JUMP JUMPDEST PUSH1 0x0 DUP1 PUSH1 0x40 DUP4 DUP6 SUB SLT ISZERO PUSH2 0x1DB3 JUMPI PUSH1 0x0 DUP1 REVERT JUMPDEST PUSH2 0x1DBC DUP4 PUSH2 0x182B JUMP JUMPDEST SWAP2 POP PUSH1 0x20 DUP4 ADD CALLDATALOAD DUP1 ISZERO ISZERO DUP2 EQ PUSH2 0x1DD1 JUMPI PUSH1 0x0 DUP1 REVERT JUMPDEST DUP1 SWAP2 POP POP SWAP3 POP SWAP3 SWAP1 POP JUMP JUMPDEST PUSH1 0x0 DUP1 PUSH1 0x40 DUP4 DUP6 SUB SLT ISZERO PUSH2 0x1DEF JUMPI PUSH1 0x0 DUP1 REVERT JUMPDEST PUSH2 0x1DF8 DUP4 PUSH2 0x182B JUMP JUMPDEST SWAP2 POP PUSH2 0x1E06 PUSH1 0x20 DUP5 ADD PUSH2 0x182B JUMP JUMPDEST SWAP1 POP SWAP3 POP SWAP3 SWAP1 POP JUMP JUMPDEST PUSH1 0x0 DUP1 PUSH1 0x0 DUP1 PUSH1 0x0 PUSH1 0xA0 DUP7 DUP9 SUB SLT ISZERO PUSH2 0x1E27 JUMPI PUSH1 0x0 DUP1 REVERT JUMPDEST PUSH2 0x1E30 DUP7 PUSH2 0x182B JUMP JUMPDEST SWAP5 POP PUSH2 0x1E3E PUSH1 0x20 DUP8 ADD PUSH2 0x182B JUMP JUMPDEST SWAP4 POP PUSH1 0x40 DUP7 ADD CALLDATALOAD SWAP3 POP PUSH1 0x60 DUP7 ADD CALLDATALOAD SWAP2 POP PUSH1 0x80 DUP7 ADD CALLDATALOAD PUSH8 0xFFFFFFFFFFFFFFFF DUP2 GT ISZERO PUSH2 0x1E68 JUMPI PUSH1 0x0 DUP1 REVERT JUMPDEST PUSH2 0x1BA7 DUP9 DUP3 DUP10 ADD PUSH2 0x18E7 JUMP JUMPDEST PUSH1 0x0 PUSH1 0x20 DUP3 DUP5 SUB SLT ISZERO PUSH2 0x1E86 JUMPI PUSH1 0x0 DUP1 REVERT JUMPDEST PUSH2 0xE88 DUP3 PUSH2 0x182B JUMP JUMPDEST PUSH1 0x1 DUP2 DUP2 SHR SWAP1 DUP3 AND DUP1 PUSH2 0x1EA3 JUMPI PUSH1 0x7F DUP3 AND SWAP2 POP JUMPDEST PUSH1 0x20 DUP3 LT DUP2 SUB PUSH2 0x1EC3 JUMPI PUSH4 0x4E487B71 PUSH1 0xE0 SHL PUSH1 0x0 MSTORE PUSH1 0x22 PUSH1 0x4 MSTORE PUSH1 0x24 PUSH1 0x0 REVERT JUMPDEST POP SWAP2 SWAP1 POP JUMP JUMPDEST PUSH1 0x1F DUP3 GT ISZERO PUSH2 0x1F0F JUMPI PUSH1 0x0 DUP2 DUP2 MSTORE PUSH1 0x20 DUP2 KECCAK256 PUSH1 0x1F DUP6 ADD PUSH1 0x5 SHR DUP2 ADD PUSH1 0x20 DUP7 LT ISZERO PUSH2 0x1EF0 JUMPI POP DUP1 JUMPDEST PUSH1 0x1F DUP6 ADD PUSH1 0x5 SHR DUP3 ADD SWAP2 POP JUMPDEST DUP2 DUP2 LT ISZERO PUSH2 0xD98 JUMPI DUP3 DUP2 SSTORE PUSH1 0x1 ADD PUSH2 0x1EFC JUMP JUMPDEST POP POP POP JUMP JUMPDEST DUP2 MLOAD PUSH8 0xFFFFFFFFFFFFFFFF DUP2 GT ISZERO PUSH2 0x1F2E JUMPI PUSH2 0x1F2E PUSH2 0x18A4 JUMP JUMPDEST PUSH2 0x1F42 DUP2 PUSH2 0x1F3C DUP5 SLOAD PUSH2 0x1E8F JUMP JUMPDEST DUP5 PUSH2 0x1EC9 JUMP JUMPDEST PUSH1 0x20 DUP1 PUSH1 0x1F DUP4 GT PUSH1 0x1 DUP2 EQ PUSH2 0x1F77 JUMPI PUSH1 0x0 DUP5 ISZERO PUSH2 0x1F5F JUMPI POP DUP6 DUP4 ADD MLOAD JUMPDEST PUSH1 0x0 NOT PUSH1 0x3 DUP7 SWAP1 SHL SHR NOT AND PUSH1 0x1 DUP6 SWAP1 SHL OR DUP6 SSTORE PUSH2 0xD98 JUMP JUMPDEST PUSH1 0x0 DUP6 DUP2 MSTORE PUSH1 0x20 DUP2 KECCAK256 PUSH1 0x1F NOT DUP7 AND SWAP2 JUMPDEST DUP3 DUP2 LT ISZERO PUSH2 0x1FA6 JUMPI DUP9 DUP7 ADD MLOAD DUP3 SSTORE SWAP5 DUP5 ADD SWAP5 PUSH1 0x1 SWAP1 SWAP2 ADD SWAP1 DUP5 ADD PUSH2 0x1F87 JUMP JUMPDEST POP DUP6 DUP3 LT ISZERO PUSH2 0x1FC4 JUMPI DUP8 DUP6 ADD MLOAD PUSH1 0x0 NOT PUSH1 0x3 DUP9 SWAP1 SHL PUSH1 0xF8 AND SHR NOT AND DUP2 SSTORE JUMPDEST POP POP POP POP POP PUSH1 0x1 SWAP1 DUP2 SHL ADD SWAP1 SSTORE POP JUMP JUMPDEST PUSH4 0x4E487B71 PUSH1 0xE0 SHL PUSH1 0x0 MSTORE PUSH1 0x32 PUSH1 0x4 MSTORE PUSH1 0x24 PUSH1 0x0 REVERT JUMPDEST PUSH1 0x20 DUP1 DUP3 MSTORE PUSH1 0x2E SWAP1 DUP3 ADD MSTORE PUSH32 0x455243313135353A2063616C6C6572206973206E6F7420746F6B656E206F776E PUSH1 0x40 DUP3 ADD MSTORE PUSH14 0x195C881BDC88185C1C1C9BDD9959 PUSH1 0x92 SHL PUSH1 0x60 DUP3 ADD MSTORE PUSH1 0x80 ADD SWAP1 JUMP JUMPDEST PUSH4 0x4E487B71 PUSH1 0xE0 SHL PUSH1 0x0 MSTORE PUSH1 0x11 PUSH1 0x4 MSTORE PUSH1 0x24 PUSH1 0x0 REVERT JUMPDEST PUSH1 0x0 PUSH1 0x1 DUP3 ADD PUSH2 0x2060 JUMPI PUSH2 0x2060 PUSH2 0x2038 JUMP JUMPDEST POP PUSH1 0x1 ADD SWAP1 JUMP JUMPDEST PUSH1 0x0 DUP2 SLOAD PUSH2 0x2074 DUP2 PUSH2 0x1E8F JUMP JUMPDEST PUSH1 0x1 DUP3 DUP2 AND DUP1 ISZERO PUSH2 0x208C JUMPI PUSH1 0x1 DUP2 EQ PUSH2 0x20A1 JUMPI PUSH2 0x20D0 JUMP JUMPDEST PUSH1 0xFF NOT DUP5 AND DUP8 MSTORE DUP3 ISZERO ISZERO DUP4 MUL DUP8 ADD SWAP5 POP PUSH2 0x20D0 JUMP JUMPDEST DUP6 PUSH1 0x0 MSTORE PUSH1 0x20 DUP1 PUSH1 0x0 KECCAK256 PUSH1 0x0 JUMPDEST DUP6 DUP2 LT ISZERO PUSH2 0x20C7 JUMPI DUP2 SLOAD DUP11 DUP3 ADD MSTORE SWAP1 DUP5 ADD SWAP1 DUP3 ADD PUSH2 0x20AE JUMP JUMPDEST POP POP POP DUP3 DUP8 ADD SWAP5 POP JUMPDEST POP POP POP POP SWAP3 SWAP2 POP POP JUMP JUMPDEST PUSH1 0x0 PUSH2 0x20EF PUSH2 0x20E9 DUP4 DUP8 PUSH2 0x2067 JUMP JUMPDEST DUP6 PUSH2 0x2067 JUMP JUMPDEST PUSH1 0x31 PUSH1 0xF8 SHL DUP2 MSTORE PUSH2 0x2103 PUSH1 0x1 DUP3 ADD DUP6 PUSH2 0x2067 JUMP JUMPDEST SWAP7 SWAP6 POP POP POP POP POP POP JUMP JUMPDEST PUSH1 0x0 PUSH2 0x211C PUSH2 0x20E9 DUP4 DUP8 PUSH2 0x2067 JUMP JUMPDEST PUSH1 0x19 PUSH1 0xF9 SHL DUP2 MSTORE PUSH2 0x2103 PUSH1 0x1 DUP3 ADD DUP6 PUSH2 0x2067 JUMP JUMPDEST PUSH1 0x0 PUSH2 0x213F PUSH2 0x20E9 DUP4 DUP8 PUSH2 0x2067 JUMP JUMPDEST PUSH1 0x33 PUSH1 0xF8 SHL DUP2 MSTORE PUSH2 0x2103 PUSH1 0x1 DUP3 ADD DUP6 PUSH2 0x2067 JUMP JUMPDEST PUSH1 0x0 PUSH2 0x2162 PUSH2 0x20E9 DUP4 DUP8 PUSH2 0x2067 JUMP JUMPDEST PUSH1 0xD PUSH1 0xFA SHL DUP2 MSTORE PUSH2 0x2103 PUSH1 0x1 DUP3 ADD DUP6 PUSH2 0x2067 JUMP JUMPDEST PUSH1 0x0 PUSH2 0x2185 PUSH2 0x20E9 DUP4 DUP8 PUSH2 0x2067 JUMP JUMPDEST PUSH1 0x35 PUSH1 0xF8 SHL DUP2 MSTORE PUSH2 0x2103 PUSH1 0x1 DUP3 ADD DUP6 PUSH2 0x2067 JUMP JUMPDEST PUSH1 0x0 PUSH2 0x21A8 PUSH2 0x20E9 DUP4 DUP8 PUSH2 0x2067 JUMP JUMPDEST PUSH1 0x1B PUSH1 0xF9 SHL DUP2 MSTORE PUSH2 0x2103 PUSH1 0x1 DUP3 ADD DUP6 PUSH2 0x2067 JUMP JUMPDEST PUSH1 0x0 PUSH2 0x21CB PUSH2 0x20E9 DUP4 DUP8 PUSH2 0x2067 JUMP JUMPDEST PUSH1 0x37 PUSH1 0xF8 SHL DUP2 MSTORE PUSH2 0x2103 PUSH1 0x1 DUP3 ADD DUP6 PUSH2 0x2067 JUMP JUMPDEST DUP1 DUP3 ADD DUP1 DUP3 GT ISZERO PUSH2 0x400 JUMPI PUSH2 0x400 PUSH2 0x2038 JUMP JUMPDEST PUSH1 0x0 PUSH2 0x21FE DUP3 DUP6 PUSH2 0x2067 JUMP JUMPDEST DUP4 MLOAD PUSH2 0x220E DUP2 DUP4 PUSH1 0x20 DUP9 ADD PUSH2 0x19B2 JUMP JUMPDEST ADD SWAP5 SWAP4 POP POP POP POP JUMP JUMPDEST PUSH1 0x20 DUP1 DUP3 MSTORE PUSH1 0x25 SWAP1 DUP3 ADD MSTORE PUSH32 0x455243313135353A207472616E7366657220746F20746865207A65726F206164 PUSH1 0x40 DUP3 ADD MSTORE PUSH5 0x6472657373 PUSH1 0xD8 SHL PUSH1 0x60 DUP3 ADD MSTORE PUSH1 0x80 ADD SWAP1 JUMP JUMPDEST PUSH1 0x20 DUP1 DUP3 MSTORE PUSH1 0x2A SWAP1 DUP3 ADD MSTORE PUSH32 0x455243313135353A20696E73756666696369656E742062616C616E636520666F PUSH1 0x40 DUP3 ADD MSTORE PUSH10 0x39103A3930B739B332B9 PUSH1 0xB1 SHL PUSH1 0x60 DUP3 ADD MSTORE PUSH1 0x80 ADD SWAP1 JUMP JUMPDEST PUSH1 0x40 DUP2 MSTORE PUSH1 0x0 PUSH2 0x22B9 PUSH1 0x40 DUP4 ADD DUP6 PUSH2 0x1C75 JUMP JUMPDEST DUP3 DUP2 SUB PUSH1 0x20 DUP5 ADD MSTORE PUSH2 0x22CB DUP2 DUP6 PUSH2 0x1C75 JUMP JUMPDEST SWAP6 SWAP5 POP POP POP POP POP JUMP JUMPDEST PUSH1 0x1 PUSH1 0x1 PUSH1 0xA0 SHL SUB DUP7 DUP2 AND DUP3 MSTORE DUP6 AND PUSH1 0x20 DUP3 ADD MSTORE PUSH1 0x40 DUP2 ADD DUP5 SWAP1 MSTORE PUSH1 0x60 DUP2 ADD DUP4 SWAP1 MSTORE PUSH1 0xA0 PUSH1 0x80 DUP3 ADD DUP2 SWAP1 MSTORE PUSH1 0x0 SWAP1 PUSH2 0x230E SWAP1 DUP4 ADD DUP5 PUSH2 0x19D6 JUMP JUMPDEST SWAP8 SWAP7 POP POP POP POP POP POP POP JUMP JUMPDEST PUSH1 0x0 PUSH1 0x20 DUP3 DUP5 SUB SLT ISZERO PUSH2 0x232B JUMPI PUSH1 0x0 DUP1 REVERT JUMPDEST DUP2 MLOAD PUSH2 0xE88 DUP2 PUSH2 0x1871 JUMP JUMPDEST PUSH1 0x0 PUSH1 0x3 RETURNDATASIZE GT ISZERO PUSH2 0x234F JUMPI PUSH1 0x4 PUSH1 0x0 DUP1 RETURNDATACOPY POP PUSH1 0x0 MLOAD PUSH1 0xE0 SHR JUMPDEST SWAP1 JUMP JUMPDEST PUSH1 0x0 PUSH1 0x44 RETURNDATASIZE LT ISZERO PUSH2 0x2360 JUMPI SWAP1 JUMP JUMPDEST PUSH1 0x40 MLOAD PUSH1 0x3 NOT RETURNDATASIZE DUP2 ADD PUSH1 0x4 DUP4 RETURNDATACOPY DUP2 MLOAD RETURNDATASIZE PUSH8 0xFFFFFFFFFFFFFFFF DUP2 PUSH1 0x24 DUP5 ADD GT DUP2 DUP5 GT OR ISZERO PUSH2 0x2390 JUMPI POP POP POP POP POP SWAP1 JUMP JUMPDEST DUP3 DUP6 ADD SWAP2 POP DUP2 MLOAD DUP2 DUP2 GT ISZERO PUSH2 0x23A8 JUMPI POP POP POP POP POP POP SWAP1 JUMP JUMPDEST DUP5 RETURNDATASIZE DUP8 ADD ADD PUSH1 0x20 DUP3 DUP6 ADD ADD GT ISZERO PUSH2 0x23C2 JUMPI POP POP POP POP POP POP SWAP1 JUMP JUMPDEST PUSH2 0x23D1 PUSH1 0x20 DUP3 DUP7 ADD ADD DUP8 PUSH2 0x18BA JUMP JUMPDEST POP SWAP1 SWAP6 SWAP5 POP POP POP POP POP JUMP JUMPDEST PUSH1 0x20 DUP1 DUP3 MSTORE PUSH1 0x28 SWAP1 DUP3 ADD MSTORE PUSH32 0x455243313135353A204552433131353552656365697665722072656A65637465 PUSH1 0x40 DUP3 ADD MSTORE PUSH8 0x6420746F6B656E73 PUSH1 0xC0 SHL PUSH1 0x60 DUP3 ADD MSTORE PUSH1 0x80 ADD SWAP1 JUMP JUMPDEST PUSH1 0x1 PUSH1 0x1 PUSH1 0xA0 SHL SUB DUP7 DUP2 AND DUP3 MSTORE DUP6 AND PUSH1 0x20 DUP3 ADD MSTORE PUSH1 0xA0 PUSH1 0x40 DUP3 ADD DUP2 SWAP1 MSTORE PUSH1 0x0 SWAP1 PUSH2 0x2450 SWAP1 DUP4 ADD DUP7 PUSH2 0x1C75 JUMP JUMPDEST DUP3 DUP2 SUB PUSH1 0x60 DUP5 ADD MSTORE PUSH2 0x2462 DUP2 DUP7 PUSH2 0x1C75 JUMP JUMPDEST SWAP1 POP DUP3 DUP2 SUB PUSH1 0x80 DUP5 ADD MSTORE PUSH2 0x2476 DUP2 DUP6 PUSH2 0x19D6 JUMP JUMPDEST SWAP9 SWAP8 POP POP POP POP POP POP POP POP JUMP INVALID LOG2 PUSH5 0x6970667358 0x22 SLT KECCAK256 0x5C 0xC2 0xE9 0x1E MULMOD 0x4B SWAP9 SWAP9 DELEGATECALL 0xE8 PUSH5 0xC21156C5F2 0x22 0xAD CALLCODE SWAP14 0xDC SLT GT GAS 0xDD 0xEC PUSH4 0x74C70C9D DUP2 PUSH5 0x736F6C6343 STOP ADDMOD GT STOP CALLER PUSH9 0x747470733A2F2F6772 PUSH2 0x792D PUSH16 0x63636173696F6E616C2D66697265666C PUSH26 0x2D3639332E6D7970696E6174612E636C6F75642F697066732F51 PUSH14 0x504B4C72714C4851517A466E5854 PUSH5 0x37474B3545 JUMPI PUSH20 0x716B35614878646F4269396E364A6E6478325374 CALLDATASIZE PUSH21 0x2F0000000000000000000000000000000000000000 "},"methodIdentifiers":{"balanceOf(address,uint256)":"00fdd58e","balanceOfBatch(address[],uint256[])":"4e1273f4","exists(uint256)":"4f558e79","getHorse(uint256)":"4f57641c","getHorses()":"90adec6f","init()":"e1c7392a","isApprovedForAll(address,address)":"e985e9c5","mintHorse(address,uint256,string)":"03d0f90a","name()":"06fdde03","owner()":"8da5cb5b","paused()":"5c975abb","renounceOwnership()":"715018a6","safeBatchTransferFrom(address,address,uint256[],uint256[],bytes)":"2eb2c2d6","safeTransferFrom(address,address,uint256,uint256,bytes)":"f242432a","setApprovalForAll(address,bool)":"a22cb465","setBaseURI(string)":"55f804b3","setTokenURI(uint256,string)":"162094c4","setURI(uint256,string)":"862440e2","supportsInterface(bytes4)":"01ffc9a7","symbol()":"95d89b41","totalSupply(uint256)":"bd85b039","transferOwnership(address)":"f2fde38b","uri(uint256)":"0e89341c"}}}}}